:020000040800F2
:1000000058700020C5020008CD020008CF02000889
:10001000D1020008D3020008D50200080000000049
:100020000000000000000000000000002D02000899
:10003000D90200080000000071020008391E000803
:10004000DF020008DF020008DF020008DF0200080C
:10005000DF020008DF020008DF020008DF020008FC
:10006000DF020008DF020008DF020008DF020008EC
:10007000DF020008DF020008DF020008DF020008DC
:10008000DF020008DF020008DF020008DF020008CC
:10009000DF020008DF020008DF020008DF020008BC
:1000A000DF020008DF020008DF020008DF020008AC
:1000B000DF020008DF020008D91E0008DF02000886
:1000C000DF020008DF020008DF020008DF0200088C
:1000D000DF02000829270008DF020008DF0200080D
:1000E000DF020008DF020008DF0200080000000055
:1000F0000000000000000000000000000000000000
:100100000000000000000000DF020008DF0200081D
:10011000DF020008DF020008DF020008DF0200083B
:10012000DF020008DF020008DF020008DF0200082B
:10013000DF020008DF020008DF020008DF0200081B
:10014000DF020008DF020008DF020008DF0200080B
:1001500000F002F800F05AF80AA090E8000C82447F
:100160008344AAF10107DA4501D100F04FF8AFF25C
:10017000090EBAE80F0013F0010F18BFFB1A43F085
:10018000010318475C6600007C6600000A444FF0DB
:10019000000C10F8013B13F0070408BF10F8014BE6
:1001A0001D1108BF10F8015B641E05D010F8016B2B
:1001B000641E01F8016BF9D113F0080F1EBF10F88F
:1001C000014BAD1C0C1B09D16D1E58BF01F801CBB2
:1001D000FAD505E014F8016B01F8016B6D1EF9D535
:1001E0009142D6D37047000000230024002500264A
:1001F000103A28BF78C1FBD8520728BF30C148BF8A
:100200000B6070471FB51FBD10B510BD00F03DF964
:100210001146FFF7F7FF02F067FF00F05BF903B448
:10022000FFF7F2FF03BC00F063F90000224B1968EE
:100230000868B0E8F00F80F30988BFF36F8F4FF0C4
:10024000000080F311884EF00D0E70470000000092
:1002500006480068006880F3088862B661B6BFF39C
:100260004F8FBFF36F8F00DF00BF00BF08ED00E0CE
:10027000EFF30980BFF36F8F0F4B1A6820E9F00F7F
:10028000106008B54FF0A00080F31188BFF34F8FC6
:10029000BFF36F8F04F050FA4FF0000080F3118825
:1002A000BDE8084019680868B0E8F00F80F30988D5
:1002B000BFF36F8F704700BFC0020020EFF30580CF
:1002C000704700000948804709480047FEE7FEE7FD
:1002D000FEE7FEE7FEE7FEE7FEE7FEE7FEE7FEE7F6
:1002E00004480549054A064B704700006D1E00088A
:1002F00051010008586A002058700020586C0020F6
:10030000586C0020032A40F2308010F0030C00F0FB
:10031000158011F8013BBCF1020F624498BF11F83F
:1003200001CB00F8013B38BF11F8013BA2F10402F8
:1003300098BF00F801CB38BF00F8013B11F0030370
:1003400000F04A80083AC0F0088051F8043B083AAF
:1003500051F804CBA0E80810F5E7121D5CBF51F876
:10036000043B40F8043BAFF30080D20724BF11F8F0
:10037000013B11F801CB48BF11F8012B24BF00F855
:10038000013B00F801CB48BF00F8012B70474FF04C
:1003900000020429C0F0128010F0030C00F050801D
:1003A000CCF1040CBCF1020F18BF00F8012BA8BF60
:1003B00020F8022BA1EB0C0100F042B85FEAC17CEF
:1003C00024BF00F8012B00F8012B48BF00F8012BD7
:1003D000704770477047704710B5203AC0F00B80E7
:1003E000B1E81850203AA0E81850B1E81850A0E839
:1003F0001850BFF4F5AF5FEA027C24BFB1E8185093
:10040000A0E8185044BF18C918C0BDE810405FEA02
:10041000827C24BF51F8043B40F8043B08BF70477E
:10042000D20728BF31F8023B48BF11F8012B28BF83
:1004300020F8023B48BF00F8012B70474FF0000244
:1004400000B5134694469646203922BFA0E80C50CA
:10045000A0E80C50B1F12001BFF4F7AF090728BFA5
:10046000A0E80C5048BF0CC05DF804EB890028BF21
:1004700040F8042B08BF704748BF20F8022B11F04A
:10048000804F18BF00F8012B7047754600F02CF81C
:10049000AE4605006946534620F00700854618B071
:1004A00020B5FFF71DFFBDE820404FF000064FF0DC
:1004B00000074FF000084FF0000B21F00701AC4699
:1004C000ACE8C009ACE8C009ACE8C009ACE8C009B8
:1004D0008D46704710B50446AFF300802046BDE856
:1004E0001040FFF79CBE000000487047F4690020F0
:1004F00001491820ABBEFEE726000200704721B17B
:10050000826842F00102826003E0826822F0010208
:1005100082607047014600208A6802F004020AB136
:10052000012000E0002070470146C86C80B270478F
:100530000246002013680B400BB1012000E00020B0
:100540007047014600208A6802F008020AB10120C3
:1005500000E000207047000030B502460020002374
:1005600050680F4C20400D790C6844EA0524204364
:10057000506090680B4C2040D1E902542C434D79D7
:1005800044EA450420439060D06A20F470000C7C5B
:10059000641EE4B2234340EA0350D06230BD000041
:1005A000FFFEF0FFFDF7F1FFF0B504460D46002019
:1005B0000021092D11DDE068A5F10A0606EB4607CA
:1005C000072606FA07F18843A5F10A0606EB460658
:1005D00003FA06F10843E0600CE0206905EB4507EB
:1005E000072606FA07F1884305EB450603FA06F1EC
:1005F00008432061072A0FDA606B561E06EB860758
:100600001F2606FA07F18843561E06EB860605FAF2
:1006100006F10843606322E00D2A0FDA206BD61F33
:1006200006EB86071F2606FA07F18843D61F06EB5E
:10063000860605FA06F10843206310E0E06AA2F19D
:100640000D0606EB86071F2606FA07F18843A2F17E
:100650000D0606EB860605FA06F10843E062F0BDDA
:10066000816841F008018160704721B1826842F4DD
:10067000A002826003E0826822F4A00282607047D8
:10068000816841F0040181607047002101600171BF
:1006900041718160C16001210174704700210C200B
:1006A0000F4A9268C24002F0010211430D200C4A29
:1006B0009268C24002F0010241EA42010E20084A5B
:1006C0009268C24002F0010241EA82010F20044A0E
:1006D0009268C24002F0010241EAC2010846704736
:1006E000000C014010B5002302220C210A4800F042
:1006F00007FB002302220D21074800F001FB002325
:1007000002220E21044800F0FBFA002302220F21EE
:10071000014800F0F5FA10BD000C01402DE9F0474A
:100720000446204600F084F8054605F0F5FD8146B4
:10073000484605F025FC07460022054B05F040F829
:10074000054604F057FF81464846BDE8F0870000A3
:10075000000024402DE9F04704460020FFF7DEFFAB
:1007600080460120FFF7DAFF8146002549464046D2
:1007700005F06AFF824605F003FC21F000410646C1
:1007800004F038FF0546284605F0FAFB064600222D
:10079000054B05F0D5FA01D2012000E000202070C1
:1007A0004046BDE8F08700000000E03F0146012917
:1007B00002DD4FF0FF307047014830F83100FAE7B2
:1007C0000C0500200146012902DD4FF0FF30704783
:1007D000024800EBC1008088F9E700000C0500200A
:1007E0000146012902DD4FF0FF307047014830F823
:1007F0001100FAE7200000200146012902DD4FF038
:10080000FF307047024800EBC1004088F9E7000064
:100810000C0500200146012902DD4FF0FF30704732
:10082000024800EBC100C088F9E700000C05002079
:100830000146012902DD4FF0FF307047014830F8D2
:100840001100FAE71C0000202DE9F84F002468464B
:10085000FFF780FF83460021584605F089FD02D34B
:100860009DF8000010B14FF6FF7411E0584605F0F6
:1008700087FB07460022084B05F064F9054604F0A3
:10088000B9FE824603F03AFB814605F009FD0446B5
:100890002046BDE8F88F0000000024400EB502F0AD
:1008A00031F800F039F900BF10214648FFF76FFD1D
:1008B000002708224349C82000F07EF907462FB1DF
:1008C0004048008810B13F48808808B903F050FBC9
:1008D00004F0ECFB029000BF4FF4FA7102A803F0A1
:1008E000AFFD002414E00025002608E03649085D2D
:1008F00002F048F80544012003F074FD761C142E24
:10090000F4DB1420B5FBF0F0304921F81400641C2E
:10091000022CE8DB002452E02A4901EBC40189885B
:10092000284A32F83420881A05F0F6FC8246002165
:10093000504605F081FC01D1002539E0214901EB49
:10094000C401C9881F4A02EBC4025288881A05F004
:10095000E3FC83465146584605F0ACFB81461949F5
:1009600031F8340005F0F0FC4946009005F034FD04
:100970008046144901EBC401488805F0E5FC414676
:10098000019005F061FE0646104931F8140005F0AB
:10099000DBFC4946019005F01FFD8046314605F01D
:1009A0001BFB05460021284605F0E2FC00D200258D
:1009B000284605F091FC064921F81400641C022C1D
:1009C0008ADAA9E70C0500209867000820000020BB
:1009D0001C00002073B50446012C01DD00207CBD05
:1009E0000CB9C82000E0D0200646012201A93046FB
:1009F00000F028F9054625B1BDF80400024921F8A8
:100A000034002846EBE700000C05002073B50446CF
:100A1000012C01DD00207CBD0CB9CC2000E0D420ED
:100A20000646012201A9304600F00CF905462DB119
:100A3000BDF80400024901EBC40188802846EAE7BA
:100A40000C05002073B50446012C01DD00207CBD9F
:100A50000CB9CA2000E0D2200646012201A9304686
:100A600000F0F0F805462DB1BDF80400024901EB95
:100A7000C40148802846EAE70C05002073B5044607
:100A8000012C01DD00207CBD0CB9CE2000E0D62079
:100A90000646012201A9304600F0D4F805462DB1E2
:100AA000BDF80410024800EBC400C1802846EAE704
:100AB0000C05002070B54AF2010580EA010444F4F7
:100AC0007F4440F0FF0604EA060000220BE000F03D
:100AD0000103044600EBD476C6F34F0013B14AF28B
:100AE00001046040521C082AF1D370BD00BFFFF71B
:100AF000D5FD044607480078844209D04FF4FA60D7
:100B000003F070FCFFF7CAFDA04201D101490C704F
:100B1000EDE700000000002010B5012003F0DAFE30
:100B20000349086002F0E4F801200249087010BD92
:100B300028000020240000202DE9F04180460F46C7
:100B400015461B48007808B9FFF7E6FF4FF0FF3164
:100B50001848006804F04CF9012826D102F0C6F9C3
:100B6000404602F05AF806469EB102F0BFF9A120B5
:100B700002F072F9064666B1002408E002F010F9AE
:100B80003855681EA04201D002F07AF8641CAC42CD
:100B9000F4DB02F0F1F900231A4619460548006813
:100BA00003F020FF3046BDE8F0810020FBE70000A5
:100BB00024000020280000202DE9F04106460D46C3
:100BC00014462F464FF6FF7000EA4402394630467D
:100BD000FFF7B2FF80464046BDE8F0812DE9F041C5
:100BE00080460E4617461548007808B9FFF794FF6F
:100BF0000024611E1248006804F0FAF8012819D197
:100C000002F074F9404602F008F80446002504E0BA
:100C1000705D02F021F904466D1CBD4201DA002C22
:100C2000F6D102F0A9F900231A46194604480068D3
:100C300003F0D8FE2046BDE8F0810000240000202B
:100C4000280000202DE9F04106460D4614462F46A7
:100C50004FF6FF7000EA440239463046FFF7BEFF08
:100C600080464046BDE8F08101461D48814204D1DE
:100C70001C488069C0F3800070471B48814204D142
:100C800018488069C0F3C000F6E71848814204D1D3
:100C900014488069C0F30010EEE71548814204D182
:100CA00010488069C0F34010E6E71248814204D141
:100CB0000C488069C0F38010DEE70F48814204D100
:100CC00008488069C0F3C010D6E70C48814204D1BF
:100CD00004488069C0F30020CEE70020CCE7000084
:100CE0000008014000100240000C014000100140CB
:100CF0000014014000180140001C01400020014088
:100D00002DE9F04105460C46174698460F2C02D9AE
:100D10000020BDE8F0812846FFF7A6FF18B90121A1
:100D2000284600F071F8B8F1000F10D1022F05D15C
:100D3000E8680121A1408843E86008E0032F06D15C
:100D400027F00107E8680121A1400843E860082C6A
:100D500001D22E4601E0083C2E1D3068A2000F2172
:100D600091408843306048EA8700A100884031689C
:100D7000084330600120CCE7F0B50A460023002488
:100D80000021002500F00046B6F1004F02D11D4EB3
:100D9000F16901E01B4E7168C0F3034583B200F4B2
:100DA0004016B6F5401F08D121F07061154E7668E7
:100DB00026F07066134F7E6012E000F48016B6F5E0
:100DC000801F06D1032606FA05F4A14341F07061A5
:100DD00006E0460D360103FA06F6B14341F07061B4
:100DE00022B1460D360103FA06F6314300F0004603
:100DF000B6F1004F02D1034EF16101E0014E716086
:100E0000F0BD000000000140002945D0454A904255
:100E100006D1454A926942F00402434B9A6180E050
:100E2000424A904206D1404A926942F008023E4B43
:100E30009A6176E03E4A904206D13B4A926942F07E
:100E40001002394B9A616CE03A4A904206D1364A18
:100E5000926942F02002344B9A6162E0364A904235
:100E600006D1314A926942F040022F4B9A6158E014
:100E7000324A904206D12C4A926942F080022A4BB3
:100E80009A614EE02E4A90424BD1274A926942F431
:100E90008072254B9A6144E0224A904206D1224A50
:100EA000926922F00402204B9A613AE01F4A904274
:100EB00006D11D4A926922F008021B4B9A6130E06C
:100EC0001B4A904206D1184A926922F01002164B32
:100ED0009A6126E0174A904206D1134A926922F09D
:100EE0002002114B9A611CE0134A904206D10E4A2F
:100EF000926922F040020C4B9A6112E00F4A904234
:100F000006D1094A926922F08002074B9A6108E0F3
:100F10000B4A904205D1044A926922F48072024B36
:100F20009A6170470008014000100240000C014027
:100F3000001001400014014000180140001C014055
:100F400000200140014800787047000000000020A8
:100F500010B500F065FAFFF7C5FB002001490870E5
:100F600010BD0000000000200120054A9268C24028
:100F700002F0010202B900E0002001460846704775
:100F8000001001400020064A9268C24002F00102AF
:100F90000AB9012000E00020014608467047000021
:100FA000001001400B20064A9268C24002F0010284
:100FB0000AB9012000E00020014608467047000001
:100FC000000C014000F0010149B1002105E00022C0
:100FD0000A4B03EB81039A70491C0229F7DB00F0EE
:100FE000020149B1022105E00022044B03EB810319
:100FF0009A70491C0429F7DB704700001C0500208B
:1010000000F0010149B1002105E001220A4B03EB88
:1010100081039A70491C0229F7DB00F0020149B1F3
:10102000022105E00122044B03EB81039A70491C65
:101030000429F7DB704700001C05002010B50020D4
:1010400003E00021044A5170401C0428F9DB002011
:1010500000F022F910BD00001C0500202DE9F04F22
:1010600087B0064689469246B9F1010F01D10020AA
:1010700000E0022004460021304605F079F915D23F
:1010800000208DF81A0001208DF8190000208DF83D
:101090001B000A208DF81800E0B206A900F054F8F1
:1010A000611CC8B206A900F04FF842E0304604F0D7
:1010B00067FF0746204A214B04F042FE00D2204E33
:1010C000304605F0EDF80546284605F025F931468D
:1010D000009005F0AFFA019004F052FF074600229D
:1010E000184B04F02FFDCDE9020104F083FA0490BF
:1010F00002F004FF059005F0D3F883468DF81AA09E
:1011000001208DF819008DF81B00E8B28DF8180049
:10111000E0B206A900F018F800208DF81B000BF0D3
:10112000FF008DF81800611CC8B206A900F00CF889
:1011300000BF07B0BDE8F08FCDCCCCCCCCCC2340E9
:1011400066661E4100002440042805DA21B1034AE6
:1011500002EB80020B681360704700001C05002042
:1011600038B5FFF76BFF4FF4FA7003F03BF901203D
:101170008DF8030000208DF8020001208DF8010099
:101180000A208DF8000000208DF80300002404E000
:10119000E0B26946FFF7D8FF641C042CF8DB01209D
:1011A00000F07AF84FF4FA7003F01CF9092415E006
:1011B000E0B28DF8000001208DF80300002504E066
:1011C000E8B26946FFF7C0FF6D1C042DF8DB012073
:1011D00000F062F8FA2003F005F9641E002CE7DA4B
:1011E0000A208DF8000000208DF80300002404E0A0
:1011F000E0B26946FFF7A8FF641C042CF8DB01206D
:1012000000F04AF84FF4FA7003F0ECF838BD000033
:1012100010B5022300220D211E48FFF771FD0223A5
:1012200000220E211B48FFF76BFD022300220F2135
:101230001848FFF765FD0D20002121B101228240F1
:10124000144B1A6105E000F1100201239340114A8A
:10125000136100BF0E20002121B1012282400D4BFD
:101260001A6105E000F1100201239340094A13615D
:1012700000BF0F20002121B101228240054B1A61DD
:1012800005E000F1100201239340024A136100BF00
:1012900010BD0000001001402DE9F041054602F0AC
:1012A00091FF4248407B18B14048807B10B10DB996
:1012B000002408E03D48007B3D490C5C3B48C07B76
:1012C00008B144F0800426063848407A18B13748FF
:1012D000807A10B10DB9002408E03448007A34490E
:1012E0000C5C3248C07A08B144F0800446EA0446F7
:1012F0002E48407918B12D48807910B10DB90024DD
:1013000008E02A4800792A490C5C2848C07908B1CD
:1013100044F0800446EA04262448407818B1234863
:10132000807810B10DB9002408E0204800782049E9
:101330000C5C1E48C07808B144F0800426431F2787
:101340001AE00F200122BA4032400AB1012200E027
:101350000022114601F0010222B101228240154B08
:101360001A6105E000F1100201239340114A136154
:1013700000BF01F061FE7F1E002FE2DA0F20002186
:1013800021B1012282400B4B1A6105E000F11002ED
:1013900001239340074A136100BF642001F046FB1C
:1013A00001F076FE02F038FFBDE8F0811C05002058
:1013B0004E0200200010014030B50C2800DB30BD8B
:1013C000094C54F8301004EBC004A28801231BB16F
:1013D000012494400C6104E002F110040125A540B1
:1013E0000D6100BF00BFEAE73467000830B50C2884
:1013F00000DB30BD094C54F8301004EBC004A28867
:1014000000231BB1012494400C6104E002F110049C
:101410000125A5400D6100BF00BFEAE73467000861
:1014200070B500241DE0104A02EBC40291880E4AF8
:1014300052F8340002230122FFF762FC0A4B53F8F2
:10144000340003EBC403998801221AB101238B40B5
:10145000036104E001F1100301259D40056100BF17
:10146000641C0C2CDFDB70BD3467000802F032FE18
:1014700002F0EEFD00F054FC02F0DEFD00BF0120A2
:1014800002F0B0FF0B4800780028F8D00020FFF7EA
:10149000ADFF094800F042F80446002005490870F5
:1014A00014B1204600F0D0F802F0C6FD0020FFF78E
:1014B00083FFE4E7150000200C03002010B502F0C4
:1014C000C7FD01200149087010BD00001500002073
:1014D00010B504460E480078C8B900210D4800F048
:1014E00008FD00210B4800F019FD0121094800F01A
:1014F00000FD09480078FA2801DB02F0F9FC0648F3
:1015000001780078401C044A1070501C445410BDEF
:1015100015000020000800400C03002070B50546AF
:101520000DB9002070BD284601F072FD08B90020F9
:10153000F8E76C1CFFF706FD2178884201D00020F7
:10154000F0E700266078032802D0102810D107E0C9
:101550002878001FC1B2A01C00F0E2F806460DE09A
:101560002878001FC1B2A01C01F03CF9064605E036
:101570006078012101F030FE064600BF00BF0EB1C9
:101580000148CFE70020CDE70704002029B1064A33
:10159000D2690243044BDA6104E0034AD269824310
:1015A000014BDA61704700000010024029B1064A81
:1015B00092690243044B9A6104E0034A92698243B0
:1015C000014B9A6170470000001002402DE9F04184
:1015D00007460D4615B90020BDE8F081384601F0F8
:1015E0002FFB04465CB1606848B160886168884739
:1015F0000646002E02DB2E800120EDE700BF002012
:10160000EAE72DE9F04105460E46284601F018FBB1
:10161000044654B1A06838B16088A268314690474A
:1016200007463846BDE8F08100BF0020FAE730B534
:101630000546284601F004FB04461CB1A06808B129
:10164000012030BD0020FCE710B5044604B910BDF0
:1016500002F00EFA00200B4908600AE0611C094AFA
:101660001268885C02F0EEFA06480068401C0549E2
:1016700008602078034909688842EFDC02F0E2F94B
:1016800000BFE4E7180000202DE9F843804602225D
:1016900069466420FFF750FA18B94FF0FF30BDE8F3
:1016A000F883BDF8000004F04FFE0446154904F02D
:1016B0005FFE08D3BDF8000004F046FE0446124960
:1016C00004F056FF06D232200090BDF80010002032
:1016D00001F04AF8BDF8000004F036FE0B4908603E
:1016E0000846006804F04CFC06460022084B04F053
:1016F00067F8044603F07EFF04490860BDF8000067
:10170000CDE700000000A0410000C8420C0000200E
:101710000000244001460148007870470100002085
:101720002DE9F043B3B00546894615B1B9F1040F70
:1017300003D0002033B0BDE8F0832C466088000A57
:10174000A17840EA012060802088000A217840EAE0
:10175000012020806088642805DD0321084601F00F
:101760003BFD0120E6E70DF101070026B4F80080FB
:101770001AE007EB46014046FFF728FF28B902218F
:10178000032001F029FD0120D4E737F81600000AF4
:1017900017F8161040EA012027F8160008F101009A
:1017A0001FFA80F8701CC6B2208861880844404542
:1017B000DFDCA0784006000E8DF80000FFF7C2FBCA
:1017C0008046A078012101EB4000C3B26A460321A4
:1017D000404601F029FD0120ACE700002DE9FC475F
:1017E00001217948FFF7C8FA00241DE0774A02EB8F
:1017F000C4029188754A52F8340002230022FFF790
:101800007FFA724B53F8340003EBC403998801222A
:101810001AB101238B40036104E001F1100301269A
:101820009E40066100BF641C022CDFDB0023032204
:1018300001216748FFF764FA002303221946644830
:10184000FFF75EFA002303220B216248FFF758FAE4
:101850000223002207215E48FFF752FA07200021E9
:1018600021B1012282405A4B1A6105E000F11002B9
:1018700001239340564A136100BF002503226946A5
:101880006620FFF799F908B9012506E0BDF80000C8
:1018900010B1BDF8020000B901257DB34E484F4993
:1018A00008604F484F4908604F4850490860504908
:1018B0004A48006804F090FD044604F00DFD80B233
:1018C000ADF800004A494748006804F085FD044629
:1018D00004F002FD80B2ADF80200454943480068BB
:1018E00004F07AFD044604F0F7FC80B2ADF8040081
:1018F000032269466620FFF7A5F933E0FFE7BDF84C
:10190000000004F021FD044604F03AFB804600226A
:10191000384B03F055FF064603F06CFE2F49086074
:10192000BDF8020004F010FD044604F029FB8046D7
:101930000022304B03F044FF064603F05BFE2949CA
:101940000860BDF8040004F0FFFC044604F018FB36
:1019500080460022274B03F033FF064603F04AFE81
:1019600022490860012224496C20FFF725F910B1B3
:101970002148008830B90F201F49088001226C20BF
:10198000FFF760F901221D496E20FFF715F910B12C
:101990001A48008830B95A201849088001226E2060
:1019A000FFF750F9012216497020FFF705F910B131
:1019B0001348008830B91420114908800122702092
:1019C000FFF740F9BDE8FC8700023000B867000867
:1019D00000100140000C014000002041680200207E
:1019E0008FC2F53C60020020CDCC4C3E640200204A
:1019F00000007A4400408F406C0200206E020020FC
:101A00007002002010B50024012000F095F800209D
:101A100000F092F8C82002F0E5FCFFF7A5FA10B933
:101A2000FFF7B0FA08B1012419E0002000F09EF899
:101A3000C82002F0D7FCFFF797FA68B9002000F041
:101A40007BF8012000F092F8C82002F0CBFCFFF7F1
:101A500099FA20B9012402E0002000F06DF8204638
:101A600010BD000070B504464FF0FF3524B1012CC5
:101A70000CD0022C1ED113E011491248006804F06A
:101A8000ABFC064604F00CFC054616E00C490E487B
:101A9000006804F0A1FC064604F002FC05460CE0D8
:101AA00007490A48006804F097FC064604F0F8FB72
:101AB000054602E04FF0FF3500BF00BF284670BD6D
:101AC00000007A44680200206002002064020020C6
:101AD0000146014A10887047700200200146014A01
:101AE000108870476C0200200146014A1088704738
:101AF0006E02002010B50F4B1868998801221AB1A8
:101B000001238B40036104E001F1100301249C4098
:101B1000046100BF074B9868998901221AB101231B
:101B20008B40036104E001F1100301249C40046137
:101B300000BF10BDB867000830B5012800DD30BD1A
:101B4000094C54F8301004EBC004A28801231BB1E7
:101B5000012494400C6104E002F110040125A54029
:101B60000D6100BF00BFEAE7B867000830B5012883
:101B700000DD30BD094C54F8301004EBC004A288DD
:101B800000231BB1012494400C6104E002F1100415
:101B90000125A5400D6100BF00BFEAE7B867000856
:101BA00070B50025FFF72EFFB8B90120FFF7DEFF63
:101BB000002400BF4FF47A7002F014FC641CFFF79D
:101BC000E1F908B9012504E0054800888442F1DD07
:101BD00000BF00BF0120FFF7AFFF284670BD000027
:101BE000700200202DE9F35F0446022C02DD002084
:101BF000BDE8FC9F662000EB44001FFA80FA022239
:101C000001A95046FEF7EAFF8146B9F1000F3DD029
:101C100024B1012C14D0022C36D123E0BDF80400ED
:101C200004F092FB834604F0ABF907460022184B00
:101C300003F0C6FD054603F0DDFC1649086024E00C
:101C4000BDF8040004F080FB834604F099F90746D0
:101C500000220F4B03F0B4FD054603F0CBFC0E4908
:101C6000086012E0BDF8040004F06EFB834604F047
:101C700087F905460022064B03F0A2FD074603F054
:101C8000B9FC0649086000E000BF00BF4846AFE766
:101C900000408F40680200206002002064020020A3
:101CA00073B50546BDF80400052803DBBDF8040044
:101CB000782801DD00207CBD012201A97020FEF7FB
:101CC000C1FF04461CB1BDF804000249088020464B
:101CD000F1E700007002002073B50546012201A95A
:101CE0006C20FEF7AFFF04461CB1BDF804000249AA
:101CF000088020467CBD00006C02002073B50546BC
:101D0000012201A96E20FEF79DFF04461CB1BDF81B
:101D100004000249088020467CBD00006E020020BD
:101D200010B50223002208212F48FEF7E9FF082002
:101D3000002121B1012282402B4B1A6105E000F104
:101D4000100201239340284A136100BF274880698D
:101D500040F480402549886140F2413024490880A0
:101D6000081D008842F22C0108432149091D088002
:101D70001E48806940F005001C4988611A48001D12
:101D8000006820F0C0001849091D08600846006876
:101D900040F0800008600846006840F010000860CD
:101DA0000846006820F4406008600846006840F477
:101DB000806008600846006820F4407008602520B4
:101DC00000280DDB00BF00BF00F01F020121914081
:101DD0004209920002F1E022C2F8001100BF00BFE8
:101DE00000BF62B610BD00000008014000100240B4
:101DF00008380140704700002DE9F04704462046AE
:101E000004F0BEF8074600220A4B03F09BFE05468D
:101E100003F0F0FB0446204602F070F8054604F09B
:101E20005BFA1FFA80F94946002000F09DFCBDE8EE
:101E3000F08700000000244010B500BFA02080F310
:101E40001188BFF34F8FBFF36F8F00BF03F034F9DA
:101E500018B14FF080500449086000BF002080F3A3
:101E6000118800BF10BD000004ED00E010B5164859
:101E7000006840F0010014490860084640681349B2
:101E800008401149486008460068114908400E4959
:101E900008600846006820F4802008600846406812
:101EA00020F4FE0048600846006820F0A05008605A
:101EB0004FF47F0088600020C862FFF79BFF4FF05F
:101EC00000600449086010BD001002400000FFF0EF
:101ED000FFFFF6FE08ED00E010B50121024800F01A
:101EE00005F8FFF7EBFA10BD00080040CA43028274
:101EF000704721B1028842F00102028004E00288AA
:101F00004FF6FE731A40028070471AB183890B4363
:101F1000838102E083898B4383817047818470478A
:101F2000002202881D4B98420ED01D4B98420BD0C8
:101F3000B0F1804F08D01B4B984205D01A4B984205
:101F400002D01A4B984204D14FF68F731A404B8837
:101F50001A43174B984207D0164B984204D04FF6BD
:101F6000FF431A40CB881A4302808B8883850B88F5
:101F700003850A4B98420BD0094B984208D00E4B70
:101F8000984205D00D4B984202D00D4B984201D19A
:101F90000B7A03860123838270470000002C0140E6
:101FA000003401400004004000080040000C0040E4
:101FB0000010004000140040004001400044014077
:101FC000004801404FF6FF71818000210180C180EF
:101FD00041800172704700001FB500BF00BF00BF05
:101FE0004FF00009CA46CB4600250026002003908A
:101FF000029001900090002303220B214548FEF738
:102000007FFE002303220A214248FEF779FE0023C7
:1020100003220C213F48FEF773FE00BF00F064FC72
:10202000074600F053FC804600F042FC04468FB99E
:10203000B9F1000F0CD0029830B9B5F5FA7F05DA86
:1020400001203549087001E0002000900020029036
:10205000002511E0B9F1000F0ED01935B5F5966FD6
:102060000ADDB6F5966F07DD009828B901202B49E7
:102070000870029001900090B8F1000F11D1BAF1F0
:10208000000F0CD0019830B9B6F5FA7F05DA0120BF
:102090002349087001E000200090002001900026F4
:1020A00011E0BAF1000F0ED01936B5F5966F0ADDC2
:1020B000B6F5966F07DD009828B90120174908701A
:1020C00002900190009044B900200390BBF1000FF2
:1020D00018D001201349087014E01348007878B92B
:1020E000BBF1000F0CD00398193003900398B0F5A2
:1020F000966F07DD01200C4908700020039001E075
:1021000000200390C246B946A346192002F06AF99E
:1021100084E70000001001401000002012000020A1
:1021200011000020140000201300002008B5012435
:10213000FFF76EF8FFF714F800BF02F0B7FF00904A
:1021400000BF4FF4FA71684602F07AF92046FFF7B3
:10215000A3F81F49097829B91E49097811B91E4900
:10216000097809B1012100E00021084601F07CFF57
:102170001748007820B11CB10320FFF737F902E0BF
:102180000320FFF719F91348007820B11CB105208E
:10219000FFF72CF902E00520FFF70EF90E48007852
:1021A00020B11CB10420FFF721F902E00420FFF761
:1021B00003F90A48007820B11CB10220FFF716F994
:1021C00002E00220FFF7F8F884F00104B9E700000C
:1021D0000300002005000020040000200200002071
:1021E0001CB5FFF7FBFA002400250026A1464FF49A
:1021F0007A7002F0F7F8FFF7D3FC80F001005E4937
:10220000087002F053FF019000BF4FF47A6101A8FB
:1022100002F016F9B9F1000F06D05748007818B946
:10222000FFF7F0FB54490870534890F800900020E5
:10223000FFF770FA012809D00020FFF77DFC01208C
:10224000FFF794FC002600250024DEE7FEF7AAFE37
:1022500020B1002049490870002425E04748007853
:1022600010BB04F57A644648008800EB4001C1EBDE
:10227000C010B4EBC00F17DD0120404908703E4884
:10228000007888B90120FFF771FCC82002F0AAF895
:10229000FEF778FE28B1FFF783FC80F00100364995
:1022A00008700120FFF748FC6846FEF753FA3549ED
:1022B000086000213348006804F05AF802D39DF802
:1022C000000090B13048007880B906F57A662C4855
:1022D000008800EB4001C1EBC010B6EBC00F05DD7C
:1022E000012029490870002600E0002623480078D4
:1022F00078BB2548007860BB2448007848BB1E485E
:10230000007830BB4FF0814001F088FD2048016823
:102310001C48006804F098F9824603F031FE21F071
:102320000041074600221B4B03F00AFD0FD205F5C2
:102330007A651948008800EB4001C1EBC010B5EB8D
:10234000C00F17DD002501201049087012E000259C
:1023500010E0FFE70848007860B90120FFF706FCAD
:10236000C82002F03FF8FEF70DFE18B1FFF718FC89
:102370000149087049E70000030000200200002026
:102380006C0200200800002005000020040000204E
:102390000C0000200000E03F6E02002008B5022380
:1023A00000220621CF48FEF7ABFC0620002121B118
:1023B00001228240CB4B1A6105E000F1100201239B
:1023C0009340C84A136100BF0020FFF75DF9012068
:1023D000C549087000250CE00020FFF707F86420CD
:1023E00002F000F80020FEF7E7FF642001F0FAFF9A
:1023F0006D1C142DF0DB00BF322001F0F3FF01F063
:10240000D5FDBA48007840B9B948007828B9B9482C
:10241000007810B9B848007808B1012000E0002029
:102420000446B1480078012804D002287ED0032851
:102430007DD1F5E00620FEF7BFFF0720FEF7BCFFC9
:102440006846FEF787F9AD490860AB48007828B1C7
:1024500000220121AA48FEF701FE05E00022012129
:10246000A6480068FEF7FAFD00220221A548006890
:10247000FEF7F4FD4CB1002001F00CFE0120FEF748
:10248000BFFD0220FEF79EFD08E0012001F002FEE4
:102490000120FEF797FD0220FEF794FD9A48007890
:1024A00028B100F09BFA02208F49087051E097484C
:1024B000007800B300F092FA9248006803F060FDE3
:1024C0000746934A934B03F0C7F805460022924B08
:1024D00003F0FCFA3DD28B48006803F051FD07463B
:1024E0008B4A8C4B03F0B8F8054603F083F883461B
:1024F000FFF782FC2DE08948007818B300F06EFAEF
:102500008048006803F03CFD0746814A814B03F098
:102510004DFC05460022134603F012FC19D27948FF
:10252000006803F02DFD0746794A01E012E0D4E08F
:10253000784B03F03BFC054603F05CF88346FFF75D
:102540005BFC06E07648007818B100F047FA00F02E
:102550005BFAC6E0002001F09DFD0620FEF746FF75
:102560000720FEF729FF0020FEF7D8F8814601205A
:10257000FEF7D4F88246002201214846FEF76EFDA0
:10258000002202215046FEF769FD5F480078A0B3A3
:1025900000F024FA0020FEF723F985B22946002036
:1025A000FEF718FA0120FEF71BF985B22946012033
:1025B000FEF710FA0020FEF7B1F881460120FEF781
:1025C000ADF88246002201214846FEF747FD002271
:1025D00002215046FEF742FD642001F003FF032074
:1025E000FEF70EFD40F2DC5001F0FCFE0320FEF78A
:1025F000E9FC03203C49087011E0FFE743480078FC
:1026000028B100F0EBF903203749087007E045488E
:10261000007820B100F0E2F901203349087060E051
:10262000002001F037FD0720FEF7E0FE0620FEF750
:10263000C3FE0020FEF772F881460120FEF76EF817
:102640008246002201214846FEF708FD00220221B1
:102650005046FEF703FD2C480078A0B300F0BEF909
:102660000020FEF7BDF885B229460020FEF7CEF91E
:102670000120FEF7B5F885B229460120FEF7C6F91C
:102680000020FEF74BF881460120FEF747F882460E
:10269000002201214846FEF7E1FC002202215046BB
:1026A000FEF7DCFC642001F09DFE0320FEF7A8FC91
:1026B00040F2DC5001F096FE0320FEF783FC01207F
:1026C0000949087008E0FFE71648007820B100F0DB
:1026D00085F901200449087003E0012002490870CF
:1026E00000BF89E600100140010000200300002027
:1026F0000500002004000020020000200800002047
:10270000000080BF0C0000201200002010000020FC
:102710009A9999999999B93F000024401100002095
:10272000130000201400002010B50B48008840F270
:102730002551084078B10848008800F0070038B9F2
:10274000054800F00BF80446E0B2FEF7C1FE02E0D7
:10275000014800F003F810BD0038014001468888A8
:10276000C0F30800704700002DE9F3418046BDF832
:10277000040003F0E9FD0446164903F0F9FD08D30F
:10278000BDF8040003F0E0FD0446134903F0F0FE39
:1027900002D20020BDE8FC81022201A96420FEF7DC
:1027A0001DFAA8B1BDF8040003F0CEFD0B49086086
:1027B0000846006803F0E4FB06460022084B02F0DE
:1027C000FFFF044602F016FF044908600120E1E71C
:1027D0000020DFE70000A0410000C8420C000020FC
:1027E000000024402DE9F8430546884615B1B8F1AC
:1027F000070F02D20020BDE8F8832C466088000A4B
:10280000A17840EA012060802088000A217840EA0F
:10281000012020806188642906DC207900EBD071DA
:1028200049106288914205D00321102000F0D4FCA9
:102830000120E0E700260CE02188314488B2FEF751
:10284000F6FE28B90321102000F0C6FC0120D2E7D3
:10285000761C6088B042EFDC671D00260CE037F87C
:102860001620120A17F8163042EA03212288324451
:1028700090B2FEF7C6FE761C6088B042EFDC20887E
:10288000000A217840EA0120ADF800006088000AC3
:10289000A17840EA0120ADF80200FEF753FB06469E
:1028A00004236A46102100F0BFFC0120A3E70000CA
:1028B0000C2005498968C14001F0010109B90120D6
:1028C00070470020FCE70000001001400A20054985
:1028D0008968C14001F0010109B901207047002059
:1028E000FCE70000001001400B2005498968C14049
:1028F00001F0010109B9012070470020FCE7000048
:102900000010014000B585B001214802FEF74EFEDF
:102910006846FDF7BAFE002000908DF804008DF89F
:1029200005004FF4602002900020039001208DF8F4
:10293000100069461148FDF70FFE01210F48FDF711
:10294000DEFD0523012200210C48FDF72DFE0B487A
:10295000FDF786FE00BF0948FDF7F3FD0028FAD118
:102960000648FDF78DFE00BF0448FDF7D3FD0028A3
:10297000FAD103490880488005B000BD0024014019
:102980001C00002010B504460523012221460948F9
:10299000FDF70AFE01210748FDF767FE00BF02218F
:1029A0000448FDF7C5FD0028F9D00248FDF7BCFD3D
:1029B00010BD000000240140F0B505460E464FF65C
:1029C000FF77002406E0295DB8B2FEF773F80746EA
:1029D000601CC4B2B442F6DBB8B2F0BD00200549B9
:1029E00008700549087005490870054908700549CF
:1029F0000870704712000020100000201100002015
:102A0000130000201400002010B5002004490870B5
:102A1000044908700449087000F00DF810BD00006A
:102A200003000020040000200500002000E0401EFC
:102A30000028FCDA7047F8B5322700208DF8020034
:102A40008DF803000026E2E000252FE02C4601204F
:102A50008DF801000B208DF80000E8B26946FEF702
:102A600073FB00208DF80100601C0446032800DD84
:102A7000241FE0B26946FEF767FB601C044603288A
:102A800000DD241FE0B26946FEF75EFB601C0446D1
:102A9000032800DD241FE0B26946FEF755FB002045
:102AA000FEF7FAFB322001F09DFC6D1C042DCDDBFE
:102AB00001208DF801000C208DF8000069460320EC
:102AC000FEF742FB00208DF801006946FEF73CFB53
:102AD00069460120FEF738FB69460220FEF734FB09
:102AE0000020FEF7D9FB322001F07CFC01208DF89C
:102AF00001000D208DF8000069460320FEF724FB3D
:102B000000208DF801006946FEF71EFB6946012092
:102B1000FEF71AFB69460220FEF716FB0020FEF7BF
:102B2000BBFB322001F05EFC03252FE02C46012088
:102B30008DF801000E208DF80000E8B26946FEF71E
:102B400003FB00208DF80100601C0446032800DD13
:102B5000241FE0B26946FEF7F7FA601C044603281A
:102B600000DD241FE0B26946FEF7EEFA601C044661
:102B7000032800DD241FE0B26946FEF7E5FA0020D5
:102B8000FEF78AFB322001F02DFC6D1E002DCDDA00
:102B900001208DF801000F208DF80000694600200B
:102BA000FEF7D2FA00208DF8010069460120FEF7F9
:102BB000CBFA69460220FEF7C7FA69460320FEF702
:102BC000C3FA0020FEF768FB322001F00BFC012065
:102BD0008DF8010010208DF8000069460020FEF7F6
:102BE000B3FA00208DF8010069460120FEF7ACFA27
:102BF00069460220FEF7A8FA69460320FEF7A4FA08
:102C00000020FEF749FB322001F0ECFB761C032E7E
:102C1000FFF61AAFFEF712FAF8BD31B5A02000F0AA
:102C20001BF9044654B16D46687800F015F9044666
:102C30001CB1287800F010F9044600BF204638BDCA
:102C4000F0B5014600254FF401720C2392FBF3F01E
:102C500084B200200CE000EB4006084F37F82660F5
:102C60008E4204D100EB400607EB860502E0401CD3
:102C7000A042F0DB00BF2846F0BD00004A00002063
:102C800010B50223012207211848FEF739F8072062
:102C9000002121B101228240144B1A6105E000F1AC
:102CA000100201239340114A136100BF0620012145
:102CB00021B1012282400D4B1A6105E000F11002A2
:102CC00001239340094A136100BF0620002121B16E
:102CD00001228240054B1A6105E000F11002012338
:102CE0009340024A136100BF10BD0000000C014078
:102CF00010B50223012206211348FEF701F8002334
:102D0000012207211048FDF7FBFF0620012121B118
:102D1000012282400C4B1A6105E000F110020123F0
:102D20009340094A136100BF0720012121B101220C
:102D30008240054B1A6105E000F110020123934027
:102D4000014A136100BF10BD000C014010B50621FF
:102D5000012222B101238B40104C236105E001F1D7
:102D6000100301249C400D4B1C6100BF07210B4A3E
:102D70009268CA4002F0010000BF0621002222B181
:102D800001238B40054C236105E001F11003012470
:102D90009C40024B1C6100BF10BD0000000C0140B4
:102DA00070B500260023012207210848FDF7A8FF7F
:102DB000072507E0FFF7CAFF044604FA05F0304391
:102DC000C6B26D1E002DF5DA304670BD000C014014
:102DD00010B502467AB90720002121B101238340B2
:102DE0001C4C236105E000F1100301249C40194BA9
:102DF0001C6100BF0FE00720012121B101238340A6
:102E0000144C236105E000F1100301249C40114B98
:102E10001C6100BF00BF0620012121B101238340B6
:102E20000C4C236105E000F1100301249C40094B88
:102E30001C6100BF0620002121B101238340054C05
:102E4000236105E000F1100301249C40014B1C614B
:102E500000BF10BD000C014070B5054600260223DE
:102E6000012207212048FDF74BFF07240BE0012139
:102E7000A1402940002901DD012100E00021084690
:102E8000FFF7A6FF641E002CF1DA002301220721C0
:102E90001548FDF735FF0620012121B101228240AE
:102EA000114B1A6105E000F11002012393400E4A14
:102EB000136100BF07200C498968C14001F001017E
:102EC00001B901260620002121B101228240064BD2
:102ED0001A6105E000F1100201239340024A1361D8
:102EE00000BF304670BD0000000C014010B5022349
:102EF000012207211F48FDF703FF0720012121B10F
:102F0000012282401B4B1A6105E000F110020123EF
:102F10009340184A136100BF0620012121B101220C
:102F20008240144B1A6105E000F110020123934026
:102F3000104A136100BF0720002121B10122824005
:102F40000C4B1A6105E000F1100201239340094A7D
:102F5000136100BF0620002121B101228240054BF0
:102F60001A6105E000F1100201239340014A136148
:102F700000BF10BD000C014010B50720002121B199
:102F800001228240214B1A6105E000F11002012369
:102F900093401E4A136100BF0620002121B1012287
:102FA00082401A4B1A6105E000F1100201239340A0
:102FB000164A136100BF0223012207211348FDF7BF
:102FC0009FFE0620012121B1012282400F4B1A6190
:102FD00005E000F11002012393400C4A136100BF89
:102FE0000720012121B101228240084B1A6105E02E
:102FF00000F1100201239340044A136100BF002333
:10300000012207210148FDF77BFE10BD000C0140A5
:1030100070B504462078801E611C0D5A2078801EF1
:10302000C1B2601CFFF7C8FC0646B54201D10120C1
:1030300070BD0020FCE7000000B51420FFF7F6FC8F
:103040000D20012121B101228240104B1A6105E0BF
:1030500000F11002012393400C4A136100BF1420B9
:10306000FFF7E4FC0D20002121B101228240074B33
:103070001A6105E000F1100201239340034A136135
:1030800000BF1420FFF7D2FC00BD0000001001407B
:1030900000B51420FFF7CAFC0E20012121B1012246
:1030A0008240104B1A6105E000F1100201239340A9
:1030B0000C4A136100BF1420FFF7B8FC0E2000215A
:1030C00021B101228240074B1A6105E000F1100294
:1030D00001239340034A136100BF1420FFF7A6FCAD
:1030E00000BD0000001001401CB5FDF731FF0020BD
:1030F000012103468022CDE9001022A1234801F0DE
:1031000095FF0020012103468022CDE9001020A177
:10311000214801F08BFF002002210346CA02CDE9BD
:1031200000101EA11F4801F081FF0020012103466D
:103130008022CDE900101CA11D4801F077FF00207E
:10314000012103468022CDE900101AA11C4801F09C
:103150006DFF0020012103468022CDE9001019A156
:10316000194801F063FF0020012103468022CDE9C8
:10317000001016A1174801F059FF01F08BFA00204A
:103180001CBD00004144445245535300ED0A000861
:10319000414E414C4F4700009D0800084D6F64624E
:1031A000757300006D1400084C6564734469670012
:1031B0002D210008526567756C61746F7200000004
:1031C000E121000842544E00D91F0008574F524BCE
:1031D000000000009D2300087CB504460D46FDF765
:1031E000B1FE8DF8000004F03F0040F080008DF843
:1031F00001008DF8025003216846FFF7DDFBADF8B2
:103200000300FB210748FDF7C2F806480099C0F803
:1032100001109DF804104171052002490870012039
:103220007CBD0000070400202DE9F0478046894658
:1032300016461C46002C02DD0EB9BDE8F087F52CC1
:1032400000D9FAE7FB211548FDF7A1F8134D6D1CD5
:1032500085F8008085F801905CB14FF0000A06E027
:1032600022463146A81CFDF74DF80AF1010AA24595
:10327000F6DBA01C0949087008460178401CFFF7DE
:103280009BFB074605490A78491C8F52481E007867
:10329000801C491E087000BFCFE700000704002013
:1032A0002DE9F04105460F461748066817480068A3
:1032B000001D00F03DFF50B91448006890F82C1034
:1032C000012088401249096881431148016074193E
:1032D0000E4800684460B44207D20C480168091DDA
:1032E0000C48006800F048FF0CE008480168091D20
:1032F0000948006800F040FF08480068844201D295
:1033000006480460BDE8F081D0020020C002002021
:10331000D4020020C8020020C4020020EC020020D9
:1033200010B5044600F04EFF23480068401C2249B7
:1033300008602248006840B92048046008460068D8
:1033400001280DD100F0AEF90AE01D48006838B937
:103350001A480068C06AE16A884201D817480460C8
:1033600018480068401C1749086094F82C10012088
:10337000884015490968084313490860E16A01EB70
:103380008101124A02EB8100211D00F00FFF00F0C5
:1033900043FF0B48006868B108480068C06AE16AEA
:1033A000884207D24FF0805009490860BFF34F8F21
:1033B000BFF36F8F10BD0000CC020020C0020020C0
:1033C000D8020020E8020020D40200202C6900204E
:1033D00004ED00E010B500F0F5FE0C48006890B96F
:1033E0000B4800F0B9FE0B4800F0B6FE08480A4949
:1033F000086008480949086000220C210A2001F0F1
:103400007AFA0249086000F007FF10BD00030020AF
:10341000CC690020E0690020F8020020FC020020B6
:10342000704770B504460D46206C70B1216CE068A1
:103430000144E160D4E90210884201D32168E160CF
:103440002846226CE168FCF75DFF70BD2DE9F04174
:1034500004460F4615464FF00008A66B206C48B98D
:10346000206800282CD1A06801F0CAFE8046002008
:10347000A06025E07DB93946226C6068FCF742FF08
:10348000216C606808446060D4E90101884217D368
:103490002068606014E03946226CE068FCF732FF77
:1034A000216CE068411AE1602168E068884203D23B
:1034B000216CA068411AE160022D01D106B1761E8F
:1034C000701CA0634046BDE8F08101464A6A22B103
:1034D0000A6B1268C2F1050000E00020704700008E
:1034E0000146084A126812680AB9012200E0002267
:1034F0000A600A6822B9034A1268D268106800E0BC
:1035000000207047F802002030B54FF4C843174838
:1035100000F007042CB1C01D20F00700134C041B61
:103520001B1B0246124C22600024114D6C60D01807
:10353000083820F007000F4C206000240D4D2D6846
:103540006C600C4D2D682C601146441A4C60094C7F
:1035500024680C60084D4C682C60084D4C682C6049
:103560004FF00044064D2C6030BD00002C050020BB
:10357000940200209C020020A4020020A00200204F
:10358000B002002000BFFFF74BFF0648006801288B
:10359000F9D94FF0805004490860BFF34F8FBFF353
:1035A0006F8FF0E72C69002004ED00E010B50446B1
:1035B00054B10020A06020600021E16000231A4681
:1035C0001946204601F00EFA10BD2DE9F0410646DD
:1035D0000D4617469846069C0DB9246000E027600A
:1035E000E66325640121204601F0B0F9BDE8F081D1
:1035F0002DE9FF5F81460E469246DDE90E7B109C69
:10360000AAF10100216B01EB800828F0070808F0FF
:10361000070008B9012000E0002050B900BFA02039
:1036200080F31188BFF34F8FBFF36F8F00BF00BFD0
:10363000FEE786B1002507E0715D04F134004155D5
:10364000705D00B902E06D1C0A2DF5D300BF0021AA
:103650003D20015502E0002084F83400052F00D3FE
:103660000427E762276400206064201D00F081FDCC
:1036700004F1180000F07DFD2461C7F10500A06190
:1036800064620020A06484F84C0049464046039AD6
:1036900000F0A2FB2060BBF1000F01D0CBF800408E
:1036A000BDE8FF9F10B5002407E004EB84010C4A3D
:1036B00002EB810000F050FD641C052CF5D3094895
:1036C00000F04AFD084800F047FD084800F044FDBE
:1036D00004480749086004480649086010BD000016
:1036E0002C69002090690020A4690020B86900209E
:1036F000C4020020C802002010B50146164800E0B0
:10370000006803688B42FBD30246436813448B4234
:1037100004D143684C682344436001460A464B6821
:1037200013440468A34211D10C4C03682468A342DB
:1037300008D04B680468646823444B6003681B68C6
:103740000B6005E0054B1B680B6001E003680B6034
:10375000884200D0016010BD940200209C0200202D
:103760002DE9F04104460D4616461F464FF000086D
:1037700065602461B5420CD8F01BA169884202D370
:103780004FF0010811E0211D0948006800F0F4FC29
:103790000BE0BE4204D2BD4202D34FF0010804E068
:1037A000211D0448006800F0E7FC4046BDE8F081B8
:1037B000FC020020F802002070B5054600F002FD72
:1037C000A86B08B9012400E0002400F025FD204684
:1037D00070BD70B5054600F0F5FCA86BE96B88423A
:1037E00001D1012400E0002400F016FD204670BD48
:1037F000F8B505460F461A480068C068C468201D21
:1038000000F096FC94F8240000F00400E8B1A069F0
:1038100041192B463A462046FFF7A2FFD8B10020B7
:1038200003462A4601460090204601F0A1FE0646C6
:1038300056B900BFA02080F31188BFF34F8FBFF3AC
:103840006F8F00BF00BFFEE705E094F8240020F072
:10385000010084F824002046216A8847F8BD000052
:10386000F802002070B586B08BE003980028FBDBDF
:10387000059C606908B9012000E0002010B9201DF6
:1038800000F056FC02A800F009F9054603980A2842
:1038900075D2DFE800F009050739416306083A42AE
:1038A00000BF00BF00BF00BF94F8240040F001003B
:1038B00084F824000498A269811803462A46204609
:1038C000FFF74EFFF8B12046216A884794F824009C
:1038D00000F00400B8B1002000900498A1694218DB
:1038E00000231946204601F043FE064656B900BFA4
:1038F000A02080F31188BFF34F8FBFF36F8F00BFFD
:1039000000BFFEE700BF3BE000BF94F8240020F0BA
:10391000010084F8240033E000BF94F8240040F054
:10392000010084F824000498A061A06908B1012076
:1039300000E0002050B900BFA02080F31188BFF341
:103940004F8FBFF36F8F00BF00BFFEE7A069411923
:103950002B462A462046FFF703FF11E094F8240087
:1039600000F0020018B9204600F074FC05E094F85D
:10397000240020F0010084F8240001E0FFE700BFEC
:1039800000BF002203A90448006801F07DF9002867
:103990007FF46BAF06B070BD00030020F8B505469C
:1039A0000C4600F0C1FE684600F078F80646009824
:1039B00020BB44B9B54206D801F02EFD3146284659
:1039C000FFF716FF1CE03CB10E480068006808B91C
:1039D000012000E000200446A91B22460A48006896
:1039E00000F0DAFC01F018FD50B94FF080500749A3
:1039F0000860BFF34F8FBFF36F8F01E001F00CFD44
:103A0000F8BD0000FC0200200003002004ED00E0EF
:103A10000A490968096809B9012100E0002121B1BA
:103A20004FF0FF31064A116006E004490968C96891
:103A3000C868034A4168116070470000C402002052
:103A4000EC02002010B5022000F0CCFC0820002180
:103A500021B101228240054B1A6105E000F11002FC
:103A600001239340014A136100BF10BD00080140CB
:103A700010B50820012121B101228240064B1A61B4
:103A800005E000F1100201239340034A136100BFD7
:103A9000012000F0A7FC10BD0008014070B50446ED
:103AA00001F004FB054607480068854204D200F097
:103AB0000BF80120206001E0002020600148056033
:103AC000284670BD080300202DE9F84334E025485E
:103AD0000068C068056823480068C068C468201D85
:103AE00000F026FB2046216A884794F8240000F065
:103AF000040008B3A0694619AE4207D96660246184
:103B0000211D1848006800F037FB15E0002003462F
:103B10002A4601460090204601F02AFD074657B983
:103B200000BFA02080F31188BFF34F8FBFF36F8FCA
:103B300000BF00BFFEE700BF0A480068006808B980
:103B4000012000E000200028C1D00648D0F8008005
:103B500005480068034908600348C0F80080BDE8D4
:103B6000F8830000F8020020FC0200200E480068E4
:103B7000401C08B9012000E0002050B900BFA0207F
:103B800080F31188BFF34F8FBFF36F8F00BF00BF6B
:103B9000FEE700BFA02080F31188BFF34F8FBFF373
:103BA0006F8F00BF00BFFEE7B402002008B500BF62
:103BB0006846FFF795FC044620460099FFF7EEFEA5
:103BC000FFF750FEF4E770B5044600F0FBFA94F9F5
:103BD000455010E0606A08B9012000E0002038B9C3
:103BE00004F1240001F0CCFB18B100F09FFC00E0D0
:103BF00003E0681E45B2002DECDC00BFFF2084F816
:103C0000450000F009FB00F0DDFA94F9445010E0A3
:103C1000206908B9012000E0002048B904F1100033
:103C200001F0AEFB08B100F081FC681E45B200E077
:103C300001E0002DECDC00BFFF2084F8440000F020
:103C4000EBFA70BD00BF0849098801F08001002926
:103C5000F9D00549091D088000BF0349098801F012
:103C600080010029F9D07047003801402DE9F0416A
:103C700004464FF0000800F057FD4948006808B9B5
:103C8000FFF742FC474800682040002870D1D4B1BB
:103C9000083404F00700B0B104F00700C0F10800D8
:103CA000044404F0070008B9012000E0002050B9E6
:103CB00000BFA02080F31188BFF34F8FBFF36F8F39
:103CC00000BF00BFFEE7002C52D037480068844296
:103CD0004ED8364E3046056801E02E462D6868689D
:103CE000A04202D228680028F7D12D4800688542FA
:103CF0003ED0306800F10808286830606868001B12
:103D0000102819D92F1907F0070008B9012000E081
:103D1000002050B900BFA02080F31188BFF34F8F5F
:103D2000BFF36F8F00BF00BFFEE76868001B7860BD
:103D30006C603846FFF7E0FC1B4968680968081AA0
:103D4000194908600846006819490968884203D281
:103D500015480068164908601249686809680843F0
:103D600068600020286013480068401C1149086002
:103D700001F052FB08F0070008B9012000E0002024
:103D800050B900BFA02080F31188BFF34F8FBFF35D
:103D90006F8F00BF00BFFEE74046BDE8F081000026
:103DA0009C020020B0020020A0020020940200200B
:103DB000A4020020A80200200648006830B105498E
:103DC000096801F14400496C491C01600148006820
:103DD00070470000C0020020001F4FF08073036096
:103DE000001F21F001030360001F034B0360143820
:103DF00002602038704700006D3B00080146024811
:103E000030F8110070470000A4670008014602481E
:103E100030F8110070470000A46700082DE9FC5F2E
:103E20002D48007830B100202B4908702B480068DD
:103E30002B49086001F03AF90090284801682948A8
:103E4000006802F001FC0190019802F099F821F05D
:103E5000004504462448006802F092F806462246CF
:103E60002B4601F06FFE804601F002FE1FFA80FA39
:103E7000504602F069FA04461C4902F079FB01D26F
:103E80004FF00A0A40F24D100AFB00FBBAF1000F96
:103E90000BDD0021019802F06BFA06D20020FDF73D
:103EA00065FE0120FDF748FE0DE0BAF1000F0ADDC6
:103EB0000021019802F05CFB05D20020FDF73CFEDA
:103EC0000120FDF753FE5946684600F0B9FAFDF7A8
:103ED00011FEBDE8FC9F00007802002008000020D1
:103EE0007C0200200C00002068020020000020411D
:103EF00000200149087070470C03002070B505468A
:103F000002F068FB04460146284602F09DFB15F0CE
:103F1000004F4FF07F410ED0B0F13F4F28BFB1EBC3
:103F2000400F0ED2B0F17C5F1DDDB1EB400F1AD314
:103F300013E0044617E0B0F13F4F08D9B1EB400F52
:103F400005D34FF07E51204602F07EFBF1E7B0F141
:103F50007C5F08DBB1EB400F05D34FF07E5120466C
:103F600002F03AF8E5E7284664F31E0070BD000051
:103F700010B500200CE00A4901EBC001094A1268A3
:103F80000A60074901EBC001074A12684A60401CF9
:103F90000228F0DB10220249C820FCF71FFE10BDEA
:103FA0000C0500209C670008A067000870B5092078
:103FB00020498968C14001F0010109B9012000E0F0
:103FC0000020044608201B498968C14001F0010116
:103FD00009B9012000E00020054634B1FCF7D2FF0A
:103FE00018B10820FDF702FA02E00820FDF7E4F915
:103FF00035B1FCF7B9FF18B10920FDF7F7F902E078
:104000000920FDF7D9F934B1FCF7BCFF18B90A2033
:10401000FDF7ECF902E00A20FDF7CEF935B1FCF727
:10402000A3FF18B90B20FDF7E1F902E00B20FDF723
:10403000C3F970BD0010014010B500F009F8FFF79A
:1040400057FF00200149087010BD00001500002036
:1040500010B500210348FDF74CFF00210148FDF792
:104060005DFF10BD0008004010B50621024602F0B9
:10407000010323B101238B40054C236105E001F1CD
:10408000100301249C40024B1C6100BF10BD0000C6
:104090000010014010B50446002C03DD0120FDF79F
:1040A000A5F902E00120FDF787F90720214601F07C
:1040B000010222B101228240054B1A6105E000F1A4
:1040C000100201239340024A136100BF10BD00009B
:1040D0000010014010B501210420FDF757FA1248E5
:1040E000FDF770FF4FF4FA500F49088003208880D5
:1040F0000E48FDF715FF012211460C48FDF705FF9C
:104100001E2000280DDB00BF00BF00F01F020121B0
:1041100091404209920002F1E022C2F8001100BF72
:1041200000BF00BF10BD00000205002000080040D5
:1041300001460A69D1E901309860D1E9010358606C
:104140005068884201D1886850600020086110687A
:10415000401E10601068704700F1080141604FF088
:10416000FF31816000F10801C1600161002101603F
:10417000704700210161704710B502460B685C1C56
:104180000CB9106907E002F1080000E040684468DB
:1041900024689C42FAD944684C604C68A1608860ED
:1041A00041600A611468641C146010BD42684A6072
:1041B00093688B60936859609160086103685B1C29
:1041C0000360704700BFA02080F31188BFF34F8FBA
:1041D000BFF36F8F00BF0E480068401C0C49086099
:1041E00008460068012812D10A480068C0B208B920
:1041F000012000E0002050B900BFA02080F311880A
:10420000BFF34F8FBFF36F8F00BF00BFFEE7704754
:10421000B402002004ED00E00D48006850B900BF72
:10422000A02080F31188BFF34F8FBFF36F8F00BFC3
:1042300000BFFEE706480068401E054908600846C2
:10424000006820B9002080F3118800BF00BF7047CC
:10425000B402002070B506463546002E44D0083D15
:104260002C46224960680968084008B1012000E036
:10427000002050B900BFA02080F31188BFF34F8FFA
:10428000BFF36F8F00BF00BFFEE7206808B90120B1
:1042900000E0002050B900BFA02080F31188BFF3D8
:1042A0004F8FBFF36F8F00BF00BFFEE70F496068FD
:1042B00009680840C0B12068B0B90C496068096855
:1042C0008843606000F030FA094960680968084472
:1042D000074908602046FFF70FFA06480068401CAF
:1042E0000449086001F098F870BD0000B002002099
:1042F000A0020020AC02002000204FF0E021086165
:104300008861064800684FF47A71B0FBF1F0401EF6
:104310004FF0E021486107200861704780020020CB
:1043200070B5FBF7CBFF0446102C16D304F1E02048
:1043300090F8F05315480078854201DB012000E039
:10434000002050B900BFA02080F31188BFF34F8F29
:10435000BFF36F8F00BF00BFFEE70D48006800F499
:10436000E0600C490968884201D8012000E0002083
:1043700050B900BFA02080F31188BFF34F8FBFF367
:104380006F8F00BF00BFFEE770BD0000B8020020C5
:104390000CED00E0BC0200202DE9F04105460E4680
:1043A00017462C46FFF70EFF94F94400401C10B945
:1043B000002084F8440094F94500401C10B9002006
:1043C00084F84500FFF728FFA06B28B93A4631462C
:1043D00004F1240000F0CCF82046FFF7F4FBBDE820
:1043E000F081000070B504460025D4B11248006881
:1043F00008B9012000E0002050B900BFA02080F3E0
:104400001188BFF34F8FBFF36F8F00BF00BFFEE770
:1044100000F08AF900212046FEF742FF00F0FCFF81
:1044200005463DB94FF0805004490860BFF34F8FF7
:10443000BFF36F8F70BD0000F402002004ED00E0B8
:104440002DE9F04704460F464FF0000954B900BF6C
:10445000A02080F31188BFF34F8FBFF36F8F00BF91
:1044600000BFFEE70FB1012000E0002050B900BFFF
:10447000A02080F31188BFF34F8FBFF36F8F00BF71
:1044800000BFFEE72048006808B9012000E00020D6
:1044900050B900BFA02080F31188BFF34F8FBFF346
:1044A0006F8F00BF00BFFEE700F03EF917480668B7
:1044B0002068C5192068B04207D92068A8420BD9E6
:1044C000B54209D94FF0010906E02068A84201D899
:1044D000B54201D94FF001092560B9F1000F03D0B1
:1044E000A81B0021FEF7DCFE00F096FF8046B8F125
:1044F000000F07D14FF0805005490860BFF34F8F80
:10450000BFF36F8FBDE8F087F4020020D0020020D7
:1045100004ED00E00349096801600349096841604E
:1045200070470000E4020020D00200200120014971
:1045300008607047E002002070B504460D4654B98B
:1045400000BFA02080F31188BFF34F8FBFF36F8FA0
:1045500000BF00BFFEE70548016818312046FFF79D
:104560000BFE01212846FEF79BFE70BDC002002015
:1045700070B505460E46144655B900BFA02080F31D
:104580001188BFF34F8FBFF36F8F00BF00BFFEE7EF
:104590000648016818312846FFF708FE0CB14FF0B5
:1045A000FF3621463046FEF77BFE70BDC00200207C
:1045B0002DE9F04706460F4634464FF00109002E1C
:1045C00060D0606C50B900BFA02080F31188BFF3A9
:1045D0004F8FBFF36F8F00BF00BFFEE7206CB84264
:1045E00001D23D4600E0256CE06AA8424AD0606CEA
:1045F000012847D124480068844201D0012000E00E
:10460000002050B900BFA02080F31188BFF34F8F66
:10461000BFF36F8F00BF00BFFEE7D4F82C80E562C8
:10462000A06900F0004010B9C5F10500A06108EBD9
:104630008801164A02EB81016069884201D101209C
:1046400000E00020F0B1201DFFF772FD40B994F8A2
:104650002C10012088400E49096881430C480160F4
:1046600094F82C100120884009490968084308493A
:104670000860E16A01EB8101044A02EB8100211D1F
:10468000FFF794FDBDE8F087C00200202C690020F0
:10469000D40200201CB51D4800210B468022CDE924
:1046A00000101BA11C4800F0C1FC0446012C02D1E3
:1046B00000F034FF0446012C15D100BFA02080F388
:1046C0001188BFF34F8FBFF36F8F00BF4FF0FF30E4
:1046D0001249086001201249086000201149086051
:1046E00000F07CF810E0601C08B1012000E0002020
:1046F00050B900BFA02080F31188BFF34F8FBFF3E4
:104700006F8F00BF00BFFEE71CBD0000F00200205D
:1047100049444C450000000085350008EC020020AB
:10472000D8020020D002002002480068401C014945
:1047300008607047F40200201D48006818B101208D
:104740001C49086032E000201A4908601A480068D5
:10475000B0FA80F0C0F11F0101EB8100174A52F856
:10476000200008B1012000E0002050B900BFA020C7
:1047700080F31188BFF34F8FBFF36F8F00BF00BF6F
:10478000FEE701EB81020D4B03EB820042685268A9
:10479000426000F108024368934202D142685268C5
:1047A00042604268D268064B1A6000BF7047000042
:1047B000F4020020E0020020D40200202C69002036
:1047C000C002002002460E2A01DD00207047024888
:1047D00020F812100120F9E72C0000201CB5384900
:1047E000084600780190FF200A46107008460078BD
:1047F00000909DF8000000F47F609DF8002090423A
:1048000001D1012000E0002050B900BFA02080F3BA
:104810001188BFF34F8FBFF36F8F00BF00BFFEE75C
:104820009DF8000000F0A000264A10700720264ADC
:10483000106009E024480068401E234A10609DF87B
:1048400000004006000E00909DF8000000F080007F
:104850008028EFD01C480068C0F10700042801D16F
:10486000012000E0002050B900BFA02080F3118893
:10487000BFF34F8FBFF36F8F00BF00BFFEE712483B
:1048800000680002104A10601046008800F4E060E2
:1048900010600B4A019810700C48006840F07F606F
:1048A0000A4908600846006840F070400860FFF759
:1048B00023FD002006490860FBF7CAFC00201CBD50
:1048C00000E400E0B8020020BC02002020ED00E07F
:1048D000B40200202DE9F0410446012600272246BB
:1048E0000021012000F007F805462846FEF75EFE8D
:1048F0002846BDE8F0812DE9F84305460E461746E7
:104900000DB1012000E0002050B900BFA02080F3CD
:104910001188BFF34F8FBFF36F8F00BF00BFFEE75B
:1049200005FB06F808F14800FFF7A0F904464CB172
:10493000A14609F148093B464A46314628460094BB
:10494000FEF743FE2046BDE8F883000070B505463B
:104950000E462C4654B900BFA02080F31188BFF347
:104960004F8FBFF36F8F00BF00BFFEE7FFF72AFC3A
:10497000D4E90F12206801FB0200A0600020A063B0
:1049800020686060E06B401E226C216800FB021111
:10499000E160FF2084F8440084F845009EB9206956
:1049A00008B9012000E00020A8B904F1100000F0CF
:1049B000E7FC80B14FF0805009490860BFF34F8F8A
:1049C000BFF36F8F07E004F11000FFF7C5FB04F1A0
:1049D0002400FFF7C1FBFFF71FFC012070BD0000A2
:1049E00004ED00E02DE9FF4383B0064688461D46EE
:1049F0004FF00009344654B900BFA02080F311885D
:104A0000BFF34F8FBFF36F8F00BF00BFFEE7B8F15A
:104A1000000F01D1206C08B9012000E0002050B93E
:104A200000BFA02080F31188BFF34F8FBFF36F8FBB
:104A300000BF00BFFEE7022D02D1E06B012801D1CB
:104A4000012000E0002050B900BFA02080F31188B1
:104A5000BFF34F8FBFF36F8F00BF00BFFEE700F0C3
:104A600015FB08B9059808B9012000E0002050B9ED
:104A700000BFA02080F31188BFF34F8FBFF36F8F6B
:104A800000BF00BFFEE700BFFFF79CFBA06BE16B20
:104A9000884201D3022D28D12A4641462046FEF7FE
:104AA000D5FC0746606A08B9012000E0002068B91B
:104AB00004F1240000F064FC88B14FF080503249CA
:104AC0000860BFF34F8FBFF36F8F08E03FB14FF027
:104AD00080502D490860BFF34F8FBFF36F8FFFF7F2
:104AE0009BFB012007B0BDE8F083059818B9FFF7DC
:104AF00093FB0020F6E7B9F1000F04D101A8FFF7FE
:104B000009FD4FF00109FFF787FBFFF70DFEFFF7E7
:104B100059FB94F94400401C10B9002084F844006B
:104B200094F94500401C10B9002084F84500FFF7B7
:104B300073FB05A901A800F037FAF0B92046FEF78B
:104B400048FEA0B104F110000599FFF7F5FC2046DE
:104B5000FFF739F800F060FC002895D14FF0805045
:104B600009490860BFF34F8FBFF36F8F8CE7204672
:104B7000FFF729F800F050FC86E72046FFF723F8FE
:104B800000F04AFC0020ADE704ED00E02DE9F84F0D
:104B900007468A4690461E463C4654B900BFA020B0
:104BA00080F31188BFF34F8FBFF36F8F00BF00BF3B
:104BB000FEE7BAF1000F01D1206C08B9012000E036
:104BC000002050B900BFA02080F31188BFF34F8FA1
:104BD000BFF36F8F00BF00BFFEE7022E02D1E06B74
:104BE000012801D1012000E0002050B900BFA02021
:104BF00080F31188BFF34F8FBFF36F8F00BF00BFEB
:104C0000FEE7FFF78DFB00BFA021EFF3118081F3DA
:104C10001188BFF34F8FBFF36F8F00BF0546A06BA6
:104C2000E16B884201D3022E25D194F945B0A06BE7
:104C30000090324651462046FEF708FC0BF1010079
:104C400088B9606A08B9012000E0002050B904F179
:104C5000240000F095FB28B1B8F1000F02D001202C
:104C6000C8F8000004E00BF1010040B284F84500F0
:104C70004FF0010901E04FF0000900BF85F31188F2
:104C800000BF4846BDE8F88F2DE9F74183B00546DF
:104C90000E464FF000082C4654B900BFA02080F308
:104CA0001188BFF34F8FBFF36F8F00BF00BFFEE7C8
:104CB0000EB9206C08B9012000E0002050B900BFF7
:104CC000A02080F31188BFF34F8FBFF36F8F00BF19
:104CD00000BFFEE700F0DAF908B9059808B901202D
:104CE00000E0002050B900BFA02080F31188BFF37E
:104CF0004F8FBFF36F8F00BF00BFFEE700BFFFF70E
:104D000061FAA76BF7B131462046FEF78AFB781EA1
:104D1000A063206908B9012000E0002060B904F117
:104D2000100000F02DFB38B14FF080502F49086083
:104D3000BFF34F8FBFF36F8FFFF76EFA012006B0FE
:104D4000BDE8F081059818B9FFF766FA0020F6E78C
:104D5000B8F1000F04D101A8FFF7DCFB4FF0010808
:104D6000FFF75AFAFFF7E0FCFFF72CFA94F944003A
:104D7000401C10B9002084F8440094F94500401C00
:104D800010B9002084F84500FFF746FA05A901A8EC
:104D900000F00AF9F0B92046FEF70EFDA0B104F1CB
:104DA00024000599FFF7C8FB2046FEF70CFF00F032
:104DB00033FB0028A3D14FF080500C490860BFF3AB
:104DC0004F8FBFF36F8F9AE72046FEF7FCFE00F08F
:104DD00023FB94E72046FEF7F6FE00F01DFB20467D
:104DE000FEF7EAFC00288AD00020A8E704ED00E0E6
:104DF0002DE9F34182B005464FF000082C4600260D
:104E000054B900BFA02080F31188BFF34F8FBFF3C8
:104E10006F8F00BF00BFFEE7206C08B9012000E0E3
:104E2000002050B900BFA02080F31188BFF34F8F3E
:104E3000BFF36F8F00BF00BFFEE700F027F908B98E
:104E4000039808B9012000E0002050B900BFA0205D
:104E500080F31188BFF34F8FBFF36F8F00BF00BF88
:104E6000FEE700BFFFF7AEF9A76BFFB1781EA063A6
:104E7000206810B9FEF7A0FFA060206908B90120E2
:104E800000E0002060B904F1100000F079FA38B1B8
:104E90004FF0805043490860BFF34F8FBFF36F8FCF
:104EA000FFF7BAF9012004B0BDE8F081039898B982
:104EB0000EB9012000E0002050B900BFA02080F30F
:104EC0001188BFF34F8FBFF36F8F00BF00BFFEE7A6
:104ED000FFF7A2F90020E6E7B8F1000F04D1684619
:104EE000FFF718FB4FF00108FFF796F9FFF71CFCDE
:104EF000FFF768F994F94400401C10B9002084F8C9
:104F0000440094F94500401C10B9002084F8450085
:104F1000FFF782F903A9684600F046F840BB204637
:104F2000FEF74AFCF0B1206838B9FFF74BF9A068EA
:104F300000F0CAF90646FFF76FF904F1240003995F
:104F4000FFF7FAFA2046FEF73EFE00F065FA002869
:104F500088D14FF0805013490860BFF34F8FBFF3E3
:104F60006F8F7FE72046FEF72EFE00F055FA79E7B7
:104F70002046FEF728FE00F04FFA2046FEF71CFC04
:104F80000028EED05EB1FFF71DF92046FEF79DFA2E
:104F900007463946A068FFF70BFBFFF73DF90020F5
:104FA00081E7000004ED00E070B505460C4655B9F8
:104FB00000BFA02080F31188BFF34F8FBFF36F8F26
:104FC00000BF00BFFEE754B900BFA02080F31188E6
:104FD000BFF34F8FBFF36F8F00BF00BFFEE7FFF738
:104FE000F1F8104802686868131A0F4928680968C0
:104FF000884204D06868904201D801260DE02068FC
:10500000984207D92068C01A20602846FFF782FA24
:10501000002602E0002020600126FFF7FDF8304660
:1050200070BD0000D0020020E40200202DE9FF4FF7
:1050300085B0804689461746DDE912ABB800FEF719
:1050400015FE064656B15020FEF710FE04460CB180
:10505000266304E03046FFF7FDF800E000247CB151
:105060000020CDE900ABCDE902403A464946404632
:10507000089BFEF7BDFA2046FEF752F9012501E034
:105080004FF0FF35284609B0BDE8F08F05490968A3
:1050900009B9012005E00449096809B9022000E0C6
:1050A00000207047D8020020F4020020014908685F
:1050B00070470000D00200202DE9F0414FF00008B9
:1050C0004448006800287CD143480068451C424899
:1050D000056015BB41480068006808B9012000E080
:1050E000002050B900BFA02080F31188BFF34F8F7C
:1050F000BFF36F8F00BF00BFFEE73848076838482E
:105100000068364908603648076036480068401C29
:1051100034490860FEF77CFC00BF334800688542D4
:105120003CD300BF2D480068006808B9012000E0AA
:10513000002020B14FF0FF302B4908602DE02748B8
:105140000068C068C4686668B54202D22648066036
:1051500023E0201DFEF7ECFFA06A18B104F118004F
:10516000FEF7E6FF94F82C10012088401F490968DB
:1051700008431E490860E16A01EB81011C4A02EB09
:105180008100211DFFF712F81A49E06A0968C96A0F
:105190008842C7D34FF00108C4E700BF1548006834
:1051A000C06A00EB8000124951F82000012801D9A3
:1051B0004FF001081048006808B14FF0010805E001
:1051C000FFE70E480068401C0C4908604046BDE8F7
:1051D000F0810000F4020020D0020020C402002070
:1051E000C8020020E4020020EC020020D4020020CB
:1051F0002C690020C0020020E0020020DC02002018
:1052000070B505462C460026002D55D02B48006869
:10521000844201D1012000E0002050B900BFA0204D
:1052200080F31188BFF34F8FBFF36F8F00BF00BFB4
:10523000FEE7606C50B900BFA02080F31188BFF377
:105240004F8FBFF36F8F00BF00BFFEE7606C401E43
:105250006064216CE06A88422ED0606C60BB201DC7
:10526000FEF766FF78B9E06A00EB8000144951F858
:10527000200040B994F82C10012088401149096899
:10528000814310480160206CE062E06AC0F10500D3
:10529000A06194F82C10012088400A49096808434D
:1052A00008490860E16A01EB8101054A02EB8100CF
:1052B000211DFEF77BFF0126304670BDC002002095
:1052C0002C690020D402002070B505462C4600262B
:1052D000002D4DD02749E06A0968C96A884240D24A
:1052E000A06900F0004028B922480068C06AC0F1F7
:1052F0000500A061E16A01EB81011F4A02EB810117
:105300006069884201D1012000E0002018B3201D0F
:10531000FEF70EFF40B994F82C1001208840174981
:10532000096881431548016012480068C06AE0625C
:1053300094F82C10012088401049096808430F494F
:105340000860E16A01EB81010B4A02EB8100211D3B
:10535000FEF72CFF03E007480068C06AE062012600
:1053600006E00449206C0968C96A884200D2012617
:10537000304670BDC00200202C690020D4020020FD
:1053800070B50646F068C46854B900BFA02080F329
:105390001188BFF34F8FBFF36F8F00BF00BFFEE7D1
:1053A00004F11800FEF7C4FE15480068A8B9201DD6
:1053B000FEF7BEFE94F82C100120884011490968C0
:1053C000084310490860E16A01EB81010E4A02EBD3
:1053D0008100211DFEF7EAFE04E004F118010B48EC
:1053E000FEF7E4FE0A49E06A0968C96A884204D9FE
:1053F000012501200749086000E00025284670BD0E
:10540000F4020020D40200202C690020B86900209A
:10541000C0020020E002002070B5002400263648BB
:10542000006850B900BFA02080F31188BFF34F8FF0
:10543000BFF36F8F00BF00BFFEE7FEF7C3FE2E482D
:105440000068401E2C4908600846006800284FD1BB
:105450002A48006800284BD024E02948C068C46866
:1054600004F11800FEF764FE201DFEF761FE94F8BB
:105470002C1001208840234909680843214908600D
:10548000E16A01EB8101204A02EB8100211DFEF758
:105490008DFE1E49E06A0968C96A884202D301206C
:1054A0001B4908601648006808B9012000E0002088
:1054B0000028D2D00CB1FEF7ABFA1648056865B1EA
:1054C00000BFFFF7F9FD10B10120114908606D1E02
:1054D000002DF6D100200F4908600D48006838B152
:1054E000012630070C490860BFF34F8FBFF36F8F61
:1054F000FEF792FE304670BDF4020020CC02002080
:10550000B8690020D40200202C690020C0020020CD
:10551000E0020020DC02002004ED00E01CB50024C5
:10552000FDF758FF0D48006850B10D4802210023D7
:10553000CA01CDE900100BA10C48FFF777FD044626
:1055400054B900BFA02080F31188BFF34F8FBFF381
:105550006F8F00BF00BFFEE720461CBD0003002088
:1055600004030020546D722053766300AD3B0008A5
:105570002DE9FE4304460D4616461F46DDF82880F9
:105580004FF0000954B900BFA02080F31188BFF389
:105590004F8FBFF36F8F00BF00BFFEE71448006856
:1055A00010B3009501960294062D15DAFFF76EFDF3
:1055B000022808D10023424669460D480068FFF7DB
:1055C00011FA814610E000231A466946084800682F
:1055D000FFF708FA814607E000233A466946044887
:1055E0000068FFF7D3FA81464846BDE8FE83000015
:1055F0000003002021F00042A2F16052B2F5801FAA
:1056000001F0004328BFD2F17F6C0BD95FEA001C88
:1056100043EAC20242EB507018BF704728BF20F027
:1056200001007047B2F5801FBCBF184670474FEAB3
:10563000410C1CF5001F02D2084600F094BF70B563
:1056400000F02AFB00000089FFF7F6BF4FF0004092
:10565000A0F580007047000010B591EA030F48BF25
:1056600083F0004300F1AA83841A71EB030C05D286
:10567000121943EB0C03001B61EB0C01DFF824E172
:105680004FEA1154A4EB135C1EEA430F18BF9EEAC5
:10569000445F73D023EA0E03DCF1200E21EA0451AB
:1056A00043F4801332D322FA0CFE10EB0E0023FADF
:1056B0000CFE41EB0E01CCF1200E03FA0EFE10EBB6
:1056C0000E0051F10001B1F5801FCCF1200E32D255
:1056D00001EB045112FA0EF2BDE8104058BF7047BA
:1056E000401C38BF5FEA420218BF7047002814BF51
:1056F00020F0010041F100014FEA410313F5001FC2
:1057000038BF7047A1F1C04100F014BB012A43EB40
:105710000302ACF1200CDCF11F0E32BF4FF0000E83
:1057200023FA0CF310EB030041EB0451B4EB115FCF
:10573000D0D0A1EB045101F5801149085FEA300097
:1057400001EB04510ED350F1000038BF12FA0EFEE7
:1057500008D1BDE81040C9E7401C38BF5FEA4202EB
:10576000CAD1C3E7BDE810404FEA410313F5001F5B
:1057700038BF7047A1F1C04100F0DCBA9EEA445F37
:1057800008D011EA5E0FBDE8104004BF01F00041EF
:1057900000207047BDE8104070B500F07DFA00BFF2
:1057A00064FBBE3E0000E0FF491058BFC1F140411C
:1057B0005B1058BFC3F140438B42EFF3008070474A
:1057C0002DE9C04130B4DFF8A0C23CEA111418BF83
:1057D0003CEA131400F0EC8081EA03051CEA111482
:1057E00044EAD57418BF1CEA131500F0C780A4EB77
:1057F00005044FF0004545EAC12145EAC32341EACB
:10580000505143EA525304F17F74994204F5003435
:105810004FEAC0204FEAC22208BF904200F09C80AD
:105820004FEA13650FF24016765D4FEA134506FB0B
:1058300005F7C7F1807706FB07F74FEAD737A7FBD5
:1058400003687642C8F58038A7FB06CE38BFA8F1BA
:10585000010807FB08E64FF0000EA6FB028CE6FBF2
:1058600003CEDCF1000CCEF1004E38BFAEF1010EDC
:10587000A6FB0C584FF000074FF00005E6FB0E8723
:10588000A1FB08C6A0FB07CE16EB0E0645F10005EE
:10589000E1FB076515F1E04E7EBFA4F580345FEAB9
:1058A00046066D4116F1800745F100054FEA1727BE
:1058B0004FEA066647EA0567A6F1DE46B6F1805F65
:1058C0004FEA15251FD9384624F0010C05EBC471A9
:1058D000BCF1FE6F01EB0C1102D8F0BCBDE80081F9
:1058E00024425CBF01F5801E9EEAC47F02D4F0BC56
:1058F000BDE80081244238D4F0BCA1F1C041BDE82C
:10590000004100F017BA4FEAD22242EA43524FEA6E
:10591000D323A7FB02864FEAD02040EA415007FB81
:1059200003661EEA0E0F4FEAD12105FB026658BF3F
:10593000A6EB0056B6EB00564FEA520E4EEAC37E77
:1059400018EB0E0E56EB530EBDD518EB02085E4158
:105950007F1C55F10005B6E74FF480154FF00007A6
:105960004FF000064FF00008ADE7F0BC4FF000002C
:1059700001F1C04101F00041BDE8008111EA0C1FB6
:105980000CEA131500D00CE013EA0C1F00F0258080
:105990004FF00000F0BC81EA030101F00041BDE8D6
:1059A0000081F0BCBDE8004181EA030100F0C2B90A
:1059B000F0BCBDE8004170B500F06EF9097EFC3E18
:1059C00000F007B881EA03014FF0000001F0004148
:1059D000704781EA030100F0ADB9F0BCBDE80041B9
:1059E0004FF0000021497047FFFDFBF9F7F5F4F295
:1059F000F0EEEDEBE9E8E6E4E3E1E0DEDDDBDAD86A
:105A0000D7D5D4D3D1D0CFCDCCCBCAC8C7C6C5C4C7
:105A1000C2C1C0BFBEBDBCBBBAB9B8B7B6B5B4B3DE
:105A2000B2B1B0AFAEADACABAAA9A8A8A7A6A5A4C9
:105A3000A3A3A2A1A09F9F9E9D9C9C9B9A9999988D
:105A40009797969595949393929191908F8F8E8E30
:105A50008D8C8C8B8B8A89898888878786858584BD
:105A600084838382828181800000FF070000F87FA9
:105A70004FEA1153A3F58063D3F11E03A8BFD3F1FE
:105A8000200C08DB4FF0004242EAC12252EA505299
:105A900032FA03F0704709420BD4102BC4BF002028
:105AA000704703F5787CBCF1FF3F05D04FF0FF3025
:105AB00070474FF00000704770B500F0EDF800BF80
:105AC0004992248000207047F0E7000051EA030C5F
:105AD00017D41CF5801F58BFBCF5801F00F106804D
