:020000040800F2
:10000000F0750020C5020008CD020008CF020008EC
:10001000D1020008D3020008D50200080000000049
:100020000000000000000000000000002D02000899
:10003000D902000800000000710200082124000815
:10004000DF020008DF020008DF020008DF0200080C
:10005000DF020008DF020008DF020008DF020008FC
:10006000DF020008DF020008DF020008DF020008EC
:10007000DF020008DF020008DF020008DF020008DC
:10008000DF020008DF020008DF020008DF020008CC
:10009000DF020008DF020008DF020008DF020008BC
:1000A000DF020008DF020008DF020008DF020008AC
:1000B000DF020008DF020008C1240008DF02000898
:1000C000DF020008DF020008DF020008DF0200088C
:1000D000DF020008F9300008DF020008DF02000834
:1000E000DF020008DF020008DF0200080000000055
:1000F0000000000000000000000000000000000000
:100100000000000000000000DF020008DF0200081D
:10011000DF020008DF020008DF020008DF0200083B
:10012000DF020008DF020008DF020008DF0200082B
:10013000DF020008DF020008DF020008DF0200081B
:10014000DF020008DF020008DF020008DF0200080B
:1001500000F002F800F05AF80AA090E8000C82447F
:100160008344AAF10107DA4501D100F04FF8AFF25C
:10017000090EBAE80F0013F0010F18BFFB1A43F085
:100180000103184778720000987200000A444FF08B
:10019000000C10F8013B13F0070408BF10F8014BE6
:1001A0001D1108BF10F8015B641E05D010F8016B2B
:1001B000641E01F8016BF9D113F0080F1EBF10F88F
:1001C000014BAD1C0C1B09D16D1E58BF01F801CBB2
:1001D000FAD505E014F8016B01F8016B6D1EF9D535
:1001E0009142D6D37047000000230024002500264A
:1001F000103A28BF78C1FBD8520728BF30C148BF8A
:100200000B6070471FB51FBD10B510BD00F03DF964
:100210001146FFF7F7FF03F05FFC00F05BF903B452
:10022000FFF7F2FF03BC00F063F90000224B1968EE
:100230000868B0E8F00F80F30988BFF36F8F4FF0C4
:10024000000080F311884EF00D0E70470000000092
:1002500006480068006880F3088862B661B6BFF39C
:100260004F8FBFF36F8F00DF00BF00BF08ED00E0CE
:10027000EFF30980BFF36F8F0F4B1A6820E9F00F7F
:10028000106008B54FF0A00080F31188BFF34F8FC6
:10029000BFF36F8F04F0D6FE4FF0000080F311889B
:1002A000BDE8084019680868B0E8F00F80F30988D5
:1002B000BFF36F8F704700BF18040020EFF3058075
:1002C000704700000948804709480047FEE7FEE7FD
:1002D000FEE7FEE7FEE7FEE7FEE7FEE7FEE7FEE7F6
:1002E00004480549054A064B70470000552400089C
:1002F00051010008F06F0020F0750020F07100201F
:10030000F0710020032A40F2308010F0030C00F05E
:10031000158011F8013BBCF1020F624498BF11F83F
:1003200001CB00F8013B38BF11F8013BA2F10402F8
:1003300098BF00F801CB38BF00F8013B11F0030370
:1003400000F07180083AC0F0088051F8043B083A88
:1003500051F804CBA0E80810F5E7121D5CBF51F876
:10036000043B40F8043BAFF30080D20724BF11F8F0
:10037000013B11F801CB48BF11F8012B24BF00F855
:10038000013B00F801CB48BF00F8012B70474FF04C
:1003900000020429C0F0128010F0030C00F01B8052
:1003A000CCF1040CBCF1020F18BF00F8012BA8BF60
:1003B00020F8022BA1EB0C0100F00DB85FEAC17C24
:1003C00024BF00F8012B00F8012B48BF00F8012BD7
:1003D00070474FF0000200B5134694469646203908
:1003E00022BFA0E80C50A0E80C50B1F12001BFF4EE
:1003F000F7AF090728BFA0E80C5048BF0CC05DF854
:1004000004EB890028BF40F8042B08BF704748BFA1
:1004100020F8022B11F0804F18BF00F8012B704715
:1004200070477047704710B5203AC0F00B80B1E8B4
:100430001850203AA0E81850B1E81850A0E8185019
:10044000BFF4F5AF5FEA027C24BFB1E81850A0E822
:10045000185044BF18C918C0BDE810405FEA827C3C
:1004600024BF51F8043B40F8043B08BF7047D20753
:1004700028BF31F8023B48BF11F8012B28BF20F8F4
:10048000023B48BF00F8012B7047754600F02CF87E
:10049000AE4605006946534620F00700854618B071
:1004A00020B5FFF71DFFBDE820404FF000064FF0DC
:1004B00000074FF000084FF0000B21F00701AC4699
:1004C000ACE8C009ACE8C009ACE8C009ACE8C009B8
:1004D0008D46704710B50446AFF300802046BDE856
:1004E0001040FFF79CBE000000487047906F00204E
:1004F00001491820ABBEFEE726000200704721B17B
:10050000826842F00102826003E0826822F0010208
:1005100082607047014600208A6802F004020AB136
:10052000012000E0002070470146C86C80B270478F
:100530000246002013680B400BB1012000E00020B0
:100540007047014600208A6802F008020AB10120C3
:1005500000E000207047000030B502460020002374
:1005600050680F4C20400D790C6844EA0524204364
:10057000506090680B4C2040D1E902542C434D79D7
:1005800044EA450420439060D06A20F470000C7C5B
:10059000641EE4B2234340EA0350D06230BD000041
:1005A000FFFEF0FFFDF7F1FFF0B504460D46002019
:1005B0000021092D11DDE068A5F10A0606EB4607CA
:1005C000072606FA07F18843A5F10A0606EB460658
:1005D00003FA06F10843E0600CE0206905EB4507EB
:1005E000072606FA07F1884305EB450603FA06F1EC
:1005F00008432061072A0FDA606B561E06EB860758
:100600001F2606FA07F18843561E06EB860605FAF2
:1006100006F10843606322E00D2A0FDA206BD61F33
:1006200006EB86071F2606FA07F18843D61F06EB5E
:10063000860605FA06F10843206310E0E06AA2F19D
:100640000D0606EB86071F2606FA07F18843A2F17E
:100650000D0606EB860605FA06F10843E062F0BDDA
:10066000816841F008018160704721B1826842F4DD
:10067000A002826003E0826822F4A00282607047D8
:10068000816841F0040181607047002101600171BF
:1006900041718160C16001210174704700210C200B
:1006A0000F4A9268C24002F0010211430D200C4A29
:1006B0009268C24002F0010241EA42010E20084A5B
:1006C0009268C24002F0010241EA82010F20044A0E
:1006D0009268C24002F0010241EAC2010846704736
:1006E000000C014010B5002302220C210A4800F042
:1006F00059FB002302220D21074800F053FB002381
:1007000002220E21044800F04DFB002302220F219B
:10071000014800F047FB10BD000C01402DE9F047F7
:100720000446204600F084F8054606F01FFC81468A
:10073000484606F04FFA07460022054B05F068FED2
:10074000054605F07FFD81464846BDE8F08700007C
:10075000000059402DE9F04704460020FFF7DEFF76
:1007600080460120FFF7DAFF8146002549464046D2
:1007700006F094FD824606F02DFA21F0004106466F
:1007800005F060FD0546284606F024FA06460022DC
:10079000054B06F0FFF801D2012000E00020207098
:1007A0004046BDE8F08700000000E03F0146012917
:1007B00002DD4FF0FF307047014830F83100FAE7B2
:1007C000680600200146012902DD4FF0FF30704726
:1007D000024800EBC1008088F9E7000068060020AD
:1007E0000146012902DD4FF0FF307047014830F823
:1007F0001100FAE7300000200146012902DD4FF028
:10080000FF307047024800EBC1004088F9E7000064
:10081000680600200146012902DD4FF0FF307047D5
:10082000024800EBC100C088F9E70000680600201C
:100830000146012902DD4FF0FF307047014830F8D2
:100840001100FAE72C0000202DE9F84F002468463B
:10085000FFF780FF83460021584606F0B3FB02D322
:100860009DF8000010B14FF6FF7411E0584606F0F5
:10087000B1F907460022084B05F08EFF054605F04A
:10088000E1FC824603F0F8FF814606F033FB0446A4
:100890002046BDE8F88F0000000024401FB502F09C
:1008A00019FD00F08BF910216B48FFF770FD002057
:1008B0006A49088048806A49088048808046082242
:1008C0006549C82000F0CAF98046B8F1000F05D08C
:1008D0006148008810B16048808808B904F038F891
:1008E00005F00AF9039000BF01205E49087000BFBF
:1008F000FA2103A805F084F800BF002414E00025C5
:10090000002708E05849085D02F024FD0544012055
:1009100004F028FA7F1C142FF4DB1420B5FBF0F050
:10092000524921F81400641C022CE8DB00248EE0FC
:10093000494901EBC4018988474A32F83420881AB2
:1009400006F014FB82460021504606F09FFA01D1C2
:10095000002539E0404901EBC401C9883E4A02EB59
:10096000C4025288881A06F001FB02905146029890
:1009700006F0CAF98146384931F8340006F00EFB1A
:100980004946009006F052FB8346334901EBC4010F
:10099000488806F003FB5946019006F07FFC0746A5
:1009A000324931F8140006F0F9FA4946019006F090
:1009B0003DFB8346394606F039F9054600212846B5
:1009C00006F000FB00D20025284603F055FF8346C1
:1009D00006F0ACFA04EB8401254A02EBC1011F4A80
:1009E00032F8142021F812001C4830F81400401C82
:1009F00080B21A4921F81400142802DB002021F8E3
:100A00001400174830F81400142806DA144830F897
:100A10001400401C124921F814000026002008E0B0
:100A200004EB8401124A02EBC10131F810100E44AC
:100A3000401C0B4931F814108142F1DC084830F8B1
:100A40001400B6FBF0F00B4921F81400641C022CD2
:100A5000BFF64AAF6CE700006806002034000020B3
:100A60003800002020000020D4730008300000204F
:100A7000780600202C00002073B50446012C01DD0F
:100A800000207CBD0CB9C82000E0D0200646012221
:100A900001A9304600F028F9054625B1BDF804004B
:100AA000024921F834002846EBE7000068060020E0
:100AB00073B50446012C01DD00207CBD0CB9CC20AF
:100AC00000E0D4200646012201A9304600F00CF9CE
:100AD00005462DB1BDF80400024901EBC401888030
:100AE0002846EAE76806002073B50446012C01DDBC
:100AF00000207CBD0CB9CA2000E0D22006460122AD
:100B000001A9304600F0F0F805462DB1BDF804000B
:100B1000024901EBC40148802846EAE76806002044
:100B200073B50446012C01DD00207CBD0CB9CE203C
:100B300000E0D6200646012201A9304600F0D4F894
:100B400005462DB1BDF80410024800EBC400C18079
:100B50002846EAE76806002010B5002303220B218F
:100B6000074800F01FF9002303220A21044800F07F
:100B700019F9002303220C21014800F013F910BDDC
:100B80000010014070B54AF2010580EA010444F406
:100B90007F4440F0FF0604EA060000220BE000F06C
:100BA0000103044600EBD476C6F34F0013B14AF2BA
:100BB00001046040521C082AF1D370BD10B5012019
:100BC00004F00EFB0349086002F06CFD01200249AD
:100BD000087010BD400000203C0000202DE9F041CD
:100BE00080460F4615461B48007808B9FFF7E6FF18
:100BF0004FF0FF311848006804F0C0FD012826D1ED
:100C000002F04EFE404602F0E2FC06469EB102F0C3
:100C100047FEA12002F0FAFD064666B1002408E076
:100C200002F098FD3855681EA04201D002F002FD86
:100C3000641CAC42F4DB02F079FE00231A4619462C
:100C40000548006804F07EFB3046BDE8F0810020D6
:100C5000FBE700003C000020400000202DE9F041AF
:100C600006460D4614462F464FF6FF7000EA440232
:100C700039463046FFF7B2FF80464046BDE8F08176
:100C80002DE9F04180460E4617461548007808B910
:100C9000FFF794FF0024611E1248006804F06EFD07
:100CA000012819D102F0FCFD404602F090FC0446F8
:100CB000002504E0705D02F0A9FD04466D1CBD42F4
:100CC00001DA002CF6D102F031FE00231A46194653
:100CD0000448006804F036FB2046BDE8F0810000BF
:100CE0003C000020400000202DE9F04106460D4662
:100CF00014462F464FF6FF7000EA4402394630464C
:100D0000FFF7BEFF80464046BDE8F08101461D4822
:100D1000814204D11C488069C0F3800070471B48A1
:100D2000814204D118488069C0F3C000F6E7184832
:100D3000814204D114488069C0F30010EEE71548E1
:100D4000814204D110488069C0F34010E6E71248A0
:100D5000814204D10C488069C0F38010DEE70F485F
:100D6000814204D108488069C0F3C010D6E70C481E
:100D7000814204D104488069C0F30020CEE70020FE
:100D8000CCE700000008014000100240000C0140C8
:100D9000001001400014014000180140001C0140F7
:100DA000002001402DE9F04105460C4617469846C3
:100DB0000F2C02D90020BDE8F0812846FFF7A6FFDE
:100DC00018B90121284600F071F8B8F1000F10D1D0
:100DD000022F05D1E8680121A1408843E86008E0BE
:100DE000032F06D127F00107E8680121A14008433D
:100DF000E860082C01D22E4601E0083C2E1D306828
:100E0000A2000F2191408843306048EA8700A1008A
:100E100088403168084330600120CCE7F0B50A46CD
:100E2000002300240021002500F00046B6F1004F09
:100E300002D11D4EF16901E01B4E7168C0F30345FC
:100E400083B200F44016B6F5401F08D121F070615E
:100E5000154E766826F07066134F7E6012E000F43F
:100E60008016B6F5801F06D1032606FA05F4A143C5
:100E700041F0706106E0460D360103FA06F6B14313
:100E800041F0706122B1460D360103FA06F6314396
:100E900000F00046B6F1004F02D1034EF16101E0CF
:100EA000014E7160F0BD000000000140002945D0F6
:100EB000454A904206D1454A926942F00402434BAA
:100EC0009A6180E0424A904206D1404A926942F0DB
:100ED00008023E4B9A6176E03E4A904206D13B4A78
:100EE000926942F01002394B9A616CE03A4A9042A2
:100EF00006D1364A926942F02002344B9A6162E090
:100F0000364A904206D1314A926942F040022F4B54
:100F10009A6158E0324A904206D12C4A926942F0D6
:100F200080022A4B9A614EE02E4A90424BD1274ACA
:100F3000926942F48072254B9A6144E0224A9042C1
:100F400006D1224A926922F00402204B9A613AE0CB
:100F50001F4A904206D11D4A926922F008021B4B9B
:100F60009A6130E01B4A904206D1184A926922F0F9
:100F70001002164B9A6126E0174A904206D1134A96
:100F8000926922F02002114B9A611CE0134A9042B0
:100F900006D10E4A926922F040020C4B9A6112E08F
:100FA0000F4A904206D1094A926922F08002074B0B
:100FB0009A6108E00B4A904205D1044A926922F4F2
:100FC0008072024B9A617047000801400010024095
:100FD000000C0140001001400014014000180140C5
:100FE000001C0140002001400148007870470000CB
:100FF000000000204CF6CC4001490860704700001A
:10100000003000404AF6AA200149086070470000FD
:101010000030004001494860704700000030004047
:1010200001498860704700000030004001490860B5
:10103000704700000030004010B500F097FAFFF74D
:1010400051FBFFF789FD02F0BDFC0020014908704B
:1010500010BD0000000000200720064A9268C24030
:1010600002F001020AB1012000E00020014608461A
:1010700070470000001001400849097851B908493B
:10108000097839B90749097821B90749097809B1B7
:10109000012100E000210846704700000200002006
:1010A0000400002003000020D00300200B20064A8B
:1010B0009268C24002F001020AB9012000E000205B
:1010C0000146084670470000000C014000F0010195
:1010D00049B1002105E000220A4B03EB81039A701D
:1010E000491C0229F7DB00F0020149B1022105E0A9
:1010F0000022044B03EB81039A70491C0429F7DB9F
:1011000070470000C806002000F0010149B100212D
:1011100005E001220A4B03EB81039A70491C022966
:10112000F7DB00F0020149B1022105E00122044B86
:1011300003EB81039A70491C0429F7DB7047000018
:10114000C806002010B5002003E00021044A5170B9
:10115000401C0428F9DB002000F022F910BD00003B
:10116000C80600202DE9F74F84B089469246B9F1B0
:10117000010F01D1002000E0022004460021049864
:1011800005F020FF15D200208DF80E0001208DF80B
:101190000D0000208DF80F000A208DF80C00E0B241
:1011A00003A900F055F8611CC8B203A900F050F87B
:1011B00045E0049805F00EFD07460022214B05F09E
:1011C000EBFACDE9000105F03DF8029003F054FB85
:1011D00005461D49284605F0F5FF00D21A4D1B496A
:1011E000284605F091FD074605F084FE064606EB0D
:1011F0008601480005F0BAFE8046294606F044F80C
:10120000074605F077FE83468DF80EA001208DF885
:101210000D008DF80F00F0B28DF80C00E0B203A9BC
:1012200000F016F800208DF80F000BF0FF008DF88D
:101230000C00611CC8B203A900F00AF800BF07B097
:10124000BDE8F08F000024400000C64200002041AD
:10125000042805DA21B1034A02EB80020B6813600F
:1012600070470000C806002038B5FFF76BFF4FF449
:10127000FA7003F077FD01208DF8030000208DF84F
:10128000020001208DF801000A208DF800000020E6
:101290008DF80300002404E0E0B26946FFF7D8FFB0
:1012A000641C042CF8DB012000F07AF84FF4FA708B
:1012B00003F058FD092415E0E0B28DF8000001208C
:1012C0008DF80300002504E0E8B26946FFF7C0FF8F
:1012D0006D1C042DF8DB012000F062F8FA2003F009
:1012E00041FD641E002CE7DA0A208DF80000002082
:1012F0008DF80300002404E0E0B26946FFF7A8FF80
:10130000641C042CF8DB012000F04AF84FF4FA705A
:1013100003F028FD38BD000010B5022300220D2186
:101320001E48FFF73FFD022300220E211B48FFF756
:1013300039FD022300220F211848FFF733FD0D204D
:10134000002121B101228240144B1A6105E000F115
:10135000100201239340114A136100BF0E200021A7
:1013600021B1012282400D4B1A6105E000F110020B
:1013700001239340094A136100BF0F20002121B1CE
:1013800001228240054B1A6105E000F110020123A1
:101390009340024A136100BF10BD000000100140DD
:1013A0002DE9F041054603F0D9FB4248407B18B1D6
:1013B0004048807B10B10DB9002408E03D48007B17
:1013C0003D490C5C3B48C07B08B144F080042606D4
:1013D0003848407A18B13748807A10B10DB90024E6
:1013E00008E03448007A34490C5C3248C07A08B1CD
:1013F00044F0800446EA04462E48407918B12D484E
:10140000807910B10DB9002408E02A4800792A49F2
:101410000C5C2848C07908B144F0800446EA0426F0
:101420002448407818B12348807810B10DB90024C1
:1014300008E02048007820490C5C1E48C07808B1BC
:1014400044F0800426431F271AE00F200122BA40EF
:1014500032400AB1012200E00022114601F00102EF
:1014600022B101228240154B1A6105E000F1100201
:1014700001239340114A136100BF02F0D5FA7F1E89
:10148000002FE2DA0F20002121B1012282400B4B14
:101490001A6105E000F1100201239340074A13612D
:1014A00000BF642001F09CFF02F0EAFA03F080FB29
:1014B000BDE8F081C8060020920300200010014022
:1014C00030B5014609B1012000E0002003460320A9
:1014D00083F0010202F0010424B101248440054D8F
:1014E0002C6105E000F110040125A540014C2561A7
:1014F00000BF30BD0010014070B5072800DB70BD93
:101500000A4D55F8302005EBC005AB880C4604F0B9
:1015100001051DB101259D40156104E003F1100591
:101520000126AE40166100BF00BFE8E788730008DF
:1015300030B50021084613E00B4C54F8301004EB92
:10154000C004A28800231BB1012494400C6104E074
:1015500002F110040125A5400D6100BF411C0846A1
:101560000728E9DB30BD00008873000870B500244F
:101570001DE0154A02EBC4029188134A52F8340068
:1015800002230022FFF70EFC0F4B53F8340003EB4D
:10159000C403998801221AB101238B40036104E03E
:1015A00001F1100301259D40056100BF641C072C5B
:1015B000DFDB0223012203210448FFF7F3FB0020B5
:1015C000FFF77EFF70BD0000887300080010014027
:1015D00003F052FA03F0E6F900F05AFE03F0D6F9F0
:1015E00000BF012003F0BEFB01200D4908700D482B
:1015F00000780028F5D00120FFF762FF0A4800F0CC
:10160000FBF8044600200749087014B1204600F09A
:10161000ADF903F0BBF90020FFF752FFE1E700004E
:101620001F000020250000206804002038B5044673
:1016300054B900BFA02080F31188BFF34F8FBFF3D0
:101640006F8F00BF00BFFEE7002003460246032164
:101650000090204604F0B4FD01200149087038BD17
:10166000D10300202DE9F84F8146B9F1000F0AD1CE
:1016700000BFA02080F31188BFF34F8FBFF36F8F9F
:1016800000BF00BFFEE70020034602460321009092
:10169000484604F095FD37493748006805F092FD4B
:1016A00001D8002408E035493348006805F08AFD78
:1016B00001D8012400E00224314800EBC4008088F6
:1016C0004FF6FF71884221D02D4800EBC400C0883E
:1016D00088421BD02A4901EBC401C88805F05EFC92
:1016E000824605F077FA05460022264B04F090FE6C
:1016F000074604F0A7FD244908604FF080412248C6
:10170000006805F001FB2049086012E01C4901EB6C
:10171000C401488805F042FC824605F05BFA0746A2
:101720000022184B04F074FE054604F08BFD1649A8
:10173000086016491448006805F044FD05D30F49B8
:101740001148006805F03EFC02D20C480E490860C2
:1017500004F0D2F90546002003462A4601210090F4
:101760000B48006804F02CFD01200A490870BDE810
:10177000F88F00000000C0400C0000200000A040D6
:10178000D806002000002440B80300200000BE421C
:10179000D8030020D003002010B503F003F9012086
:1017A0000149087010BD00002500002010B5044656
:1017B0000E480078C8B900210D4800F08EFE0021C7
:1017C0000B4800F09FFE0121094800F086FE094801
:1017D0000078FA2801DB03F01FF80648017800784A
:1017E000401C044A1070501C445410BD25000020B9
:1017F000000800406804002070B505460DB90020BF
:1018000070BD284602F0FCF808B90020F8E76C1C0F
:10181000FFF7EAFB2178884201D00020F0E700269C
:101820006078032802D0102810D107E02878001F24
:10183000C1B2A01C00F006F906460DE02878001F92
:10184000C1B2A01C01F0B6FC064605E0607801219B
:1018500002F0C8F9064600BF00BF0EB10148CFE74D
:101860000020CDE76305002029B1064AD269024372
:10187000044BDA6104E0034AD2698243014BDA6126
:10188000704700000010024029B1064A92690243E5
:10189000044B9A6104E0034A92698243014B9A61C6
:1018A000704700000010024010B5014600220023DE
:1018B00000204A11012A02D1094C236806E0022ABD
:1018C00002D1074C236A01E0054C636A01F01F0254
:1018D000012494401C400CB1012000E0002010BD08
:1018E0000010024001490860704700008004424235
:1018F0002DE9F04107460D4615B90020BDE8F081FD
:10190000384601F077FE04465CB1606848B16088F3
:10191000616888470646002E02DB2E800120EDE735
:1019200000BF0020EAE72DE9F04105460E462846B3
:1019300001F060FE044654B1A06838B16088A26826
:101940003146904707463846BDE8F08100BF002089
:10195000FAE730B50546284601F04CFE04461CB1B6
:10196000A06808B1012030BD0020FCE710B5044696
:1019700004B910BD02F0B4FD00200B4908600AE074
:10198000611C094A1268885C02F064FE064800681F
:10199000401C054908602078034909688842EFDC4B
:1019A00002F088FD00BFE4E7280000202DE9F8439D
:1019B0008046022269466420FFF710F918B94FF0FB
:1019C000FF30BDE8F883BDF8000005F0E7FA0446F3
:1019D000154905F0F7FA08D3BDF8000005F0DEFA66
:1019E0000446124905F0EEFB06D232200090BDF805
:1019F0000010002001F0A0FBBDF8000005F0CEFAB9
:101A00000B4908600846006805F0E4F80646002225
:101A1000084B04F0FDFC044604F014FC0449086083
:101A2000BDF80000CDE700000000A0410000C84262
:101A30000C00002000002440014601480078704757
:101A4000010000202DE9F043B3B00546894615B1E9
:101A5000B9F1040F03D0002033B0BDE8F0832C4669
:101A60006088000AA17840EA012060802088000A8E
:101A7000217840EA012020806088642805DD032168
:101A8000084602F0AFF80120E6E70DF10107002655
:101A9000B4F800801AE007EB46014046FFF728FF44
:101AA00028B90221032002F09DF80120D4E737F87D
:101AB0001600000A17F8161040EA012027F8160051
:101AC00008F101001FFA80F8701CC6B220886188F6
:101AD00008444045DFDCA0784006000E8DF8000089
:101AE000FFF782FA8046A078012101EB4000C3B2E3
:101AF0006A460321404602F09DF80120ACE7000051
:101B00002DE9FC4701218948FFF788F900230322CA
:101B10000B218748FFF746F9022300220721854859
:101B2000FFF740F90223002208218248FFF73AF923
:101B30000720002121B1012282407E4B1A6105E07D
:101B400000F11002012393407A4A136100BF002183
:101B50000846FFF7D1FC002002F060FF00240322BA
:101B600069466620FFF77AF808B9012406E0BDF857
:101B7000000010B1BDF8020000B9012484B36E4822
:101B80006E4908606E486F4908604FF07E506E499C
:101B900008606E496948006805F048FA054605F096
:101BA000C5F980B2ADF8000068496648006805F0E4
:101BB0003DFA054605F0BAF980B2ADF80200634976
:101BC0006148006805F032FA054605F0AFF980B2C9
:101BD000ADF80400032269466620FFF785F833E07C
:101BE000FFE7BDF8000005F0D9F9814604F0F2FFE7
:101BF00007460022564B04F00BFC054604F022FB7E
:101C00004E490860BDF8020005F0C8F9814604F0AD
:101C1000E1FF074600224E4B04F0FAFB054604F0B4
:101C200011FB48490860BDF8040005F0B7F981468A
:101C300004F0D0FF07460022454B04F0E9FB0546BF
:101C400004F000FB40490860012242496C20FFF784
:101C500005F810B13F48008830B905203D4908809B
:101C600001226C20FFF740F801223B496E20FEF76D
:101C7000F5FF10B13848008830B95A20364908803D
:101C800001226E20FFF730F8012234497020FEF760
:101C9000E5FF10B13148008830B903202F49088092
:101CA00001227020FFF720F818222D494FF496707A
:101CB000FEF794FF10B902F019FE19E0002500208C
:101CC00010E0274901EBC0010988282905DB2449D8
:101CD00001EBC0010988462901DD012100E0002156
:101CE0000D43401C0328ECDB0DB102F0FFFD00BFEB
:101CF00001221C497220FEF7B1FF10B1194800887B
:101D000030B905201749088001227220FEF7ECFF48
:101D100014480088142806DD142012490880012286
:101D20007220FEF7E1FFBDE8FC87000000023000F2
:101D3000000C0140001001400000A040AC03002056
:101D40009A99193EA4030020A803002000007A44B9
:101D500000408F40B0030020B2030020B4030020F5
:101D6000D8060020B603002001460C292BD2DFE85C
:101D700001F006090C0F1215181B1E212427144808
:101D80000088704712484088FBE711488088F8E7D0
:101D90000F48C088F5E70E480089F2E70C484089F3
:101DA000EFE70B488089ECE70948C089E9E7084874
:101DB000008AE6E70648408AE3E70548808AE0E7CC
:101DC0000348C08ADDE700BF00BF4FF0FF30D8E70F
:101DD000D806002073B504460025012C05D0052C3B
:101DE00003D0092C01D000207CBD4FF4967000EB8D
:101DF000440086B2012201A93046FEF775FF054670
:101E00009DB1012C04D1BDF80400094948800CE0C3
:101E1000052C04D1BDF804100548418105E0092CCA
:101E200003D1BDF80410024841822846DCE70000D7
:101E3000D806002070B504464FF0FF3524B1012CC0
:101E40000CD0022C1ED113E011491248006805F095
:101E5000EDF8064605F04EF8054616E00C490E482A
:101E6000006805F0E3F8064605F044F805460CE086
:101E700007490A48006805F0D9F8064605F03AF81F
:101E8000054602E04FF0FF3500BF00BF284670BD99
:101E900000007A44AC030020A4030020A803002023
:101EA0000146014800887047B60300202DE9F0473D
:101EB00004464FF0FF3A04F0FF09B9F10D0F7BD251
:101EC000DFE809F07A070B0F131D22273949546602
:101ED00071003B4890F800A06EE03A4890F800A0EE
:101EE0006AE0394890F800A066E038493848006850
:101EF00005F09CF8054604F0FDFF82465CE00020FA
:101F0000FEF796FC824657E00120FEF791FC8246E0
:101F100052E02E492F48006805F088F8804602F00C
:101F2000ABFC074604F056FE21F00041054604F0E4
:101F3000C7FB824640E02848006804F04BFE21F0D1
:101F4000004107460022254B04F026FC054604F01C
:101F5000B7FB824630E000211F48006805F032F9E7
:101F600001D8012000E00020824625E017491C48E6
:101F7000006805F05BF8804602F07EFC074604F03E
:101F800029FE21F00041054604F09AFB824613E049
:101F900000211348006805F015F901D8012000E080
:101FA0000020824608E00F490868002801DB01464E
:101FB00000E041428A4600BF00BF5046BDE8F087BE
:101FC0000200002004000020030000200000C8429E
:101FD0000C000020B8030020BC0300200000594082
:101FE000C0030020C40300200146014A1088704746
:101FF000B40300200146014A10887047B203002054
:102000000146014A10887047B00300202DE9F35FB4
:102010000446022C02DD0020BDE8FC9F662000EB98
:1020200044001FFA80FA022201A95046FEF728FE5A
:102030008146B9F1000F3DD024B1012C14D0022CFF
:1020400036D123E0BDF8040004F0A8FF834604F075
:10205000C1FD07460022184B04F0DAF9054604F0EA
:10206000F1F81649086024E0BDF8040004F096FF7A
:10207000834604F0AFFD074600220F4B04F0C8F979
:10208000054604F0DFF80E49086012E0BDF80400D0
:1020900004F084FF834604F09DFD05460022064BB4
:1020A00004F0B6F9074604F0CDF80649086000E0F0
:1020B00000BF00BF4846AFE700408F40AC030020A0
:1020C000A4030020A803002073B50546BDF8040052
:1020D0000A2801DD0A200190012201A97220FEF7E1
:1020E00003FE04461CB1BDF80400024908802046E6
:1020F0007CBD0000B603002073B50546BDF80400A2
:10210000032802DA0320019005E0BDF804000A2844
:1021100001DD0A200190012201A97020FEF7E4FDF3
:1021200004461CB1BDF804000149088020467CBD6E
:10213000B403002073B50546012201A96E20FEF705
:10214000D3FD04461CB1BDF80400024908802046B6
:102150007CBD0000B203002073B50546012201A931
:102160006C20FEF7C1FD04461CB1BDF80400024915
:10217000088020467CBD0000B003002008B5002088
:10218000104908601049086010490860104811495A
:1021900008600020009010480088002805DD0E48E7
:1021A00000884FF47A71484300E06420024600231F
:1021B00004210A48006804F003F8012002F014FC2E
:1021C00008BD0000BC030020C0030020C80300209D
:1021D0000000E040CC030020B0030020D403002026
:1021E00008B52248006850B900BFA02080F31188CC
:1021F000BFF34F8FBFF36F8F00BF00BFFEE71C48D8
:10220000006850B900BFA02080F31188BFF34F8F42
:10221000BFF36F8F00BF00BFFEE7002003460246FA
:10222000032100901248006803F0CAFF0020034613
:102230000246032100900D48006803F0C1FF002012
:102240000C4908700C4908700C4908600C480D498D
:10225000086000200C4908600C49086005490870B6
:102260000549087002F0C0FB08BD0000D80300203B
:10227000D4030020D0030020D1030020C00300209D
:102280000000A040B8030020BC030020C8030020C9
:1022900010B50223002208212F48FEF783FD0820F5
:1022A000002121B1012282402B4B1A6105E000F18F
:1022B000100201239340284A136100BF2748806918
:1022C00040F480402549886140F24130244908802B
:1022D000081D008842F22C0108432149091D08808D
:1022E0001E48806940F005001C4988611A48001D9D
:1022F000006820F0C0001849091D08600846006801
:1023000040F0800008600846006840F01000086057
:102310000846006820F4406008600846006840F401
:10232000806008600846006820F44070086025203E
:1023300000280DDB00BF00BF00F01F02012191400B
:102340004209920002F1E022C2F8001100BF00BF72
:1023500000BF62B610BD000000080140001002403E
:10236000083801402DE9F04106460C460025174982
:10237000304604F027FE01D2022505E0144930461C
:1023800004F020FE00D201251249304604F04EFE32
:10239000804602F071FA074604F0C8FD0E4901EBD1
:1023A000C50188800B49204604F040FE074604F032
:1023B000BDFD094901EBC501C880182206494FF44B
:1023C0009670FEF75DFCBDE8F08100000000A040C3
:1023D0000000C04000002041D806002070470000E7
:1023E0002DE9F0470446204604F0F4FB074600229E
:1023F0000A4B04F0D1F9054603F024FF04462046B9
:1024000002F03AFA054604F091FD1FFA80F94946B8
:10241000002000F091FEBDE8F0870000000024409D
:1024200010B500BFA02080F31188BFF34F8FBFF31A
:102430006F8F00BF03F066FB18B14FF08050044966
:10244000086000BF002080F3118800BF10BD0000AD
:1024500004ED00E010B51648006840F00100144992
:10246000086008464068134908401149486008461A
:102470000068114908400E4908600846006820F4C9
:10248000802008600846406820F4FE004860084646
:10249000006820F0A05008604FF47F0088600020A2
:1024A000C862FFF79BFF4FF000600449086010BD51
:1024B000001002400000FFF0FFFFF6FE08ED00E014
:1024C00010B50121024800F005F8FFF765F910BDCD
:1024D00000080040CA430282704721B1028842F0DE
:1024E0000102028004E002884FF6FE731A40028067
:1024F00070471AB183890B43838102E083898B4340
:102500008381704781847047002202881D4B984266
:102510000ED01D4B98420BD0B0F1804F08D01B4B12
:10252000984205D01A4B984202D01A4B984204D1D7
:102530004FF68F731A404B881A43174B984207D0B7
:10254000164B984204D04FF6FF431A40CB881A43EB
:1025500002808B8883850B8803850A4B98420BD0B9
:10256000094B984208D00E4B984205D00D4B98422B
:1025700002D00D4B984201D10B7A0386012383824E
:1025800070470000002C014000340140000400406E
:1025900000080040000C0040001000400014004003
:1025A0000040014000440140004801404FF6FF71E7
:1025B000818000210180C18041800172704700004C
:1025C00000BF012015490870FEF768F8044614485A
:1025D0000078844220D04FF4FA6002F0C3FB01205F
:1025E0000E490870FEF75AF8A04215D10C490C703C
:1025F00000250FE00120FEF763FFC82002F0B2FBC8
:102600000120064908700020FEF75AFFC82002F09A
:10261000A9FB6D1CA542EDDBD3E700001C000020E8
:102620000000002008B500BF03F066FA009000BF6C
:1026300000BF4FF4FA51684603F0E2F900BF1548B5
:102640000078C8B114480078B0B11448007898B147
:102650001348007880B11348007868B112480078B8
:1026600050B11248007838B11148007820B11148B3
:10267000007808B1012000E00020044614B102F007
:10268000D1F8D5E7FEF754FF00BF642002F06AFBE3
:10269000FBE700001C0000201D0000201E000020A1
:1026A0001F00002020000020210000202200002028
:1026B00023000020240000201FB500BF00BF00BF82
:1026C0004FF00009CA46CB460025002600200390A3
:1026D00002900190009000BF01203E49087000F078
:1026E000EBFD074600F0DAFD804600F0C9FD044628
:1026F0008FB9B9F1000F0CD0029830B9B5F5FA7F57
:1027000005DA01203449087001E000200090002023
:102710000290002511E0B9F1000F0ED01935B5F582
:10272000966F0ADDB6F5966F07DD009828B901208F
:102730002A490870029001900090B8F1000F11D161
:10274000BAF1000F0CD0019830B9B6F5FA7F05DA6E
:1027500001202349087001E0002000900020019032
:10276000002611E0BAF1000F0ED01936B5F5966FBC
:102770000ADDB6F5966F07DD009828B901201749E4
:10278000087002900190009044B900200390BBF1C2
:10279000000F18D001201349087014E01248007887
:1027A00078B9BBF1000F0CD003981930039003984F
:1027B000B0F5966F07DD01200B49087000200390EB
:1027C00001E000200390C246B946A346192002F05A
:1027D000C9FA81E71E00002010000020120000202E
:1027E00011000020140000201300002008B5002074
:1027F00002F014F900203F4908603F4908604FF497
:102800007A7002F0AFFA00BF01203C490870FEF771
:1028100033FC18B9322002F0A5FAF5E703F06CF9A1
:102820000090354800683649086008460168354818
:10283000006804F0FBF93349086033493148006807
:1028400004F0C0FC02D230482E4908602F492D48C0
:10285000006804F0B7FB02D22C482A4908602C49D2
:10286000098801EB8101480004F080FB814625487E
:102870000168484604F0DAFB804604F03BFB25493A
:102880000860084605682248008800EB4001C1EB5B
:10289000C0106421C1EBC000461B012002F0BEF84D
:1028A000284602F05FFA002002F0B8F8304602F045
:1028B00059FA03F021F904460098201A14490988AE
:1028C00001EB4102C2EBC111B0EBC10F0AD200987B
:1028D000201A0F49098801EB4102C2EBC111C0EB7C
:1028E000C10700E00A2700BF3946684603F088F8B0
:1028F00000BF89E7C8030020BC030020230000209C
:10290000C0030020B80300200000BE420000A04029
:10291000B4030020C403002008B50124FEF7FCFC2A
:10292000FEF7A2FC00BF03F0E7F8009000BF012013
:102930001749087000BF4FF4FA71684603F060F859
:1029400000BF2046FEF72CFD1248007810B10CB1F4
:10295000012000E0002001460320FEF7CDFD0E48D7
:10296000007810B10CB1012000E0002001460220E7
:10297000FEF7C2FD0948007810B10CB1012000E05B
:10298000002001460120FEF7B7FD84F00104CEE7E8
:10299000210000200400002003000020020000208D
:1029A0001CB503F0A9F8009000BF00BF0120354915
:1029B000087000BF4FF47A71684603F021F800BF39
:1029C000FEF75AFB0028F1D02F4800780028EDD000
:1029D0002E4801682E48006804F060FC8346594682
:1029E0002C48006804F022FB824659462A480068B9
:1029F00004F01CFB044629480168204604F016F93F
:102A0000044626480460264801682148006804F00E
:102A100045FC019023480168019804F007FB0190F0
:102A20001B4800681E4908602146504604F0FEF825
:102A30000546019904F0FAF88146484604F0CAF8C0
:102A400021F0004105460022174B03F0A3FF15D2E9
:102A50000021484604F0B6FB02D8DFF850900DE0A4
:102A6000DFF84890484604F0B5F807460022104BBE
:102A700003F092FE054603F0E5FB81460D48C0F8E1
:102A8000009093E724000020D10300200C000020D8
:102A900008000020AC030020A4030020C80300208D
:102AA000CC030020A803002000003E400000F041BD
:102AB0000000F0BFBC0300201FB500BF00BF002412
:102AC00000250026012089490870FFF719F8012028
:102AD0008749087040F6C41002F044F90120834988
:102AE000087040F6C41002F03DF901207F490870DB
:102AF0000020012103468022CDE900107DA17F48FE
:102B000002F04AFF0020012103468022CDE9001097
:102B10007BA17C4802F040FF7B4800907B48008806
:102B2000002805DD794800884FF47A72504300E0B0
:102B30000A2001460023012275A003F0FBFA784920
:102B4000086078480023012242F21071009076A0BC
:102B500003F0F0FA7849086002F0CEFF039000BF5E
:102B600001206249087000BF642103A802F048FFF9
:102B700000BF0020FEF760FF012805D16F480078F4
:102B800010B96F48007830B1FEF766FA10B1002036
:102B900001F02AFFE4E7FEF789FA80F001005449CA
:102BA0000978884229D0FEF781FA80F00100504967
:102BB00008700846007898B1FFF712FB002709E07B
:102BC000012001F02BFF642002F0CCF801204749DE
:102BD00008707F1C1E2FF3DB002001F01FFF0BE0AD
:102BE000FFF7CCFA012001F019FF4FF4967002F0C4
:102BF000B9F8002001F012FFB2E73D48007800B1BB
:102C0000AEE7FEF729FA10B9012001F0EDFE02A8A7
:102C1000FDF7A0FD4B49086000214A48006804F018
:102C2000D1F90CD24548007850B9643541F288306A
:102C3000854205DD012041490870002500E000259E
:102C4000414801683F48006804F028FB834603F0D0
:102C5000C1FF21F00041074600223C4B03F09AFEE1
:102C60000ED264343A48008800EB4001C1EBC0103A
:102C7000B4EBC00F05DD002401203149087000E0ED
:102C80000024314801682F48006804F007FB8346A0
:102C900003F0A0FF21F0004107462E4A2E4B03F01F
:102CA0003FFD1DD2643609F101092C4801685046E8
:102CB00003F0BCFF82464EF66020864214DD0026FB
:102CC0005746484604F052F980464146384604F0DB
:102CD0001BF8074639461C480068FFF743FB03E032
:102CE0004FF00009CA4600263AE700002200002003
:102CF000020000204B6C6170616E0000ED2700083F
:102D000050696400A129000865160008B00300207E
:102D100054696D6572526567756C61746F720000FD
:102D2000D40300202D16000854696D657243616C50
:102D30006350696400000000D803002004000020F4
:102D400003000020080000200C0000200000E03FED
:102D5000B20300209A9999999999C93FB803002024
:102D600008B5022300220621D248FEF71BF80020F6
:102D7000FEF71CFE0120D0490870D049087000BF42
:102D8000322001F0EFFF0120CD490870CD480078D6
:102D900028B9CD48007810B9C848007808B101209A
:102DA00000E000200446C4480078012804D002282E
:102DB00073D0032872D112E1C249097811B9C2490E
:102DC000097809B1012100E00021084601F0F6FD73
:102DD00000210420FEF790FB00210520FEF78CFB6C
:102DE0006846FDF7B7FCB9490860B448007828B1D7
:102DF00000220121B648FEF7B5F905E000220121C5
:102E0000B2480068FEF7AEF900220221B14800681E
:102E1000FEF7A8F934B10120FEF776F90220FEF79B
:102E200055F905E00120FEF751F90220FEF74EF9B1
:102E3000A948007868B100F0B9FAA04800780028E5
:102E400062D0FEF709F900285ED102209A49087085
:102E50005AE0A248007810B300F0A8FA9D48006834
:102E600003F0B8FE07469E4A9E4B03F01DFA054646
:102E700000229D4B03F054FC46D29648006803F0B4
:102E8000A9FE0746964A974B03F00EFA054603F053
:102E9000D9F98346FFF7A4FA36E036E002E1934819
:102EA000007800B300F082FA8A48006803F092FECE
:102EB00007468B4A8B4B03F0A3FD054600221346C1
:102EC00003F068FD20D28348006803F083FE0746C4
:102ED000834A844B03F094FD054603F0B3F983461F
:102EE000FFF77EFA10E08248007868B100F05EFAE1
:102EF00000F072FA012070490870704908700020D3
:102F0000714908706F490870D2E0002001F056FD49
:102F100001210420FEF7F0FA00210520FEF7ECFA6B
:102F20000020FDF7FBFB81460120FDF7F7FB824601
:102F3000002201214846FEF715F9002202215046E1
:102F4000FEF710F964480078A0B300F02FFA0020D3
:102F5000FDF746FC85B229460020FDF78DFD0120D6
:102F6000FDF73EFC85B229460120FDF785FD0020D6
:102F7000FDF7D4FB81460120FDF7D0FB82460022FD
:102F800001214846FEF7EEF8002202215046FEF7E6
:102F9000E9F8642001F0E6FE0320FEF7B5F840F200
:102FA000DC5001F0DFFE0320FEF790F803204249D9
:102FB000087013E0FFE74948007828B100F0F6F9FF
:102FC00003203D49087009E04A48007830B100F01C
:102FD000EDF90120384908703849087068E0002090
:102FE00001F0ECFC00210420FEF786FA0121052007
:102FF000FEF782FA0020FDF791FB81460120FDF7E4
:103000008DFB8246002201214846FEF7ABF80022E4
:1030100002215046FEF7A6F82F480078B0B300F022
:10302000C5F90020FDF7DCFB85B229460020FDF73D
:103030003FFD0120FDF7D4FB85B229460120FDF7B5
:1030400037FD0020FDF76AFB81460120FDF766FB96
:103050008246002201214846FEF784F80022022120
:103060005046FEF77FF8642001F07CFE0320FEF757
:103070004BF840F2DC5001F075FE0320FEF726F815
:1030800001200D4908700D4908700AE0FFE7194852
:10309000007830B100F08AF901200749087007492B
:1030A000087005E0012004490870FFF767F800BFC9
:1030B00066E6000000100140010000200200002030
:1030C0001D00002004000020030000200800002054
:1030D000000080BF0C000020120000201000002023
:1030E0009A9999999999B93F0000244011000020BC
:1030F000130000201400002010B50B48008840F297
:103100002551084078B10848008800F0070038B918
:10311000054800F00BF80446E0B2FEF747FB02E07A
:10312000014800F003F810BD0038014001468888CE
:10313000C0F30800704700002DE9F3418046BDF858
:10314000040003F02BFF0446164903F03BFF08D3AD
:10315000BDF8040003F022FF0446134904F032F8DE
:1031600002D20020BDE8FC81022201A96420FDF703
:1031700087FDA8B1BDF8040003F010FF0B490860FB
:103180000846006803F026FD06460022084B03F0BF
:103190003FF9044603F056F8044908600120E1E7CE
:1031A0000020DFE70000A0410000C8420C00002022
:1031B000000024402DE9F8430546884615B1B8F1D2
:1031C000070F02D20020BDE8F8832C466088000A71
:1031D000A17840EA012060802088000A217840EA36
:1031E000012020806188642906DC207900EBD07101
:1031F00049106288914205D00321102000F0F2FCB2
:103200000120E0E700260CE02188314488B2FEF777
:10321000A0FB28B90321102000F0E4FC0120D2E734
:10322000761C6088B042EFDC671D00260CE037F8A2
:103230001620120A17F8163042EA03212288324477
:1032400090B2FEF770FB761C6088B042EFDC2088FD
:10325000000A217840EA0120ADF800006088000AE9
:10326000A17840EA0120ADF80200FDF7BDFE064658
:1032700004236A46102100F0DDFC0120A3E70000D2
:103280000C2005498968C14001F0010109B90120FC
:1032900070470020FCE70000001001400A200549AB
:1032A0008968C14001F0010109B90120704700207F
:1032B000FCE70000001001400B2005498968C1406F
:1032C00001F0010109B9012070470020FCE700006E
:1032D0000010014000B585B001214802FEF7D4FA84
:1032E0006846FDF7D2F9002000908DF804008DF8B3
:1032F00005004FF4602002900020039001208DF81B
:10330000100069461148FDF727F901210F48FDF724
:10331000F6F80523012200210C48FDF745F90B487A
:10332000FDF79EF900BF0948FDF70BF90028FAD117
:103330000648FDF7A5F900BF0448FDF7EBF80028A3
:10334000FAD103490880488005B000BD002401403F
:103350002C00002010B5044605230122214609480F
:10336000FDF722F901210748FDF77FF900BF02218F
:103370000448FDF7DDF80028F9D00248FDF7D4F83D
:1033800010BD000000240140F0B505460E464FF682
:10339000FF77002406E0295DB8B2FDF7F3FB07468E
:1033A000601CC4B2B442F6DBB8B2F0BD00200549DF
:1033B00008700549087005490870054908700549F5
:1033C000087070471200002010000020110000203B
:1033D000130000201400002010B500F006F810BD06
:1033E00000E0401E0028FCDA7047F8B532270020C4
:1033F0008DF802008DF803000026E2E000252FE0A2
:103400002C4601208DF801000B208DF80000E8B259
:103410006946FDF71DFF00208DF80100601C044681
:10342000032800DD241FE0B26946FDF711FF601C90
:103430000446032800DD241FE0B26946FDF708FFBB
:10344000601C0446032800DD241FE0B26946FDF736
:10345000FFFE0020FDF7A4FF322001F083FC6D1C6D
:10346000042DCDDB01208DF801000C208DF800002B
:1034700069460320FDF7ECFE00208DF80100694647
:10348000FDF7E6FE69460120FDF7E2FE69460220EF
:10349000FDF7DEFE0020FDF783FF322001F062FC25
:1034A00001208DF801000D208DF8000069460320F1
:1034B000FDF7CEFE00208DF801006946FDF7C8FE3D
:1034C00069460120FDF7C4FE69460220FDF7C0FEF3
:1034D0000020FDF765FF322001F044FC03252FE0BA
:1034E0002C4601208DF801000E208DF80000E8B276
:1034F0006946FDF7ADFE00208DF80100601C044612
:10350000032800DD241FE0B26946FDF7A1FE601C20
:103510000446032800DD241FE0B26946FDF798FE4B
:10352000601C0446032800DD241FE0B26946FDF755
:103530008FFE0020FDF734FF322001F013FC6D1EDA
:10354000002DCDDA01208DF801000F208DF800004C
:1035500069460020FDF77CFE00208DF801006946D9
:103560000120FDF775FE69460220FDF771FE6946F0
:103570000320FDF76DFE0020FDF712FF322001F061
:10358000F1FB01208DF8010010208DF80000694644
:103590000020FDF75DFE00208DF801006946012046
:1035A000FDF756FE69460220FDF752FE69460320EC
:1035B000FDF74EFE0020FDF7F3FE322001F0D2FBB6
:1035C000761C032EFFF61AAFFDF7BCFDF8BD31B532
:1035D000A02000F01BF9044654B16D46687800F055
:1035E00015F904461CB1287800F010F9044600BF14
:1035F000204638BDF0B5014600254FF44C720C232F
:1036000092FBF3F084B200200CE000EB4006084F80
:1036100037F826608E4204D100EB400607EB8605A2
:1036200002E0401CA042F0DB00BF2846F0BD0000D5
:103630006200002010B50223012207211848FDF77F
:10364000B1FB0720002121B101228240144B1A61F5
:1036500005E000F1100201239340114A136100BFFD
:103660000620012121B1012282400D4B1A6105E0A3
:1036700000F1100201239340094A136100BF0620A4
:10368000002121B101228240054B1A6105E000F1C1
:10369000100201239340024A136100BF10BD0000D5
:1036A000000C014010B50223012206211348FDF74A
:1036B00079FB0023012207211048FDF773FB062048
:1036C000012121B1012282400C4B1A6105E000F179
:1036D000100201239340094A136100BF0720012112
:1036E00021B101228240054B1A6105E000F1100270
:1036F00001239340014A136100BF10BD000C01403B
:1037000010B50621012222B101238B40104C236108
:1037100005E001F1100301249C400D4B1C6100BF2A
:1037200007210B4A9268CA4002F0010000BF06213F
:10373000002222B101238B40054C236105E001F1F9
:10374000100301249C40024B1C6100BF10BD00000F
:10375000000C014070B50026002301220721084813
:10376000FDF720FB072507E0FFF7CAFF044604FA30
:1037700005F03043C6B26D1E002DF5DA304670BD3F
:10378000000C014010B502467AB90720002121B192
:10379000012383401C4C236105E000F11003012448
:1037A0009C40194B1C6100BF0FE00720012121B193
:1037B00001238340144C236105E000F11003012430
:1037C0009C40114B1C6100BF00BF0620012121B1AC
:1037D000012383400C4C236105E000F11003012418
:1037E0009C40094B1C6100BF0620002121B1012330
:1037F0008340054C236105E000F1100301249C4047
:10380000014B1C6100BF10BD000C014070B50546A6
:1038100000260223012207212048FDF7C3FA0724CE
:103820000BE00121A1402940002901DD012100E038
:1038300000210846FFF7A6FF641E002CF1DA0023E2
:10384000012207211548FDF7ADFA0620012121B11B
:1038500001228240114B1A6105E000F110020123A0
:1038600093400E4A136100BF07200C498968C1408C
:1038700001F0010101B901260620002121B1012238
:103880008240064B1A6105E000F1100201239340CB
:10389000024A136100BF304670BD0000000C0140B9
:1038A00010B50223012207211F48FDF77BFA0720EC
:1038B000012121B1012282401B4B1A6105E000F178
:1038C000100201239340184A136100BF0620012112
:1038D00021B101228240144B1A6105E000F110026F
:1038E00001239340104A136100BF0720002121B13A
:1038F000012282400C4B1A6105E000F11002012305
:103900009340094A136100BF0620002121B1012222
:103910008240054B1A6105E000F11002012393403B
:10392000014A136100BF10BD000C014010B5072013
:10393000002121B101228240214B1A6105E000F1F2
:103940001002012393401E4A136100BF062000218C
:1039500021B1012282401A4B1A6105E000F11002E8
:1039600001239340164A136100BF0223012207215D
:103970001348FDF717FA0620012121B101228240E8
:103980000F4B1A6105E000F11002012393400C4A2D
:10399000136100BF0720012121B101228240084BA1
:1039A0001A6105E000F1100201239340044A1361FB
:1039B00000BF0023012207210148FDF7F3F910BDE4
:1039C000000C014070B549F640444FF4C365012036
:1039D000FDF788FF00BF6120FDF766FF0028FAD0E1
:1039E00045F25550FDF722FB0620FDF713FB4FF47F
:1039F000C360FDF715FBFDF705FBFDF7FBFA70BD96
:103A000070B504462078801E611C0D5A2078801EF7
:103A1000C1B2601CFFF7B8FC0646B54201D10120D7
:103A200070BD0020FCE7000000B51420FFF7D8FCB3
:103A30000D20012121B101228240104B1A6105E0C5
:103A400000F11002012393400C4A136100BF1420BF
:103A5000FFF7C6FC0D20002121B101228240074B57
:103A60001A6105E000F1100201239340034A13613B
:103A700000BF1420FFF7B4FC00BD0000001001409F
:103A800000B51420FFF7ACFC0E20012121B101226A
:103A90008240104B1A6105E000F1100201239340AF
:103AA0000C4A136100BF1420FFF79AFC0E2000217E
:103AB00021B101228240074B1A6105E000F110029A
:103AC00001239340034A136100BF1420FFF788FCD1
:103AD00000BD0000001001401CB5FDF7ADFA00204C
:103AE000012103468022CDE9001027A1284801F0DA
:103AF00053FF0020012103468022CDE9001025A1BB
:103B0000264801F049FF002002210346CA02CDE900
:103B1000001023A1244801F03FFF002001210346AB
:103B20008022CDE9001021A1224801F035FF0020BC
:103B3000012103468022CDE900101FA11F4801F09A
:103B40002BFF0020012103468022CDE900101CA19B
:103B50001D4801F021FF0020012103464A02CDE962
:103B600000101AA11C4801F017FF00200121034694
:103B70008022CDE9001019A1194801F00DFF01F0D4
:103B80000BFA00201CBD0000414444524553530031
:103B9000C1250008414E414C4F4700009D080008D8
:103BA0004D6F646275730000D11500084C65647335
:103BB000446967001929000842544E00B9260008DC
:103BC000574F524B00000000612D00085265677589
:103BD0006C61746F72000000B92A000857647400A9
:103BE000252600087CB504460D46FDF7FDF98DF845
:103BF000000004F03F0040F080008DF801008DF8D7
:103C0000025003216846FFF7BFFBADF80300FB211C
:103C10000748FCF7BCFB06480099C0F801109DF866
:103C20000410417105200249087001207CBD00008C
:103C3000630500202DE9F0478046894616461C465C
:103C4000002C02DD0EB9BDE8F087F52C00D9FAE7AB
:103C5000FB211548FCF79BFB134D6D1C85F800807C
:103C600085F801905CB14FF0000A06E0224631462B
:103C7000A81CFCF747FB0AF1010AA245F6DBA01CD1
:103C80000949087008460178401CFFF77DFB07468C
:103C900005490A78491C8F52481E0078801C491E2D
:103CA000087000BFCFE70000630500202DE9F04158
:103CB00005460F461748066817480068001D00F0C3
:103CC00009FF50B91448006890F82C100120884072
:103CD0001249096881431148016074190E4800684F
:103CE0004460B44207D20C480168091D0C480068C2
:103CF00000F01AFF0CE008480168091D0948006837
:103D000000F012FF08480068844201D206480460AF
:103D1000BDE8F08128040020180400202C040020B5
:103D2000200400201C0400204404002010B5044698
:103D300000F014FF2F480068401C2E4908602E48F0
:103D4000006840B92C4804600846006801280DD17D
:103D500000F0F4F90AE02948006838B926480068FC
:103D6000C06AE16A884201D8234804602448006898
:103D7000401C2349086094F82C10012088402149F8
:103D8000096808431F490860E16A01EB81011E4A86
:103D900002EB81014868A0608268E260211D8268B0
:103DA00051608160E16A01EB8101174A02EB8102F7
:103DB0006261E16A01EB8101134A52F82110491C4A
:103DC000E26A02EB8202104B43F8221000F0F0FE90
:103DD0000A48006868B108480068C06AE16A884219
:103DE00007D24FF0805009490860BFF34F8FBFF3EF
:103DF0006F8F10BD24040020180400203004002020
:103E0000400400202C040020F06E002004ED00E0AF
:103E100010B500F0A3FE0C48006890B90B4800F004
:103E200073FE0B4800F070FE08480A490860084815
:103E30000949086000220C21032001F0E2F902493F
:103E4000086000F0B5FE10BD5C040020686F002023
:103E50007C6F00205404002058040020704770B587
:103E600004460D46206C70B1216CE0680144E160AD
:103E7000D4E90210884201D32168E1602846226C0F
:103E8000E168FCF73FFA70BD2DE9F04104460F46AA
:103E900015464FF00008A66B206C48B92068002832
:103EA0002CD1A06801F00CFF80460020A06025E026
:103EB0007DB93946226C6068FCF724FA216C606891
:103EC00008446060D4E90101884217D3206860602B
:103ED00014E03946226CE068FCF714FA216CE068C3
:103EE000411AE1602168E068884203D2216CA06831
:103EF000411AE160022D01D106B1761E701CA0634B
:103F00004046BDE8F08101464A6A22B10A6B126858
:103F1000C2F1030000E00020704700000146084A9B
:103F2000126812680AB9012200E000220A600A68D9
:103F300022B9034A1268D268106800E00020704776
:103F40005404002030B54FF4D043154800F0070466
:103F50002CB1C01D20F00700114C041B1B1B024696
:103F6000104C226000240F4D6C60D018083820F0EF
:103F700007000D4C206000240B4D2D686C600A4D2D
:103F80002D682C601146441A4C60074C24680C6064
:103F9000064D4C682C60064D4C682C6030BD00000E
:103FA000F0060020F0030020F803002000040020A9
:103FB000FC03002000BFFFF751FF064800680128FE
:103FC000F9D94FF0805004490860BFF34F8FBFF319
:103FD0006F8FF0E7F06E002004ED00E010B50446AE
:103FE00054B10020A06020600021E16000231A4647
:103FF0001946204601F0A6F910BD2DE9F04106460C
:104000000D4617469846069C0DB9246000E02760CF
:10401000E66325640121204601F026F9BDE8F08120
:104020002DE9FF5F81460F469246DDE90E6B109C3D
:10403000AAF10100216B01EB800828F0070808F0C5
:10404000070008B9012000E0002050B900BFA020FF
:1040500080F31188BFF34F8FBFF36F8F00BF00BF96
:10406000FEE77FB1002507E0795D04F1340041559A
:10407000785D00B902E06D1C0A2DF5D300BF002168
:104080003D200155032E01D2012000E0002050B94F
:1040900000BFA02080F31188BFF34F8FBFF36F8F55
:1040A00000BF00BFFEE7032E00D30226E6622664AF
:1040B000201D00F036FD04F1180000F032FD2461EF
:1040C000C6F10300A061646249464046039A00F0CD
:1040D0007BFB2060BBF1000F01D0CBF80040BDE8B6
:1040E000FF9F2DE9F04706460D4617469846DDE945
:1040F00008940DB1012000E0002050B900BFA020BD
:1041000080F31188BFF34F8FBFF36F8F00BF00BFE5
:10411000FEE7FFF77DFE2660A561C4F81C80C4F8A9
:104120002090201D00F0FDFC2FB194F8240040F0F9
:10413000040084F82400BDE8F087000010B50024D6
:1041400007E004EB84010C4A02EB810000F0DCFC88
:10415000641C032CF5D3094800F0D6FC084800F095
:10416000D3FC084800F0D0FC044807490860044824
:104170000649086010BD0000F06E00202C6F002082
:10418000406F0020546F00201C04002020040020F9
:1041900010B50146164800E0006803688B42FBD367
:1041A0000246436813448B4204D143684C6823445D
:1041B000436001460A464B6813440468A34211D188
:1041C0000C4C03682468A34208D04B6804686468F8
:1041D00023444B6003681B680B6005E0054B1B68BC
:1041E0000B6001E003680B60884200D0016010BDE5
:1041F000F0030020F80300202DE9F04104460D46AD
:1042000016461F464FF0000865602461B5420CD881
:10421000F01BA169884202D34FF0010811E0211D73
:104220000948006800F080FC0BE0BE4204D2BD42A9
:1042300002D34FF0010804E0211D0448006800F09B
:1042400073FC4046BDE8F08158040020540400206F
:1042500070B5054600F082FCA86B08B9012400E0A7
:10426000002400F0A5FC204670BD70B5054600F0A6
:1042700075FCA86BE96B884201D1012400E00024A1
:1042800000F096FC204670BD70B505460E460E48FF
:104290000068C068C468201D00F01CFC94F824006D
:1042A00000F0040028B132462946204600F0D6F836
:1042B00005E094F8240000F0FE0084F82400204675
:1042C000216A884770BD0000540400207FB57FE05C
:1042D000019800287CDB039C606908B9012000E09C
:1042E000002010B9201D00F0F5FB684600F00EF923
:1042F000054601980A2869D2DFE800F06805072E14
:10430000365806082F3700BF00BF00BF94F82400BE
:1043100040F0010084F824000298A2698118034645
:104320002A462046FFF768FFA8B194F8240000F061
:10433000040038B10298A26981182A46204600F08C
:104340008DF805E094F8240000F0FE0084F82400C5
:104350002046216A88473AE000BF94F8240000F024
:10436000FE0084F8240032E000BF94F8240040F0FE
:10437000010084F824000298A061A06908B101201E
:1043800000E0002050B900BFA02080F31188BFF3E7
:104390004F8FBFF36F8F00BF00BFFEE7A0694119C9
:1043A0002B462A462046FFF727FF10E094F824000A
:1043B00000F0020018B9204600F018FC05E094F85F
:1043C000240000F0FE0084F8240000E000BF00BFDD
:1043D000002201A90348006801F01CF900287FF4BD
:1043E00077AF7FBD5C040020F8B505460C4600F0B1
:1043F00021FE684600F08AF80646009820BB44B9C2
:10440000B54206D801F0DAFD31462846FFF73CFFF9
:104410001CE03CB10E480068006808B9012000E0CB
:1044200000200446A91B22460A48006800F074FCDC
:1044300001F0C4FD50B94FF0805007490860BFF348
:104440004F8FBFF36F8F01E001F0B8FDF8BD0000A2
:10445000580400205C04002004ED00E070B5044620
:104460000D46164604E0A06905442046216A8847A7
:10447000A06941192B4632462046FFF7BDFE0028B1
:10448000F1D170BD09480068006808B9012000E05A
:10449000002020B14FF0FF300549086005E00348D7
:1044A0000068C06800680249086070471C0400206A
:1044B0004404002010B5022000F054FC0820002124
:1044C00021B101228240054B1A6105E000F1100282
:1044D00001239340014A136100BF10BD0008014051
:1044E00010B50820012121B101228240064B1A613A
:1044F00005E000F1100201239340034A136100BF5D
:10450000012000F02FFC10BD0008014070B50446EA
:1045100001F0F2FA054607480068854204D200F02F
:104520000BF80120206001E00020206001480560B8
:10453000284670BD6404002070B508E00D4800688E
:10454000C06804684FF0FF312046FFF79DFE094820
:104550000068006808B9012000E000200028EDD0C4
:10456000044805680448006802490860024805607C
:1045700070BD000054040020580400200E4800685C
:10458000401C08B9012000E0002050B900BFA02065
:1045900080F31188BFF34F8FBFF36F8F00BF00BF51
:1045A000FEE700BFA02080F31188BFF34F8FBFF359
:1045B0006F8F00BF00BFFEE70C04002008B500BFEE
:1045C0006846FFF7ABFC044620460099FFF70CFF56
:1045D000FFF77CFEF4E770B5044600F0BFFA94F9EB
:1045E000455010E0606A08B9012000E0002038B9A9
:1045F00004F1240001F052FC18B100F0EDFB00E0E2
:1046000003E0681E45B2002DECDC00BFFF2084F8FB
:10461000450000F0CDFA00F0A1FA94F9445010E002
:10462000206908B9012000E0002048B904F1100019
:1046300001F034FC08B100F0CFFB681E45B200E089
:1046400001E0002DECDC00BFFF2084F8440000F006
:10465000AFFA70BD00BF0849098801F08001002948
:10466000F9D00549091D088000BF0349098801F0F8
:1046700080010029F9D07047003801402DE9F0474A
:1046800005464FF0000900F0D5FC4248006808B923
:10469000FFF758FC75B105F00700C0F11008C8F12C
:1046A000FF30A84201D2012000E0002008B94544B3
:1046B00000E00025012000EBE570002853D0002D1C
:1046C00051D03548006885424DD8344E3046046894
:1046D00001E0264624686068A84202D220680028CB
:1046E000F7D12C48006884423DD0306800F10809B9
:1046F000206830606068401B102819D9671907F0DE
:10470000070008B9012000E0002050B900BFA02038
:1047100080F31188BFF34F8FBFF36F8F00BF00BFCF
:10472000FEE76068401B786065603846FFF730FD43
:10473000194960680968081A17490860084600683E
:1047400017490968884203D2134800681449086071
:10475000606840F000406060002020601148006800
:10476000401C1049086001F029FC09F0070008B955
:10477000012000E0002050B900BFA02080F3118884
:10478000BFF34F8FBFF36F8F00BF00BFFEE74846F8
:10479000BDE8F087F8030020FC030020F0030020B0
:1047A00000040020040400200648006830B10549D8
:1047B000096801F14400496C491C01600148006826
:1047C0007047000018040020001F4FF08073036042
:1047D000001F21F001030360001F034B0360143826
:1047E00002602038704700007D45000801460248FD
:1047F00030F8110070470000E873000801460229F4
:1048000002D1034800887047024830F81100FAE7E7
:10481000C4730008E873000800200149087070475D
:104820006804002010B500200A4908700A49087081
:104830000A4908700A4908700A4908700A4908704C
:104840000A4908700A4908700A490870FCF7DAFB3F
:1048500010BD00001C0000201D0000201E000020D4
:104860001F00002020000020210000202200002046
:10487000230000202400002070B5054602F0D4FC7F
:1048800004460146284602F009FD15F0004F4FF09E
:104890007F410ED0B0F13F4F28BFB1EB400F0ED299
:1048A000B0F17C5F1DDDB1EB400F1AD313E004467D
:1048B00017E0B0F13F4F08D9B1EB400F05D34FF0EF
:1048C0007E51204602F0EAFCF1E7B0F17C5F08DBA4
:1048D000B1EB400F05D34FF07E51204602F0A6F910
:1048E000E5E7284664F31E0070BD000010B5002007
:1048F00022E000EB80014122A2EB4101134A02EBCE
:10490000C002118000EB80010A2202EB810101EB61
:1049100081014FF6FF7202EA41010C4A02EBC0022C
:1049200051804FF6FF71094A02EBC0029180074A9D
:1049300002EBC002D180401C0328DADB18220349B5
:104940004FF49670FCF79CF910BD0000D8060020CB
:1049500010B500200CE00A4901EBC001094A1268B9
:104960000A60074901EBC001074A12684A60401C0F
:104970000228F0DB10220249C820FCF781F910BDA3
:1049800068060020D8730008DC73000810B500F03A
:1049900009F8FFF741FF00200149087010BD000031
:1049A0002500002010B500210348FDF796FD0021E9
:1049B0000148FDF7A7FD10BD0008004010B5062115
:1049C000024602F0010323B101238B40054C236111
:1049D00005E001F1100301249C40024B1C6100BF63
:1049E00010BD00000010014010B504462146002013
:1049F000FCF782FD0720214601F0010222B10122CD
:104A00008240054B1A6105E000F11002012393403A
:104A1000014A136100BF10BD0010014010B50446EB
:104A20009CB900210620FCF767FD0820012121B177
:104A3000012282400F4B1A6105E000F110020123B0
:104A400093400C4A136100BF13E001210620FCF7DC
:104A500053FD0820002121B101228240054B1A613B
:104A600005E000F1100201239340024A136100BFE8
:104A700000BF10BD0010014010B501210420FCF75B
:104A8000F3FE1248FDF792FD4FF4FA500F490880EB
:104A9000032088800E48FDF737FD012211460C489F
:104AA000FDF727FD1E2000280DDB00BF00BF00F032
:104AB0001F02012191404209920002F1E022C2F856
:104AC000001100BF00BF00BF10BD00005E06002047
:104AD0000008004001460A69D1E901309860D1E937
:104AE000010358605068884201D1886850600020F6
:104AF00008611068401E1060106870470148006827
:104B0000704700002404002000F1080141604FF0CC
:104B1000FF31816000F10801C16001610021016085
:104B2000704700210161704710B502460B685C1C9C
:104B30000CB9106907E002F1080000E04068446821
:104B400024689C42FAD944684C604C68A160886033
:104B500041600A611468641C146010BD00BFA0208D
:104B600080F31188BFF34F8FBFF36F8F00BF0E48E4
:104B70000068401C0C49086008460068012812D1F2
:104B80000A480068C0B208B9012000E0002050B90E
:104B900000BFA02080F31188BFF34F8FBFF36F8F4A
:104BA00000BF00BFFEE770470C04002004ED00E0EA
:104BB0000D48006850B900BFA02080F31188BFF3F2
:104BC0004F8FBFF36F8F00BF00BFFEE7064800683E
:104BD000401E054908600846006820B9002080F39F
:104BE000118800BF00BF70470C04002070B5064656
:104BF0003546002E3BD0083D2C466068C00F50B9AA
:104C000000BFA02080F31188BFF34F8FBFF36F8FD9
:104C100000BF00BFFEE7206808B9012000E00020C7
:104C200050B900BFA02080F31188BFF34F8FBFF3AE
:104C30006F8F00BF00BFFEE76068C00FB8B120688B
:104C4000A8B9606820F00040606000F0F3F90849FE
:104C5000606809680844064908602046FFF798FA2A
:104C600004480068401C0349086001F0A7F970BDC2
:104C7000FC0300200804002000204FF0E021086120
:104C80008861064800684FF47A71B0FBF1F0401E6D
:104C90004FF0E0214861072008617047DC030020E5
:104CA00070B5FBF70BFB0446102C16D304F1E02083
:104CB00090F8F05315480078854201DB012000E0B0
:104CC000002050B900BFA02080F31188BFF34F8FA0
:104CD000BFF36F8F00BF00BFFEE70D48006800F410
:104CE000E0600C490968884201D8012000E00020FA
:104CF00050B900BFA02080F31188BFF34F8FBFF3DE
:104D00006F8F00BF00BFFEE770BD000010040020E1
:104D10000CED00E0140400202DE9F04105460E469C
:104D200017462C46FFF71AFF94F94400401C10B9AF
:104D3000002084F8440094F94500401C10B900207C
:104D400084F84500FFF734FFA06B28B93A46314696
:104D500004F1240000F062F82046FFF73CFCBDE8B7
:104D6000F081000070B504460025D4B112480068F7
:104D700008B9012000E0002050B900BFA02080F356
:104D80001188BFF34F8FBFF36F8F00BF00BFFEE7E7
:104D900000F050F900212046FEF788FF01F00EF9DF
:104DA00005463DB94FF0805004490860BFF34F8F6E
:104DB000BFF36F8F70BD00005004002004ED00E0D1
:104DC00003490968016003490968416070470000B0
:104DD0003C0400202804002001200149086070479D
:104DE0003804002070B504460D4654B900BFA02019
:104DF00080F31188BFF34F8FBFF36F8F00BF00BFE9
:104E0000FEE70548016818312046FFF78DFE0121B5
:104E10002846FEF74BFF70BD1804002070B504460D
:104E20000E46154654B900BFA02080F31188BFF389
:104E30004F8FBFF36F8F00BF00BFFEE760680F4961
:104E40000968C8610D49826809680A620B490968E6
:104E50001831826851600949096818318160074931
:104E600009688C622168491C21600DB14FF0FF3642
:104E700029463046FEF71AFF70BD000018040020D6
:104E80002DE9F04706460F4634464FF00109002E43
:104E90007AD0606C50B900BFA02080F31188BFF3B6
:104EA0004F8FBFF36F8F00BF00BFFEE7206CB8428B
:104EB00001D23D4600E0256CE06AA84264D0606CF7
:104EC000012861D131480068844201D0012000E00E
:104ED000002050B900BFA02080F31188BFF34F8F8E
:104EE000BFF36F8F00BF00BFFEE7D4F82C80E562F0
:104EF000A06900F0004010B9C5F10300A06108EB03
:104F00008801234A02EB81016069884201D10120B6
:104F100000E00020C0B3201DFFF7DCFD40B994F88D
:104F20002C10012088401B49096881431948016001
:104F300094F82C1001208840164909680843154947
:104F40000860E16A01EB8101114A02EB81014868C6
:104F5000A0608268E260211D826851608160E16A20
:104F600001EB81010A4A02EB81026261E16A01EB15
:104F70008101074A52F82110491CE26A02EB8202C1
:104F8000034B43F8221000BFBDE8F087180400204F
:104F9000F06E00202C0400201CB51E4800210B469A
:104FA0008022CDE900101CA11D4800F0F5FC04464C
:104FB000012C02D101F0DAF80446012C15D100BF12
:104FC000A02080F31188BFF34F8FBFF36F8F00BF16
:104FD0004FF0FF301349086001201349086000209A
:104FE0001249086000F080F810E0601C08B1012050
:104FF00000E0002050B900BFA02080F31188BFF36B
:105000004F8FBFF36F8F00BF00BFFEE708480068F7
:105010001CBD00004804002049444C45000000002D
:10502000B53F00084404002030040020280400207C
:105030004C04002002480068401C01490860704789
:10504000500400201D48006818B101201C49086068
:1050500032E000201A4908601A480068B0FA80F06F
:10506000C0F11F0101EB8100174A52F8200008B17E
:10507000012000E0002050B900BFA02080F311887B
:10508000BFF34F8FBFF36F8F00BF00BFFEE701EB91
:1050900081020D4B03EB820042685268426000F1CE
:1050A00008024368934202D14268526842604268F3
:1050B000D268064B1A6000BF704700005004002001
:1050C000380400202C040020F06E0020180400207A
:1050D00002460E2A01DD00207047024820F8121017
:1050E0000120F9E7440000201CB538490846007843
:1050F0000190FF200A4610700846007800909DF845
:10510000000000F47F609DF80020904201D1012052
:1051100000E0002050B900BFA02080F31188BFF349
:105120004F8FBFF36F8F00BF00BFFEE79DF80000F9
:1051300000F0A000264A10700720264A106009E0FF
:1051400024480068401E234A10609DF80000400675
:10515000000E00909DF8000000F080008028EFD045
:105160001C480068C0F10700042801D1012000E0BC
:10517000002050B900BFA02080F31188BFF34F8FEB
:10518000BFF36F8F00BF00BFFEE712480068000248
:10519000104A10601046008800F4E06010600B4A6E
:1051A000019810700C48006840F07F600A49086060
:1051B0000846006840F070400860FFF75DFD002081
:1051C00006490860FBF744F800201CBD00E400E03D
:1051D000100400201404002020ED00E00C04002046
:1051E0002DE9F04104460126002722460021012036
:1051F00000F007F805462846FEF7F0FE2846BDE811
:10520000F0812DE9F84305460E4617460024E5B126
:10521000601EB0FBF5F0B04217D305FB06F010F1AD
:10522000490F12D805FB06F808F14800FFF726FAE7
:105230000446B4B1A14609F148093B464A46314605
:1052400028460094FEF7D9FE0BE054B900BFA02019
:1052500080F31188BFF34F8FBFF36F8F00BF00BF84
:10526000FEE72046BDE8F8832DE9F04105460E46ED
:1052700001272C4654B900BFA02080F31188BFF34A
:105280004F8FBFF36F8F00BF00BFFEE7002C42D0EF
:10529000E06B00283FD04FF0FF31E06BB1FBF0F046
:1052A000216C884237D3FFF759FCD4E90F122068EC
:1052B00001FB0200A0600020A06320686060E06B3A
:1052C000401E226C216800FB0211E160FF2084F87F
:1052D000440084F845009EB9206908B9012000E027
:1052E0000020A8B904F1100000F0D8FD80B14FF003
:1052F000805013490860BFF34F8FBFF36F8F07E0F3
:1053000004F11000FFF700FC04F12400FFF7FCFBA0
:10531000FFF74EFC00E000270FB1012000E0002065
:1053200050B900BFA02080F31188BFF34F8FBFF3A7
:105330006F8F00BF00BFFEE73846BDE8F081000078
:1053400004ED00E02DE9FF4383B0064688461D4684
:105350004FF00009344654B900BFA02080F31188F3
:10536000BFF34F8FBFF36F8F00BF00BFFEE7B8F1F1
:10537000000F01D1206C08B9012000E0002050B9D5
:1053800000BFA02080F31188BFF34F8FBFF36F8F52
:1053900000BF00BFFEE7022D02D1E06B012801D162
:1053A000012000E0002050B900BFA02080F3118848
:1053B000BFF34F8FBFF36F8F00BF00BFFEE700F05A
:1053C0008BFB08B9059808B9012000E0002050B90E
:1053D00000BFA02080F31188BFF34F8FBFF36F8F02
:1053E00000BF00BFFEE700BFFFF7B8FBA06BE16B9B
:1053F000884201D3022D28D12A4641462046FEF795
:1054000043FD0746606A08B9012000E0002068B942
:1054100004F1240000F042FD88B14FF08050324981
:105420000860BFF34F8FBFF36F8F08E03FB14FF0BD
:1054300080502D490860BFF34F8FBFF36F8FFFF788
:10544000B7FB012007B0BDE8F083059818B9FFF756
:10545000AFFB0020F6E7B9F1000F04D101A8FFF778
:10546000AFFC4FF00109FFF7A3FBFFF7E3FDFFF7E8
:1054700075FB94F94400401C10B9002084F84400E6
:1054800094F94500401C10B9002084F84500FFF74E
:105490008FFB05A901A800F03BFAF0B92046FEF702
:1054A000E4FEA0B104F110000599FFF79BFC204633
:1054B000FFF791F800F082FD002895D14FF0805061
:1054C00009490860BFF34F8FBFF36F8F8CE7204609
:1054D000FFF781F800F072FD86E72046FFF77BF8C2
:1054E00000F06CFD0020ADE704ED00E02DE9FC5F6D
:1054F00080468B4691461E46444654B900BFA020C4
:1055000080F31188BFF34F8FBFF36F8F00BF00BFD1
:10551000FEE7BBF1000F01D1206C08B9012000E0CB
:10552000002050B900BFA02080F31188BFF34F8F37
:10553000BFF36F8F00BF00BFFEE7022E02D1E06B0A
:10554000012801D1012000E0002050B900BFA020B7
:1055500080F31188BFF34F8FBFF36F8F00BF00BF81
:10556000FEE7FFF79DFB00BFA021EFF3118081F361
:105570001188BFF34F8FBFF36F8F00BF0546A06B3D
:10558000E16B884201D3022E3BD194F94570A06BA8
:105590000190324659462046FEF776FC781C88B9C1
:1055A000606A08B9012000E0002050B904F124002D
:1055B00000F074FC28B1B9F1000F02D00120C9F845
:1055C00000001BE0FFF79AFA00900098874214D27F
:1055D0007F2F01D0012000E0002050B900BFA020A3
:1055E00080F31188BFF34F8FBFF36F8F00BF00BFF1
:1055F000FEE7781C40B284F8450000BF4FF0010A76
:1056000001E04FF0000A00BF85F3118800BF50464B
:10561000BDE8FC9F2DE9F74183B005460E464FF0EB
:1056200000082C4654B900BFA02080F31188BFF3B6
:105630004F8FBFF36F8F00BF00BFFEE70EB9206C26
:1056400008B9012000E0002050B900BFA02080F37D
:105650001188BFF34F8FBFF36F8F00BF00BFFEE70E
:1056600000F03AFA08B9059808B9012000E00020D6
:1056700050B900BFA02080F31188BFF34F8FBFF354
:105680006F8F00BF00BFFEE700BFFFF767FAA76B91
:10569000F7B131462046FEF7E2FB781EA063206991
:1056A00008B9012000E0002060B904F1100000F00A
:1056B000F5FB38B14FF080502F490860BFF34F8F92
:1056C000BFF36F8FFFF774FA012006B0BDE8F081D9
:1056D000059818B9FFF76CFA0020F6E7B8F1000F4B
:1056E00004D101A8FFF76CFB4FF00108FFF760FA47
:1056F000FFF7A0FCFFF732FA94F94400401C10B900
:10570000002084F8440094F94500401C10B90020A2
:1057100084F84500FFF74CFA05A901A800F0F8F855
:10572000F0B92046FEF794FDA0B104F124000599DC
:10573000FFF758FB2046FEF74EFF00F03FFC002825
:10574000A3D14FF080500C490860BFF34F8FBFF3D7
:105750006F8F9AE72046FEF73EFF00F02FFC94E79C
:105760002046FEF738FF00F029FC2046FEF770FDCA
:1057700000288AD00020A8E704ED00E02DE9F341DD
:1057800082B0054600272C46B84654B900BFA02079
:1057900080F31188BFF34F8FBFF36F8F00BF00BF3F
:1057A000FEE7206C08B9012000E0002050B900BFDE
:1057B000A02080F31188BFF34F8FBFF36F8F00BF1E
:1057C00000BFFEE700F088F908B9039808B9012086
:1057D00000E0002050B900BFA02080F31188BFF383
:1057E0004F8FBFF36F8F00BF00BFFEE700BFFFF713
:1057F000B5F9A66BFEB1701EA063206810B9FEF764
:10580000D3FFA060206908B9012000E0002060B942
:1058100004F1100000F042FB38B14FF080503B49DA
:105820000860BFF34F8FBFF36F8FFFF7C1F90120FF
:1058300004B0BDE8F081039818B9FFF7B9F900206A
:10584000F6E71FB96846FFF7BBFA0127FFF7B0F983
:10585000FFF7F0FBFFF782F994F94400401C10B900
:10586000002084F8440094F94500401C10B9002041
:1058700084F84500FFF79CF903A9684600F048F852
:1058800040BB2046FEF7E4FCF0B1206838B9FFF7D2
:1058900065F9A06800F08CFA8046FFF789F904F1F9
:1058A00024000399FFF79EFA2046FEF794FE00F0CD
:1058B00085FB00289BD14FF0805014490860BFF34E
:1058C0004F8FBFF36F8F92E72046FEF784FE00F004
:1058D00075FB8CE72046FEF77EFE00F06FFB20464E
:1058E000FEF7B6FC002882D0B8F1000F0BD0FFF70E
:1058F00035F92046FEF707FB06463146A068FFF75C
:10590000BFFAFFF755F9002092E7000004ED00E030
:1059100070B505460C4655B900BFA02080F311882C
:10592000BFF34F8FBFF36F8F00BF00BFFEE754B9C7
:1059300000BFA02080F31188BFF34F8FBFF36F8F9C
:1059400000BF00BFFEE7FFF709F911480368686868
:105950001A1A104928680968884206D0686898426F
:1059600003D80126002020600DE02068904207D96E
:105970002068801A20602846FFF722FA002602E0FD
:10598000002020600126FFF713F9304670BD0000AB
:10599000280400203C0400202DE9FF4F85B08046FC
:1059A00089461746DDE912ABB800FEF767FE0646EA
:1059B00076B15020FEF762FE04462CB150212046FD
:1059C000FAF707FD266304E03046FFF70FF900E021
:1059D00000247CB10020CDE900ABCDE902403A467D
:1059E00049464046089BFEF71BFB2046FEF79EF902
:1059F000012501E04FF0FF35284609B0BDE8F08FE2
:105A00002DE9F04704460F464FF0000954B900BF96
:105A1000A02080F31188BFF34F8FBFF36F8F00BFBB
:105A200000BFFEE70FB1012000E0002050B900BF29
:105A3000A02080F31188BFF34F8FBFF36F8F00BF9B
:105A400000BFFEE72148006808B9012000E00020FF
:105A500050B900BFA02080F31188BFF34F8FBFF370
:105A60006F8F00BF00BFFEE7FFF7E4FA1848066833
:105A70002068C5192068B04207D92068A8420BD910
:105A8000B54209D94FF0010906E02068A84201D8C3
:105A9000B54201D94FF001092560B9F1000F03D0DB
:105AA000A81B0021FEF702F900F088FA8046B8F141
:105AB000000F07D14FF0805006490860BFF34F8FA9
:105AC000BFF36F8F4846BDE8F08700005004002008
:105AD0002804002004ED00E00549096809B9012007
