:020000040800F2
:1000000058710020C5020008CD020008CF02000888
:10001000D1020008D3020008D50200080000000049
:100020000000000000000000000000002D02000899
:10003000D90200080000000071020008C91E000873
:10004000DF020008DF020008DF020008DF0200080C
:10005000DF020008DF020008DF020008DF020008FC
:10006000DF020008DF020008DF020008DF020008EC
:10007000DF020008DF020008DF020008DF020008DC
:10008000DF020008DF020008DF020008DF020008CC
:10009000DF020008DF020008DF020008DF020008BC
:1000A000DF020008DF020008DF020008DF020008AC
:1000B000DF020008DF020008691F0008DF020008F5
:1000C000DF020008DF020008DF020008DF0200088C
:1000D000DF020008D9290008DF020008DF0200085B
:1000E000DF020008DF020008DF0200080000000055
:1000F0000000000000000000000000000000000000
:100100000000000000000000DF020008DF0200081D
:10011000DF020008DF020008DF020008DF0200083B
:10012000DF020008DF020008DF020008DF0200082B
:10013000DF020008DF020008DF020008DF0200081B
:10014000DF020008DF020008DF020008DF0200080B
:1001500000F002F800F05AF80AA090E8000C82447F
:100160008344AAF10107DA4501D100F04FF8AFF25C
:10017000090EBAE80F0013F0010F18BFFB1A43F085
:100180000103184798670000B86700000A444FF061
:10019000000C10F8013B13F0070408BF10F8014BE6
:1001A0001D1108BF10F8015B641E05D010F8016B2B
:1001B000641E01F8016BF9D113F0080F1EBF10F88F
:1001C000014BAD1C0C1B09D16D1E58BF01F801CBB2
:1001D000FAD505E014F8016B01F8016B6D1EF9D535
:1001E0009142D6D37047000000230024002500264A
:1001F000103A28BF78C1FBD8520728BF30C148BF8A
:100200000B6070471FB51FBD10B510BD00F03DF964
:100210001146FFF7F7FF03F0BBF800F05BF903B4FA
:10022000FFF7F2FF03BC00F063F90000224B1968EE
:100230000868B0E8F00F80F30988BFF36F8F4FF0C4
:10024000000080F311884EF00D0E70470000000092
:1002500006480068006880F3088862B661B6BFF39C
:100260004F8FBFF36F8F00DF00BF00BF08ED00E0CE
:10027000EFF30980BFF36F8F0F4B1A6820E9F00F7F
:10028000106008B54FF0A00080F31188BFF34F8FC6
:10029000BFF36F8F04F0FCFA4FF0000080F3118879
:1002A000BDE8084019680868B0E8F00F80F30988D5
:1002B000BFF36F8F704700BF70030020EFF305801E
:1002C000704700000948804709480047FEE7FEE7FD
:1002D000FEE7FEE7FEE7FEE7FEE7FEE7FEE7FEE7F6
:1002E00004480549054A064B70470000FD1E0008FA
:1002F00051010008586B002058710020586D0020F3
:10030000586D0020032A40F2308010F0030C00F0FA
:10031000158011F8013BBCF1020F624498BF11F83F
:1003200001CB00F8013B38BF11F8013BA2F10402F8
:1003300098BF00F801CB38BF00F8013B11F0030370
:1003400000F04A80083AC0F0088051F8043B083AAF
:1003500051F804CBA0E80810F5E7121D5CBF51F876
:10036000043B40F8043BAFF30080D20724BF11F8F0
:10037000013B11F801CB48BF11F8012B24BF00F855
:10038000013B00F801CB48BF00F8012B70474FF04C
:1003900000020429C0F0128010F0030C00F050801D
:1003A000CCF1040CBCF1020F18BF00F8012BA8BF60
:1003B00020F8022BA1EB0C0100F042B85FEAC17CEF
:1003C00024BF00F8012B00F8012B48BF00F8012BD7
:1003D000704770477047704710B5203AC0F00B80E7
:1003E000B1E81850203AA0E81850B1E81850A0E839
:1003F0001850BFF4F5AF5FEA027C24BFB1E8185093
:10040000A0E8185044BF18C918C0BDE810405FEA02
:10041000827C24BF51F8043B40F8043B08BF70477E
:10042000D20728BF31F8023B48BF11F8012B28BF83
:1004300020F8023B48BF00F8012B70474FF0000244
:1004400000B5134694469646203922BFA0E80C50CA
:10045000A0E80C50B1F12001BFF4F7AF090728BFA5
:10046000A0E80C5048BF0CC05DF804EB890028BF21
:1004700040F8042B08BF704748BF20F8022B11F04A
:10048000804F18BF00F8012B7047754600F02CF81C
:10049000AE4605006946534620F00700854618B071
:1004A00020B5FFF71DFFBDE820404FF000064FF0DC
:1004B00000074FF000084FF0000B21F00701AC4699
:1004C000ACE8C009ACE8C009ACE8C009ACE8C009B8
:1004D0008D46704710B50446AFF300802046BDE856
:1004E0001040FFF79CBE000000487047F46A0020EF
:1004F00001491820ABBEFEE726000200704721B17B
:10050000826842F00102826003E0826822F0010208
:1005100082607047014600208A6802F004020AB136
:10052000012000E0002070470146C86C80B270478F
:100530000246002013680B400BB1012000E00020B0
:100540007047014600208A6802F008020AB10120C3
:1005500000E000207047000030B502460020002374
:1005600050680F4C20400D790C6844EA0524204364
:10057000506090680B4C2040D1E902542C434D79D7
:1005800044EA450420439060D06A20F470000C7C5B
:10059000641EE4B2234340EA0350D06230BD000041
:1005A000FFFEF0FFFDF7F1FFF0B504460D46002019
:1005B0000021092D11DDE068A5F10A0606EB4607CA
:1005C000072606FA07F18843A5F10A0606EB460658
:1005D00003FA06F10843E0600CE0206905EB4507EB
:1005E000072606FA07F1884305EB450603FA06F1EC
:1005F00008432061072A0FDA606B561E06EB860758
:100600001F2606FA07F18843561E06EB860605FAF2
:1006100006F10843606322E00D2A0FDA206BD61F33
:1006200006EB86071F2606FA07F18843D61F06EB5E
:10063000860605FA06F10843206310E0E06AA2F19D
:100640000D0606EB86071F2606FA07F18843A2F17E
:100650000D0606EB860605FA06F10843E062F0BDDA
:10066000816841F008018160704721B1826842F4DD
:10067000A002826003E0826822F4A00282607047D8
:10068000816841F0040181607047002101600171BF
:1006900041718160C16001210174704700210C200B
:1006A0000F4A9268C24002F0010211430D200C4A29
:1006B0009268C24002F0010241EA42010E20084A5B
:1006C0009268C24002F0010241EA82010F20044A0E
:1006D0009268C24002F0010241EAC2010846704736
:1006E000000C014010B5002302220C210A4800F042
:1006F00067FB002302220D21074800F061FB002365
:1007000002220E21044800F05BFB002302220F218D
:10071000014800F055FB10BD000C01402DE9F047E9
:100720000446204600F084F8054605F0A3FE814605
:10073000484605F0D3FC07460022054B05F0ECF8CF
:10074000054605F003F881464846BDE8F0870000FD
:10075000000059402DE9F04704460020FFF7DEFF76
:1007600080460120FFF7DAFF8146002549464046D2
:1007700006F018F8824605F0B1FC21F0004106466B
:1007800004F0E4FF0546284605F0A8FC06460022D2
:10079000054B05F083FB01D2012000E00020207012
:1007A0004046BDE8F08700000000E03F0146012917
:1007B00002DD4FF0FF307047014830F83100FAE7B2
:1007C000BC0500200146012902DD4FF0FF307047D3
:1007D000024800EBC1008088F9E70000BC0500205A
:1007E0000146012902DD4FF0FF307047014830F823
:1007F0001100FAE7280000200146012902DD4FF030
:10080000FF307047024800EBC1004088F9E7000064
:10081000BC0500200146012902DD4FF0FF30704782
:10082000024800EBC100C088F9E70000BC050020C9
:100830000146012902DD4FF0FF307047014830F8D2
:100840001100FAE7240000202DE9F84F0024684643
:10085000FFF780FF83460021584605F037FE02D39C
:100860009DF8000010B14FF6FF7411E0584605F0F6
:1008700035FC07460022084B05F012FA054604F045
:1008800065FF824603F024FC814605F0B7FD04466F
:100890002046BDE8F88F0000000024401FB502F09C
:1008A00089F900F099F910216848FFF770FD0020E0
:1008B0006749088048806749088048808046082248
:1008C0006249C82000F0D8F98046B8F1000F05D081
:1008D0005E48008810B15D48808808B903F032FC9A
:1008E00004F090FC039000BFFA2103A803F054FE2B
:1008F000002414E00025002708E05749085D02F0B5
:1009000099F90544012003F019FE7F1C142FF4DB34
:100910001420B5FBF0F0514921F81400641C022C9E
:10092000E8DB00248EE0494901EBC4018988474A8D
:1009300032F83420881A05F09DFD82460021504689
:1009400005F028FD01D1002539E0404901EBC40143
:10095000C9883E4A02EBC4025288881A05F08AFD13
:1009600002905146029805F053FC8146374931F810
:10097000340005F097FD4946009005F0DBFD834605
:10098000324901EBC401488805F08CFD59460190BD
:1009900005F008FF0746314931F8140005F082FDE3
:1009A0004946019005F0C6FD8346394605F0C2FB75
:1009B00005460021284605F089FD00D2002528467D
:1009C00003F086FB834605F035FD04EB8401244AE1
:1009D00002EBC1011E4A32F8142021F812001C4813
:1009E00030F81400401C80B2194921F81400142872
:1009F00002DB002021F81400164830F814001428F7
:100A000006DA144830F81400401C124921F814008A
:100A10000026002008E004EB8401114A02EBC1012A
:100A200031F810100E44401C0A4931F8141081426C
:100A3000F1DC084830F81400B6FBF0F0094921F861
:100A40001400641C022CBFF64FAF6CE7BC050020FD
:100A50002C00002030000020F4680008280000204E
:100A6000CC0500202400002073B50446012C01DDD4
:100A700000207CBD0CB9C82000E0D0200646012231
:100A800001A9304600F03EF9054625B1BDF8040045
:100A9000024921F834002846EBE70000BC0500209D
:100AA00073B50446012C01DD00207CBD0CB9CC20BF
:100AB00000E0D4200646012201A9304600F022F9C8
:100AC00005462DB1BDF80400024901EBC401888040
:100AD0002846EAE7BC05002073B50446012C01DD79
:100AE00000207CBD0CB9CA2000E0D22006460122BD
:100AF00001A9304600F006F905462DB1BDF8040005
:100B0000024901EBC40148802846EAE7BC05002001
:100B100073B50446012C01DD00207CBD0CB9CE204C
:100B200000E0D6200646012201A9304600F0EAF88E
:100B300005462DB1BDF80410024800EBC400C18089
:100B40002846EAE7BC05002010B5002303220B214C
:100B5000074800F035F9002303220A21044800F079
:100B60002FF9002303220C21014800F029F910BDC0
:100B70000010014070B54AF2010580EA010444F416
:100B80007F4440F0FF0604EA060000220BE000F07C
:100B90000103044600EBD476C6F34F0013B14AF2CA
:100BA00001046040521C082AF1D370BD00BFFFF75A
:100BB00075FD044607480078844209D04FF4FA6076
:100BC00003F0BCFCFFF76AFDA04201D101490C70A3
:100BD000EDE700000000002010B5012003F026FF23
:100BE0000349086002F0D8F901200249087010BDDD
:100BF00038000020340000202DE9F04180460F46E7
:100C000015461B48007808B9FFF7E6FF4FF0FF31A3
:100C10001848006804F098F9012826D102F0BAFAC1
:100C2000404602F04EF906469EB102F0B3FAA1200A
:100C300002F066FA064666B1002408E002F004FA03
:100C40003855681EA04201D002F06EF9641CAC4217
:100C5000F4DB02F0E5FA00231A461946054800685D
:100C600003F06CFF3046BDE8F0810020FBE7000098
:100C700034000020380000202DE9F04106460D46E2
:100C800014462F464FF6FF7000EA440239463046BC
:100C9000FFF7B2FF80464046BDE8F0812DE9F04104
:100CA00080460E4617461548007808B9FFF794FFAE
:100CB0000024611E1248006804F046F9012819D189
:100CC00002F068FA404602F0FCF80446002504E011
:100CD000705D02F015FA04466D1CBD4201DA002C6D
:100CE000F6D102F09DFA00231A461946044800681E
:100CF00003F024FF2046BDE8F0810000340000200E
:100D0000380000202DE9F04106460D4614462F46D6
:100D10004FF6FF7000EA440239463046FFF7BEFF47
:100D200080464046BDE8F08101461D48814204D11D
:100D30001C488069C0F3800070471B48814204D181
:100D400018488069C0F3C000F6E71848814204D112
:100D500014488069C0F30010EEE71548814204D1C1
:100D600010488069C0F34010E6E71248814204D180
:100D70000C488069C0F38010DEE70F48814204D13F
:100D800008488069C0F3C010D6E70C48814204D1FE
:100D900004488069C0F30020CEE70020CCE70000C3
:100DA0000008014000100240000C0140001001400A
:100DB0000014014000180140001C014000200140C7
:100DC0002DE9F04105460C46174698460F2C02D9EE
:100DD0000020BDE8F0812846FFF7A6FF18B90121E1
:100DE000284600F071F8B8F1000F10D1022F05D19C
:100DF000E8680121A1408843E86008E0032F06D19C
:100E000027F00107E8680121A1400843E860082CA9
:100E100001D22E4601E0083C2E1D3068A2000F21B1
:100E200091408843306048EA8700A10088403168DB
:100E3000084330600120CCE7F0B50A4600230024C7
:100E40000021002500F00046B6F1004F02D11D4EF2
:100E5000F16901E01B4E7168C0F3034583B200F4F1
:100E60004016B6F5401F08D121F07061154E766826
:100E700026F07066134F7E6012E000F48016B6F51F
:100E8000801F06D1032606FA05F4A14341F07061E4
:100E900006E0460D360103FA06F6B14341F07061F3
:100EA00022B1460D360103FA06F6314300F0004642
:100EB000B6F1004F02D1034EF16101E0014E7160C5
:100EC000F0BD000000000140002945D0454A904295
:100ED00006D1454A926942F00402434B9A6180E090
:100EE000424A904206D1404A926942F008023E4B83
:100EF0009A6176E03E4A904206D13B4A926942F0BE
:100F00001002394B9A616CE03A4A904206D1364A57
:100F1000926942F02002344B9A6162E0364A904274
:100F200006D1314A926942F040022F4B9A6158E053
:100F3000324A904206D12C4A926942F080022A4BF2
:100F40009A614EE02E4A90424BD1274A926942F470
:100F50008072254B9A6144E0224A904206D1224A8F
:100F6000926922F00402204B9A613AE01F4A9042B3
:100F700006D11D4A926922F008021B4B9A6130E0AB
:100F80001B4A904206D1184A926922F01002164B71
:100F90009A6126E0174A904206D1134A926922F0DC
:100FA0002002114B9A611CE0134A904206D10E4A6E
:100FB000926922F040020C4B9A6112E00F4A904273
:100FC00006D1094A926922F08002074B9A6108E033
:100FD0000B4A904205D1044A926922F48072024B76
:100FE0009A6170470008014000100240000C014067
:100FF000001001400014014000180140001C014095
:1010000000200140014800787047000000000020E7
:1010100010B500F049FAFFF765FBFFF795FD0020DA
:101020000149087010BD0000000000200B20064A96
:101030009268C24002F001020AB9012000E00020DB
:101040000146084670470000000C014000F0010115
:1010500049B1002105E000220A4B03EB81039A709D
:10106000491C0229F7DB00F0020149B1022105E029
:101070000022044B03EB81039A70491C0429F7DB1F
:10108000704700001C06002000F0010149B100215A
:1010900005E001220A4B03EB81039A70491C0229E7
:1010A000F7DB00F0020149B1022105E00122044B07
:1010B00003EB81039A70491C0429F7DB7047000099
:1010C0001C06002010B5002003E00021044A5170E6
:1010D000401C0428F9DB002000F022F910BD0000BC
:1010E0001C0600202DE9F74F84B089469246B9F1DD
:1010F000010F01D1002000E00220044600210498E5
:1011000005F0E4F915D200208DF80E0001208DF8CD
:101110000D0000208DF80F000A208DF80C00E0B2C1
:1011200003A900F055F8611CC8B203A900F050F8FB
:1011300045E0049804F0D2FF07460022214B04F05A
:10114000AFFDCDE9000104F001FB029002F0C0FF09
:1011500005461D49284605F0B9FA00D21A4D1B492B
:10116000284605F055F8074605F048F9064606EB0F
:101170008601480005F07EF98046294605F008FB07
:10118000074605F03BF983468DF80EA001208DF847
:101190000D008DF80F00F0B28DF80C00E0B203A93D
:1011A00000F016F800208DF80F000BF0FF008DF80E
:1011B0000C00611CC8B203A900F00AF800BF07B018
:1011C000BDE8F08F000024400000C642000020412E
:1011D000042805DA21B1034A02EB80020B68136090
:1011E000704700001C06002038B5FFF76BFF4FF476
:1011F000FA7003F0A3F901208DF8030000208DF8A8
:10120000020001208DF801000A208DF80000002066
:101210008DF80300002404E0E0B26946FFF7D8FF30
:10122000641C042CF8DB012000F07AF84FF4FA700B
:1012300003F084F9092415E0E0B28DF800000120E4
:101240008DF80300002504E0E8B26946FFF7C0FF0F
:101250006D1C042DF8DB012000F062F8FA2003F089
:101260006DF9641E002CE7DA0A208DF800000020DA
:101270008DF80300002404E0E0B26946FFF7A8FF00
:10128000641C042CF8DB012000F04AF84FF4FA70DB
:1012900003F054F938BD000010B5022300220D21DF
:1012A0001E48FFF78DFD022300220E211B48FFF789
:1012B00087FD022300220F211848FFF781FD0D2032
:1012C000002121B101228240144B1A6105E000F196
:1012D000100201239340114A136100BF0E20002128
:1012E00021B1012282400D4B1A6105E000F110028C
:1012F00001239340094A136100BF0F20002121B14F
:1013000001228240054B1A6105E000F11002012321
:101310009340024A136100BF10BD0000001001405D
:101320002DE9F041054602F0F9FF4248407B18B133
:101330004048807B10B10DB9002408E03D48007B97
:101340003D490C5C3B48C07B08B144F08004260654
:101350003848407A18B13748807A10B10DB9002466
:1013600008E03448007A34490C5C3248C07A08B14D
:1013700044F0800446EA04462E48407918B12D48CE
:10138000807910B10DB9002408E02A4800792A4973
:101390000C5C2848C07908B144F0800446EA042671
:1013A0002448407818B12348807810B10DB9002442
:1013B00008E02048007820490C5C1E48C07808B13D
:1013C00044F0800426431F271AE00F200122BA4070
:1013D00032400AB1012200E00022114601F0010270
:1013E00022B101228240154B1A6105E000F1100282
:1013F00001239340114A136100BF01F071FF7F1E6A
:10140000002FE2DA0F20002121B1012282400B4B94
:101410001A6105E000F1100201239340074A1361AD
:1014200000BF642001F056FC01F086FF02F0A0FF2F
:10143000BDE8F0811C060020EE02002000100140F3
:1014400030B50C2800DB30BD094C54F8301004EBEB
:10145000C004A28801231BB1012494400C6104E064
:1014600002F110040125A5400D6100BF00BFEAE7AD
:101470009068000830B50C2800DB30BD094C54F8EA
:10148000301004EBC004A28800231BB10124944057
:101490000C6104E002F110040125A5400D6100BFBC
:1014A00000BFEAE79068000870B500241DE0104A0C
:1014B00002EBC40291880E4A52F834000223012242
:1014C000FFF77EFC0A4B53F8340003EBC403998802
:1014D00001221AB101238B40036104E001F11003E2
:1014E00001259D40056100BF641C0C2CDFDB70BD35
:1014F0009068000802F09AFE02F04EFE00F058FCE0
:1015000002F03EFE00BF012003F018F80B480078FF
:101510000028F8D00020FFF7ADFF094800F042F89E
:10152000044600200549087014B1204600F0D0F8A8
:1015300002F026FE0020FFF783FFE4E71C000020F6
:10154000BC03002010B502F027FE012001490870FD
:1015500010BD00001C00002010B504460E480078A5
:10156000C8B900210D4800F00CFD00210B4800F027
:101570001DFD0121094800F004FD09480078FA2802
:1015800001DB02F09FFD064801780078401C044A08
:101590001070501C445410BD1C0000200008004076
:1015A000BC03002070B505460DB9002070BD28466B
:1015B00001F082FE08B90020F8E76C1CFFF722FD5D
:1015C0002178884201D00020F0E7002660780328C7
:1015D00002D0102810D107E02878001FC1B2A01C4B
:1015E00000F0E2F806460DE02878001FC1B2A01C0A
:1015F00001F050FA064605E06078012101F040FF55
:10160000064600BF00BF0EB10148CFE70020CDE77E
:10161000B704002029B1064AD2690243044BDA61BB
:1016200004E0034AD2698243014BDA61704700004B
:101630000010024029B1064A92690243044B9A61A4
:1016400004E0034A92698243014B9A6170470000AB
:10165000001002402DE9F04107460D4615B9002063
:10166000BDE8F081384601F03FFC04465CB160689B
:1016700048B16088616888470646002E02DB2E80EC
:101680000120EDE700BF0020EAE72DE9F041054623
:101690000E46284601F028FC044654B1A06838B133
:1016A0006088A2683146904707463846BDE8F08119
:1016B00000BF0020FAE730B50546284601F014FCCB
:1016C00004461CB1A06808B1012030BD0020FCE731
:1016D00010B5044604B910BD02F01EFB00200B49F2
:1016E00008600AE0611C094A1268885C02F0FEFB8F
:1016F00006480068401C05490860207803490968CD
:101700008842EFDC02F0F2FA00BFE4E7200000209C
:101710002DE9F8438046022269466420FFF76CFAFF
:1017200018B94FF0FF30BDE8F883BDF8000004F0B1
:10173000B9FE0446154904F0C9FE08D3BDF80000FF
:1017400004F0B0FE0446124904F0C0FF06D2322075
:101750000090BDF80010002001F05EF9BDF8000017
:1017600004F0A0FE0B4908600846006804F0B6FCCF
:1017700006460022084B04F0CFF8044603F0E6FFCB
:1017800004490860BDF80000CDE700000000A0415A
:101790000000C8420C00002000002440014601481F
:1017A00000787047010000202DE9F043B3B00546F2
:1017B000894615B1B9F1040F03D0002033B0BDE85C
:1017C000F0832C466088000AA17840EA01206080FE
:1017D0002088000A217840EA01202080608864285F
:1017E00005DD0321084601F04BFE0120E6E70DF17F
:1017F00001070026B4F800801AE007EB46014046D6
:10180000FFF728FF28B90221032001F039FE01204B
:10181000D4E737F81600000A17F8161040EA01203E
:1018200027F8160008F101001FFA80F8701CC6B2F4
:101830002088618808444045DFDCA0784006000E1F
:101840008DF80000FFF7DEFB8046A078012101EB58
:101850004000C3B26A460321404601F039FE012030
:10186000ACE700002DE9FE4301217948FFF7E4FAD7
:10187000002303220B217748FFF7A2FA022300225C
:1018800007217548FFF79CFA0720002121B10122AA
:101890008240714B1A6105E000F110020123934070
:1018A0006D4A136100BF0024032201A96620FFF7DF
:1018B000E3F908B9012406E0BDF8040010B1BDF851
:1018C000060000B901248CB34FF0804063490860E2
:1018D0004FF07A5062490860624863490860634982
:1018E0005E48006804F026FE054604F0A3FD80B2C1
:1018F000ADF804005D495A48006804F01BFE054637
:1019000004F098FD80B2ADF80600584956480068CA
:1019100004F010FE054604F08DFD80B2ADF808001D
:10192000032201A96620FFF7EDF933E0FFE7BDF8D8
:10193000040004F0B7FD814604F0D0FB0746002206
:101940004B4B03F0E9FF054603F000FF43490860F5
:10195000BDF8060004F0A6FD814604F0BFFB074673
:101960000022434B03F0D8FF054603F0EFFE3C494D
:101970000860BDF8080004F095FD814604F0AEFB58
:10198000074600223A4B03F0C7FF054603F0DEFE90
:1019900035490860012237496C20FFF76DF910B115
:1019A0003448008830B90F203249088001226C2069
:1019B000FFF7A8F9012230496E20FFF75DF910B159
:1019C0002D48008830B95A202B49088001226E200A
:1019D000FFF798F9012229497020FFF74DF910B15E
:1019E0002648008830B9052024490880012270204B
:1019F000FFF788F9012269467220FFF73DF928B107
:101A0000BDF8000042F2107188420BDD1C481D49F0
:101A100008604FF4FA700090012269467220FFF7C7
:101A200071F913E0BDF8000004F03CFD15490860B1
:101A30000846006804F052FB05460022124B03F0F2
:101A40006BFF074603F082FE0E490860BDE8FE8387
:101A500000023000000C014000100140080300208B
:101A600000030020000040400403002000007A44EE
:101A700000408F400C0300200E03002010030020C4
:101A80000000A040140300200000594070B5044637
:101A90004FF0FF3524B1012C0CD0022C1ED113E0E5
:101AA00011491248006804F045FD064604F0A6FC02
:101AB000054616E00C490E48006804F03BFD06465A
:101AC00004F09CFC05460CE007490A48006804F055
:101AD00031FD064604F092FC054602E04FF0FF356A
:101AE00000BF00BF284670BD00007A4408030020F4
:101AF00000030020040300200146014A10887047BB
:101B00000C0300200146014A108870470E03002094
:101B10002DE9F04704464FF0FF3A04F0FF09B9F110
:101B20000D0F0BD2DFE809F086070B0F131D2733CB
:101B3000455560727D00414890F800A07AE0404829
:101B400090F800A076E03F4890F800A072E03E498F
:101B50003E48006804F0EEFC054604F04FFC824667
:101B600068E039493A48006804F0E4FC054604F0AE
:101B700045FC82465EE00120FEF7D0FD0646324974
:101B800004F0D8FC054604F039FC824652E02E49A8
:101B90003048006804F0CEFC804602F099FA07460F
:101BA00004F09CFA21F00041054604F00DF882464D
:101BB00040E02948006804F091FA21F0004107460E
:101BC0000022264B04F06CF8054603F0FDFF824628
:101BD00030E000212048006804F078FD01D80120A1
:101BE00000E00020824625E017491D48006804F007
:101BF000A1FC804602F06CFA074604F06FFA21F06F
:101C00000041054603F0E0FF824613E0002114483E
:101C1000006804F05BFD01D8012000E0002082464E
:101C200008E010490868002801DB014600E0414255
:101C30008A4600BF00BF5046BDE8F0870200002082
:101C400004000020030000200000C8420C00002017
:101C50000800002014030020180300200000594051
:101C60001C030020200300200146014A1088704711
:101C7000100300202DE9F35F0446022C02DD002052
:101C8000BDE8FC9F662000EB44001FFA80FA0222A8
:101C900001A95046FFF702F88146B9F1000F3DD087
:101CA00024B1012C14D0022C36D123E0BDF804005D
:101CB00004F0F8FB834604F011FA07460022184BA3
:101CC00003F02AFE054603F041FD1649086024E0B2
:101CD000BDF8040004F0E6FB834604F0FFF9074674
:101CE00000220F4B03F018FE054603F02FFD0E49AE
:101CF000086012E0BDF8040004F0D4FB834604F051
:101D0000EDF905460022064B03F006FE074603F0F8
:101D10001DFD0649086000E000BF00BF4846AFE770
:101D200000408F400803002000030020040300202F
:101D300073B50546012201A96C20FEF7E3FF0446B6
:101D40001CB1BDF804000249088020467CBD00009B
:101D50000C03002073B50546012201A96E20FEF791
:101D6000D1FF04461CB1BDF804000249088020469A
:101D70007CBD00000E03002073B50546BDF80400CD
:101D8000032803DBBDF80400142801DD00207CBD1E
:101D9000012201A97020FEF7B5FF04461CB1BDF871
:101DA0000400024908802046F1E7000010030020EB
:101DB00010B50223002208212F48FFF701F8082060
:101DC000002121B1012282402B4B1A6105E000F174
:101DD000100201239340284A136100BF27488069FD
:101DE00040F480402549886140F241302449088010
:101DF000081D008842F22C0108432149091D088072
:101E00001E48806940F005001C4988611A48001D81
:101E1000006820F0C0001849091D086008460068E5
:101E200040F0800008600846006840F0100008603C
:101E30000846006820F4406008600846006840F4E6
:101E4000806008600846006820F440700860252023
:101E500000280DDB00BF00BF00F01F0201219140F0
:101E60004209920002F1E022C2F8001100BF00BF57
:101E700000BF62B610BD0000000801400010024023
:101E800008380140704700002DE9F047044620461D
:101E900004F024F9074600220A4B03F001FF05462F
:101EA00003F054FC0446204602F012F9054604F003
:101EB000C1FA1FFA80F94946002000F0ADFDBDE8E7
:101EC000F08700000000244010B500BFA02080F380
:101ED0001188BFF34F8FBFF36F8F00BF03F098F9E6
:101EE00018B14FF080500449086000BF002080F313
:101EF000118800BF10BD000004ED00E010B51648C9
:101F0000006840F001001449086008464068134921
:101F100008401149486008460068114908400E49C8
:101F200008600846006820F4802008600846406881
:101F300020F4FE0048600846006820F0A0500860C9
:101F40004FF47F0088600020C862FFF79BFF4FF0CE
:101F500000600449086010BD001002400000FFF05E
:101F6000FFFFF6FE08ED00E010B50121024800F089
:101F700005F8FFF7E7FA10BD00080040CA430282E7
:101F8000704721B1028842F00102028004E0028819
:101F90004FF6FE731A40028070471AB183890B43D3
:101FA000838102E083898B438381704781847047FA
:101FB000002202881D4B98420ED01D4B98420BD038
:101FC000B0F1804F08D01B4B984205D01A4B984275
:101FD00002D01A4B984204D14FF68F731A404B88A7
:101FE0001A43174B984207D0164B984204D04FF62D
:101FF000FF431A40CB881A4302808B8883850B8865
:1020000003850A4B98420BD0094B984208D00E4BDF
:10201000984205D00D4B984202D00D4B984201D109
:102020000B7A03860123838270470000002C014055
:10203000003401400004004000080040000C004053
:1020400000100040001400400040014000440140E6
:10205000004801404FF6FF71818000210180C1805E
:1020600041800172704700001FB500BF00BF00BF74
:102070004FF00009CA46CB460025002600200390F9
:1020800002900190009000BF00F086FD074600F02E
:1020900075FD804600F064FD04468FB9B9F1000F6C
:1020A0000CD0029830B9B5F5FA7F05DA0120344931
:1020B000087001E00020009000200290002511E04F
:1020C000B9F1000F0ED01935B5F5966F0ADDB6F5EA
:1020D000966F07DD009828B901202A490870029000
:1020E00001900090B8F1000F11D1BAF1000F0CD09F
:1020F000019830B9B6F5FA7F05DA01202249087057
:1021000001E00020009000200190002611E0BAF1CB
:10211000000F0ED01936B5F5966F0ADDB6F5966F3D
:1021200007DD009828B90120164908700290019037
:10213000009044B900200390BBF1000F18D001209B
:102140001249087014E01248007878B9BBF1000F0A
:102150000CD00398193003900398B0F5966F07DD03
:1021600001200B4908700020039001E0002003903B
:10217000C246B946A346192002F0E0F984E7000000
:102180001000002012000020110000201400002088
:102190001300002088B000BF002002F009F80020E2
:1021A00094490860944908604FF47A7002F0C6F9C7
:1021B00000BF03F027F804909048007850B9904889
:1021C000007838B98F48007820B90020FFF7E6FA88
:1021D000012806D0002001F0EBFF322002F0AEF91A
:1021E000E7E7894801688948006804F0DBFA06904F
:1021F00087480699006804F09DF90790854806997C
:10220000006804F097F980467A480168404603F078
:1022100091FF80467748C0F800807F4801687A487F
:10222000006804F0BFFA83467C480168584604F011
:1022300081F98146744800687749086041460798EB
:1022400003F078FF8346494603F074FF6A4908604B
:102250000846006803F042FF0022714BCDE90001FF
:1022600003F01EFDCDE9020103F070FA6249086037
:102270006C48006800282DDC084600686A49086040
:10228000084601686948006803F054FF6749086020
:1022900067496648006804F019FA02D26448634945
:1022A000086000216148006804F010F902D20020A3
:1022B0005E4908605F495D48006804F03BF9834669
:1022C00004F0B8F880B20590012205A97220FEF74B
:1022D00019FD06E00020544908605448006853493D
:1022E00008605549098801EB8101480004F0C2F8F3
:1022F00003904E480168039804F01CF9834604F0EB
:102300007DF84E4908600846006864284CDD0624C4
:1023100018E04A48006890FBF4F5FA2D11DD05FB42
:1023200004F04549098801EB4102C2EBC111642266
:10233000C2EBC101091A91FBF4F6FA2E00DD03E0AD
:1023400000BF641E002CE4DC00BF64B9642D0ADD0C
:1023500001243948008800EB4001C1EBC010642122
:10236000C1EBC000461B1AE0012001F021FF284606
:1023700002F0E4F8002001F01BFF2048007850B97B
:102380001F48007838B91F48007820B90020FFF7AF
:1023900005FA012800D006E0304602F0CFF8201EF2
:1023A000A4F10104E0D104E000202449086001F018
:1023B000FFFE02F027FF07460499781A1E49098894
:1023C00001EB4102C2EBC111B0EBC10F0AD204987C
:1023D000381A1949098801EB4102C2EBC111C0EB5F
:1023E000C10A01E04FF00A0A514604A802F0D4F8ED
:1023F000DFE6000024030020180300200200002074
:102400000400002003000020080000200C00002031
:1024100008030020000300202803002004030020FC
:102420000000F0BF2C0300201C0300201403002038
:102430000000BE420000C84210030020200300201C
:1024400008B50124FEF728FFFEF7CEFE00BF02F01C
:10245000D9FE009000BF4FF4FA71684602F09CF874
:102460002046FEF75DFF1248007820B11CB1052020
:10247000FFF700F802E00520FEF7E2FF0D480078C4
:1024800020B11CB10420FEF7F5FF02E00420FEF7A6
:10249000D7FF0948007820B11CB10220FEF7EAFFFF
:1024A00002E00220FEF7CCFF84F00104D3E7000035
:1024B0000400002003000020020000201FB500BF20
:1024C00000250026A946AA46FFF7CCF901205F495E
:1024D000087041F2883002F031F8002001210346F3
:1024E0008022CDE900105AA15B4802F04BFE02F0B9
:1024F00089FE039000BF322103A802F04DF857482F
:102500000068002804DD55480068323853490860E7
:102510000020FFF743F901280AD0002001F048FE0F
:10252000002001F063FE4FF0000900260025E2E7DD
:10253000FEF77CFD044694B9002001F057FE002010
:1025400001F036FE0120414908700025444800682A
:102550004449086043F698204049086022E0BAF1F7
:10256000000F01D100251DE038480078D0B1323588
:102570003D48008800EB4001C1EBC010B5EBC00F37
:1025800010DD012001F032FE002001F011FE0020DC
:102590002E490870354908603549086043F698208F
:1025A0002E490860A24602A8FEF7D4F82C4908601C
:1025B00000212B48006803F089FF02D39DF8080032
:1025C00098B12C48007890B909F132092648008862
:1025D00000EB4001C1EBC010B9EBC00F07DD0120DB
:1025E000244908704FF0000901E04FF00009174836
:1025F000007838BB1F48007820BB1F48007808BB14
:102600001E4801681648006804F0CCF8834603F0C1
:1026100065FD21F0004107460022194B03F03EFC06
:102620000ED232361748008800EB4001C1EBC010D3
:10263000B6EBC00F09DD002601200F49087004E049
:10264000002602E0002001F0B3FD54E70200002064
:102650004B6C6170616E0000952100082C03002016
:1026600008000020280300200C0300202403002081
:102670001803002004000020030000200C000020AC
:102680000000E03F0E03002008B5022300220621CF
:10269000C148FEF795FB0020FFF73AF80120BF493B
:1026A000087000250CE00020FEF7E4FE642001F035
:1026B00045FF0020FEF7C4FE642001F03FFF6D1CC3
:1026C000142DF0DB00BF322001F038FFB448007851
:1026D00028B9B448007810B9B348007808B101208F
:1026E00000E000200446AD480078012804D002280C
:1026F0007ED003287DD1ECE00620FEF7A1FE072066
:10270000FEF79EFE6846FEF725F8A8490860A64831
:10271000007828B100220121A548FEF7E3FC05E07E
:1027200000220121A1480068FEF7DCFC0022022102
:10273000A0480068FEF7D6FC34B10120FEF7A4FCE7
:102740000220FEF783FC05E00120FEF77FFC02205B
:10275000FEF77CFC9848007828B100F097FA022038
:102760008E49087051E09548007800B300F08EFA69
:102770009048006803F0B2FC0746914A914B03F081
:1027800017F805460022904B03F04EFA3DD28948D7
:10279000006803F0A3FC0746894A8A4B03F008F857
:1027A000054602F0D3FF8346FFF76EFB2DE0874816
:1027B000007818B300F06AFA7E48006803F08EFCD7
:1027C00007467F4A7F4B03F09FFB054600221346D6
:1027D00003F064FB19D27748006803F07FFC0746DA
:1027E000774A784B03F090FB054602F0AFFF01E01B
:1027F0000CE0CBE08346FFF747FB06E07448007827
:1028000018B100F043FA00F057FAC3E00620FEF7D3
:1028100031FE0720FEF714FE0020FDF77FFF814602
:102820000120FDF77BFF8246002201214846FEF78A
:1028300059FC002202215046FEF754FC5E48007805
:10284000A0B300F023FA0020FDF7CAFF85B22946A5
:102850000020FEF709F90120FDF7C2FF85B22946E5
:102860000120FEF701F90020FDF758FF8146012005
:10287000FDF754FF8246002201214846FEF732FC54
:10288000002202215046FEF72DFC642001F056FE86
:102890000320FEF7F9FB40F2DC5001F04FFE03206D
:1028A000FEF7D4FB03203D49087011E0FFE74348E1
:1028B000007828B100F0EAF903203849087007E0F1
:1028C0004448007820B100F0E1F901203349087054
:1028D00060E0002001F08AFC0720FEF7CBFD062017
:1028E000FEF7AEFD0020FDF719FF81460120FDF740
:1028F00015FF8246002201214846FEF7F3FB002225
:1029000002215046FEF7EEFB2B480078A0B300F002
:10291000BDF90020FDF764FF85B229460020FEF7CF
:10292000BFF80120FDF75CFF85B229460120FEF7C4
:10293000B7F80020FDF7F2FE81460120FDF7EEFE1C
:102940008246002201214846FEF7CCFB00220221EC
:102950005046FEF7C7FB642001F0F0FD0320FEF7B0
:1029600093FB40F2DC5001F0E9FD0320FEF76EFB23
:1029700001200A49087008E0FFE71648007820B1F6
:1029800000F084F901200549087003E001200349A3
:10299000087000BF97E60000001001400100002011
:1029A0000400002003000020020000200800002096
:1029B000000080BF0C00002012000020100000204A
:1029C0009A9999999999B93F0000244011000020E3
:1029D000130000201400002010B50B48008840F2BE
:1029E0002551084078B10848008800F0070038B940
:1029F000054800F00BF80446E0B2FEF7ADFD02E03A
:102A0000014800F003F810BD0038014001468888F5
:102A1000C0F30800704700002DE9F3418046BDF87F
:102A2000040003F03FFD0446164903F04FFD08D3B0
:102A3000BDF8040003F036FD0446134903F046FEDA
:102A400002D20020BDE8FC81022201A96420FEF729
:102A500025F9A8B1BDF8040003F024FD0B49086076
:102A60000846006803F03AFB06460022084B02F0D5
:102A700053FF044602F06AFE044908600120E1E7C2
:102A80000020DFE70000A0410000C8420C00002049
:102A9000000024402DE9F8430546884615B1B8F1F9
:102AA000070F02D20020BDE8F8832C466088000A98
:102AB000A17840EA012060802088000A217840EA5D
:102AC000012020806188642906DC207900EBD07128
:102AD00049106288914205D00321102000F0D0FCFB
:102AE0000120E0E700260CE02188314488B2FEF79F
:102AF000E2FD28B90321102000F0C2FC0120D2E73A
:102B0000761C6088B042EFDC671D00260CE037F8C9
:102B10001620120A17F8163042EA0321228832449E
:102B200090B2FEF7B2FD761C6088B042EFDC2088E0
:102B3000000A217840EA0120ADF800006088000A10
:102B4000A17840EA0120ADF80200FEF75BFA0646E4
:102B500004236A46102100F0BBFC0120A3E700001B
:102B60000C2005498968C14001F0010109B9012023
:102B700070470020FCE70000001001400A200549D2
:102B80008968C14001F0010109B9012070470020A6
:102B9000FCE70000001001400B2005498968C14096
:102BA00001F0010109B9012070470020FCE7000095
:102BB0000010014000B585B001214802FEF73AFD42
:102BC0006846FDF762FD002000908DF804008DF846
:102BD00005004FF4602002900020039001208DF842
:102BE000100069461148FDF7B7FC01210F48FDF7B9
:102BF00086FC0523012200210C48FDF7D5FC0B487B
:102C0000FDF72EFD00BF0948FDF79BFC0028FAD117
:102C10000648FDF735FD00BF0448FDF77BFC0028A2
:102C2000FAD103490880488005B000BD0024014066
:102C30002400002010B5044605230122214609483E
:102C4000FDF7B2FC01210748FDF70FFD00BF02218F
:102C50000448FDF76DFC0028F9D00248FDF764FC3C
:102C600010BD000000240140F0B505460E464FF6A9
:102C7000FF77002406E0295DB8B2FDF77BFF074629
:102C8000601CC4B2B442F6DBB8B2F0BD0020054906
:102C9000087005490870054908700549087005491C
:102CA0000870704712000020100000201100002062
:102CB000130000201400002010B500200349087004
:102CC0000349087000F00BF810BD0000030000205D
:102CD0000400002000E0401E0028FCDA7047F8B530
:102CE000322700208DF802008DF803000026E2E074
:102CF00000252FE02C4601208DF801000B208DF8D7
:102D00000000E8B26946FEF763FA00208DF8010082
:102D1000601C0446032800DD241FE0B26946FEF76C
:102D200057FA601C0446032800DD241FE0B2694600
:102D3000FEF74EFA601C0446032800DD241FE0B2B3
:102D40006946FEF745FA0020FEF7EAFA322001F064
:102D5000F5FB6D1C042DCDDB01208DF801000C204E
:102D60008DF8000069460320FEF732FA00208DF846
:102D700001006946FEF72CFA69460120FEF728FAA1
:102D800069460220FEF724FA0020FEF7C9FA322035
:102D900001F0D4FB01208DF801000D208DF800001A
:102DA00069460320FEF714FA00208DF801006946F9
:102DB000FEF70EFA69460120FEF70AFA694602207C
:102DC000FEF706FA0020FEF7ABFA322001F0B6FB60
:102DD00003252FE02C4601208DF801000E208DF8F0
:102DE0000000E8B26946FEF7F3F900208DF8010013
:102DF000601C0446032800DD241FE0B26946FEF78C
:102E0000E7F9601C0446032800DD241FE0B2694690
:102E1000FEF7DEF9601C0446032800DD241FE0B243
:102E20006946FEF7D5F90020FEF77AFA322001F064
:102E300085FB6D1E002DCDDA01208DF801000F20DD
:102E40008DF8000069460020FEF7C2F900208DF8D9
:102E5000010069460120FEF7BBF969460220FEF732
:102E6000B7F969460320FEF7B3F90020FEF758FAD8
:102E7000322001F063FB01208DF8010010208DF855
:102E8000000069460020FEF7A3F900208DF801003C
:102E900069460120FEF79CF969460220FEF798F981
:102EA00069460320FEF794F90020FEF739FA322034
:102EB00001F044FB761C032EFFF61AAFFEF702F971
:102EC000F8BD31B5A02000F01BF9044654B16D46A1
:102ED000687800F015F904461CB1287800F010F964
:102EE000044600BF204638BDF0B5014600254FF42A
:102EF00025720C2392FBF3F084B200200CE000EB6F
:102F00004006084F37F826608E4204D100EB400699
:102F100007EB860502E0401CA042F0DB00BF28461C
:102F2000F0BD00005A00002010B502230122072145
:102F30001848FDF745FF0720002121B101228240FA
:102F4000144B1A6105E000F1100201239340114A6D
:102F5000136100BF0620012121B1012282400D4BE7
:102F60001A6105E000F1100201239340094A136140
:102F700000BF0620002121B101228240054B1A61C9
:102F800005E000F1100201239340024A136100BFE3
:102F900010BD0000000C014010B5022301220621E3
:102FA0001348FDF70DFF0023012207211048FDF70C
:102FB00007FF0620012121B1012282400C4B1A613A
:102FC00005E000F1100201239340094A136100BF9C
:102FD0000720012121B101228240054B1A6105E041
:102FE00000F1100201239340014A136100BF10BD9C
:102FF000000C014010B50621012222B101238B40B3
:10300000104C236105E001F1100301249C400D4B9D
:103010001C6100BF07210B4A9268CA4002F0010000
:1030200000BF0621002222B101238B40054C236101
:1030300005E001F1100301249C40024B1C6100BF1C
:1030400010BD0000000C014070B5002600230122D5
:1030500007210848FDF7B4FE072507E0FFF7CAFF80
:10306000044604FA05F03043C6B26D1E002DF5DAB1
:10307000304670BD000C014010B502467AB90720F9
:10308000002121B1012383401C4C236105E000F1A4
:10309000100301249C40194B1C6100BF0FE0072066
:1030A000012121B101238340144C236105E000F18B
:1030B000100301249C40114B1C6100BF00BF06207F
:1030C000012121B1012383400C4C236105E000F173
:1030D000100301249C40094B1C6100BF0620002105
:1030E00021B101238340054C236105E000F1100369
:1030F00001249C40014B1C6100BF10BD000C01402D
:1031000070B5054600260223012207212048FDF75D
:1031100057FE07240BE00121A1402940002901DDD1
:10312000012100E000210846FFF7A6FF641E002CE5
:10313000F1DA0023012207211548FDF741FE0620A0
:10314000012121B101228240114B1A6105E000F1F9
:103150001002012393400E4A136100BF07200C495F
:103160008968C14001F0010101B901260620002152
:1031700021B101228240064B1A6105E000F11002E4
:1031800001239340024A136100BF304670BD000026
:10319000000C014010B50223012207211F48FDF752
:1031A0000FFE0720012121B1012282401B4B1A6131
:1031B00005E000F1100201239340184A136100BF9B
:1031C0000620012121B101228240144B1A6105E041
:1031D00000F1100201239340104A136100BF072041
:1031E000002121B1012282400C4B1A6105E000F15F
:1031F000100201239340094A136100BF06200021F9
:1032000021B101228240054B1A6105E000F1100254
:1032100001239340014A136100BF10BD000C01401F
:1032200010B50720002121B101228240214B1A61F3
:1032300005E000F11002012393401E4A136100BF14
:103240000620002121B1012282401A4B1A6105E0BB
:1032500000F1100201239340164A136100BF0223BC
:10326000012207211348FDF7ABFD0620012121B102
:10327000012282400F4B1A6105E000F11002012388
:1032800093400C4A136100BF0720012121B10122A4
:103290008240084B1A6105E000F1100201239340BF
:1032A000044A136100BF0023012207210148FDF7F2
:1032B00087FD10BD000C014070B504462078801ECB
:1032C000611C0D5A2078801EC1B2601CFFF7CCFC37
:1032D0000646B54201D1012070BD0020FCE7000088
:1032E00000B51420FFF7F6FC0D20012121B10122C9
:1032F0008240104B1A6105E000F110020123934057
:103300000C4A136100BF1420FFF7E4FC0D200021DC
:1033100021B101228240074B1A6105E000F1100241
:1033200001239340034A136100BF1420FFF7D2FC2E
:1033300000BD00000010014000B51420FFF7CAFCDA
:103340000E20012121B101228240104B1A6105E0BB
:1033500000F11002012393400C4A136100BF1420B6
:10336000FFF7B8FC0E20002121B101228240074B5B
:103370001A6105E000F1100201239340034A136132
:1033800000BF1420FFF7A6FC00BD000000100140A4
:103390001CB5FDF73DFE0020012103468022CDE94A
:1033A000001022A1234801F0EDFE00200121034678
:1033B0008022CDE9001020A1214801F0E3FE002089
:1033C00002210346CA02CDE900101EA11F4801F0E8
:1033D000D9FE0020012103468022CDE900101CA166
:1033E0001D4801F0CFFE0020012103468022CDE9D7
:1033F00000101AA11A4801F0C5FE00200121034661
:103400008022CDE9001017A1184801F0BBFE002072
:10341000012103464A02CDE9001015A1174801F029
:10342000B1FE01F0E3F900201CBD0000414444520C
:1034300045535300AD0B0008414E414C4F4700002F
:103440009D0800084D6F646275730000F514000854
:103450004C656473446967004124000842544E007F
:1034600069200008574F524B0000000089260008D1
:10347000526567756C61746F72000000BD240008AE
:103480007CB504460D46FDF7BDFD8DF8000004F047
:103490003F0040F080008DF801008DF802500321BC
:1034A0006846FFF7E1FBADF80300FB210748FCF796
:1034B0006EFF06480099C0F801109DF80410417194
:1034C00005200249087001207CBD0000B7040020DF
:1034D0002DE9F0478046894616461C46002C02DD41
:1034E0000EB9BDE8F087F52C00D9FAE7FB211548A5
:1034F000FCF74DFF134D6D1C85F8008085F8019099
:103500005CB14FF0000A06E022463146A81CFCF7E9
:10351000F9FE0AF1010AA245F6DBA01C0949087070
:1035200008460178401CFFF79FFB074605490A78CB
:10353000491C8F52481E0078801C491E087000BF2D
:10354000CFE70000B70400202DE9F04105460F4603
:103550001748066817480068001D00F095FE50B92E
:103560001448006890F82C1001208840124909681E
:1035700081431148016074190E4800684460B442E8
:1035800007D20C480168091D0C48006800F0A0FE35
:103590000CE008480168091D0948006800F098FE21
:1035A00008480068844201D206480460BDE8F08102
:1035B0008003002070030020840300207803002093
:1035C000740300209C03002010B5044600F0A6FE02
:1035D00023480068401C224908602248006840B91E
:1035E000204804600846006801280DD100F0AEF9BB
:1035F0000AE01D48006838B91A480068C06AE16AE4
:10360000884201D81748046018480068401C1749D0
:10361000086094F82C100120884015490968084377
:1036200013490860E16A01EB8101124A02EB810053
:10363000211D00F067FE00F09BFE0B48006868B19A
:1036400008480068C06AE16A884207D24FF080509B
:1036500009490860BFF34F8FBFF36F8F10BD0000A3
:103660007C030020700300208803002098030020C2
:10367000840300202C6A002004ED00E010B500F067
:103680004DFE0C48006890B90B4800F011FE0B4845
:1036900000F00EFE08480A49086008480949086019
:1036A00000220C210A2001F0D2F90249086000F042
:1036B0005FFE10BDB0030020CC6A0020E06A00204D
:1036C000A8030020AC030020704770B504460D46E7
:1036D000206C70B1216CE0680144E160D4E9021013
:1036E000884201D32168E1602846226CE168FCF73A
:1036F00009FE70BD2DE9F04104460F4615464FF016
:103700000008A66B206C48B9206800282CD1A0685E
:1037100001F022FE80460020A06025E07DB93946F8
:10372000226C6068FCF7EEFD216C60680844606004
:10373000D4E90101884217D32068606014E039465B
:10374000226CE068FCF7DEFD216CE068411AE16064
:103750002168E068884203D2216CA068411AE160C8
:10376000022D01D106B1761E701CA0634046BDE853
:10377000F08101464A6A22B10A6B1268C2F1050063
:1037800000E00020704700000146084A12681268F5
:103790000AB9012200E000220A600A6822B9034A3D
:1037A0001268D268106800E000207047A80300206B
:1037B00030B54FF4C843174800F007042CB1C01DC2
:1037C00020F00700134C041B1B1B0246124C226006
:1037D0000024114D6C60D018083820F007000F4C01
:1037E000206000240D4D2D686C600C4D2D682C6000
:1037F0001146441A4C60094C24680C60084D4C6812
:103800002C60084D4C682C604FF00044064D2C6035
:1038100030BD00002C060020440300204C03002093
:1038200054030020500300206003002000BFFFF776
:103830004BFF064800680128F9D94FF08050044931
:103840000860BFF34F8FBFF36F8FF0E72C6A002043
:1038500004ED00E010B5044654B10020A0602060E3
:103860000021E16000231A461946204601F066F95E
:1038700010BD2DE9F04106460D4617469846069CB8
:103880000DB9246000E02760E6632564012120462D
:1038900001F008F9BDE8F0812DE9FF5F81460E4691
:1038A0009246DDE90E7B109CAAF10100216B01EB31
:1038B000800828F0070808F0070008B9012000E098
:1038C000002050B900BFA02080F31188BFF34F8FB4
:1038D000BFF36F8F00BF00BFFEE786B1002507E092
:1038E000715D04F134004155705D00B902E06D1C5A
:1038F0000A2DF5D300BF00213D20015502E0002034
:1039000084F83400052F00D30427E76227640020E1
:103910006064201D00F0D9FC04F1180000F0D5FC13
:103920002461C7F10500A06164620020A06484F8EE
:103930004C0049464046039A00F0A2FB2060BBF1D0
:10394000000F01D0CBF80040BDE8FF9F10B5002468
:1039500007E004EB84010C4A02EB810000F0A8FCB4
:10396000641C052CF5D3094800F0A2FC084800F0BF
:103970009FFC084800F09CFC044807490860044884
:103980000649086010BD00002C6A0020906A0020E3
:10399000A46A0020B86A0020740300207803002085
:1039A00010B50146164800E0006803688B42FBD35F
:1039B0000246436813448B4204D143684C68234455
:1039C000436001460A464B6813440468A34211D180
:1039D0000C4C03682468A34208D04B6804686468F0
:1039E00023444B6003681B680B6005E0054B1B68B4
:1039F0000B6001E003680B60884200D0016010BDDD
:103A0000440300204C0300202DE9F04104460D46FC
:103A100016461F464FF0000865602461B5420CD879
:103A2000F01BA169884202D34FF0010811E0211D6B
:103A30000948006800F04CFC0BE0BE4204D2BD42D5
:103A400002D34FF0010804E0211D0448006800F093
:103A50003FFC4046BDE8F081AC030020A8030020F5
:103A600070B5054600F05AFCA86B08B9012400E0C7
:103A7000002400F07DFC204670BD70B5054600F0C6
:103A80004DFCA86BE96B884201D1012400E00024C1
:103A900000F06EFC204670BDF8B505460F461A488A
:103AA0000068C068C468201D00F0EEFB94F8240094
:103AB00000F00400E8B1A06941192B463A462046BF
:103AC000FFF7A2FFD8B1002003462A460146009026
:103AD000204601F0F9FD064656B900BFA02080F34C
:103AE0001188BFF34F8FBFF36F8F00BF00BFFEE79A
:103AF00005E094F8240020F0010084F8240020461A
:103B0000216A8847F8BD0000A803002070B586B080
:103B10008BE003980028FBDB059C606908B9012055
:103B200000E0002010B9201D00F0AEFB02A800F05C
:103B300009F9054603980A2875D2DFE800F009055F
:103B40000739416306083A4200BF00BF00BF00BF0B
:103B500094F8240040F0010084F824000498A2693D
:103B6000811803462A462046FFF74EFFF8B120464B
:103B7000216A884794F8240000F00400B8B10020BE
:103B800000900498A169421800231946204601F0CC
:103B90009BFD064656B900BFA02080F31188BFF3F5
:103BA0004F8FBFF36F8F00BF00BFFEE700BF3BE04A
:103BB00000BF94F8240020F0010084F8240033E0D2
:103BC00000BF94F8240040F0010084F82400049819
:103BD000A061A06908B1012000E0002050B900BF39
:103BE000A02080F31188BFF34F8FBFF36F8F00BF0A
:103BF00000BFFEE7A06941192B462A462046FFF781
:103C000003FF11E094F8240000F0020018B92046E8
:103C100000F0CCFB05E094F8240020F0010084F8CB
:103C2000240001E0FFE700BF00BF002203A9044811
:103C3000006801F0D5F800287FF46BAF06B070BDC6
:103C4000B0030020F8B505460C4600F019FE6846A2
:103C500000F078F80646009820BB44B9B54206D873
:103C600001F086FC31462846FFF716FF1CE03CB108
:103C70000E480068006808B9012000E000200446F2
:103C8000A91B22460A48006800F032FC01F070FCD3
:103C900050B94FF0805007490860BFF34F8FBFF312
:103CA0006F8F01E001F064FCF8BD0000AC03002060
:103CB000B003002004ED00E00A490968096809B969
:103CC000012100E0002121B14FF0FF31064A1160CF
:103CD00006E004490968C968C868034A4168116078
:103CE00070470000740300209C03002010B50220E0
:103CF00000F024FC0820002121B101228240054B64
:103D00001A6105E000F1100201239340014A13619A
:103D100000BF10BD0008014010B50820012121B1ED
:103D200001228240064B1A6105E000F110020123D6
:103D30009340034A136100BF012000F0FFFB10BD58
:103D40000008014070B5044601F05CFA05460748DA
:103D50000068854204D200F00BF80120206001E0E9
:103D60000020206001480560284670BDB80300208F
:103D70002DE9F84334E025480068C0680568234809
:103D80000068C068C468201D00F07EFA2046216AE1
:103D9000884794F8240000F0040008B3A06946198D
:103DA000AE4207D966602461211D1848006800F002
:103DB0008FFA15E0002003462A460146009020466F
:103DC00001F082FC074657B900BFA02080F311889C
:103DD000BFF34F8FBFF36F8F00BF00BFFEE700BF81
:103DE0000A480068006808B9012000E000200028A7
:103DF000C1D00648D0F80080054800680349086033
:103E00000348C0F80080BDE8F8830000A803002044
:103E1000AC0300200E480068401C08B9012000E0F7
:103E2000002050B900BFA02080F31188BFF34F8F4E
:103E3000BFF36F8F00BF00BFFEE700BFA02080F37D
:103E40001188BFF34F8FBFF36F8F00BF00BFFEE736
:103E50006403002008B500BF6846FFF795FC0446E0
:103E600020460099FFF7EEFEFFF750FEF4E770B52D
:103E7000044600F053FA94F9455010E0606A08B91E
:103E8000012000E0002038B904F1240001F024FBF7
:103E900018B100F0F7FB00E003E0681E45B2002D0A
:103EA000ECDC00BFFF2084F8450000F061FA00F070
:103EB00035FA94F9445010E0206908B9012000E077
:103EC000002048B904F1100001F006FB08B100F031
:103ED000D9FB681E45B200E001E0002DECDC00BF1C
:103EE000FF2084F8440000F043FA70BD00BF084989
:103EF000098801F080010029F9D00549091D0880D1
:103F000000BF0349098801F080010029F9D07047FA
:103F1000003801402DE9F04104464FF0000800F060
:103F2000AFFC4948006808B9FFF742FC4748006801
:103F30002040002870D1D4B1083404F00700B0B19B
:103F400004F00700C0F10800044404F0070008B9B9
:103F5000012000E0002050B900BFA02080F31188AC
:103F6000BFF34F8FBFF36F8F00BF00BFFEE7002C82
:103F700052D03748006884424ED8364E30460568E5
:103F800001E02E462D686868A04202D22868002809
:103F9000F7D12D48006885423ED0306800F108080E
:103FA000286830606868001B102819D92F1907F09D
:103FB000070008B9012000E0002050B900BFA02090
:103FC00080F31188BFF34F8FBFF36F8F00BF00BF27
:103FD000FEE76868001B78606C603846FFF7E0FC1D
:103FE0001B4968680968081A19490860084600688A
:103FF00019490968884203D21548006816490860C3
:1040000012496868096808436860002028601348FE
:104010000068401C1149086001F0AAFA08F0070086
:1040200008B9012000E0002050B900BFA02080F3B3
:104030001188BFF34F8FBFF36F8F00BF00BFFEE744
:104040004046BDE8F08100004C03002060030020E2
:104050005003002044030020540300205803002094
:104060000648006830B10549096801F14400496C0F
:10407000491C01600148006870470000700300207F
:10408000001F4FF080730360001F21F001030360E5
:10409000001F034B03601438026020387047000093
:1040A000153E00080146024830F811007047000034
:1040B000086900080146024830F811007047000006
:1040C000086900080020014908707047BC030020FF
:1040D00070B5054602F02CFB04460146284602F066
:1040E00061FB15F0004F4FF07F410ED0B0F13F4F14
:1040F00028BFB1EB400F0ED2B0F17C5F1DDDB1EBFC
:10410000400F1AD313E0044617E0B0F13F4F08D92F
:10411000B1EB400F05D34FF07E51204602F042FB39
:10412000F1E7B0F17C5F08DBB1EB400F05D34FF056
:104130007E51204601F0FEFFE5E7284664F31E00AD
:1041400070BD000010B500200CE00A4901EBC00171
:10415000094A12680A60074901EBC001074A126860
:104160004A60401C0228F0DB10220249C820FCF7FC
:1041700095FD10BDBC050020F8680008FC6800082B
:1041800010B500F009F8FFF79DFF00200149087005
:1041900010BD00001C00002010B500210348FDF7F1
:1041A000F0FE00210148FDF701FF10BD00080040AE
:1041B00010B504461CB10820FDF75CF902E00820A8
:1041C000FDF73EF90620214601F0010222B101224D
:1041D0008240054B1A6105E000F110020123934073
:1041E000014A136100BF10BD0010014010B5044624
:1041F000002C03DD0120FDF73DF902E00120FDF771
:104200001FF90720214601F0010222B1012282405C
:10421000054B1A6105E000F1100201239340024AA8
:10422000136100BF10BD00000010014010B5012156
:104230000420FDF7EFF91248FDF70CFF4FF4FA5098
:104240000F490880032088800E48FDF7B1FE012247
:1042500011460C48FDF7A1FE1E2000280DDB00BF13
:1042600000BF00F01F02012191404209920002F1BB
:10427000E022C2F8001100BF00BF00BF10BD000067
:10428000B20500200008004001460A69D1E901306A
:104290009860D1E9010358605068884201D188686C
:1042A0005060002008611068401E10601068704760
:1042B00000F1080141604FF0FF31816000F1080119
:1042C000C1600161002101607047002101617047F8
:1042D00010B502460B685C1C0CB9106907E002F1CE
:1042E000080000E04068446824689C42FAD94468A9
:1042F0004C604C68A160886041600A611468641C6D
:10430000146010BD42684A6093688B60936859607E
:104310009160086103685B1C0360704700BFA020C8
:1043200080F31188BFF34F8FBFF36F8F00BF0E482C
:104330000068401C0C49086008460068012812D13A
:104340000A480068C0B208B9012000E0002050B956
:1043500000BFA02080F31188BFF34F8FBFF36F8F92
:1043600000BF00BFFEE770476403002004ED00E0DB
:104370000D48006850B900BFA02080F31188BFF33A
:104380004F8FBFF36F8F00BF00BFFEE70648006886
:10439000401E054908600846006820B9002080F3E7
:1043A000118800BF00BF70476403002070B5064647
:1043B0003546002E44D0083D2C46224960680968E5
:1043C000084008B1012000E0002050B900BFA02043
:1043D00080F31188BFF34F8FBFF36F8F00BF00BF13
:1043E000FEE7206808B9012000E0002050B900BFB6
:1043F000A02080F31188BFF34F8FBFF36F8F00BFF2
:1044000000BFFEE70F49606809680840C0B1206836
:10441000B0B90C49606809688843606000F030FA00
:104420000949606809680844074908602046FFF7A1
:10443000B7FA06480068401C0449086001F098F883
:1044400070BD000060030020500300205C030020CA
:1044500000204FF0E02108618861064800684FF4B1
:104460007A71B0FBF1F0401E4FF0E0214861072067
:10447000086170473003002070B5FBF71FFF04464A
:10448000102C16D304F1E02090F8F0531548007872
:10449000854201DB012000E0002050B900BFA020D0
:1044A00080F31188BFF34F8FBFF36F8F00BF00BF42
:1044B000FEE70D48006800F4E0600C490968884296
:1044C00001D8012000E0002050B900BFA02080F3F7
:1044D0001188BFF34F8FBFF36F8F00BF00BFFEE7A0
:1044E00070BD0000680300200CED00E06C030020AC
:1044F0002DE9F04105460E4617462C46FFF70EFF04
:1045000094F94400401C10B9002084F8440094F948
:104510004500401C10B9002084F84500FFF728FF33
:10452000A06B28B93A46314604F1240000F0CCF8DB
:104530002046FFF79CFCBDE8F081000070B5044602
:104540000025D4B11248006808B9012000E000201D
:1045500050B900BFA02080F31188BFF34F8FBFF385
:104560006F8F00BF00BFFEE700F08AF900212046F0
:10457000FEF7EAFF00F0FCFF05463DB94FF0805022
:1045800004490860BFF34F8FBFF36F8F70BD000009
:10459000A403002004ED00E02DE9F04704460F4697
:1045A0004FF0000954B900BFA02080F31188BFF379
:1045B0004F8FBFF36F8F00BF00BFFEE70FB1012029
:1045C00000E0002050B900BFA02080F31188BFF3A5
:1045D0004F8FBFF36F8F00BF00BFFEE7204800681A
:1045E00008B9012000E0002050B900BFA02080F3EE
:1045F0001188BFF34F8FBFF36F8F00BF00BFFEE77F
:1046000000F03EF9174806682068C5192068B042D6
:1046100007D92068A8420BD9B54209D94FF0010942
:1046200006E02068A84201D8B54201D94FF001093F
:104630002560B9F1000F03D0A81B0021FEF784FF0D
:1046400000F096FF8046B8F1000F07D14FF0805080
:1046500005490860BFF34F8FBFF36F8FBDE8F08748
:10466000A40300208003002004ED00E00349096852
:10467000016003490968416070470000940300200D
:10468000800300200120014908607047900300204A
:1046900070B504460D4654B900BFA02080F31188C0
:1046A000BFF34F8FBFF36F8F00BF00BFFEE705481A
:1046B000016818312046FFF70BFE01212846FEF75E
:1046C00043FF70BD7003002070B505460E461446CA
:1046D00055B900BFA02080F31188BFF34F8FBFF3FF
:1046E0006F8F00BF00BFFEE70648016818312846FB
:1046F000FFF708FE0CB14FF0FF3621463046FEF7BB
:1047000023FF70BD700300202DE9F04706460F46D9
:1047100034464FF00109002E60D0606C50B900BFE4
:10472000A02080F31188BFF34F8FBFF36F8F00BFBE
:1047300000BFFEE7206CB84201D23D4600E0256C88
:10474000E06AA8424AD0606C012847D1244800683A
:10475000844201D0012000E0002050B900BFA02019
:1047600080F31188BFF34F8FBFF36F8F00BF00BF7F
:10477000FEE7D4F82C80E562A06900F0004010B993
:10478000C5F10500A06108EB8801164A02EB810122
:104790006069884201D1012000E00020F0B1201DB5
:1047A000FFF772FD40B994F82C10012088400E49A3
:1047B000096881430C48016094F82C10012088405E
:1047C00009490968084308490860E16A01EB810169
:1047D000044A02EB8100211DFFF794FDBDE8F0873C
:1047E000700300202C6A0020840300201CB51D48A3
:1047F00000210B468022CDE900101BA11C4800F0CF
:10480000C1FC0446012C02D100F034FF0446012C07
:1048100015D100BFA02080F31188BFF34F8FBFF3E5
:104820006F8F00BF4FF0FF3012490860012012491E
:10483000086000201149086000F07CF810E0601C5E
:1048400008B1012000E0002050B900BFA02080F393
:104850001188BFF34F8FBFF36F8F00BF00BFFEE71C
:104860001CBD0000A003002049444C45000000008E
:104870002D3800089C0300208803002080030020BE
:1048800002480068401C014908607047A4030020EA
:104890001D48006818B101201C49086032E0002062
:1048A0001A4908601A480068B0FA80F0C0F11F0188
:1048B00001EB8100174A52F8200008B1012000E006
:1048C000002050B900BFA02080F31188BFF34F8FA4
:1048D000BFF36F8F00BF00BFFEE701EB81020D4BFE
:1048E00003EB820042685268426000F108024368AC
:1048F000934202D14268526842604268D268064BD5
:104900001A6000BF70470000A4030020900300203D
:10491000840300202C6A00207003002002460E2A27
:1049200001DD00207047024820F812100120F9E74D
:104930003C0000201CB53849084600780190FF2053
:104940000A4610700846007800909DF8000000F4B8
:104950007F609DF80020904201D1012000E00020FE
:1049600050B900BFA02080F31188BFF34F8FBFF371
:104970006F8F00BF00BFFEE79DF8000000F0A000B1
:10498000264A10700720264A106009E02448006873
:10499000401E234A10609DF800004006000E009063
:1049A0009DF8000000F080008028EFD01C480068CF
:1049B000C0F10700042801D1012000E0002050B917
:1049C00000BFA02080F31188BFF34F8FBFF36F8F1C
:1049D00000BF00BFFEE7124800680002104A1060E6
:1049E0001046008800F4E06010600B4A01981070D7
:1049F0000C48006840F07F600A490860084600687B
:104A000040F070400860FFF723FD00200649086071
:104A1000FBF71EFC00201CBD00E400E06803002042
:104A20006C03002020ED00E0640300202DE9F0413C
:104A300004460126002722460021012000F007F845
:104A400005462846FEF706FF2846BDE8F0812DE919
:104A5000F84305460E4617460DB1012000E0002040
:104A600050B900BFA02080F31188BFF34F8FBFF370
:104A70006F8F00BF00BFFEE705FB06F808F1480096
:104A8000FFF748FA04464CB1A14609F148093B46F4
:104A90004A46314628460094FEF7EBFE2046BDE824
:104AA000F883000070B505460E462C4654B900BF89
:104AB000A02080F31188BFF34F8FBFF36F8F00BF2B
:104AC00000BFFEE7FFF72AFCD4E90F12206801FBC4
:104AD0000200A0600020A06320686060E06B401EC0
:104AE000226C216800FB0211E160FF2084F8440081
:104AF00084F845009EB9206908B9012000E0002033
:104B0000A8B904F1100000F0E7FC80B14FF080502C
:104B100009490860BFF34F8FBFF36F8F07E004F1BF
:104B20001000FFF7C5FB04F12400FFF7C1FBFFF7FE
:104B30001FFC012070BD000004ED00E02DE9FF43E3
:104B400083B0064688461D464FF00009344654B9E6
:104B500000BFA02080F31188BFF34F8FBFF36F8F8A
:104B600000BF00BFFEE7B8F1000F01D1206C08B90B
:104B7000012000E0002050B900BFA02080F3118880
:104B8000BFF34F8FBFF36F8F00BF00BFFEE7022D53
:104B900002D1E06B012801D1012000E0002050B9D2
:104BA00000BFA02080F31188BFF34F8FBFF36F8F3A
:104BB00000BF00BFFEE700F015FB08B9059808B973
:104BC000012000E0002050B900BFA02080F3118830
:104BD000BFF34F8FBFF36F8F00BF00BFFEE700BF73
:104BE000FFF79CFBA06BE16B884201D3022D28D11B
:104BF0002A4641462046FEF77DFD0746606A08B911
:104C0000012000E0002068B904F1240000F064FCF9
:104C100088B14FF0805032490860BFF34F8FBFF327
:104C20006F8F08E03FB14FF080502D490860BFF30F
:104C30004F8FBFF36F8FFFF79BFB012007B0BDE8DD
:104C4000F083059818B9FFF793FB0020F6E7B9F158
:104C5000000F04D101A8FFF709FD4FF00109FFF78C
:104C600087FBFFF70DFEFFF759FB94F94400401C4A
:104C700010B9002084F8440094F94500401C10B994
:104C8000002084F84500FFF773FB05A901A800F098
:104C900037FAF0B92046FEF7F0FEA0B104F110009B
:104CA0000599FFF7F5FC2046FFF7E1F800F060FCFE
:104CB000002895D14FF0805009490860BFF34F8F0D
:104CC000BFF36F8F8CE72046FFF7D1F800F050FC60
:104CD00086E72046FFF7CBF800F04AFC0020ADE75E
:104CE00004ED00E02DE9F84F07468A4690461E463F
:104CF0003C4654B900BFA02080F31188BFF34F8F0A
:104D0000BFF36F8F00BF00BFFEE7BAF1000F01D104
:104D1000206C08B9012000E0002050B900BFA0209D
:104D200080F31188BFF34F8FBFF36F8F00BF00BFB9
:104D3000FEE7022E02D1E06B012801D1012000E044
:104D4000002050B900BFA02080F31188BFF34F8F1F
:104D5000BFF36F8F00BF00BFFEE7FFF78DFB00BF03
:104D6000A021EFF3118081F31188BFF34F8FBFF3C0
:104D70006F8F00BF0546A06BE16B884201D3022E06
:104D800025D194F945B0A06B00903246514620469B
:104D9000FEF7B0FC0BF1010088B9606A08B9012088
:104DA00000E0002050B904F1240000F095FB28B188
:104DB000B8F1000F02D00120C8F8000004E00BF1A8
:104DC000010040B284F845004FF0010901E04FF0C6
:104DD000000900BF85F3118800BF4846BDE8F88F81
:104DE0002DE9F74183B005460E464FF000082C46EA
:104DF00054B900BFA02080F31188BFF34F8FBFF3D9
:104E00006F8F00BF00BFFEE70EB9206C08B901200C
:104E100000E0002050B900BFA02080F31188BFF34C
:104E20004F8FBFF36F8F00BF00BFFEE700F0DAF9CE
:104E300008B9059808B9012000E0002050B900BF6A
:104E4000A02080F31188BFF34F8FBFF36F8F00BF97
:104E500000BFFEE700BFFFF761FAA76BF7B131466D
:104E60002046FEF732FC781EA063206908B90120B5
:104E700000E0002060B904F1100000F02DFB38B113
:104E80004FF080502F490860BFF34F8FBFF36F8FF3
:104E9000FFF76EFA012006B0BDE8F081059818B959
:104EA000FFF766FA0020F6E7B8F1000F04D101A879
:104EB000FFF7DCFB4FF00108FFF75AFAFFF7E0FCC1
:104EC000FFF72CFA94F94400401C10B9002084F834
:104ED000440094F94500401C10B9002084F84500B6
:104EE000FFF746FA05A901A800F00AF9F0B9204633
:104EF000FEF7B6FDA0B104F124000599FFF7C8FB49
:104F00002046FEF7B4FF00F033FB0028A3D14FF09A
:104F100080500C490860BFF34F8FBFF36F8F9AE743
:104F20002046FEF7A4FF00F023FB94E72046FEF79F
:104F30009EFF00F01DFB2046FEF792FD00288AD060
:104F40000020A8E704ED00E02DE9F34182B005461A
:104F50004FF000082C46002654B900BFA02080F373
:104F60001188BFF34F8FBFF36F8F00BF00BFFEE705
:104F7000206C08B9012000E0002050B900BFA0203B
:104F800080F31188BFF34F8FBFF36F8F00BF00BF57
:104F9000FEE700F027F908B9039808B9012000E0FE
:104FA000002050B900BFA02080F31188BFF34F8FBD
:104FB000BFF36F8F00BF00BFFEE700BFFFF7AEF982
:104FC000A76BFFB1781EA063206810B9FFF748F8FF
:104FD000A060206908B9012000E0002060B904F158
:104FE000100000F079FA38B14FF080504349086062
:104FF000BFF34F8FBFF36F8FFFF7BAF9012004B0F3
:10500000BDE8F081039898B90EB9012000E00020B6
:1050100050B900BFA02080F31188BFF34F8FBFF3BA
:105020006F8F00BF00BFFEE7FFF7A2F90020E6E7A1
:10503000B8F1000F04D16846FFF718FB4FF00108E4
:10504000FFF796F9FFF71CFCFFF768F994F94400A5
:10505000401C10B9002084F8440094F94500401C1D
:1050600010B9002084F84500FFF782F903A96846CB
:1050700000F046F840BB2046FEF7F2FCF0B1206895
:1050800038B9FFF74BF9A06800F0CAF90646FFF7F8
:105090006FF904F124000399FFF7FAFA2046FEF7AE
:1050A000E6FE00F065FA002888D14FF080501349E1
:1050B0000860BFF34F8FBFF36F8F7FE72046FEF787
:1050C000D6FE00F055FA79E72046FEF7D0FE00F054
:1050D0004FFA2046FEF7C4FC0028EED05EB1FFF781
:1050E0001DF92046FEF745FB07463946A068FFF745
:1050F0000BFBFFF73DF9002081E7000004ED00E025
:1051000070B505460C4655B900BFA02080F3118844
:10511000BFF34F8FBFF36F8F00BF00BFFEE754B9DF
:1051200000BFA02080F31188BFF34F8FBFF36F8FB4
:1051300000BF00BFFEE7FFF7F1F81048026868689B
:10514000131A0F4928680968884204D06868904299
:1051500001D801260DE02068984207D92068C01ABE
:1051600020602846FFF782FA002602E00020206037
:105170000126FFF7FDF8304670BD000080030020D7
:10518000940300202DE9FF4F85B0804689461746DD
:10519000DDE912ABB800FEF7BDFE064656B1502061
:1051A000FEF7B8FE04460CB1266304E03046FFF774
:1051B000FDF800E000247CB10020CDE900ABCDE992
:1051C00002403A4649464046089BFEF765FB2046AA
:1051D000FEF7FAF9012501E04FF0FF35284609B046
:1051E000BDE8F08F0549096809B9012005E00449C7
:1051F000096809B9022000E00020704788030020F8
:10520000A4030020014908687047000080030020C3
:105210002DE9F0414FF000084448006800287CD197
:1052200043480068451C4248056015BB414800687A
:10523000006808B9012000E0002050B900BFA0209C
:1052400080F31188BFF34F8FBFF36F8F00BF00BF94
:10525000FEE738480768384800683649086036482D
:10526000076036480068401C34490860FEF724FD9A
:1052700000BF3348006885423CD300BF2D4800681A
:10528000006808B9012000E0002020B14FF0FF3095
:105290002B4908602DE027480068C068C46866682C
:1052A000B54202D22648066023E0201DFEF7ECFF3F
:1052B000A06A18B104F11800FEF7E6FF94F82C106C
:1052C000012088401F49096808431E490860E16AB7
:1052D00001EB81011C4A02EB8100211DFFF712F84E
:1052E0001A49E06A0968C96A8842C7D34FF00108C1
:1052F000C4E700BF15480068C06A00EB800012498F
:1053000051F82000012801D94FF001081048006829
:1053100008B14FF0010805E0FFE70E480068401CA7
:105320000C4908604046BDE8F0810000A40300205D
:1053300080030020740300207803002094030020E1
:105340009C030020840300202C6A002070030020AE
:10535000900300208C03002070B505462C460026E3
:10536000002D55D02B480068844201D1012000E077
:10537000002050B900BFA02080F31188BFF34F8FE9
:10538000BFF36F8F00BF00BFFEE7606C50B900BF76
:10539000A02080F31188BFF34F8FBFF36F8F00BF42
:1053A00000BFFEE7606C401E6064216CE06A8842CA
:1053B0002ED0606C60BB201DFEF766FF78B9E06AF6
:1053C00000EB8000144951F8200040B994F82C10EB
:1053D0000120884011490968814310480160206C10
:1053E000E062E06AC0F10500A06194F82C10012091
:1053F00088400A490968084308490860E16A01EBE6
:105400008101054A02EB8100211DFEF77BFF012689
:10541000304670BD700300202C6A002084030020F9
:1054200070B505462C460026002D4DD02749E06A70
:105430000968C96A884240D2A06900F0004028B9D2
:1054400022480068C06AC0F10500A061E16A01EB72
:1054500081011F4A02EB81016069884201D101206C
:1054600000E0002018B3201DFEF70EFF40B994F8AD
:105470002C100120884017490968814315480160B4
:1054800012480068C06AE06294F82C10012088403D
:105490001049096808430F490860E16A01EB81017E
:1054A0000B4A02EB8100211DFEF72CFF03E00748A9
:1054B0000068C06AE062012606E00449206C0968C1
:1054C000C96A884200D20126304670BD70030020B0
:1054D0002C6A00208403002070B50646F068C4687A
:1054E00054B900BFA02080F31188BFF34F8FBFF3E2
:1054F0006F8F00BF00BFFEE704F11800FEF7C4FE87
:1055000015480068A8B9201DFEF7BEFE94F82C10BF
:105510000120884011490968084310490860E16A80
:1055200001EB81010E4A02EB8100211DFEF7EAFE2C
:1055300004E004F118010B48FEF7E4FE0A49E06AB2
:105540000968C96A884204D9012501200749086011
:1055500000E00025284670BDA4030020840300203D
:105560002C6A0020B86A00207003002090030020FD
:1055700070B5002400263648006850B900BFA0204E
:1055800080F31188BFF34F8FBFF36F8F00BF00BF51
:10559000FEE7FEF7C3FE2E480068401E2C49086057
:1055A0000846006800284FD12A48006800284BD0E0
:1055B00024E02948C068C46804F11800FEF764FEBE
:1055C000201DFEF761FE94F82C100120884023492D
:1055D0000968084321490860E16A01EB8101204A1A
:1055E00002EB8100211DFEF78DFE1E49E06A09686D
:1055F000C96A884202D301201B4908601648006826
:1056000008B9012000E000200028D2D00CB1FEF73C
:1056100053FB1648056865B100BFFFF7F9FD10B1EF
:105620000120114908606D1E002DF6D100200F49A0
:1056300008600D48006838B1012630070C49086041
:10564000BFF34F8FBFF36F8FFEF792FE304670BDF2
:10565000A40300207C030020B86A002084030020FB
:105660002C6A002070030020900300208C0300208F
:1056700004ED00E01CB50024FEF700F80D480068BA
:1056800050B10D4802210023CA01CDE900100BA141
:105690000C48FFF777FD044654B900BFA02080F303
:1056A0001188BFF34F8FBFF36F8F00BF00BFFEE7BE
:1056B00020461CBDB0030020B4030020546D7220AE
:1056C00053766300553E00082DE9FE4304460D461F
:1056D00016461F46DDF828804FF0000954B900BF78
:1056E000A02080F31188BFF34F8FBFF36F8F00BFEF
:1056F00000BFFEE71448006810B3009501960294BD
:10570000062D15DAFFF76EFD022808D10023424668
:1057100069460D480068FFF711FA814610E0002342
:105720001A46694608480068FFF708FA814607E00C
:1057300000233A46694604480068FFF7D3FA8146D9
:105740004846BDE8FE830000B003002021F000427F
:10575000A2F16052B2F5801F01F0004328BFD2F1E0
:105760007F6C0BD95FEA001C43EAC20242EB507027
:1057700018BF704728BF20F001007047B2F5801FA6
:10578000BCBF184670474FEA410C1CF5001F02D2FF
:10579000084600F096BF70B500F02CFB00000089B1
:1057A000FFF7F6BF4FF00040A0F580007047000003
:1057B00010B591EA030F48BF83F0004300F1AC83BA
:1057C000841A71EB030C05D2121943EB0C03001B76
:1057D00061EB0C01DFF824E14FEA1154A4EB135CF8
:1057E0001EEA430F18BF9EEA445F73D023EA0E03FC
:1057F000DCF1200E21EA045143F4801332D322FA63
:105800000CFE10EB0E0023FA0CFE41EB0E01CCF166
:10581000200E03FA0EFE10EB0E0051F10001B1F55F
:10582000801FCCF1200E32D201EB045112FA0EF29D
:10583000BDE8104058BF7047401C38BF5FEA4202C5
:1058400018BF7047002814BF20F0010041F100018B
:105850004FEA410313F5001F38BF7047A1F1C04163
:1058600000F016BB012A43EB0302ACF1200CDCF183
:105870001F0E32BF4FF0000E23FA0CF310EB0300A3
:1058800041EB0451B4EB115FD0D0A1EB045101F511
:10589000801149085FEA300001EB04510ED350F14A
:1058A000000038BF12FA0EFE08D1BDE81040C9E76B
:1058B000401C38BF5FEA4202CAD1C3E7BDE81040CE
:1058C0004FEA410313F5001F38BF7047A1F1C041F3
:1058D00000F0DEBA9EEA445F08D011EA5E0FBDE830
:1058E000104004BF01F0004100207047BDE81040A7
:1058F00070B500F07FFA00BF64FBBE3E0000E0FF21
:10590000491058BFC1F140415B1058BFC3F140433B
:105910008B42EFF3008070472DE9C04130B4DFF8CF
:10592000A0C23CEA111418BF3CEA131400F0EC804A
:1059300081EA03051CEA111444EAD57418BF1CEA75
:10594000131500F0C780A4EB05044FF0004545EAAD
:10595000C12145EAC32341EA505143EA525304F1BD
:105960007F74994204F500344FEAC0204FEAC22206
:1059700008BF904200F09C804FEA13650FF240167A
:10598000765D4FEA134506FB05F7C7F1807706FB06
:1059900007F74FEAD737A7FB03687642C8F5803888
:1059A000A7FB06CE38BFA8F1010807FB08E64FF0B9
:1059B000000EA6FB028CE6FB03CEDCF1000CCEF160
:1059C000004E38BFAEF1010EA6FB0C584FF0000799
:1059D0004FF00005E6FB0E87A1FB08C6A0FB07CE33
:1059E00016EB0E0645F10005E1FB076515F1E04EEB
:1059F0007EBFA4F580345FEA46066D4116F180074C
:105A000045F100054FEA17274FEA066647EA0567A2
:105A1000A6F1DE46B6F1805F4FEA15251FD938465C
:105A200024F0010C05EBC471BCF1FE6F01EB0C110D
:105A300002D8F0BCBDE8008124425CBF01F5801EA5
:105A40009EEAC47F02D4F0BCBDE80081244238D471
:105A5000F0BCA1F1C041BDE8004100F019BA4FEA25
:105A6000D22242EA43524FEAD323A7FB02864FEAEF
:105A7000D02040EA415007FB03661EEA0E0F4FEAB2
:105A8000D12105FB026658BFA6EB0056B6EB0056C7
:105A90004FEA520E4EEAC37E18EB0E0E56EB530E33
:105AA000BDD518EB02085E417F1C55F10005B6E735
:105AB0004FF480154FF000074FF000064FF000083C
:105AC000ADE7F0BC4FF0000001F1C04101F0004132
:105AD000BDE8008111EA0C1F0CEA131500D00CE0A0
