:020000040800F2
:1000000018720020C5020008CD020008CF020008C7
:10001000D1020008D3020008D50200080000000049
:100020000000000000000000000000002D02000899
:10003000D90200080000000071020008092400082D
:10004000DF020008DF020008DF020008DF0200080C
:10005000DF020008DF020008DF020008DF020008FC
:10006000DF020008DF020008DF020008DF020008EC
:10007000DF020008DF020008DF020008DF020008DC
:10008000DF020008DF020008DF020008DF020008CC
:10009000DF020008DF020008DF020008DF020008BC
:1000A000DF020008DF020008DF020008DF020008AC
:1000B000DF020008DF020008A9240008DF020008B0
:1000C000DF020008DF020008DF020008DF0200088C
:1000D000DF02000829300008DF020008DF02000804
:1000E000DF020008DF020008DF0200080000000055
:1000F0000000000000000000000000000000000000
:100100000000000000000000DF020008DF0200081D
:10011000DF020008DF020008DF020008DF0200083B
:10012000DF020008DF020008DF020008DF0200082B
:10013000DF020008DF020008DF020008DF0200081B
:10014000DF020008DF020008DF020008DF0200080B
:1001500000F002F800F05AF80AA090E8000C82447F
:100160008344AAF10107DA4501D100F04FF8AFF25C
:10017000090EBAE80F0013F0010F18BFFB1A43F085
:10018000010318470C6F00002C6F00000A444FF069
:10019000000C10F8013B13F0070408BF10F8014BE6
:1001A0001D1108BF10F8015B641E05D010F8016B2B
:1001B000641E01F8016BF9D113F0080F1EBF10F88F
:1001C000014BAD1C0C1B09D16D1E58BF01F801CBB2
:1001D000FAD505E014F8016B01F8016B6D1EF9D535
:1001E0009142D6D37047000000230024002500264A
:1001F000103A28BF78C1FBD8520728BF30C148BF8A
:100200000B6070471FB51FBD10B510BD00F03DF964
:100210001146FFF7F7FF03F0D9FB00F05BF903B4D9
:10022000FFF7F2FF03BC00F063F90000224B1968EE
:100230000868B0E8F00F80F30988BFF36F8F4FF0C4
:10024000000080F311884EF00D0E70470000000092
:1002500006480068006880F3088862B661B6BFF39C
:100260004F8FBFF36F8F00DF00BF00BF08ED00E0CE
:10027000EFF30980BFF36F8F0F4B1A6820E9F00F7F
:10028000106008B54FF0A00080F31188BFF34F8FC6
:10029000BFF36F8F04F0A8FE4FF0000080F31188C9
:1002A000BDE8084019680868B0E8F00F80F30988D5
:1002B000BFF36F8F704700BF18040020EFF3058075
:1002C000704700000948804709480047FEE7FEE7FD
:1002D000FEE7FEE7FEE7FEE7FEE7FEE7FEE7FEE7F6
:1002E00004480549054A064B704700003D240008B4
:1002F00051010008186C002018720020186E0020B0
:10030000186E0020032A40F2308010F0030C00F039
:10031000158011F8013BBCF1020F624498BF11F83F
:1003200001CB00F8013B38BF11F8013BA2F10402F8
:1003300098BF00F801CB38BF00F8013B11F0030370
:1003400000F04A80083AC0F0088051F8043B083AAF
:1003500051F804CBA0E80810F5E7121D5CBF51F876
:10036000043B40F8043BAFF30080D20724BF11F8F0
:10037000013B11F801CB48BF11F8012B24BF00F855
:10038000013B00F801CB48BF00F8012B70474FF04C
:1003900000020429C0F0128010F0030C00F050801D
:1003A000CCF1040CBCF1020F18BF00F8012BA8BF60
:1003B00020F8022BA1EB0C0100F042B85FEAC17CEF
:1003C00024BF00F8012B00F8012B48BF00F8012BD7
:1003D000704770477047704710B5203AC0F00B80E7
:1003E000B1E81850203AA0E81850B1E81850A0E839
:1003F0001850BFF4F5AF5FEA027C24BFB1E8185093
:10040000A0E8185044BF18C918C0BDE810405FEA02
:10041000827C24BF51F8043B40F8043B08BF70477E
:10042000D20728BF31F8023B48BF11F8012B28BF83
:1004300020F8023B48BF00F8012B70474FF0000244
:1004400000B5134694469646203922BFA0E80C50CA
:10045000A0E80C50B1F12001BFF4F7AF090728BFA5
:10046000A0E80C5048BF0CC05DF804EB890028BF21
:1004700040F8042B08BF704748BF20F8022B11F04A
:10048000804F18BF00F8012B7047754600F02CF81C
:10049000AE4605006946534620F00700854618B071
:1004A00020B5FFF71DFFBDE820404FF000064FF0DC
:1004B00000074FF000084FF0000B21F00701AC4699
:1004C000ACE8C009ACE8C009ACE8C009ACE8C009B8
:1004D0008D46704710B50446AFF300802046BDE856
:1004E0001040FFF79CBE000000487047B46B00202E
:1004F00001491820ABBEFEE726000200704721B17B
:10050000826842F00102826003E0826822F0010208
:1005100082607047014600208A6802F004020AB136
:10052000012000E0002070470146C86C80B270478F
:100530000246002013680B400BB1012000E00020B0
:100540007047014600208A6802F008020AB10120C3
:1005500000E000207047000030B502460020002374
:1005600050680F4C20400D790C6844EA0524204364
:10057000506090680B4C2040D1E902542C434D79D7
:1005800044EA450420439060D06A20F470000C7C5B
:10059000641EE4B2234340EA0350D06230BD000041
:1005A000FFFEF0FFFDF7F1FFF0B504460D46002019
:1005B0000021092D11DDE068A5F10A0606EB4607CA
:1005C000072606FA07F18843A5F10A0606EB460658
:1005D00003FA06F10843E0600CE0206905EB4507EB
:1005E000072606FA07F1884305EB450603FA06F1EC
:1005F00008432061072A0FDA606B561E06EB860758
:100600001F2606FA07F18843561E06EB860605FAF2
:1006100006F10843606322E00D2A0FDA206BD61F33
:1006200006EB86071F2606FA07F18843D61F06EB5E
:10063000860605FA06F10843206310E0E06AA2F19D
:100640000D0606EB86071F2606FA07F18843A2F17E
:100650000D0606EB860605FA06F10843E062F0BDDA
:10066000816841F008018160704721B1826842F4DD
:10067000A002826003E0826822F4A00282607047D8
:10068000816841F0040181607047002101600171BF
:1006900041718160C16001210174704700210C200B
:1006A0000F4A9268C24002F0010211430D200C4A29
:1006B0009268C24002F0010241EA42010E20084A5B
:1006C0009268C24002F0010241EA82010F20044A0E
:1006D0009268C24002F0010241EAC2010846704736
:1006E000000C014010B5002302220C210A4800F042
:1006F00077FB002302220D21074800F071FB002345
:1007000002220E21044800F06BFB002302220F217D
:10071000014800F065FB10BD000C01402DE9F047D9
:100720000446204600F084F8054606F06BFA814640
:10073000484606F09BF807460022054B05F0B4FC3E
:10074000054605F0CBFB81464846BDE8F087000032
:10075000000059402DE9F04704460020FFF7DEFF76
:1007600080460120FFF7DAFF8146002549464046D2
:1007700006F0E0FB824606F079F821F000410646DB
:1007800005F0ACFB0546284606F070F80646002248
:10079000054B05F04BFF01D2012000E00020207046
:1007A0004046BDE8F08700000000E03F0146012917
:1007B00002DD4FF0FF307047014830F83100FAE7B2
:1007C000640600200146012902DD4FF0FF3070472A
:1007D000024800EBC1008088F9E7000064060020B1
:1007E0000146012902DD4FF0FF307047014830F823
:1007F0001100FAE7280000200146012902DD4FF030
:10080000FF307047024800EBC1004088F9E7000064
:10081000640600200146012902DD4FF0FF307047D9
:10082000024800EBC100C088F9E700006406002020
:100830000146012902DD4FF0FF307047014830F8D2
:100840001100FAE7240000202DE9F84F0024684643
:10085000FFF780FF83460021584606F0FFF902D3D8
:100860009DF8000010B14FF6FF7411E0584605F0F6
:10087000FDFF07460022084B05F0DAFD054605F0AE
:100880002DFB824603F076FF814606F07FF9044691
:100890002046BDE8F88F0000000024401FB502F09C
:1008A000B1FC00F0A9F910216848FFF770FD0020A5
:1008B0006749088048806749088048808046082248
:1008C0006249C82000F0E8F98046B8F1000F05D071
:1008D0005E48008810B15D48808808B903F0B6FF13
:1008E00005F03CF8039000BFFA2103A804F000FAD9
:1008F000002414E00025002708E05749085D02F0B5
:10090000C1FC0544012004F0C5F97F1C142FF4DB61
:100910001420B5FBF0F0514921F81400641C022C9E
:10092000E8DB00248EE0494901EBC4018988474A8D
:1009300032F83420881A06F065F9824600215046C4
:1009400006F0F0F801D1002539E0404901EBC4017F
:10095000C9883E4A02EBC4025288881A06F052F94E
:1009600002905146029806F01BF88146374931F84B
:10097000340006F05FF94946009006F0A3F983467B
:10098000324901EBC401488806F054F959460190F8
:1009900006F0D0FA0746314931F8140006F04AF95A
:1009A0004946019006F08EF98346394605F08AFFE4
:1009B00005460021284606F051F900D200252846B8
:1009C00003F0D8FE834606F0FDF804EB8401244AC8
:1009D00002EBC1011E4A32F8142021F812001C4813
:1009E00030F81400401C80B2194921F81400142872
:1009F00002DB002021F81400164830F814001428F7
:100A000006DA144830F81400401C124921F814008A
:100A10000026002008E004EB8401114A02EBC1012A
:100A200031F810100E44401C0A4931F8141081426C
:100A3000F1DC084830F81400B6FBF0F0094921F861
:100A40001400641C022CBFF64FAF6CE76406002054
:100A50002C000020300000206870000828000020D2
:100A6000740600202400002073B50446012C01DD2B
:100A700000207CBD0CB9C82000E0D0200646012231
:100A800001A9304600F04EF9054625B1BDF8040035
:100A9000024921F834002846EBE7000064060020F4
:100AA00073B50446012C01DD00207CBD0CB9CC20BF
:100AB00000E0D4200646012201A9304600F032F9B8
:100AC00005462DB1BDF80400024901EBC401888040
:100AD0002846EAE76406002073B50446012C01DDD0
:100AE00000207CBD0CB9CA2000E0D22006460122BD
:100AF00001A9304600F016F905462DB1BDF80400F5
:100B0000024901EBC40148802846EAE76406002058
:100B100073B50446012C01DD00207CBD0CB9CE204C
:100B200000E0D6200646012201A9304600F0FAF87E
:100B300005462DB1BDF80410024800EBC400C18089
:100B40002846EAE76406002010B5002303220B21A3
:100B5000074800F045F9002303220A21044800F069
:100B60003FF9002303220C21014800F039F910BDA0
:100B70000010014070B54AF2010580EA010444F416
:100B80007F4440F0FF0604EA060000220BE000F07C
:100B90000103044600EBD476C6F34F0013B14AF2CA
:100BA00001046040521C082AF1D370BD00BFFFF75A
:100BB00075FD04460F48007884421AD04FF4FA605D
:100BC00004F068F8FFF76AFDA04212D109490C70E1
:100BD00000250CE0012000F06DFCC82004F05AF85C
:100BE000002000F067FCC82004F054F86D1CA542FA
:100BF000F0DBDCE70000002010B5012004F0C2FAB1
:100C00000349086002F0E6FC01200249087010BDAB
:100C100038000020340000202DE9F04180460F46C6
:100C200015461B48007808B9FFF7E6FF4FF0FF3183
:100C30001848006804F034FD012826D102F0C8FDF0
:100C4000404602F05CFC06469EB102F0C1FDA120C8
:100C500002F074FD064666B1002408E002F012FDC1
:100C60003855681EA04201D002F07CFC641CAC42E6
:100C7000F4DB02F0F3FD00231A461946054800682C
:100C800004F008FB3046BDE8F0810020FBE70000DF
:100C900034000020380000202DE9F04106460D46C2
:100CA00014462F464FF6FF7000EA4402394630469C
:100CB000FFF7B2FF80464046BDE8F0812DE9F041E4
:100CC00080460E4617461548007808B9FFF794FF8E
:100CD0000024611E1248006804F0E2FC012819D1CA
:100CE00002F076FD404602F00AFC0446002504E0CE
:100CF000705D02F023FD04466D1CBD4201DA002C3C
:100D0000F6D102F0ABFD00231A46194604480068EC
:100D100004F0C0FA2046BDE8F08100003400002055
:100D2000380000202DE9F04106460D4614462F46B6
:100D30004FF6FF7000EA440239463046FFF7BEFF27
:100D400080464046BDE8F08101461D48814204D1FD
:100D50001C488069C0F3800070471B48814204D161
:100D600018488069C0F3C000F6E71848814204D1F2
:100D700014488069C0F30010EEE71548814204D1A1
:100D800010488069C0F34010E6E71248814204D160
:100D90000C488069C0F38010DEE70F48814204D11F
:100DA00008488069C0F3C010D6E70C48814204D1DE
:100DB00004488069C0F30020CEE70020CCE70000A3
:100DC0000008014000100240000C014000100140EA
:100DD0000014014000180140001C014000200140A7
:100DE0002DE9F04105460C46174698460F2C02D9CE
:100DF0000020BDE8F0812846FFF7A6FF18B90121C1
:100E0000284600F071F8B8F1000F10D1022F05D17B
:100E1000E8680121A1408843E86008E0032F06D17B
:100E200027F00107E8680121A1400843E860082C89
:100E300001D22E4601E0083C2E1D3068A2000F2191
:100E400091408843306048EA8700A10088403168BB
:100E5000084330600120CCE7F0B50A4600230024A7
:100E60000021002500F00046B6F1004F02D11D4ED2
:100E7000F16901E01B4E7168C0F3034583B200F4D1
:100E80004016B6F5401F08D121F07061154E766806
:100E900026F07066134F7E6012E000F48016B6F5FF
:100EA000801F06D1032606FA05F4A14341F07061C4
:100EB00006E0460D360103FA06F6B14341F07061D3
:100EC00022B1460D360103FA06F6314300F0004622
:100ED000B6F1004F02D1034EF16101E0014E7160A5
:100EE000F0BD000000000140002945D0454A904275
:100EF00006D1454A926942F00402434B9A6180E070
:100F0000424A904206D1404A926942F008023E4B62
:100F10009A6176E03E4A904206D13B4A926942F09D
:100F20001002394B9A616CE03A4A904206D1364A37
:100F3000926942F02002344B9A6162E0364A904254
:100F400006D1314A926942F040022F4B9A6158E033
:100F5000324A904206D12C4A926942F080022A4BD2
:100F60009A614EE02E4A90424BD1274A926942F450
:100F70008072254B9A6144E0224A904206D1224A6F
:100F8000926922F00402204B9A613AE01F4A904293
:100F900006D11D4A926922F008021B4B9A6130E08B
:100FA0001B4A904206D1184A926922F01002164B51
:100FB0009A6126E0174A904206D1134A926922F0BC
:100FC0002002114B9A611CE0134A904206D10E4A4E
:100FD000926922F040020C4B9A6112E00F4A904253
:100FE00006D1094A926922F08002074B9A6108E013
:100FF0000B4A904205D1044A926922F48072024B56
:101000009A6170470008014000100240000C014046
:10101000001001400014014000180140001C014074
:1010200000200140014800787047000000000020C7
:1010300010B500F077FAFFF755FBFFF785FD0020AC
:101040000149087010BD0000000000200720064A7A
:101050009268C24002F001020AB1012000E00020C3
:101060000146084670470000001001400849097811
:1010700051B90849097839B90749097821B90749A7
:10108000097809B1012100E00021084670470000FD
:10109000020000200400002003000020C8030020FC
:1010A0000B20064A9268C24002F001020AB90120F0
:1010B00000E000200146084670470000000C014097
:1010C00000F0010149B1002105E000220A4B03EBC9
:1010D00081039A70491C0229F7DB00F0020149B133
:1010E000022105E00022044B03EB81039A70491CA6
:1010F0000429F7DB70470000C406002000F001015E
:1011000049B1002105E001220A4B03EB81039A70EB
:10111000491C0229F7DB00F0020149B1022105E078
:101120000122044B03EB81039A70491C0429F7DB6D
:1011300070470000C406002010B5002003E0002125
:10114000044A5170401C0428F9DB002000F022F909
:1011500010BD0000C40600202DE9F74F84B0894679
:101160009246B9F1010F01D1002000E002200446AF
:101170000021049805F072FD15D200208DF80E00B4
:1011800001208DF80D0000208DF80F000A208DF849
:101190000C00E0B203A900F055F8611CC8B203A925
:1011A00000F050F845E0049805F060FB0746002287
:1011B000214B05F03DF9CDE9000104F08FFE0290CE
:1011C00003F0D8FA05461D49284605F047FE00D22F
:1011D0001A4D1B49284605F0E3FB074605F0D6FCEF
:1011E000064606EB8601480005F00CFD80462946C0
:1011F00005F096FE074605F0C9FC83468DF80EA063
:1012000001208DF80D008DF80F00F0B28DF80C0064
:10121000E0B203A900F016F800208DF80F000BF0E3
:10122000FF008DF80C00611CC8B203A900F00AF899
:1012300000BF07B0BDE8F08F000024400000C642A8
:1012400000002041042805DA21B1034A02EB8002A4
:101250000B68136070470000C406002038B5FFF724
:101260006BFF4FF4FA7003F015FD01208DF80300B9
:1012700000208DF8020001208DF801000A208DF871
:10128000000000208DF80300002404E0E0B269466D
:10129000FFF7D8FF641C042CF8DB012000F07AF87B
:1012A0004FF4FA7003F0F6FC092415E0E0B28DF873
:1012B000000001208DF80300002504E0E8B2694633
:1012C000FFF7C0FF6D1C042DF8DB012000F062F871
:1012D000FA2003F0DFFC641E002CE7DA0A208DF808
:1012E000000000208DF80300002404E0E0B269460D
:1012F000FFF7A8FF641C042CF8DB012000F04AF87B
:101300004FF4FA7003F0C6FC38BD000010B502239C
:1013100000220D211E48FFF763FD022300220E214B
:101320001B48FFF75DFD022300220F211848FFF73D
:1013300057FD0D20002121B101228240144B1A617A
:1013400005E000F1100201239340114A136100BF30
:101350000E20002121B1012282400D4B1A6105E0CF
:1013600000F1100201239340094A136100BF0F20CE
:10137000002121B101228240054B1A6105E000F1F4
:10138000100201239340024A136100BF10BD000008
:10139000001001402DE9F041054603F06BFB424887
:1013A000407B18B14048807B10B10DB9002408E0A3
:1013B0003D48007B3D490C5C3B48C07B08B144F094
:1013C000800426063848407A18B13748807A10B130
:1013D0000DB9002408E03448007A34490C5C3248E6
:1013E000C07A08B144F0800446EA04462E484079A9
:1013F00018B12D48807910B10DB9002408E02A48B1
:1014000000792A490C5C2848C07908B144F080046E
:1014100046EA04262448407818B12348807810B161
:101420000DB9002408E02048007820490C5C1E48D3
:10143000C07808B144F0800426431F271AE00F202B
:101440000122BA4032400AB1012200E000221146D6
:1014500001F0010222B101228240154B1A6105E020
:1014600000F1100201239340114A136100BF02F002
:1014700055FA7F1E002FE2DA0F20002121B1012250
:1014800082400B4B1A6105E000F1100201239340EA
:10149000074A136100BF642001F03AFF02F06AFAC4
:1014A00003F012FBBDE8F081C40600208A0300208F
:1014B0000010014030B5014609B1012000E00020D4
:1014C0000346032083F0010202F0010424B1012449
:1014D0008440054D2C6105E000F110040125A54074
:1014E000014C256100BF30BD0010014070B50728D8
:1014F00000DB70BD0A4D55F8302005EBC005AB8808
:101500000C4604F001051DB101259D40156104E064
:1015100003F110050126AE40166100BF00BFE8E7E9
:101520002070000870B500241DE0154A02EBC402CB
:101530009188134A52F8340002230022FFF750FC2E
:101540000F4B53F8340003EBC403998801221AB1FE
:1015500001238B40036104E001F1100301259D404C
:10156000056100BF641C072CDFDB0223012203217D
:101570000448FFF735FC0020FFF79CFF70BD00001A
:10158000207000080010014003F0FCF903F088F916
:1015900000F072FE03F078F900BF012003F07AFB3F
:1015A0000B4800780028F8D00120FFF783FF094896
:1015B00000F004F9044600200549087014B12046E3
:1015C00000F092F903F060F90020FFF773FFE4E701
:1015D0001C0000206404002038B5044654B900BF44
:1015E000A02080F31188BFF34F8FBFF36F8F00BF30
:1015F00000BFFEE70020034602460321009020467C
:1016000004F02AFC01200149087038BDC9030020FC
:1016100038B5044654B900BFA02080F31188BFF349
:101620004F8FBFF36F8F00BF00BFFEE70020034660
:10163000024603210090204604F00EFC002003F037
:1016400051F938BD2DE9F84F8146B9F1000F0AD1A3
:1016500000BFA02080F31188BFF34F8FBFF36F8FBF
:1016600000BF00BFFEE700200346024603210090B2
:10167000484604F0F1FB30493048006805F0EEFBC5
:1016800001D8002408E02E492C48006805F0E6FB4C
:1016900001D8012400E002242A4800EBC40080881D
:1016A0004FF6FF71884219D0264800EBC400C0886D
:1016B000884213D0234901EBC401C88805F0BAFA67
:1016C000824605F0D3F8054600221F4B04F0ECFCDF
:1016D000074604F003FC1D49086012E0194901EBBC
:1016E000C401488805F0A6FA824605F0BFF807460F
:1016F0000022154B04F0D8FC054604F0EFFB13491B
:10170000086013491148006805F0A8FB02D20C4894
:101710000E49086004F022F90546002003462A46D7
:10172000012100900B48006804F096FB01200A4953
:101730000870BDE8F88F00000000C0400C000020D9
:101740000000A040D406002000002440B003002088
:101750000000C842D4030020C803002010B503F0E5
:101760009FF801200149087010BD00001C000020F6
:1017700010B504460E480078C8B900210D4800F0A5
:10178000A0FE00210B4800F0B1FE0121094800F045
:1017900098FE09480078FA2801DB02F0E5FF0648C8
:1017A00001780078401C044A1070501C445410BD4D
:1017B0001C000020000800406404002070B50546AD
:1017C0000DB9002070BD284602F094F808B9002039
:1017D000F8E76C1CFFF726FC2178884201D0002036
:1017E000F0E700266078032802D0102810D107E027
:1017F0002878001FC1B2A01C00F0E2F806460DE0F8
:101800002878001FC1B2A01C01F06CFC064605E060
:101810006078012102F052F9064600BF00BF0EB108
:101820000148CFE70020CDE75F05002029B1064A37
:10183000D2690243044BDA6104E0034AD26982436D
:10184000014BDA61704700000010024029B1064ADE
:1018500092690243044B9A6104E0034A926982430D
:10186000014B9A6170470000001002402DE9F041E1
:1018700007460D4615B90020BDE8F081384601F055
:1018800051FE04465CB1606848B160886168884771
:101890000646002E02DB2E800120EDE700BF00206F
:1018A000EAE72DE9F04105460E46284601F03AFEEA
:1018B000044654B1A06838B16088A26831469047A8
:1018C00007463846BDE8F08100BF0020FAE730B592
:1018D0000546284601F026FE04461CB1A06808B162
:1018E000012030BD0020FCE710B5044604B910BD4E
:1018F00002F05EFD00200B4908600AE0611C094A05
:101900001268885C02F03EFE06480068401C0549EB
:1019100008602078034909688842EFDC02F032FD54
:1019200000BFE4E7200000202DE9F84380460222B2
:1019300069466420FFF770F918B94FF0FF30BDE831
:10194000F883BDF8000005F075F90446154905F067
:1019500085F908D3BDF8000005F06CF9044612497A
:1019600005F07CFA06D232200090BDF8001000206D
:1019700001F07AFBBDF8000005F05CF90B49086046
:101980000846006804F072FF06460022084B04F087
:101990008BFB044604F0A2FA04490860BDF800007D
:1019A000CDE700000000A0410000C8420C0000206C
:1019B00000002440014601480078704701000020E3
:1019C0002DE9F043B3B00546894615B1B9F1040FCE
:1019D00003D0002033B0BDE8F0832C466088000AB5
:1019E000A17840EA012060802088000A217840EA3E
:1019F000012020806088642805DD0321084602F06C
:101A00005DF80120E6E70DF101070026B4F800803B
:101A10001AE007EB46014046FFF728FF28B90221EC
:101A2000032002F04BF80120D4E737F81600000A33
:101A300017F8161040EA012027F8160008F10100F7
:101A40001FFA80F8701CC6B220886188084440459F
:101A5000DFDCA0784006000E8DF80000FFF7E2FA08
:101A60008046A078012101EB4000C3B26A46032101
:101A7000404602F04BF80120ACE700002DE9FC479E
:101A800001218048FFF7E8F9002303220B217E485B
:101A9000FFF7A6F90223002207217C48FFF7A0F9EF
:101AA0000223002208217948FFF79AF9002002F06A
:101AB00019FF002002F034FF00250322694666204A
:101AC000FFF7EAF808B9012506E0BDF8000010B1FB
:101AD000BDF8020000B901257DB36D486D4908606D
:101AE0006D486E4908606E486E4908606E496948E5
:101AF000006805F0E7F8044605F064F880B2ADF838
:101B0000000069496548006805F0DCF8044605F006
:101B100059F880B2ADF8020063496248006805F0E8
:101B2000D1F8044605F04EF880B2ADF80400032267
:101B300069466620FFF7F6F833E0FFE7BDF80000DE
:101B400005F078F8044604F091FE80460022574BD9
:101B500004F0AAFA064604F0C1F94E490860BDF83F
:101B6000020005F067F8044604F080FE804600227B
:101B70004E4B04F099FA064604F0B0F94749086064
:101B8000BDF8040005F056F8044604F06FFE8046E8
:101B90000022464B04F088FA064604F09FF94149BA
:101BA0000860012242496C20FFF776F810B14048E6
:101BB000008830B905203E49088001226C20FFF7DB
:101BC000B1F801223B496E20FFF766F810B13948A1
:101BD000008830B95A203749088001226E20FFF76B
:101BE000A1F8012234497020FFF756F810B13248AD
:101BF000008830B906203049088001227020FFF7A4
:101C000091F818222D494FF49670FFF705F810B996
:101C100002F0EAFD19E00024002010E0274901EB62
:101C2000C0010988282905DB244901EBC001098886
:101C3000462901DD012100E000210C43401C03285E
:101C4000ECDB0CB102F0D0FD00BF01221C49722078
:101C5000FFF722F810B11A48008830B9052018495A
:101C6000088001227220FFF75DF8154800881428CB
:101C700006DD14201249088001227220FFF752F875
:101C8000BDE8FC8700023000000C0140001001405C
:101C90000000A040A40300209A99193E9C03002054
:101CA00000002041A003002000007A4400408F4043
:101CB000A8030020AA030020AC030020D4060020C3
:101CC000AE03002001460C292BD2DFE801F0060903
:101CD0000C0F1215181B1E2124271448008870476A
:101CE00012484088FBE711488088F8E70F48C08811
:101CF000F5E70E480089F2E70C484089EFE70B480A
:101D00008089ECE70948C089E9E70848008AE6E7E6
:101D10000648408AE3E70548808AE0E70348C08A2E
:101D2000DDE700BF00BF4FF0FF30D8E7D40600204A
:101D300073B504460025012C05D0052C03D0092CD1
:101D400001D000207CBD4FF4967000EB440086B2B9
:101D5000012201A93046FEF7E5FF05469DB1012CA1
:101D600004D1BDF80400094948800CE0052C04D1D9
:101D7000BDF804100548418105E0092C03D1BDF8E8
:101D80000410024841822846DCE70000D406002007
:101D900070B504464FF0FF3524B1012C0CD0022C55
:101DA0001ED113E011491248006804F08BFF06466B
:101DB00004F0ECFE054616E00C490E48006804F0FD
:101DC00081FF064604F0E2FE05460CE007490A489A
:101DD000006804F077FF064604F0D8FE054602E0EE
:101DE0004FF0FF3500BF00BF284670BD00007A44A9
:101DF000A40300209C030020A0030020014601480A
:101E000000887047AE0300202DE9F04704464FF0EC
:101E1000FF3A04F0FF09B9F10D0F7BD2DFE809F0BA
:101E20007A070B0F131D22273949546671003B486E
:101E300090F800A06EE03A4890F800A06AE03948B7
:101E400090F800A066E038493848006804F03AFF8E
:101E5000054604F09BFE82465CE00020FEF7E8FCAD
:101E6000824657E00120FEF7E3FC824652E02E490D
:101E70002F48006804F026FF804602F07BFC0746EE
:101E800004F0F4FC21F00041054604F065FA8246B6
:101E900040E02848006804F0E9FC21F000410746D2
:101EA0000022254B04F0C4FA054604F055FA824698
:101EB00030E000211F48006804F0D0FF01D8012065
:101EC00000E00020824625E017491C48006804F025
:101ED000F9FE804602F04EFC074604F0C7FC21F0F4
:101EE0000041054604F038FA824613E00021134809
:101EF000006804F0B3FF01D8012000E00020824612
:101F000008E00F490868002801DB014600E0414273
:101F10008A4600BF00BF5046BDE8F087020000209F
:101F200004000020030000200000C8420C00002034
:101F3000B0030020B403002000005940B803002083
:101F4000BC0300200146014A10887047AC03002002
:101F50000146014A10887047AA0300200146014A41
:101F600010887047A80300202DE9F35F0446022C77
:101F700002DD0020BDE8FC9F662000EB44001FFA54
:101F800080FA022201A95046FEF798FE8146B9F177
:101F9000000F3DD024B1012C14D0022C36D123E007
:101FA000BDF8040004F046FE834604F05FFC0746DB
:101FB0000022184B04F078F8054603F08FFF16490D
:101FC000086024E0BDF8040004F034FE834604F009
:101FD0004DFC074600220F4B04F066F8054603F05F
:101FE0007DFF0E49086012E0BDF8040004F022FEF7
:101FF000834604F03BFC05460022064B04F054F8EF
:10200000074603F06BFF0649086000E000BF00BF11
:102010004846AFE700408F40A40300209C03002007
:10202000A003002073B50546BDF80400142801DDA7
:1020300014200190012201A97220FEF773FE0446CC
:102040001CB1BDF804000249088020467CBD000098
:10205000AE03002073B50546BDF80400032803DB7A
:10206000BDF80400142801DD00207CBD012201A977
:102070007020FEF757FE04461CB1BDF8040002496B
:1020800008802046F1E70000AC03002073B5054648
:10209000012201A96E20FEF745FE04461CB1BDF8E1
:1020A00004000249088020467CBD0000AA030020ED
:1020B00073B50546012201A96C20FEF733FE0446E4
:1020C0001CB1BDF804000249088020467CBD000018
:1020D000A803002008B500201B4908601B490860C0
:1020E0001B4908601B481C490860002000901B48E1
:1020F0000088002805DD194800884FF47A714843AC
:1021000000E064200246002304211548006803F023
:10211000A3FE1448006850B900BFA02080F31188C6
:10212000BFF34F8FBFF36F8F00BF00BFFEE70020EC
:1021300003460246032100900A48006803F08CFE23
:10214000012002F0CFFB08BDB4030020B80300203B
:10215000C00300200000E040C4030020A8030020CA
:10216000D0030020CC03002038B53948006850B9AE
:1021700000BFA02080F31188BFF34F8FBFF36F8F94
:1021800000BF00BFFEE73348006850B900BFA02081
:1021900080F31188BFF34F8FBFF36F8F00BF00BF75
:1021A000FEE72D48006850B900BFA02080F31188D9
:1021B000BFF34F8FBFF36F8F00BF00BFFEE700205C
:1021C00003460246032100902348006803F044FEC2
:1021D000002003460246032100901E48006803F0D9
:1021E0003BFE00201D4908701D4908701D4908600C
:1021F0001D4908601D4908601D490860174908709D
:102200001749087000901B480088002805DD194810
:1022100000884FF47A71484300E0642002460023AE
:1022200004210B48006803F017FE03F097FB0546F6
:10223000322000232A46012100900548006803F05F
:102240000BFE0446012C02D0002002F04BFB38BDEF
:10225000CC030020D4030020D0030020C8030020BA
:10226000C9030020B8030020B0030020B4030020FD
:10227000C0030020AE03002010B502230022082175
:102280002F48FEF7ADFD0820002121B10122824038
:102290002B4B1A6105E000F1100201239340284AFC
:1022A000136100BF2748806940F480402549886158
:1022B00040F2413024490880081D008842F22C0178
:1022C00008432149091D08801E48806940F0050027
:1022D0001C4988611A48001D006820F0C000184998
:1022E000091D08600846006840F080000860084644
:1022F000006840F0100008600846006820F4406064
:1023000008600846006840F480600860084600687D
:1023100020F440700860252000280DDB00BF00BFBE
:1023200000F01F02012191404209920002F1E022D7
:10233000C2F8001100BF00BF00BF62B610BD0000B0
:102340000008014000100240083801402DE9F0412A
:1023500006460C4600251749304604F07FFC01D2A2
:10236000022505E01449304604F078FC00D201252E
:102370001249304604F0A6FC804602F0FBF90746FD
:1023800004F020FC0E4901EBC50188800B49204672
:1023900004F098FC074604F015FC094901EBC5015F
:1023A000C880182206494FF49670FEF787FCBDE8F6
:1023B000F08100000000A0400000C040000020416B
:1023C000D4060020704700002DE9F047044620465F
:1023D00004F04CFA074600220A4B04F029F805469F
:1023E00003F07CFD0446204602F0C4F9054604F0E3
:1023F000E9FB1FFA80F94946002000F035FEBDE8F0
:10240000F08700000000244010B500BFA02080F33A
:102410001188BFF34F8FBFF36F8F00BF03F0A4FA93
:1024200018B14FF080500449086000BF002080F3CD
:10243000118800BF10BD000004ED00E010B5164883
:10244000006840F0010014490860084640681349DC
:1024500008401149486008460068114908400E4983
:1024600008600846006820F480200860084640683C
:1024700020F4FE0048600846006820F0A050086084
:102480004FF47F0088600020C862FFF79BFF4FF089
:1024900000600449086010BD001002400000FFF019
:1024A000FFFFF6FE08ED00E010B50121024800F044
:1024B00005F8FFF753F910BD00080040CA43028237
:1024C000704721B1028842F00102028004E00288D4
:1024D0004FF6FE731A40028070471AB183890B438E
:1024E000838102E083898B438381704781847047B5
:1024F000002202881D4B98420ED01D4B98420BD0F3
:10250000B0F1804F08D01B4B984205D01A4B98422F
:1025100002D01A4B984204D14FF68F731A404B8861
:102520001A43174B984207D0164B984204D04FF6E7
:10253000FF431A40CB881A4302808B8883850B881F
:1025400003850A4B98420BD0094B984208D00E4B9A
:10255000984205D00D4B984202D00D4B984201D1C4
:102560000B7A03860123838270470000002C014010
:10257000003401400004004000080040000C00400E
:1025800000100040001400400040014000440140A1
:10259000004801404FF6FF71818000210180C18019
:1025A00041800172704700001FB500BF00BF00BF2F
:1025B0004FF00009CA46CB460025002600200390B4
:1025C00002900190009000BF00F00EFE074600F060
:1025D000FDFD804600F0ECFD04468FB9B9F1000F17
:1025E0000CD0029830B9B5F5FA7F05DA01203449EC
:1025F000087001E00020009000200290002511E00A
:10260000B9F1000F0ED01935B5F5966F0ADDB6F5A4
:10261000966F07DD009828B901202A4908700290BA
:1026200001900090B8F1000F11D1BAF1000F0CD059
:10263000019830B9B6F5FA7F05DA01202249087011
:1026400001E00020009000200190002611E0BAF186
:10265000000F0ED01936B5F5966F0ADDB6F5966FF8
:1026600007DD009828B901201649087002900190F2
:10267000009044B900200390BBF1000F18D0012056
:102680001249087014E01248007878B9BBF1000FC5
:102690000CD00398193003900398B0F5966F07DDBE
:1026A00001200B4908700020039001E000200390F6
:1026B000C246B946A346192002F0ECFA84E70000AE
:1026C0001000002012000020110000201400002043
:1026D000130000200EB500BF002002F021F90020F9
:1026E0006B4908606B4908604FF47A7002F0D2FAC7
:1026F00000BFFEF7BBFC30B9002002F011F9322018
:1027000002F0C8FAF5E703F029F901906148006882
:1027100061490860084601686048006804F0D2F822
:102720005E4908605E495D48006804F097FB02D28C
:102730005B485A49086000215848006804F08EFA46
:1027400002D20020554908605649098801EB8101F1
:10275000480004F057FA804650480168404604F0AB
:10276000B1FA074604F012FA4F49086008460068BB
:10277000642866DD062418E04B48006890FBF4F5F9
:10278000FA2D11DD05FB04F04649098801EB4102F1
:10279000C2EBC1116422C2EBC101091A91FBF4F62C
:1027A000FA2E00DD03E000BF641E002CE4DC00BF55
:1027B00064B9642D0ADD01243A48008800EB400129
:1027C000C1EBC0106421C1EBC000461B3348D0F8F8
:1027D00000A0002002902CE0012002F0A1F8284681
:1027E00002F058FA002002F09BF8304602F052FA4C
:1027F00051462A48006804F09DFB009004F036F82A
:1028000021F0004107460022284B03F00FFF0DD3B3
:102810002748007850B92748007838B9264800780A
:1028200020B90020FFF7C6F8012802D0012002904D
:1028300003E0201EA4F10104CED100BF029828B10C
:1028400057E700201849086002F06AF803F086F89C
:1028500081460199A9EB01001249098801EB410267
:10286000C2EBC111B0EBC10F0BD20198A9EB000074
:102870000C49098801EB4102C2EBC111C0EBC10B4D
:1028800001E04FF00A0B594601A802F031FA30E797
:10289000C0030020B4030020B8030020B0030020D0
:1028A0000000BE42AC030020BC0300200000144026
:1028B00002000020040000200300002008B50124CD
:1028C000FEF724FDFEF7CAFC00BF03F047F80090B6
:1028D00000BF4FF4FA71684602F00AFA2046FEF78C
:1028E00059FD1248007810B10CB1012000E0002021
:1028F00001460320FEF7FAFD0D48007810B10CB137
:10290000012000E0002001460220FEF7EFFD09480B
:10291000007810B10CB1012000E000200146012038
:10292000FEF7E4FD84F00104D3E70000040000207A
:10293000030000200200002008B503F00FF800900B
:1029400000BF00BF4FF47A71684602F0D1F9FEF77C
:102950008DFB0028F6D0244800780028F2D02348C8
:1029600001682348006804F0E5FA83465946214887
:10297000006804F0A7F9814659461F48006804F032
:10298000A1F904461D480168204603F09BFF044658
:102990001A4804601A4801681448006804F0CAFA2A
:1029A000824618480168504604F08CF982460F4868
:1029B0000068134908602146484603F083FF054636
:1029C000514603F07FFF104908600846006803F095
:1029D0004DFF074600220D4B03F02AFD054603F08C
:1029E0007DFA09490860ADE7C9030020080000200E
:1029F0000C000020A40300209C030020C003002042
:102A0000C4030020A0030020B40300200000F0BF96
:102A10001FB500BF00BF002400250026FFF72EF8D9
:102A200001207C49087041F2883002F033F900201F
:102A3000012103468022CDE9001077A1784802F0F9
:102A40004DFF0020012103468022CDE9001075A131
:102A5000754802F043FF75480090754800880028CB
:102A600005DD734800884FF47A72504300E00A2075
:102A70000146002301226FA003F0A8F97049086005
:102A80007048009070480088002805DD6E48008876
:102A90004FF47A72504300E00A20014600230122DD
:102AA0006AA003F093F96D4908606D480023012284
:102AB00042F2107100906BA003F088F96D49086034
:102AC00002F04CFF039000BF642103A802F010F94C
:102AD0000020FEF76FFF012805D16748007810B984
:102AE0006648007818B1002001F0FCFEECE7FEF724
:102AF000D7FA80F001004749097888420ED0FEF7E6
:102B0000CFFA80F00100434908700846007810B100
:102B1000FFF72AFB01E0FFF7DDFAD5E73D48007833
:102B200000B1D1E7FEF792FA10B9012001F0DAFE08
:102B300002A8FDF70FFE52490860002150480068C6
:102B400004F08CF802D39DF8080060B14A48007880
:102B500050B9643541F28830854205DD012046498F
:102B60000870002500E000254648016844480068D8
:102B700004F0E0F9834603F079FE21F000410746B6
:102B80000022414B03F052FD0ED264343F480088CE
:102B900000EB4001C1EBC010B4EBC00F05DD002419
:102BA00001203649087000E00024364801683448A6
:102BB000006804F0BFF9834603F058FE21F000419D
:102BC0000746334A334B03F0F7FB1DD2643609F155
:102BD000010931480168504603F074FE82464EF602
:102BE0006020864214DD00265746484604F00AF865
:102BF00080464146384603F0D3FE07463946214811
:102C00000068FFF7A3FB03E04FF00009CA46002667
:102C10005AE70000020000204B6C6170616E0000FA
:102C2000D5260008506964003929000811160008EB
:102C3000AE03002054696D657250756D7000000020
:102C4000CC03002045160008A803002054696D65D8
:102C500072526567756C61746F720000D00300205A
:102C6000D915000854696D657243616C63506964DD
:102C700000000000D4030020040000200300002016
:102C8000080000200C0000200000E03FAA03002004
:102C90009A9999999999C93FB003002008B50223E0
:102CA00000220621D048FEF79BF80020FEF73CFEEC
:102CB0000120CE490870CE49087000BF322001F0D3
:102CC000E9FFCC48007828B9CB48007810B9C8484B
:102CD000007808B1012000E000200446C3480078D5
:102CE000012804D0022873D0032872D112E1C1490F
:102CF000097811B9C049097809B1012100E0002122
:102D0000084601F0D9FD00210420FEF7EFFB002169
:102D10000520FEF7EBFB6846FDF71CFDB749086090
:102D2000B348007828B100220121B548FEF714FA13
:102D300005E000220121B1480068FEF70DFA0022EB
:102D40000221B0480068FEF707FA34B10120FEF70F
:102D5000D5F90220FEF7B4F905E00120FEF7B0F93D
:102D60000220FEF7ADF9A848007868B100F0B6FA85
:102D70009F480078002862D0FEF768F900285ED1ED
:102D800002209A4908705AE0A048007810B300F079
:102D9000A5FA9C48006803F069FD07469C4A9D4BD4
:102DA00003F0CEF8054600229B4B03F005FB46D20C
:102DB0009448006803F05AFD0746954A954B03F086
:102DC000BFF8054603F08AF88346FFF7FDFA36E0C0
:102DD00036E002E19148007800B300F07FFA8948BC
:102DE000006803F043FD0746894A8A4B03F054FC10
:102DF00005460022134603F019FC20D281480068E2
:102E000003F034FD0746824A824B03F045FC054639
:102E100003F064F88346FFF7D7FA10E080480078A3
:102E200068B100F05BFA00F06FFA01206F4908709A
:102E30006F4908700020704908706E490870D2E030
:102E4000002001F039FD01210420FEF74FFB002195
:102E50000520FEF74BFB0020FDF760FC81460120BA
:102E6000FDF75CFC8246002201214846FEF774F91A
:102E7000002202215046FEF76FF963480078A0B3A4
:102E800000F02CFA0020FDF7ABFC85B229460020AB
:102E9000FDF7EAFD0120FDF7A3FC85B229460120DC
:102EA000FDF7E2FD0020FDF739FC81460120FDF72A
:102EB00035FC8246002201214846FEF74DF90022EA
:102EC00002215046FEF748F9642001F0E3FE03209A
:102ED000FEF714F940F2DC5001F0DCFE0320FEF7AF
:102EE000EFF803204149087013E0FFE747480078F6
:102EF00028B100F0F3F903203C49087009E0494883
:102F0000007830B100F0EAF90120384908703849FA
:102F1000087068E0002001F0CFFC00210420FEF7DB
:102F2000E5FA01210520FEF7E1FA0020FDF7F6FBA6
:102F300081460120FDF7F2FB82460022012148462E
:102F4000FEF70AF9002202215046FEF705F92E4845
:102F50000078B0B300F0C2F90020FDF741FC85B263
:102F600029460020FDF79CFD0120FDF739FC85B2C4
:102F700029460120FDF794FD0020FDF7CFFB814697
:102F80000120FDF7CBFB8246002201214846FEF7D7
:102F9000E3F8002202215046FEF7DEF8642001F03B
:102FA00079FE0320FEF7AAF840F2DC5001F072FE31
:102FB0000320FEF785F801200C4908700C490870C1
:102FC0000AE0FFE71748007830B100F087F90120E8
:102FD000064908700649087005E001200349087099
:102FE000FFF778F800BF69E60010014001000020FB
:102FF0000200002004000020030000200800002040
:10300000000080BF0C0000201200002010000020F3
:103010009A9999999999B93F00002440110000208C
:10302000130000201400002010B50B48008840F267
:103030002551084078B10848008800F0070038B9E9
:10304000054800F00BF80446E0B2FEF791FB02E001
:10305000014800F003F810BD00380140014688889F
:10306000C0F30800704700002DE9F3418046BDF829
:10307000040003F0DFFD0446164903F0EFFD08D31A
:10308000BDF8040003F0D6FD0446134903F0E6FE44
:1030900002D20020BDE8FC81022201A96420FDF7D4
:1030A0000DFEA8B1BDF8040003F0C4FD0B49086093
:1030B0000846006803F0DAFB06460022084B02F0DF
:1030C000F3FF044602F00AFF044908600120E1E72B
:1030D0000020DFE70000A0410000C8420C000020F3
:1030E000000024402DE9F8430546884615B1B8F1A3
:1030F000070F02D20020BDE8F8832C466088000A42
:10310000A17840EA012060802088000A217840EA06
:10311000012020806188642906DC207900EBD071D1
:1031200049106288914205D00321102000F0C6FCAE
:103130000120E0E700260CE02188314488B2FEF748
:10314000C6FB28B90321102000F0B8FC0120D2E70B
:10315000761C6088B042EFDC671D00260CE037F873
:103160001620120A17F8163042EA03212288324448
:1031700090B2FEF796FB761C6088B042EFDC2088A8
:10318000000A217840EA0120ADF800006088000ABA
:10319000A17840EA0120ADF80200FDF743FF0646A2
:1031A00004236A46102100F0B1FC0120A3E70000CF
:1031B0000C2005498968C14001F0010109B90120CD
:1031C00070470020FCE70000001001400A2005497C
:1031D0008968C14001F0010109B901207047002050
:1031E000FCE70000001001400B2005498968C14040
:1031F00001F0010109B9012070470020FCE700003F
:103200000010014000B585B001214802FEF71EFB09
:103210006846FDF73AFA002000908DF804008DF81A
:1032200005004FF4602002900020039001208DF8EB
:10323000100069461148FDF78FF901210F48FDF78D
:103240005EF90523012200210C48FDF7ADF90B487A
:10325000FDF706FA00BF0948FDF773F90028FAD117
:103260000648FDF70DFA00BF0448FDF753F90028A2
:10327000FAD103490880488005B000BD0024014010
:103280002400002010B504460523012221460948E8
:10329000FDF78AF901210748FDF7E7F900BF022190
:1032A0000448FDF745F90028F9D00248FDF73CF93C
:1032B00010BD000000240140F0B505460E464FF653
:1032C000FF77002406E0295DB8B2FDF753FC0746FE
:1032D000601CC4B2B442F6DBB8B2F0BD00200549B0
:1032E00008700549087005490870054908700549C6
:1032F000087070471200002010000020110000200C
:10330000130000201400002010B500F006F810BDD6
:1033100000E0401E0028FCDA7047F8B53227002094
:103320008DF802008DF803000026E2E000252FE072
:103330002C4601208DF801000B208DF80000E8B22A
:103340006946FDF77FFF00208DF80100601C0446F0
:10335000032800DD241FE0B26946FDF773FF601CFF
:103360000446032800DD241FE0B26946FDF76AFF2A
:10337000601C0446032800DD241FE0B26946FDF707
:1033800061FF0020FEF706F8322001F083FC6D1C7F
:10339000042DCDDB01208DF801000C208DF80000FC
:1033A00069460320FDF74EFF00208DF801006946B5
:1033B000FDF748FF69460120FDF744FF69460220FA
:1033C000FDF740FF0020FDF7E5FF322001F062FC31
:1033D00001208DF801000D208DF8000069460320C2
:1033E000FDF730FF00208DF801006946FDF72AFF48
:1033F00069460120FDF726FF69460220FDF722FFFE
:103400000020FDF7C7FF322001F044FC03252FE028
:103410002C4601208DF801000E208DF80000E8B246
:103420006946FDF70FFF00208DF80100601C04467F
:10343000032800DD241FE0B26946FDF703FF601C8E
:103440000446032800DD241FE0B26946FDF7FAFEBA
:10345000601C0446032800DD241FE0B26946FDF726
:10346000F1FE0020FDF796FF322001F013FC6D1EE7
:10347000002DCDDA01208DF801000F208DF800001D
:1034800069460020FDF7DEFE00208DF80100694648
:103490000120FDF7D7FE69460220FDF7D3FE6946FD
:1034A0000320FDF7CFFE0020FDF774FF322001F06E
:1034B000F1FB01208DF8010010208DF80000694615
:1034C0000020FDF7BFFE00208DF8010069460120B5
:1034D000FDF7B8FE69460220FDF7B4FE69460320F9
:1034E000FDF7B0FE0020FDF755FF322001F0D2FBC2
:1034F000761C032EFFF61AAFFDF71EFEF8BD31B5A0
:10350000A02000F01BF9044654B16D46687800F025
:1035100015F904461CB1287800F010F9044600BFE4
:10352000204638BDF0B5014600254FF44C720C23FF
:1035300092FBF3F084B200200CE000EB4006084F51
:1035400037F826608E4204D100EB400607EB860573
:1035500002E0401CA042F0DB00BF2846F0BD0000A6
:103560005A00002010B50223012207211848FDF758
:1035700037FC0720002121B101228240144B1A613F
:1035800005E000F1100201239340114A136100BFCE
:103590000620012121B1012282400D4B1A6105E074
:1035A00000F1100201239340094A136100BF062075
:1035B000002121B101228240054B1A6105E000F192
:1035C000100201239340024A136100BF10BD0000A6
:1035D000000C014010B50223012206211348FDF71B
:1035E000FFFB0023012207211048FDF7F9FB06200D
:1035F000012121B1012282400C4B1A6105E000F14A
:10360000100201239340094A136100BF07200121E2
:1036100021B101228240054B1A6105E000F1100240
:1036200001239340014A136100BF10BD000C01400B
:1036300010B50621012222B101238B40104C2361D9
:1036400005E001F1100301249C400D4B1C6100BFFB
:1036500007210B4A9268CA4002F0010000BF062110
:10366000002222B101238B40054C236105E001F1CA
:10367000100301249C40024B1C6100BF10BD0000E0
:10368000000C014070B500260023012207210848E4
:10369000FDF7A6FB072507E0FFF7CAFF044604FA7B
:1036A00005F03043C6B26D1E002DF5DA304670BD10
:1036B000000C014010B502467AB90720002121B163
:1036C000012383401C4C236105E000F11003012419
:1036D0009C40194B1C6100BF0FE00720012121B164
:1036E00001238340144C236105E000F11003012401
:1036F0009C40114B1C6100BF00BF0620012121B17D
:10370000012383400C4C236105E000F110030124E8
:103710009C40094B1C6100BF0620002121B1012300
:103720008340054C236105E000F1100301249C4017
:10373000014B1C6100BF10BD000C014070B5054677
:1037400000260223012207212048FDF749FB072418
:103750000BE00121A1402940002901DD012100E009
:1037600000210846FFF7A6FF641E002CF1DA0023B3
:10377000012207211548FDF733FB0620012121B165
:1037800001228240114B1A6105E000F11002012371
:1037900093400E4A136100BF07200C498968C1405D
:1037A00001F0010101B901260620002121B1012209
:1037B0008240064B1A6105E000F11002012393409C
:1037C000024A136100BF304670BD0000000C01408A
:1037D00010B50223012207211F48FDF701FB072036
:1037E000012121B1012282401B4B1A6105E000F149
:1037F000100201239340184A136100BF06200121E3
:1038000021B101228240144B1A6105E000F110023F
:1038100001239340104A136100BF0720002121B10A
:10382000012282400C4B1A6105E000F110020123D5
:103830009340094A136100BF0620002121B10122F3
:103840008240054B1A6105E000F11002012393400C
:10385000014A136100BF10BD000C014010B50720E4
:10386000002121B101228240214B1A6105E000F1C3
:103870001002012393401E4A136100BF062000215D
:1038800021B1012282401A4B1A6105E000F11002B9
:1038900001239340164A136100BF0223012207212E
:1038A0001348FDF79DFA0620012121B10122824033
:1038B0000F4B1A6105E000F11002012393400C4AFE
:1038C000136100BF0720012121B101228240084B72
:1038D0001A6105E000F1100201239340044A1361CC
:1038E00000BF0023012207210148FDF779FA10BD2E
:1038F000000C014070B504462078801E611C0D5AF2
:103900002078801EC1B2601CFFF7D6FC0646B54287
:1039100001D1012070BD0020FCE7000000B514209B
:10392000FFF7F6FC0D20012121B101228240104B4E
:103930001A6105E000F11002012393400C4A136163
:1039400000BF1420FFF7E4FC0D20002121B101226B
:103950008240074B1A6105E000F1100201239340F9
:10396000034A136100BF1420FFF7D2FC00BD000022
:103970000010014000B51420FFF7CAFC0E20012101
:1039800021B101228240104B1A6105E000F11002C2
:10399000012393400C4A136100BF1420FFF7B8FCC9
:1039A0000E20002121B101228240074B1A6105E05F
:1039B00000F1100201239340034A136100BF142059
:1039C000FFF7A6FC00BD0000001001401CB5FDF78C
:1039D0002FFB0020012103468022CDE9001022A107
:1039E000234801F07BFF0020012103468022CDE91E
:1039F000001020A1214801F071FF002002210346A0
:103A0000CA02CDE900101EA11F4801F067FF002087
:103A1000012103468022CDE900101CA11D4801F0C0
:103A20005DFF0020012103468022CDE900101AA18C
:103A30001A4801F053FF0020012103468022CDE9FE
:103A4000001017A1184801F049FF0020012103468A
:103A50004A02CDE9001015A1174801F03FFF01F01F
:103A600071FA00201CBD00004144445245535300EC
:103A7000AD0B0008414E414C4F4700009D08000827
:103A80004D6F646275730000891500084C6564739E
:103A900044696700BD28000842544E00A92500086B
:103AA000574F524B000000009D2C0008526567756F
:103AB0006C61746F72000000112A00087CB5044626
:103AC0000D46FDF7AFFA8DF8000004F03F0040F01E
:103AD00080008DF801008DF8025003216846FFF741
:103AE000EBFBADF80300FB210748FCF750FC064850
:103AF0000099C0F801109DF8041041710520024999
:103B0000087001207CBD00005F0500202DE9F04712
:103B10008046894616461C46002C02DD0EB9BDE8DB
:103B2000F087F52C00D9FAE7FB211548FCF72FFCAC
:103B3000134D6D1C85F8008085F801905CB14FF045
:103B4000000A06E022463146A81CFCF7DBFB0AF11E
:103B5000010AA245F6DBA01C094908700846017855
:103B6000401CFFF7A9FB074605490A78491C8F52FC
:103B7000481E0078801C491E087000BFCFE7000077
:103B80005F0500202DE9F04105460F4617480668FD
:103B900017480068001D00F023FF50B91448006862
:103BA00090F82C100120884012490968814311487F
:103BB000016074190E4800684460B44207D20C4892
:103BC0000168091D0C48006800F02EFF0CE0084851
:103BD0000168091D0948006800F026FF08480068D0
:103BE000844201D206480460BDE8F0812804002028
:103BF000180400202C040020200400201C040020B5
:103C00004404002010B5044600F034FF2348006847
:103C1000401C224908602248006840B920480460DE
:103C20000846006801280DD100F0DCF90AE01D48C3
:103C3000006838B91A480068C06AE16A884201D849
:103C40001748046018480068401C1749086094F839
:103C50002C10012088401549096808431349086061
:103C6000E16A01EB8101124A02EB8100211D00F0A3
:103C7000F5FE00F029FF0B48006868B108480068AD
:103C8000C06AE16A884207D24FF080500949086053
:103C9000BFF34F8FBFF36F8F10BD000024040020CF
:103CA0001804002030040020400400202C040020D0
:103CB000EC6A002004ED00E010B500F0DBFE0C48DB
:103CC000006890B90B4800F09FFE0B4800F09CFE86
:103CD00008480A49086008480949086000220C2180
:103CE000032001F060FA0249086000F0EDFE10BD0B
:103CF000580400208C6B0020A06B00205004002092
:103D000054040020704770B504460D46206C70B115
:103D1000216CE0680144E160D4E90210884201D3DB
:103D20002168E1602846226CE168FCF7EBFA70BD7F
:103D30002DE9F04104460F4615464FF00008A66BEA
:103D4000206C48B9206800282CD1A06801F0B0FE92
:103D500080460020A06025E07DB93946226C60686D
:103D6000FCF7D0FA216C606808446060D4E9010176
:103D7000884217D32068606014E03946226CE068FE
:103D8000FCF7C0FA216CE068411AE1602168E06844
:103D9000884203D2216CA068411AE160022D01D152
:103DA00006B1761E701CA0634046BDE8F081014656
:103DB0004A6A22B10A6B1268C2F1050000E00020D5
:103DC000704700000146084A126812680AB90122C9
:103DD00000E000220A600A6822B9034A1268D26829
:103DE000106800E0002070475004002030B54FF408
:103DF000C843174800F007042CB1C01D20F007008D
:103E0000134C041B1B1B0246124C22600024114D54
:103E10006C60D018083820F007000F4C2060002498
:103E20000D4D2D686C600C4D2D682C601146441AA8
:103E30004C60094C24680C60084D4C682C60084D9F
:103E40004C682C604FF00044064D2C6030BD0000E3
:103E5000EC060020EC030020F4030020FC0300200B
:103E6000F80300200804002000BFFFF74BFF0648BE
:103E700000680128F9D94FF0805004490860BFF369
:103E80004F8FBFF36F8FF0E7EC6A002004ED00E086
:103E900010B5044654B10020A06020600021E1600C
:103EA00000231A461946204601F0F4F910BD2DE909
:103EB000F04106460D4617469846069C0DB924600B
:103EC00000E02760E66325640121204601F096F9B1
:103ED000BDE8F0812DE9FF5F81460E469246DDE99F
:103EE0000E7B109CAAF10100216B01EB800828F0E9
:103EF000070808F0070008B9012000E0002050B9C9
:103F000000BFA02080F31188BFF34F8FBFF36F8FE6
:103F100000BF00BFFEE786B1002507E0715D04F138
:103F200034004155705D00B902E06D1C0A2DF5D3D7
:103F300000BF00213D20015502E0002084F834003C
:103F4000052F00D30427E762276400206064201D4A
:103F500000F067FD04F1180000F063FD2461C7F173
:103F60000500A06164620020A06484F84C0049460A
:103F70004046039A00F0D0FB2060BBF1000F01D057
:103F8000CBF80040BDE8FF9F2DE9F04706460D46FF
:103F900017469846DDE908940DB1012000E00020A5
:103FA00050B900BFA02080F31188BFF34F8FBFF33B
:103FB0006F8F00BF00BFFEE78CB1FFF77DFE26606C
:103FC000A561C4F81C80C4F82090201D00F029FDD4
:103FD0002FB194F8240040F0040084F82400BDE8D8
:103FE000F087000010B5002407E004EB84010C4AC0
:103FF00002EB810000F008FD641C052CF5D3094894
:1040000000F002FD084800F0FFFC084800F0FCFC4E
:1040100004480749086004480649086010BD0000CC
:10402000EC6A0020506B0020646B0020786B00204D
:104030001C0400202004002010B50146164800E0B2
:10404000006803688B42FBD30246436813448B42EB
:1040500004D143684C682344436001460A464B68D8
:1040600013440468A34211D10C4C03682468A34292
:1040700008D04B680468646823444B6003681B687D
:104080000B6005E0054B1B680B6001E003680B60EB
:10409000884200D0016010BDEC030020F403002032
:1040A0002DE9F04104460D4616461F464FF0000824
:1040B00065602461B5420CD8F01BA169884202D327
:1040C0004FF0010811E0211D0948006800F0ACFC28
:1040D0000BE0BE4204D2BD4202D34FF0010804E01F
:1040E000211D0448006800F09FFC4046BDE8F081B7
:1040F000540400205004002070B5054600F0BAFCBE
:10410000A86B08B9012400E0002400F0DDFC204683
:1041100070BD70B5054600F0ADFCA86BE96B884238
:1041200001D1012400E0002400F0CEFC204670BD47
:10413000F8B505460F461A480068C068C468201DD7
:1041400000F04EFC94F8240000F00400E8B1A069EF
:1041500041192B463A462046FFF7A2FFD8B100206E
:1041600003462A4601460090204601F075FE0646A9
:1041700056B900BFA02080F31188BFF34F8FBFF363
:104180006F8F00BF00BFFEE705E094F8240020F029
:10419000010084F824002046216A8847F8BD000009
:1041A0005004002070B586B08BE003980028FBDB3C
:1041B000059C606908B9012000E0002010B9201DAD
:1041C00000F00EFC02A800F009F9054603980A2841
:1041D00075D2DFE800F009050739416306083A4265
:1041E00000BF00BF00BF00BF94F8240040F00100F2
:1041F00084F824000498A269811803462A462046C0
:10420000FFF74EFFF8B12046216A884794F8240052
:1042100000F00400B8B1002000900498A169421891
:1042200000231946204601F017FE064656B900BF86
:10423000A02080F31188BFF34F8FBFF36F8F00BFB3
:1042400000BFFEE700BF3BE000BF94F8240020F071
:10425000010084F8240033E000BF94F8240040F00B
:10426000010084F824000498A061A06908B101202D
:1042700000E0002050B900BFA02080F31188BFF3F8
:104280004F8FBFF36F8F00BF00BFFEE7A0694119DA
:104290002B462A462046FFF703FF11E094F824003E
:1042A00000F0020018B9204600F02CFC05E094F85C
:1042B000240020F0010084F8240001E0FFE700BFA3
:1042C00000BF002203A90448006801F035F9002866
:1042D0007FF46BAF06B070BD58040020F8B50546FA
:1042E0000C4600F079FE684600F078F80646009823
:1042F00020BB44B9B54206D801F0E6FC3146284659
:10430000FFF716FF1CE03CB10E480068006808B9D2
:10431000012000E000200446A91B22460A4800684C
:1043200000F092FC01F0D0FC50B94FF080500749EA
:104330000860BFF34F8FBFF36F8F01E001F0C4FC43
:10434000F8BD0000540400205804002004ED00E0F3
:104350000A490968096809B9012100E0002121B171
:104360004FF0FF31064A116006E004490968C96848
:10437000C868034A41681160704700001C040020AF
:104380004404002010B5022000F084FC0820002125
:1043900021B101228240054B1A6105E000F11002B3
:1043A00001239340014A136100BF10BD0008014082
:1043B00010B50820012121B101228240064B1A616B
:1043C00005E000F1100201239340034A136100BF8E
:1043D000012000F05FFC10BD0008014070B50446EC
:1043E00001F0BCFA054607480068854204D200F097
:1043F0000BF80120206001E00020206001480560EA
:10440000284670BD600400202DE9F84334E02548BB
:104410000068C068056823480068C068C468201D3B
:1044200000F0DEFA2046216A884794F8240000F064
:10443000040008B3A0694619AE4207D9666024613A
:10444000211D1848006800F0EFFA15E0002003462F
:104450002A4601460090204601F0FEFC074657B967
:1044600000BFA02080F31188BFF34F8FBFF36F8F81
:1044700000BF00BFFEE700BF0A480068006808B937
:10448000012000E000200028C1D00648D0F80080BC
:1044900005480068034908600348C0F80080BDE88B
:1044A000F883000050040020540400200E480068E7
:1044B000401C08B9012000E0002050B900BFA02036
:1044C00080F31188BFF34F8FBFF36F8F00BF00BF22
:1044D000FEE700BFA02080F31188BFF34F8FBFF32A
:1044E0006F8F00BF00BFFEE70C04002008B500BFBF
:1044F0006846FFF767FC044620460099FFF7EEFE8A
:10450000FFF750FEF4E770B5044600F0B3FA94F9F3
:10451000455010E0606A08B9012000E0002038B979
:1045200004F1240001F084FB18B100F057FC00E016
:1045300003E0681E45B2002DECDC00BFFF2084F8CC
:10454000450000F0C1FA00F095FA94F9445010E0EB
:10455000206908B9012000E0002048B904F11000EA
:1045600001F066FB08B100F039FC681E45B200E0BE
:1045700001E0002DECDC00BFFF2084F8440000F0D7
:10458000A3FA70BD00BF0849098801F08001002925
:10459000F9D00549091D088000BF0349098801F0C9
:1045A00080010029F9D07047003801402DE9F04121
:1045B00004464FF0000800F00FFD4948006808B9B4
:1045C000FFF714FC474800682040002870D1D4B1A0
:1045D000083404F00700B0B104F00700C0F108008F
:1045E000044404F0070008B9012000E0002050B99D
:1045F00000BFA02080F31188BFF34F8FBFF36F8FF0
:1046000000BF00BFFEE7002C52D03748006884424C
:104610004ED8364E3046056801E02E462D68686853
:10462000A04202D228680028F7D12D4800688542B0
:104630003ED0306800F10808286830606868001BC8
:10464000102819D92F1907F0070008B9012000E038
:10465000002050B900BFA02080F31188BFF34F8F16
:10466000BFF36F8F00BF00BFFEE76868001B786074
:104670006C603846FFF7E0FC1B4968680968081A57
:10468000194908600846006819490968884203D238
:1046900015480068164908601249686809680843A7
:1046A00068600020286013480068401C11490860B9
:1046B00001F00AFB08F0070008B9012000E0002023
:1046C00050B900BFA02080F31188BFF34F8FBFF314
:1046D0006F8F00BF00BFFEE74046BDE8F0810000DD
:1046E000F403002008040020F8030020EC0300205D
:1046F000FC030020000400200648006830B1054992
:10470000096801F14400496C491C016001480068D6
:104710007047000018040020001F4FF080730360F2
:10472000001F21F001030360001F034B03601438D6
:104730000260203870470000AD440008014602487E
:1047400030F81100704700007C7000080146022913
:1047500002D1034800887047024830F81100FAE798
:104760005C7000087C7000080020014908707047E8
:104770006404002070B5054602F0A2FB0446014621
:10478000284602F0D7FB15F0004F4FF07F410ED0C6
:10479000B0F13F4F28BFB1EB400F0ED2B0F17C5FBC
:1047A0001DDDB1EB400F1AD313E0044617E0B0F162
:1047B0003F4F08D9B1EB400F05D34FF07E51204653
:1047C00002F0B8FBF1E7B0F17C5F08DBB1EB400F22
:1047D00005D34FF07E51204602F074F8E5E72846F5
:1047E00064F31E0070BD000010B5002022E000EB55
:1047F00080014122A2EB4101134A02EBC002118069
:1048000000EB80010A2202EB810101EB81014FF6EE
:10481000FF7202EA41010C4A02EBC00251804FF6DE
:10482000FF71094A02EBC0029180074A02EBC00205
:10483000D180401C0328DADB182203494FF496701C
:10484000FCF73CFA10BD0000D406002010B5002093
:104850000CE00A4901EBC001094A12680A600749E5
:1048600001EBC001074A12684A60401C0228F0DBD5
:1048700010220249C820FCF721FA10BD640600206E
:104880006C7000087070000810B500F009F8FFF7B0
:104890006BFF00200149087010BD00001C000020C3
:1048A00010B500210348FDF70CFE00210148FDF77B
:1048B0001DFE10BD0008004010B50621024602F0A2
:1048C000010323B101238B40054C236105E001F175
:1048D000100301249C40024B1C6100BF10BD00006E
:1048E0000010014010B5044621460020FCF7FEFDF3
:1048F0000720214601F0010222B101228240074B2C
:104900001A6105E000F1100201239340034A13618C
:1049100000BF002000F004F810BD000000100140AE
:1049200010B504469CB900210620FCF7DFFD0820E5
:10493000012121B101228240114B1A6105E000F1F1
:104940001002012393400E4A136100BF16E0FCF7EA
:104950007DFB98B101210620FCF7C8FD082000214D
:1049600021B101228240064B1A6105E000F11002DC
:1049700001239340024A136100BF00BF10BD000035
:104980000010014010B501210420FCF74FFF124830
:10499000FDF700FE4FF4FA500F490880032088808D
:1049A0000E48FDF7A5FD012211460C48FDF795FDC7
:1049B0001E2000280DDB00BF00BF00F01F020121F8
:1049C00091404209920002F1E022C2F8001100BFBA
:1049D00000BF00BF10BD00005A06002000080040C4
:1049E00001460A69D1E901309860D1E901035860B4
:1049F0005068884201D188685060002008611068C2
:104A0000401E10601068704700F1080141604FF0CF
:104A1000FF31816000F10801C16001610021016086
:104A2000704700210161704710B502460B685C1C9D
:104A30000CB9106907E002F1080000E04068446822
:104A400024689C42FAD944684C604C68A160886034
:104A500041600A611468641C146010BD42684A60B9
:104A600093688B60936859609160086103685B1C70
:104A70000360704700BFA02080F31188BFF34F8F01
:104A8000BFF36F8F00BF0E480068401C0C490860E0
:104A900008460068012812D10A480068C0B208B967
:104AA000012000E0002050B900BFA02080F3118851
:104AB000BFF34F8FBFF36F8F00BF00BFFEE770479C
:104AC0000C04002004ED00E00D48006850B900BF60
:104AD000A02080F31188BFF34F8FBFF36F8F00BF0B
:104AE00000BFFEE706480068401E0549086008460A
:104AF000006820B9002080F3118800BF00BF704714
:104B00000C04002070B506463546002E44D0083D02
:104B10002C46224960680968084008B1012000E07D
:104B2000002050B900BFA02080F31188BFF34F8F41
:104B3000BFF36F8F00BF00BFFEE7206808B90120F8
:104B400000E0002050B900BFA02080F31188BFF31F
:104B50004F8FBFF36F8F00BF00BFFEE70F49606844
:104B600009680840C0B12068B0B90C49606809689C
:104B70008843606000F030FA0949606809680844B9
:104B8000074908602046FFF757FA06480068401CAE
:104B90000449086001F098F870BD00000804002086
:104BA000F80300200404002000204FF0E0210861F9
:104BB0008861064800684FF47A71B0FBF1F0401E3E
:104BC0004FF0E0214861072008617047D8030020BA
:104BD00070B5FBF773FB0446102C16D304F1E020EC
:104BE00090F8F05315480078854201DB012000E081
:104BF000002050B900BFA02080F31188BFF34F8F71
:104C0000BFF36F8F00BF00BFFEE70D48006800F4E0
:104C1000E0600C490968884201D8012000E00020CA
:104C200050B900BFA02080F31188BFF34F8FBFF3AE
:104C30006F8F00BF00BFFEE770BD000010040020B2
:104C40000CED00E0140400202DE9F04105460E466D
:104C500017462C46FFF70EFF94F94400401C10B98C
:104C6000002084F8440094F94500401C10B900204D
:104C700084F84500FFF728FFA06B28B93A46314673
:104C800004F1240000F0CCF82046FFF73CFCBDE81E
:104C9000F081000070B504460025D4B112480068C8
:104CA00008B9012000E0002050B900BFA02080F327
:104CB0001188BFF34F8FBFF36F8F00BF00BFFEE7B8
:104CC00000F08AF900212046FEF75CFF00F0FCFFAF
:104CD00005463DB94FF0805004490860BFF34F8F3F
:104CE000BFF36F8F70BD00004C04002004ED00E0A6
:104CF0002DE9F04704460F464FF0000954B900BFB4
:104D0000A02080F31188BFF34F8FBFF36F8F00BFD8
:104D100000BFFEE70FB1012000E0002050B900BF46
:104D2000A02080F31188BFF34F8FBFF36F8F00BFB8
:104D300000BFFEE72048006808B9012000E000201D
:104D400050B900BFA02080F31188BFF34F8FBFF38D
:104D50006F8F00BF00BFFEE700F03EF917480668FE
:104D60002068C5192068B04207D92068A8420BD92D
:104D7000B54209D94FF0010906E02068A84201D8E0
:104D8000B54201D94FF001092560B9F1000F03D0F8
:104D9000A81B0021FEF7F6FE00F096FF8046B8F152
:104DA000000F07D14FF0805005490860BFF34F8FC7
:104DB000BFF36F8FBDE8F0874C040020280400206B
:104DC00004ED00E003490968016003490968416096
:104DD000704700003C040020280400200120014905
:104DE000086070473804002070B504460D4654B979
:104DF00000BFA02080F31188BFF34F8FBFF36F8FE8
:104E000000BF00BFFEE70548016818312046FFF7E4
:104E10000BFE01212846FEF7B5FE70BD18040020E8
:104E200070B505460E46144655B900BFA02080F364
:104E30001188BFF34F8FBFF36F8F00BF00BFFEE736
:104E40000648016818312846FFF708FE0CB14FF0FC
:104E5000FF3621463046FEF795FE70BD180400204F
:104E60002DE9F04706460F4634464FF00109002E63
:104E700060D0606C50B900BFA02080F31188BFF3F0
:104E80004F8FBFF36F8F00BF00BFFEE7206CB842AB
:104E900001D23D4600E0256CE06AA8424AD0606C31
:104EA000012847D124480068844201D0012000E055
:104EB000002050B900BFA02080F31188BFF34F8FAE
:104EC000BFF36F8F00BF00BFFEE7D4F82C80E56210
:104ED000A06900F0004010B9C5F10500A06108EB21
:104EE0008801164A02EB81016069884201D10120E4
:104EF00000E00020F0B1201DFFF772FD40B994F8EA
:104F00002C10012088400E49096881430C4801603B
:104F100094F82C1001208840094909680843084981
:104F20000860E16A01EB8101044A02EB8100211D66
:104F3000FFF794FDBDE8F08718040020EC6A00201C
:104F40002C0400201CB51D4800210B468022CDE911
:104F500000101BA11C4800F0C1FC0446012C02D12A
:104F600000F050FF0446012C15D100BFA02080F3B3
:104F70001188BFF34F8FBFF36F8F00BF4FF0FF302B
:104F80001249086001201249086000201149086098
:104F900000F07CF810E0601C08B1012000E0002067
:104FA00050B900BFA02080F31188BFF34F8FBFF32B
:104FB0006F8F00BF00BFFEE71CBD0000480400204B
:104FC00049444C4500000000693E000844040020AC
:104FD000300400202804002002480068401C0149D9
:104FE000086070474C0400201D48006818B101207B
:104FF0001C49086032E000201A4908601A4800681D
:10500000B0FA80F0C0F11F0101EB8100174A52F89D
:10501000200008B1012000E0002050B900BFA0200E
:1050200080F31188BFF34F8FBFF36F8F00BF00BFB6
:10503000FEE701EB81020D4B03EB820042685268F0
:10504000426000F108024368934202D1426852680C
:1050500042604268D268064B1A6000BF7047000089
:105060004C040020380400202C040020EC6A0020AE
:105070001804002002460E2A01DD00207047024875
:1050800020F812100120F9E73C0000201CB5384937
:10509000084600780190FF200A4610700846007804
:1050A00000909DF8000000F47F609DF80020904281
:1050B00001D1012000E0002050B900BFA02080F302
:1050C0001188BFF34F8FBFF36F8F00BF00BFFEE7A4
:1050D0009DF8000000F0A000264A10700720264A24
:1050E000106009E024480068401E234A10609DF8C3
:1050F00000004006000E00909DF8000000F08000C7
:105100008028EFD01C480068C0F10700042801D1B6
:10511000012000E0002050B900BFA02080F31188DA
:10512000BFF34F8FBFF36F8F00BF00BFFEE7124882
:1051300000680002104A10601046008800F4E06029
:1051400010600B4A019810700C48006840F07F60B6
:105150000A4908600846006840F070400860FFF7A0
:1051600023FD002006490860FBF772F800201CBDF3
:1051700000E400E0100400201404002020ED00E012
:105180000C0400202DE9F0410446012600272246A8
:105190000021012000F007F805462846FEF778FEBA
:1051A0002846BDE8F0812DE9F84305460E4617462E
:1051B0000DB1012000E0002050B900BFA02080F315
:1051C0001188BFF34F8FBFF36F8F00BF00BFFEE7A3
:1051D00005FB06F808F14800FFF7E8F904464CB172
:1051E000A14609F148093B464A4631462846009403
:1051F000FEF75DFE2046BDE8F883000070B5054669
:105200000E462C4654B900BFA02080F31188BFF38E
:105210004F8FBFF36F8F00BF00BFFEE7FFF72AFC81
:10522000D4E90F12206801FB0200A0600020A063F7
:1052300020686060E06B401E226C216800FB021158
:10524000E160FF2084F8440084F845009EB920699D
:1052500008B9012000E00020A8B904F1100000F016
:10526000E7FC80B14FF0805009490860BFF34F8FD1
:10527000BFF36F8F07E004F11000FFF7C5FB04F1E7
:105280002400FFF7C1FBFFF71FFC012070BD0000E9
:1052900004ED00E02DE9FF4383B0064688461D4635
:1052A0004FF00009344654B900BFA02080F31188A4
:1052B000BFF34F8FBFF36F8F00BF00BFFEE7B8F1A2
:1052C000000F01D1206C08B9012000E0002050B986
:1052D00000BFA02080F31188BFF34F8FBFF36F8F03
:1052E00000BF00BFFEE7022D02D1E06B012801D113
:1052F000012000E0002050B900BFA02080F31188F9
:10530000BFF34F8FBFF36F8F00BF00BFFEE700F00A
:1053100015FB08B9059808B9012000E0002050B934
:1053200000BFA02080F31188BFF34F8FBFF36F8FB2
:1053300000BF00BFFEE700BFFFF79CFBA06BE16B67
:10534000884201D3022D28D12A4641462046FEF745
:10535000EFFC0746606A08B9012000E0002068B948
:1053600004F1240000F064FC88B14FF08050324911
:105370000860BFF34F8FBFF36F8F08E03FB14FF06E
:1053800080502D490860BFF34F8FBFF36F8FFFF739
:105390009BFB012007B0BDE8F083059818B9FFF723
:1053A00093FB0020F6E7B9F1000F04D101A8FFF745
:1053B00009FD4FF00109FFF787FBFFF70DFEFFF72F
:1053C00059FB94F94400401C10B9002084F84400B3
:1053D00094F94500401C10B9002084F84500FFF7FF
:1053E00073FB05A901A800F037FAF0B92046FEF7D3
:1053F00090FEA0B104F110000599FFF7F5FC2046DE
:10540000FFF781F800F060FC002895D14FF0805044
:1054100009490860BFF34F8FBFF36F8F8CE72046B9
:10542000FFF771F800F050FC86E72046FFF76BF8B5
:1054300000F04AFC0020ADE704ED00E02DE9F84F54
:1054400007468A4690461E463C4654B900BFA020F7
:1054500080F31188BFF34F8FBFF36F8F00BF00BF82
:10546000FEE7BAF1000F01D1206C08B9012000E07D
:10547000002050B900BFA02080F31188BFF34F8FE8
:10548000BFF36F8F00BF00BFFEE7022E02D1E06BBB
:10549000012801D1012000E0002050B900BFA02068
:1054A00080F31188BFF34F8FBFF36F8F00BF00BF32
:1054B000FEE7FFF78DFB00BFA021EFF3118081F322
:1054C0001188BFF34F8FBFF36F8F00BF0546A06BEE
:1054D000E16B884201D3022E25D194F945B0A06B2F
:1054E0000090324651462046FEF722FC0BF10100A7
:1054F00088B9606A08B9012000E0002050B904F1C1
:10550000240000F095FB28B1B8F1000F02D0012073
:10551000C8F8000004E00BF1010040B284F8450037
:105520004FF0010901E04FF0000900BF85F3118839
:1055300000BF4846BDE8F88F2DE9F74183B0054626
:105540000E464FF000082C4654B900BFA02080F34F
:105550001188BFF34F8FBFF36F8F00BF00BFFEE70F
:105560000EB9206C08B9012000E0002050B900BF3E
:10557000A02080F31188BFF34F8FBFF36F8F00BF60
:1055800000BFFEE700F0DAF908B9059808B9012074
:1055900000E0002050B900BFA02080F31188BFF3C5
:1055A0004F8FBFF36F8F00BF00BFFEE700BFFFF755
:1055B00061FAA76BF7B131462046FEF7A4FB781ECF
:1055C000A063206908B9012000E0002060B904F15F
:1055D000100000F02DFB38B14FF080502F490860CB
:1055E000BFF34F8FBFF36F8FFFF76EFA012006B046
:1055F000BDE8F081059818B9FFF766FA0020F6E7D4
:10560000B8F1000F04D101A8FFF7DCFB4FF001084F
:10561000FFF75AFAFFF7E0FCFFF72CFA94F9440081
:10562000401C10B9002084F8440094F94500401C47
:1056300010B9002084F84500FFF746FA05A901A833
:1056400000F00AF9F0B92046FEF756FDA0B104F1CA
:1056500024000599FFF7C8FB2046FEF754FF00F031
:1056600033FB0028A3D14FF080500C490860BFF3F2
:105670004F8FBFF36F8F9AE72046FEF744FF00F08D
:1056800023FB94E72046FEF73EFF00F01DFB20467B
:10569000FEF732FD00288AD00020A8E704ED00E0E4
:1056A0002DE9F34182B005464FF000082C46002654
:1056B00054B900BFA02080F31188BFF34F8FBFF310
:1056C0006F8F00BF00BFFEE7206C08B9012000E02B
:1056D000002050B900BFA02080F31188BFF34F8F86
:1056E000BFF36F8F00BF00BFFEE700F027F908B9D6
:1056F000039808B9012000E0002050B900BFA020A5
:1057000080F31188BFF34F8FBFF36F8F00BF00BFCF
:10571000FEE700BFFFF7AEF9A76BFFB1781EA063ED
:10572000206810B9FEF7E8FFA060206908B90120E1
:1057300000E0002060B904F1100000F079FA38B1FF
:105740004FF0805043490860BFF34F8FBFF36F8F16
:10575000FFF7BAF9012004B0BDE8F081039898B9C9
:105760000EB9012000E0002050B900BFA02080F356
:105770001188BFF34F8FBFF36F8F00BF00BFFEE7ED
:10578000FFF7A2F90020E6E7B8F1000F04D1684660
:10579000FFF718FB4FF00108FFF796F9FFF71CFC25
:1057A000FFF768F994F94400401C10B9002084F810
:1057B000440094F94500401C10B9002084F84500CD
:1057C000FFF782F903A9684600F046F840BB20467F
:1057D000FEF792FCF0B1206838B9FFF74BF9A068EA
:1057E00000F0CAF90646FFF76FF904F124000399A7
:1057F000FFF7FAFA2046FEF786FE00F065FA002869
:1058000088D14FF0805013490860BFF34F8FBFF32A
:105810006F8F7FE72046FEF776FE00F055FA79E7B6
:105820002046FEF770FE00F04FFA2046FEF764FCBB
:105830000028EED05EB1FFF71DF92046FEF7B7FA5B
:1058400007463946A068FFF70BFBFFF73DF900203C
:1058500081E7000004ED00E070B505460C4655B93F
:1058600000BFA02080F31188BFF34F8FBFF36F8F6D
:1058700000BF00BFFEE754B900BFA02080F311882D
:10588000BFF34F8FBFF36F8F00BF00BFFEE7FFF77F
:10589000F1F8104802686868131A0F492868096807
:1058A000884204D06868904201D801260DE0206843
:1058B000984207D92068C01A20602846FFF782FA6C
:1058C000002602E0002020600126FFF7FDF83046A8
:1058D00070BD0000280400203C0400202DE9FF4F8B
:1058E00085B0804689461746DDE912ABB800FEF761
:1058F0005DFE064656B15020FEF758FE04460CB138
:10590000266304E03046FFF7FDF800E000247CB198
:105910000020CDE900ABCDE902403A464946404679
:10592000089BFEF7D7FA2046FEF76CF9012501E047
:105930004FF0FF35284609B0BDE8F08F05490968EA
:1059400009B9012005E00449096809B9022000E00D
:1059500000207047300400204C04002001490868F2
:1059600070470000280400202DE9F0414FF00008A6
:105970004448006800287CD143480068451C4248E0
:10598000056015BB41480068006808B9012000E0C7
:10599000002050B900BFA02080F31188BFF34F8FC3
:1059A000BFF36F8F00BF00BFFEE738480768384875
:1059B0000068364908603648076036480068401C71
:1059C00034490860FEF7C4FC00BF334800688542D4
:1059D0003CD300BF2D480068006808B9012000E0F2
:1059E000002020B14FF0FF302B4908602DE0274800
:1059F0000068C068C4686668B54202D2264806607E
:105A000023E0201DFEF7ECFFA06A18B104F1180096
:105A1000FEF7E6FF94F82C10012088401F49096822
:105A200008431E490860E16A01EB81011C4A02EB50
:105A30008100211DFFF712F81A49E06A0968C96A56
:105A40008842C7D34FF00108C4E700BF154800687B
:105A5000C06A00EB8000124951F82000012801D9EA
:105A60004FF001081048006808B14FF0010805E048
:105A7000FFE70E480068401C0C4908604046BDE83E
:105A8000F08100004C040020280400201C040020A9
:105A9000200400203C040020440400202C040020AA
:105AA000EC6A002018040020380400203404002090
:105AB00070B505462C460026002D55D02B480068B1
:105AC000844201D1012000E0002050B900BFA02095
:105AD00080F31188BFF34F8FBFF36F8F00BF00BFFC
