:020000040800F2
:10000000E8530020C5020008CD020008CF02000816
:10001000D1020008D3020008D50200080000000049
:100020000000000000000000000000002D02000899
:10003000D90200080000000071020008291700081A
:10004000DF020008DF020008DF020008DF0200080C
:10005000DF020008DF020008DF020008DF020008FC
:10006000DF020008DF020008DF020008DF020008EC
:10007000DF020008DF020008DF020008DF020008DC
:10008000DF020008DF020008DF020008DF020008CC
:10009000DF020008DF020008DF020008DF020008BC
:1000A000DF020008DF020008DF020008DF020008AC
:1000B000DF020008DF020008C9170008DF0200089D
:1000C000DF020008DF020008DF020008DF0200088C
:1000D000DF020008A91C0008DF020008DF02000898
:1000E000DF020008DF020008DF0200080000000055
:1000F0000000000000000000000000000000000000
:100100000000000000000000DF020008DF0200081D
:10011000DF020008DF020008DF020008DF0200083B
:10012000DF020008DF020008DF020008DF0200082B
:10013000DF020008DF020008DF020008DF0200081B
:10014000DF020008DF020008DF020008DF0200080B
:1001500000F002F800F05AF80AA090E8000C82447F
:100160008344AAF10107DA4501D100F04FF8AFF25C
:10017000090EBAE80F0013F0010F18BFFB1A43F085
:100180000103184724570000445700000A444FF069
:10019000000C10F8013B13F0070408BF10F8014BE6
:1001A0001D1108BF10F8015B641E05D010F8016B2B
:1001B000641E01F8016BF9D113F0080F1EBF10F88F
:1001C000014BAD1C0C1B09D16D1E58BF01F801CBB2
:1001D000FAD505E014F8016B01F8016B6D1EF9D535
:1001E0009142D6D37047000000230024002500264A
:1001F000103A28BF78C1FBD8520728BF30C148BF8A
:100200000B6070471FB51FBD10B510BD00F03DF964
:100210001146FFF7F7FF02F0EDF800F05BF903B4C9
:10022000FFF7F2FF03BC00F063F90000224B1968EE
:100230000868B0E8F00F80F30988BFF36F8F4FF0C4
:10024000000080F311884EF00D0E70470000000092
:1002500006480068006880F3088862B661B6BFF39C
:100260004F8FBFF36F8F00DF00BF00BF08ED00E0CE
:10027000EFF30980BFF36F8F0F4B1A6820E9F00F7F
:10028000106008B54FF0A00080F31188BFF34F8FC6
:10029000BFF36F8F03F0FAFA4FF0000080F311887C
:1002A000BDE8084019680868B0E8F00F80F30988D5
:1002B000BFF36F8F704700BF54020020EFF305803B
:1002C000704700000948804709480047FEE7FEE7FD
:1002D000FEE7FEE7FEE7FEE7FEE7FEE7FEE7FEE7F6
:1002E00004480549054A064B704700005D170008A1
:1002F00051010008E84D0020E8530020E84F00209D
:10030000E84F0020032A40F2308010F0030C00F088
:10031000158011F8013BBCF1020F624498BF11F83F
:1003200001CB00F8013B38BF11F8013BA2F10402F8
:1003300098BF00F801CB38BF00F8013B11F0030370
:1003400000F04A80083AC0F0088051F8043B083AAF
:1003500051F804CBA0E80810F5E7121D5CBF51F876
:10036000043B40F8043BAFF30080D20724BF11F8F0
:10037000013B11F801CB48BF11F8012B24BF00F855
:10038000013B00F801CB48BF00F8012B70474FF04C
:1003900000020429C0F0128010F0030C00F050801D
:1003A000CCF1040CBCF1020F18BF00F8012BA8BF60
:1003B00020F8022BA1EB0C0100F042B85FEAC17CEF
:1003C00024BF00F8012B00F8012B48BF00F8012BD7
:1003D000704770477047704710B5203AC0F00B80E7
:1003E000B1E81850203AA0E81850B1E81850A0E839
:1003F0001850BFF4F5AF5FEA027C24BFB1E8185093
:10040000A0E8185044BF18C918C0BDE810405FEA02
:10041000827C24BF51F8043B40F8043B08BF70477E
:10042000D20728BF31F8023B48BF11F8012B28BF83
:1004300020F8023B48BF00F8012B70474FF0000244
:1004400000B5134694469646203922BFA0E80C50CA
:10045000A0E80C50B1F12001BFF4F7AF090728BFA5
:10046000A0E80C5048BF0CC05DF804EB890028BF21
:1004700040F8042B08BF704748BF20F8022B11F04A
:10048000804F18BF00F8012B7047754600F02CF81C
:10049000AE4605006946534620F00700854618B071
:1004A00020B5FFF71DFFBDE820404FF000064FF0DC
:1004B00000074FF000084FF0000B21F00701AC4699
:1004C000ACE8C009ACE8C009ACE8C009ACE8C009B8
:1004D0008D46704710B50446AFF300802046BDE856
:1004E0001040FFF79CBE000000487047884D002078
:1004F00001491820ABBEFEE726000200704721B17B
:10050000826842F00102826003E0826822F0010208
:1005100082607047014600208A6802F004020AB136
:10052000012000E0002070470146C86C80B270478F
:100530000246002013680B400BB1012000E00020B0
:100540007047014600208A6802F008020AB10120C3
:1005500000E000207047000030B502460020002374
:1005600050680F4C20400D790C6844EA0524204364
:10057000506090680B4C2040D1E902542C434D79D7
:1005800044EA450420439060D06A20F470000C7C5B
:10059000641EE4B2234340EA0350D06230BD000041
:1005A000FFFEF0FFFDF7F1FFF0B504460D46002019
:1005B0000021092D11DDE068A5F10A0606EB4607CA
:1005C000072606FA07F18843A5F10A0606EB460658
:1005D00003FA06F10843E0600CE0206905EB4507EB
:1005E000072606FA07F1884305EB450603FA06F1EC
:1005F00008432061072A0FDA606B561E06EB860758
:100600001F2606FA07F18843561E06EB860605FAF2
:1006100006F10843606322E00D2A0FDA206BD61F33
:1006200006EB86071F2606FA07F18843D61F06EB5E
:10063000860605FA06F10843206310E0E06AA2F19D
:100640000D0606EB86071F2606FA07F18843A2F17E
:100650000D0606EB860605FA06F10843E062F0BDDA
:10066000816841F008018160704721B1826842F4DD
:10067000A002826003E0826822F4A00282607047D8
:10068000816841F0040181607047002101600171BF
:1006900041718160C16001210174704700210C200B
:1006A0000F4A9268C24002F0010211430D200C4A29
:1006B0009268C24002F0010241EA42010E20084A5B
:1006C0009268C24002F0010241EA82010F20044A0E
:1006D0009268C24002F0010241EAC2010846704736
:1006E000000C014010B5002302220C210A4800F042
:1006F00011FB002302220D21074800F00BFB002311
:1007000002220E21044800F005FB002302220F21E3
:10071000014800F0FFFA10BD000C01402DE9F04740
:100720000446204600F0ACF8054604F0A9FE8146D8
:10073000484604F0D9FC07460022054B04F0F2F8C5
:10074000054604F009F881464846BDE8F0870000F8
:10075000000059402DE9F0470020FFF7DFFF044675
:100760000120FFF7DBFF8146204604F0BDFC074671
:1007700000221F4B04F0D6F8054603F0EDFF0446B7
:10078000484604F0B1FC05460022194B04F0CAF8B3
:10079000074603F0E1FF81464FF0000A00212046A2
:1007A00004F09AFE04D30021484604F095FE02D2DC
:1007B000DFF840A019E04946204604F0C9FF07468B
:1007C00004F092FC21F00041054603F0C5FF82468B
:1007D000504604F089FC05460022074B04F064FBF8
:1007E00002D2DFF810A000E0A2465046BDE8F08734
:1007F00000005940000080BF0000E03F0146012991
:1008000002DD4FF0FF307047014830F83100FAE761
:10081000A00400200146012902DD4FF0FF3070479F
:10082000024800EBC1008088F9E70000A004002026
:100830000146012902DD4FF0FF307047014830F8D2
:100840001100FAE7180000200146012902DD4FF0EF
:10085000FF307047024800EBC1004088F9E7000014
:10086000A00400200146012902DD4FF0FF3070474F
:10087000024800EBC100C088F9E70000A004002096
:100880000146012902DD4FF0FF307047014830F882
:100890001100FAE7140000202DE9F04782460024F9
:1008A000FFF758FF81460021484604F015FE02D2AA
:1008B0004FF6FF740BE0484604F016FC0746002292
:1008C000044B04F0F3F9054604F084F9044620468D
:1008D000BDE8F087000059401CB501F085FA00F032
:1008E00037F900BF10214548FFF751FD0822434961
:1008F000C82000F07DF928B14048008810B13F4879
:10090000808808B902F05AFC03F082FC019000BF15
:100910004FF4FA7101A802F03DFE002414E0002516
:10092000002608E03649085D01F09EFA05440120E2
:1009300002F002FE761C142EF4DB1420B5FBF0F05E
:10094000304921F81400641C022CE8DB002452E03A
:100950002A4901EBC4018988284A32F83420881AD0
:1009600004F08EFD81460021484604F019FD01D1B6
:10097000002539E0214901EBC401C9881F4A02EB77
:10098000C4025288881A04F07BFD824649465046CC
:1009900004F044FC8046194931F8340004F088FD25
:1009A0008346414604F0CCFD0746144901EBC401DF
:1009B000488804F07DFD3946009004F0C9FE0646E3
:1009C000104931F8140004F073FD8346414604F0E9
:1009D000B7FD0746314604F0B3FB05460021284623
:1009E00004F07AFD00D20025284604F029FD0649CE
:1009F00021F81400641C022C8ADAA9E7A004002064
:100A000078580008180000201400002073B5044630
:100A1000012C01DD00207CBD0CB9C82000E0D020F5
:100A20000646022201A9304600F0F4F8054625B139
:100A3000BDF80400024921F834002846EBE7000025
:100A4000A004002073B50446012C01DD00207CBD0C
:100A50000CB9CC2000E0D4200646022201A9304681
:100A600000F0D8F805462DB1BDF80400024901EBAD
:100A7000C40188802846EAE7A004002073B5044634
:100A8000012C01DD00207CBD0CB9CA2000E0D22081
:100A90000646022201A9304600F0BCF805462DB1F9
:100AA000BDF80400024901EBC40148802846EAE78A
:100AB000A004002073B50446012C01DD00207CBD9C
:100AC0000CB9CE2000E0D6200646022201A930460D
:100AD00000F0A0F805462DB1BDF80410024800EB67
:100AE000C400C1802846EAE7A004002070B54AF29D
:100AF000010580EA010444F47F4440F0FF0604EA63
:100B0000060000220BE000F00103044600EBD4765F
:100B1000C6F34F0013B14AF201046040521C082A88
:100B2000F1D370BD00BFFFF7B9FD04460748007858
:100B3000844209D04FF4FA6002F0FEFCFFF7AEFDEC
:100B4000A04201D101490C70EDE700000000002037
:100B500010B5012002F070FF0349086001F062FA4D
:100B600001200249087010BD200000201C00002058
:100B70002DE9F04180460F4615461B48007808B91C
:100B8000FFF7E6FF4FF0FF311848006803F0E2F985
:100B9000012826D101F044FB404601F091F90646B8
:100BA0009EB101F03DFBA12001F0F0FA064666B1CE
:100BB000002408E001F08EFA3855681EA04201D0EA
:100BC00001F0F8F9641CAC42F4DB01F06FFB002388
:100BD0001A4619460548006802F0B6FF3046BDE8DF
:100BE000F0810020FBE700001C0000202000002016
:100BF0002DE9F04106460D4614462F464FF6FF708C
:100C000000EA440239463046FFF7B2FF80464046CC
:100C1000BDE8F0812DE9F04180460E4617461548A3
:100C2000007808B9FFF794FF0024611E124800689D
:100C300003F090F9012819D101F0F2FA404601F0D1
:100C40003FF90446002504E0705D01F09FFA044678
:100C50006D1CBD4201DA002CF6D101F027FB002308
:100C60001A4619460448006802F06EFF2046BDE8A7
:100C7000F08100001C0000202000002001461D48DB
:100C8000814204D11C488069C0F3800070471B4832
:100C9000814204D118488069C0F3C000F6E71848C3
:100CA000814204D114488069C0F30010EEE7154872
:100CB000814204D110488069C0F34010E6E7124831
:100CC000814204D10C488069C0F38010DEE70F48F0
:100CD000814204D108488069C0F3C010D6E70C48AF
:100CE000814204D104488069C0F30020CEE700208F
:100CF000CCE700000008014000100240000C014059
:100D0000001001400014014000180140001C014087
:100D1000002001402DE9F04105460C461746984653
:100D20000F2C02D90020BDE8F0812846FFF7A6FF6E
:100D300018B90121284600F029F8B8F1000F10D1A8
:100D4000022F05D1E8680121A1408843E86008E04E
:100D5000032F06D127F00107E8680121A1400843CD
:100D6000E860082C01D22E4601E0083C2E1D3068B8
:100D7000A2000F2191408843306048EA8700A1001B
:100D800088403168084330600120CCE7002945D015
:100D9000454A904206D1454A926942F00402434BCB
:100DA0009A6180E0424A904206D1404A926942F0FC
:100DB00008023E4B9A6176E03E4A904206D13B4A99
:100DC000926942F01002394B9A616CE03A4A9042C3
:100DD00006D1364A926942F02002344B9A6162E0B1
:100DE000364A904206D1314A926942F040022F4B76
:100DF0009A6158E0324A904206D12C4A926942F0F8
:100E000080022A4B9A614EE02E4A90424BD1274AEB
:100E1000926942F48072254B9A6144E0224A9042E2
:100E200006D1224A926922F00402204B9A613AE0EC
:100E30001F4A904206D11D4A926922F008021B4BBC
:100E40009A6130E01B4A904206D1184A926922F01A
:100E50001002164B9A6126E0174A904206D1134AB7
:100E6000926922F02002114B9A611CE0134A9042D1
:100E700006D10E4A926922F040020C4B9A6112E0B0
:100E80000F4A904206D1094A926922F08002074B2C
:100E90009A6108E00B4A904205D1044A926922F413
:100EA0008072024B9A6170470008014000100240B6
:100EB000000C0140001001400014014000180140E6
:100EC000001C0140002001400148007870470000EC
:100ED0000000002010B500F07FF9FFF703FC0020B0
:100EE0000149087010BD0000000000200B20064AD8
:100EF0009268C24002F001020AB9012000E000201D
:100F00000146084670470000000C01402DE9F04FF3
:100F100085B006468946B9F1000F01D1002000E0F6
:100F2000022004460021304604F0D6FA14D20120F3
:100F30008DF812008DF8110000208DF813000B20A1
:100F40008DF81000E0B204A900F050F8611CC8B29E
:100F500004A900F04BF83DE0304604F0C5F8074620
:100F60001E4A1F4B03F0A0FF00D21E4E304604F075
:100F70004BFA0546284604F083FA3146019004F006
:100F8000DCFB834604F0B0F807460022164B03F062
:100F90008DFECDE9020103F01DFE824600208DF892
:100FA000120001208DF811008DF81300E8B28DF8C1
:100FB0001000E0B204A900F019F800208DF8130029
:100FC0000AF0FF008DF81000611CC8B204A900F0FF
:100FD0000DF800BF05B0BDE8F08F0000CDCCCCCC43
:100FE000CCCC234066661E4100002440042805DA6C
:100FF00021B1034A02EB80020B68136070470000C6
:10100000B004002010B5022300220D211E48FFF776
:1010100081FE022300220E211B48FFF77BFE0223E4
:1010200000220F211848FFF775FE0D20002121B185
:1010300001228240144B1A6105E000F110020123E5
:101040009340114A136100BF0E20002121B10122FB
:1010500082400D4B1A6105E000F11002012393401C
:10106000094A136100BF0F20002121B101228240F3
:10107000054B1A6105E000F1100201239340024A7A
:10108000136100BF10BD000000100140F0B505461F
:1010900000260021084622E00027234901EB8001B9
:1010A000497821B1204901EB8001897851B11E496D
:1010B00001EB8001497859B11B4901EB8001897826
:1010C00031B12DB1184911F82010184A575C00E0D1
:1010D0000027C20007FA02F10E43411C084604280B
:1010E000DADB00241AE00F200122A24032400AB1CC
:1010F000012200E00022114601F0010222B101228A
:1011000082400B4B1A6105E000F11002012393406D
:10111000074A136100BF01F029F9641C202CE2DBAF
:1011200001F046F9F0BD0000B0040020FE010020EF
:101130000010014030B5072800DB30BD094C54F8E1
:10114000301004EBC004A28800231BB1012494409A
:101150000C6104E002F110040125A5400D6100BFFF
:1011600000BFEAE73C58000830B5072800DB30BD77
:10117000094C54F8301004EBC004A28801231BB1C1
:10118000012494400C6104E002F110040125A54003
:101190000D6100BF00BFEAE73C58000830B50021F0
:1011A000084613E00B4C54F8301004EBC004A2883E
:1011B00000231BB1012494400C6104E002F11004EF
:1011C0000125A5400D6100BF411C08460728E9DB49
:1011D00030BD00003C58000870B500241DE0104AE6
:1011E00002EBC40291880E4A52F834000223012215
:1011F000FFF790FD0A4B53F8340003EBC4039988C2
:1012000000221AB101238B40036104E001F11003B5
:1012100001259D40056100BF641C072CDFDB70BD0C
:101220003C58000802F000F801F0F2FF00F0EAF983
:1012300000201049088001F0DFFF00BF0020FFF709
:1012400079FF012002F078F90B4800780028F5D0EA
:101250000020FFF789FF094800F042F8044600200B
:101260000549087014B1204600F0D0F801F0C4FF21
:10127000E4E700000200002013000020A00200208C
:1012800010B501F0C5FF01200149087010BD000034
:101290001300002010B504460E480078C8B900219C
:1012A0000D4800F09EFA00210B4800F0AFFA012132
:1012B000094800F096FA09480078FA2801DB01F0A5
:1012C00077FF064801780078401C044A1070501CD3
:1012D000445410BD1300002000080040A00200206C
:1012E00070B505460DB9002070BD284601F02AF8FA
:1012F00008B90020F8E76C1CFFF7E6FD217888426A
:1013000001D00020F0E700266078032802D01028E2
:1013100010D107E02878001FC1B2A01C00F098F897
:1013200006460DE02878001FC1B2A01C00F0DBFCCF
:10133000064605E06078012101F0D4F8064600BFBA
:1013400000BF0EB10148CFE70020CDE79B0300208E
:1013500029B1064AD2690243044BDA6104E0034A28
:10136000D2698243014BDA617047000000100240ED
:1013700029B1064A92690243044B9A6104E0034A88
:1013800092698243014B9A6170470000001002404D
:101390002DE9F04107460D4615B90020BDE8F08162
:1013A000384600F0E7FD04465CB1606848B16088EB
:1013B000616888470646002E02DB2E800120EDE79B
:1013C00000BF0020EAE72DE9F04105460E46284619
:1013D00000F0D0FD044654B1A06838B16088A2681E
:1013E0003146904707463846BDE8F08100BF0020EF
:1013F000FAE730B50546284600F0BCFD04461CB1AE
:10140000A06808B1012030BD0020FCE770B504469B
:101410000D4601F0AFFC012002F08EF8002203E03F
:10142000A05C01F08DFD521CAA42F9DB00BF04480C
:10143000008800F040000028F9D001F089FC70BD60
:101440000038014001460148007870470400002040
:101450002DE9F043B3B00546894615B1B9F1040F43
:1014600003D0002033B0BDE8F0832C466088000A2A
:10147000A17840EA012060802088000A217840EAB3
:10148000012020806088642805DD0321084601F0E2
:1014900029F80120E6E70DF101070026B4F80080E5
:1014A0001AE007EB46014046FFF772FF28B9022118
:1014B000032001F017F80120D4E737F81600000ADE
:1014C00017F8161040EA012027F8160008F101006D
:1014D0001FFA80F8701CC6B2208861880844404515
:1014E000DFDCA0784006000E8DF80000FFF7ECFC72
:1014F0008046A078012101EB4000C3B26A46032177
:10150000404601F017F80120ACE7000070B5002458
:101510001DE0104A02EBC40291880E4A52F83400D2
:1015200002230122FFF7F6FB0A4B53F8340003EBCA
:10153000C403998801221AB101238B40036104E09E
:1015400001F1100301259D40056100BF641C022CC0
:10155000DFDB70BD9858000810B50F4B18689988EC
:1015600001221AB101238B40036104E001F1100351
:1015700001249C40046100BF074B986899890122AF
:101580001AB101238B40036104E001F1100301242F
:101590009C40046100BF10BD9858000830B5012878
:1015A00000DD30BD094C54F8301004EBC004A288B3
:1015B00001231BB1012494400C6104E002F11004EA
:1015C0000125A5400D6100BF00BFEAE7985800085B
:1015D00030B5012800DD30BD094C54F8301004EB63
:1015E000C004A28800231BB1012494400C6104E0D4
:1015F00002F110040125A5400D6100BF00BFEAE71C
:101600009858000810B50223002208212F48FFF740
:1016100081FB0820002121B1012282402B4B1A615D
:1016200005E000F1100201239340284A136100BF36
:101630002748806940F480402549886140F2413064
:1016400024490880081D008842F22C0108432149E2
:10165000091D08801E48806940F005001C4988610A
:101660001A48001D006820F0C0001849091D0860D4
:101670000846006840F0800008600846006840F0B6
:10168000100008600846006820F4406008600846C2
:10169000006840F4806008600846006820F44070EC
:1016A0000860252000280DDB00BF00BF00F01F02EE
:1016B000012191404209920002F1E022C2F800119A
:1016C00000BF00BF00BF62B610BD000000080140AF
:1016D00000100240083801407047000001490860CE
:1016E000704700000C00002010B504460D4804703F
:1016F000FFF754FD0B480078012804D0022803D0DE
:1017000003280DD106E00BE0FFF726FF0520FFF7C9
:101710002BFD05E0FFF720FF0620FFF725FD00BFAA
:1017200000BF10BD0400002010B500BFA02080F352
:101730001188BFF34F8FBFF36F8F00BF02F06EFDB4
:1017400018B14FF080500449086000BF002080F3BA
:10175000118800BF10BD000004ED00E010B5164870
:10176000006840F0010014490860084640681349C9
:1017700008401149486008460068114908400E4970
:1017800008600846006820F4802008600846406829
:1017900020F4FE0048600846006820F0A050086071
:1017A0004FF47F0088600020C862FFF795FF4FF07C
:1017B00000600449086010BD001002400000FFF006
:1017C000FFFFF6FE08ED00E010B50121024800F031
:1017D00005F8FFF755FD10BD00080040CA4302821E
:1017E000704721B1028842F00102028004E00288C1
:1017F0004FF6FE731A40028070471AB183890B437B
:10180000838102E083898B438381704781847047A1
:10181000002202881D4B98420ED01D4B98420BD0DF
:10182000B0F1804F08D01B4B984205D01A4B98421C
:1018300002D01A4B984204D14FF68F731A404B884E
:101840001A43174B984207D0164B984204D04FF6D4
:10185000FF431A40CB881A4302808B8883850B880C
:1018600003850A4B98420BD0094B984208D00E4B87
:10187000984205D00D4B984202D00D4B984201D1B1
:101880000B7A03860123838270470000002C0140FD
:10189000003401400004004000080040000C0040FB
:1018A000001000400014004000400140004401408E
:1018B000004801404FF6FF71818000210180C18006
:1018C000418001727047000000BF00BF00BF0027C9
:1018D000B84600240025A246A34600230322042183
:1018E0002848FFF717FA0023032205212548FFF7B0
:1018F00011FA00BF00F06AFA814600F059FA064674
:10190000B9F1000F0DD157B1BAF1000F05D1B4F5FF
:10191000FA7F02DA01201C4908704FF0000A002407
:101920000CE05FB11934B4F5FA6F07DDB5F5FA6F65
:1019300004DD012015490870824683467EB9B8F15E
:10194000000F0AD0BBF1000F05D1B5F5FA7F02DA1E
:1019500001200F4908704FF0000B00250EE0B8F190
:10196000000F0BD01935B4F5FA6F07DDB5F5FA6F36
:1019700004DD01200549087082468346192001F0E4
:10198000DBFDB7E70010014010000020120000202E
:101990001100002008B50125FFF734FB08208DF861
:1019A000000001208DF8030000208DF802000120C6
:1019B0008DF80100002404E0E0B26946FFF716FB51
:1019C000641C042CF8DB0120FFF760FB4FF4FA7075
:1019D00001F0B2FD0B208DF8000000208DF803000F
:1019E000002404E0E0B26946FFF700FB641C042C0D
:1019F000F8DB0120FFF74AFB4FF4FA7001F09CFD81
:101A000000BF2846FFF742FB85F001054FF4FA704E
:101A100001F092FDF5E7000008B5FFF777FD00BF84
:101A200000BF00BF002500240026A14602F0F0FB05
:101A3000009000BF3221684601F0ACFD0020FFF7A6
:101A400001FD01280AD00220FFF774FB0120FFF7F7
:101A500071FB0026B14600250024EBE7FFF746FAAC
:101A600020B10220FFF766FB002604E03235B5F511
:101A7000FA6F00D90126FEF76DFE2A4908600021A1
:101A80002848006803F028FD02D24FF0010901E068
:101A90004FF00009002123480068FFF737FA0121C1
:101AA00021480068FFF732FA6EBBB9F1000F2AD166
:101AB0000120FFF759FB0220FFF73CFB0320FFF753
:101AC00039FB1A4801F028FB1748016815480068DF
:101AD00003F03EFE824603F007FB21F0004107467B
:101AE0000022134B03F0E0F908D23234114884424B
:101AF00016D900240420FFF737FB11E000BF0420B3
:101B0000FFF718FB0CE00120FFF714FBB9F1000F01
:101B100002D00320FFF728FB16B10220FFF724FBB9
:101B200088E70000080000200C000020CDCC4C3DD0
:101B30000000E03FC0D401000020524908804FF46B
:101B40007A7001F0F9FC0120FFF7CEFD00BF3220D2
:101B500001F0F2FC4C480078012804D002285AD049
:101B6000032876D187E04948007850B100204749E2
:101B7000087047490870474908700220FFF7B4FD14
:101B800048E04348007808B30020414908704248C3
:101B9000006803F0A9FA0646404A414B02F00EFEE7
:101BA000044600223F4B03F045F833D23A48006820
:101BB00003F09AFA0646394A394B02F0FFFD044613
:101BC00002F0CAFD8246FFF789FD23E03148007824
:101BD00000B300202F4908702F48006803F084FAF2
:101BE00006462E4A2E4B03F095F904460022134672
:101BF00003F05AF90ED22848006803F075FA064639
:101C0000264A274B03F086F9044602F0A5FD8246DA
:101C1000FFF764FD34E00020FEF780FD80460120E0
:101C2000FEF77CFD814600214046FFF76FF9012158
:101C30004846FFF76BF91548007858B10020134962
:101C4000087013490870134908700320FFF74CFD12
:101C500010E011E00E48007810B90E48007848B145
:101C600000200A4908700A4908700A4908700120D2
:101C7000FFF73AFD04E003E00120FFF735FD00BF68
:101C800065E7000002000020040000201200002090
:101C900010000020110000200C0000209A99999952
:101CA0009999B93F0000244010B50B48008840F2D4
:101CB0002551084078B10848008800F0070038B97D
:101CC000054800F00BF8C4B22046FFF7E3FA02E043
:101CD000014800F003F810BD003801400146888833
:101CE000C0F3080070472DE9F8430546884615B152
:101CF000B8F1070F02D20020BDE8F8832C466088B7
:101D0000000AA17840EA012060802088000A21783A
:101D100040EA012020806188642906DC207900EBFC
:101D2000D07149106288914205D00321102000F043
:101D3000D9FB0120E0E700260CE02188314488B27D
:101D4000FFF757FB28B90321102000F0CBFB01203F
:101D5000D2E7761C6088B042EFDC671D00260CE0FD
:101D600037F81620120A17F8163042EA03212288A3
:101D7000324490B2FFF727FB761C6088B042EFDC5C
:101D80002088000A217840EA0120ADF80000608830
:101D9000000AA17840EA0120ADF80200FFF794F8AC
:101DA000064604236A46102100F0C4FB0120A3E785
:101DB000052005498968C14001F0010109B90120E8
:101DC00070470020FCE70000001001400420054996
:101DD0008968C14001F0010109B901207047002064
:101DE000FCE700000010014000B585B00121480269
:101DF000FFF7BEFA6846FEF748FC002000908DF819
:101E000004008DF805004FF460200290002003903C
:101E100001208DF8100069461148FEF79DFB012155
:101E20000F48FEF76CFB0523012200210C48FEF74A
:101E3000BBFB0B48FEF714FC00BF0948FEF781FB13
:101E40000028FAD10648FEF71BFC00BF0448FEF745
:101E500061FB0028FAD103490880488005B000BD25
:101E6000002401401400002010B50446052301227F
:101E700021460948FEF798FB01210748FEF7F5FBCC
:101E800000BF02210448FEF753FB0028F9D00248A6
:101E9000FEF74AFB10BD000000240140F0B50546E6
:101EA0000E464FF6FF77002406E0295DB8B2FEF734
:101EB0001DFE0746601CC4B2B442F6DBB8B2F0BDEA
:101EC00031B5A02000F062F9044654B16D4668783F
:101ED00000F05CF904461CB1287800F057F904467C
:101EE00000BF204638BD00002DE9FE4F06460F46D4
:101EF00015464FF00008DFF870B0584602904FF0DA
:101F00007A5001903946304603F01AFB8246174852
:101F10000168504603F014F9044614480460594619
:101F2000204603F00DFB044629461148006803F0E3
:101F30000FFC3946009003F071F98246594603F0D0
:101F4000FFFA81462146304603F0FAF849460090F0
:101F500003F0F6F882464FF07A5103F0F1FA80462A
:101F60004046BDE8FE8F00000AD7A33B0C020020CC
:101F700008000020F0B5014600254FF4DE720C2366
:101F800092FBF3F084B200200CE000EB4006084F17
:101F900037F826608E4204D100EB400607EB860539
:101FA00002E0401CA042F0DB00BF2846F0BD00006C
:101FB0004200002010B50223012207211848FEF735
:101FC000A9FE0720002121B101228240144B1A6191
:101FD00005E000F1100201239340114A136100BF94
:101FE0000620012121B1012282400D4B1A6105E03A
:101FF00000F1100201239340094A136100BF06203B
:10200000002121B101228240054B1A6105E000F157
:10201000100201239340024A136100BF10BD00006B
:10202000000C014010B50223012206211348FEF7DF
:1020300071FE0023012207211048FEF76BFE0620E7
:10204000012121B1012282400C4B1A6105E000F10F
:10205000100201239340094A136100BF07200121A8
:1020600021B101228240054B1A6105E000F1100206
:1020700001239340014A136100BF10BD000C0140D1
:1020800010B50621012222B101238B40104C23619F
:1020900005E001F1100301249C400D4B1C6100BFC1
:1020A00007210B4A9268CA4002F0010000BF0621D6
:1020B000002222B101238B40054C236105E001F190
:1020C000100301249C40024B1C6100BF10BD0000A6
:1020D000000C014070B500260023012207210848AA
:1020E000FEF718FE072507E0FFF7CAFF044604FACB
:1020F00005F03043C6B26D1E002DF5DA304670BDD6
:10210000000C014010B502467AB90720002121B128
:10211000012383401C4C236105E000F110030124DE
:102120009C40194B1C6100BF0FE00720012121B129
:1021300001238340144C236105E000F110030124C6
:102140009C40114B1C6100BF00BF0620012121B142
:10215000012383400C4C236105E000F110030124AE
:102160009C40094B1C6100BF0620002121B10123C6
:102170008340054C236105E000F1100301249C40DD
:10218000014B1C6100BF10BD000C014070B505463D
:1021900000260223012207212048FEF7BBFD072469
:1021A0000BE00121A1402940002901DD012100E0CF
:1021B00000210846FFF7A6FF641E002CF1DA002379
:1021C000012207211548FEF7A5FD0620012121B1B6
:1021D00001228240114B1A6105E000F11002012337
:1021E00093400E4A136100BF07200C498968C14023
:1021F00001F0010101B901260620002121B10122CF
:102200008240064B1A6105E000F110020123934061
:10221000024A136100BF304670BD0000000C01404F
:1022200010B50223012207211F48FEF773FD072086
:10223000012121B1012282401B4B1A6105E000F10E
:10224000100201239340184A136100BF06200121A8
:1022500021B101228240144B1A6105E000F1100205
:1022600001239340104A136100BF0720002121B1D0
:10227000012282400C4B1A6105E000F1100201239B
:102280009340094A136100BF0620002121B10122B9
:102290008240054B1A6105E000F1100201239340D2
:1022A000014A136100BF10BD000C014010B50720AA
:1022B000002121B101228240214B1A6105E000F189
:1022C0001002012393401E4A136100BF0620002123
:1022D00021B1012282401A4B1A6105E000F110027F
:1022E00001239340164A136100BF022301220721F4
:1022F0001348FEF70FFD0620012121B10122824083
:102300000F4B1A6105E000F11002012393400C4AC3
:10231000136100BF0720012121B101228240084B37
:102320001A6105E000F1100201239340044A136191
:1023300000BF0023012207210148FEF7EBFC10BD7E
:10234000000C014070B504462078801E611C0D5AB7
:102350002078801EC1B2601CFFF7A0FD0646B54282
:1023600001D1012070BD0020FCE700000D200121FB
:1023700021B1012282400D4B1A6105E000F11002EB
:1023800001239340094A136100BF0D20002121B1B0
:1023900001228240054B1A6105E000F11002012381
:1023A0009340024A136100BF7047000000100140D3
:1023B0000E20012121B1012282400D4B1A6105E05E
:1023C00000F1100201239340094A136100BF0E205F
:1023D000002121B101228240054B1A6105E000F184
:1023E000100201239340024A136100BF70470000AE
:1023F000001001401CB5FEF76DFD002001210346D1
:102400000A02CDE9001022A1234801F0C1FE0020FC
:10241000012103460A02CDE9001020A1214801F064
:10242000B7FE0020022103468A02CDE900101EA15A
:102430001F4801F0ADFE0020012103460A02CDE94C
:1024400000101CA11D4801F0A3FE0020012103463D
:102450000A02CDE900101AA11C4801F099FE0020E3
:10246000012103460A02CDE9001019A1194801F023
:102470008FFE0020012103460A02CDE9001016A1BB
:10248000174801F085FE01F0AFF900201CBD0000E7
:102490004144445245535300250B0008414E414CE2
:1024A0004F470000D90800084D6F64627573000043
:1024B000251200084C65647344696700951900088B
:1024C000526567756C61746F72000000191A00081C
:1024D00042544E00C9180008574F524B00000000EC
:1024E000391B00087CB504460D46FEF7EDFC8DF85F
:1024F000000004F03F0040F080008DF801008DF8EE
:10250000025003216846FFF7C9FCADF80300FB2128
:102510000748FDF73CFF06480099C0F801109DF8F8
:102520000410417105200249087001207CBD0000A3
:102530009B0300202DE9F0478046894616461C463D
:10254000002C02DD0EB9BDE8F087F52C00D9FAE7C2
:10255000FB211548FDF71BFF134D6D1C85F800800E
:1025600085F801905CB14FF0000A06E02246314642
:10257000A81CFDF7C7FE0AF1010AA245F6DBA01C64
:102580000949087008460178401CFFF787FC074698
:1025900005490A78491C8F52481E0078801C491E44
:1025A000087000BFCFE700009B0300202DE9F04139
:1025B00005460F461748066817480068001D00F0DA
:1025C00061FE50B91448006890F82C100120884032
:1025D0001249096881431148016074190E48006866
:1025E0004460B44207D20C480168091D0C480068D9
:1025F00000F06CFE0CE008480168091D09480068FD
:1026000000F064FE08480068844201D20648046075
:10261000BDE8F0816402002054020020680200201E
:102620005C020020580200208002002010B5044601
:1026300000F072FE23480068401C224908602248CE
:10264000006840B9204804600846006801280DD1A0
:1026500000F0AEF90AE01D48006838B91A48006871
:10266000C06AE16A884201D81748046018480068C7
:10267000401C1749086094F82C1001208840154927
:102680000968084313490860E16A01EB8101124AB5
:1026900002EB8100211D00F033FE00F067FE0B48C5
:1026A000006868B108480068C06AE16A884207D2D9
:1026B0004FF0805009490860BFF34F8FBFF36F8F11
:1026C00010BD000060020020540200206C020020B7
:1026D0007C02002068020020C04C002004ED00E0D5
:1026E00010B500F019FE0C48006890B90B4800F0D6
:1026F000DDFD0B4800F0DAFD08480A49086008488B
:102700000949086000220C21052001F0A6F90249C0
:10271000086000F02BFE10BD94020020604D0020E8
:10272000744D00208C02002090020020704770B58C
:1027300004460D46206C70B1216CE0680144E160F4
:10274000D4E90210884201D32168E1602846226C56
:10275000E168FDF7D7FD70BD2DE9F04104460F4655
:1027600015464FF00008A66B206C48B92068002879
:102770002CD1A06801F0F6FD80460020A06025E085
:102780007DB93946226C6068FDF7BCFD216C60683C
:1027900008446060D4E90101884217D32068606072
:1027A00014E03946226CE068FDF7ACFD216CE0686E
:1027B000411AE1602168E068884203D2216CA06878
:1027C000411AE160022D01D106B1761E701CA06392
:1027D0004046BDE8F08101464A6A22B10A6B1268A0
:1027E000C2F1050000E00020704700000146084AE1
:1027F000126812680AB9012200E000220A600A6821
:1028000022B9034A1268D268106800E000207047BD
:102810008C02002030B54FF49043174800F00704B5
:102820002CB1C01D20F00700134C041B1B1B0246DB
:10283000124C22600024114D6C60D018083820F032
:1028400007000F4C206000240D4D2D686C600C4D6E
:102850002D682C601146441A4C60094C24680C60A9
:10286000084D4C682C60084D4C682C604FF00044BB
:10287000064D2C6030BD0000C0040020280200205E
:1028800030020020380200203402002044020020E0
:1028900000BFFFF74BFF064800680128F9D94FF049
:1028A000805004490860BFF34F8FBFF36F8FF0E78C
:1028B000C04C002004ED00E010B5044654B10020E7
:1028C000A06020600021E16000231A4619462046DE
:1028D00001F03AF910BD2DE9F04106460D461746C4
:1028E0009846069C0DB9246000E02760E6632564E5
:1028F0000121204601F0DCF8BDE8F0812DE9FF5F01
:1029000081460E469246DDE90E7B109CAAF101003D
:10291000216B01EB800828F0070808F0070008B9D0
:10292000012000E0002050B900BFA02080F31188F2
:10293000BFF34F8FBFF36F8F00BF00BFFEE786B1BD
:10294000002507E0715D04F134004155705D00B968
:1029500002E06D1C0A2DF5D300BF00213D2001557A
:1029600002E0002084F83400052F00D30427E7623A
:10297000276400206064201D00F0A5FC04F118000D
:1029800000F0A1FC2461C7F10500A0616462002091
:10299000A06484F84C0049464046039A00F094FB3A
:1029A0002060BBF1000F01D0CBF80040BDE8FF9FD5
:1029B00010B5002407E004EB84010C4A02EB81000F
:1029C00000F074FC641C052CF5D3094800F06EFC83
:1029D000084800F06BFC084800F068FC0448074910
:1029E000086004480649086010BD0000C04C002083
:1029F000244D0020384D00204C4D0020580200206E
:102A00005C02002010B50146164800E0006803682B
:102A10008B42FBD30246436813448B4204D1436884
:102A20004C682344436001460A464B6813440468DB
:102A3000A34211D10C4C03682468A34208D04B6810
:102A40000468646823444B6003681B680B6005E0FE
:102A5000054B1B680B6001E003680B60884200D0E7
:102A6000016010BD28020020300200202DE9F04155
:102A700004460D4616461F464FF000086560246167
:102A8000B5420CD8F01BA169884202D34FF001086F
:102A900011E0211D0948006800F018FC0BE0BE425F
:102AA00004D2BD4202D34FF0010804E0211D0448C6
:102AB000006800F00BFC4046BDE8F0819002002069
:102AC0008C02002070B5054600F026FCA86B08B902
:102AD000012400E0002400F049FC204670BD70B5E0
:102AE000054600F019FCA86BE96B884201D101246E
:102AF00000E0002400F03AFC204670BDF8B5054621
:102B00000F461A480068C068C468201D00F0BAFB70
:102B100094F8240000F00400E8B1A06941192B46A4
:102B20003A462046FFF7A2FFD8B1002003462A46C6
:102B300001460090204601F0CDFD064656B900BF83
:102B4000A02080F31188BFF34F8FBFF36F8F00BFBA
:102B500000BFFEE705E094F8240020F0010084F8AF
:102B600024002046216A8847F8BD00008C0200201E
:102B700070B586B08BE003980028FBDB059C60698C
:102B800008B9012000E0002010B9201D00F07AFBF8
:102B900002A800F001F9054603980A2875D2DFE87B
:102BA00000F009050739416306083A4200BF00BF3B
:102BB00000BF00BF94F8240040F0010084F8240016
:102BC0000498A269811803462A462046FFF74EFF63
:102BD000F8B12046216A884794F8240000F00400E8
:102BE000B8B1002000900498A1694218002319464A
:102BF000204601F06FFD064656B900BFA02080F3C5
:102C00001188BFF34F8FBFF36F8F00BF00BFFEE788
:102C100000BF3BE000BF94F8240020F0010084F8DE
:102C2000240033E000BF94F8240040F0010084F851
:102C300024000498A061A06908B1012000E00020F0
:102C400050B900BFA02080F31188BFF34F8FBFF3AE
:102C50006F8F00BF00BFFEE7A06941192B462A46CF
:102C60002046FFF703FF11E094F8240000F0020073
:102C700018B9204600F098FB05E094F8240020F0F5
:102C8000010084F8240001E0FFE700BF00BF00223C
:102C900003A90448006801F0A9F800287FF46BAF8D
:102CA00006B070BD94020020F8B505460C4600F051
:102CB000E5FD684600F070F80646009820BB44B970
:102CC000B54206D801F05AFC31462846FFF716FFF8
:102CD0001CE03CB10E480068006808B9012000E023
:102CE00000200446A91B22460A48006800F0FEFBAB
:102CF00001F044FC50B94FF0805007490860BFF321
:102D00004F8FBFF36F8F01E001F038FCF8BD00007A
:102D1000900200209402002004ED00E00A490968B6
:102D2000096809B9012100E0002121B14FF0FF310C
:102D3000064A116006E004490968C968C868034A80
:102D40004168116070470000580200208002002096
:102D50000820002121B101228240054B1A6105E0C3
:102D600000F1100201239340014A136100BF704734
:102D7000000801400820012121B101228240054BB9
:102D80001A6105E000F1100201239340014A13612A
:102D900000BF70470008014070B5044601F038FAE2
:102DA000054607480068854204D200F00BF8012070
:102DB000206001E00020206001480560284670BDC9
:102DC0009C0200202DE9F84334E025480068C068E3
:102DD000056823480068C068C468201D00F052FAE6
:102DE0002046216A884794F8240000F0040008B3C4
:102DF000A0694619AE4207D966602461211D1848B2
:102E0000006800F063FA15E0002003462A460146F8
:102E10000090204601F05EFC074657B900BFA02095
:102E200080F31188BFF34F8FBFF36F8F00BF00BFD8
:102E3000FEE700BF0A480068006808B9012000E00A
:102E400000200028C1D00648D0F80080054800685E
:102E5000034908600348C0F80080BDE8F88300001B
:102E60008C020020900200200E480068401C08B927
:102E7000012000E0002050B900BFA02080F311889D
:102E8000BFF34F8FBFF36F8F00BF00BFFEE700BFE0
:102E9000A02080F31188BFF34F8FBFF36F8F00BF67
:102EA00000BFFEE74802002008B500BF6846FFF7F4
:102EB0009DFC044620460099FFF7F6FEFFF758FEFA
:102EC000F4E770B5044600F027FA94F9455010E095
:102ED000606A08B9012000E0002038B904F124003C
:102EE00001F000FB18B100F0CBFB00E003E0681E2E
:102EF00045B2002DECDC00BFFF2084F8450000F057
:102F000035FA00F009FA94F9445010E0206908B944
:102F1000012000E0002048B904F1100001F0E2FABD
:102F200008B100F0ADFB681E45B200E001E0002DE5
:102F3000ECDC00BFFF2084F8440000F017FA70BDFD
:102F400000BF0549098801F080010029F9D0024934
:102F5000091D088070470000003801402DE9F0414C
:102F600004464FF0000800F089FC4948006808B9A1
:102F7000FFF750FC474800682040002870D1D4B1CA
:102F8000083404F00700B0B104F00700C0F10800F5
:102F9000044404F0070008B9012000E0002050B903
:102FA00000BFA02080F31188BFF34F8FBFF36F8F56
:102FB00000BF00BFFEE7002C52D0374800688442B3
:102FC0004ED8364E3046056801E02E462D686868BA
:102FD000A04202D228680028F7D12D480068854217
:102FE0003ED0306800F10808286830606868001B2F
:102FF000102819D92F1907F0070008B9012000E09F
:10300000002050B900BFA02080F31188BFF34F8F7C
:10301000BFF36F8F00BF00BFFEE76868001B7860DA
:103020006C603846FFF7EEFC1B4968680968081AAF
:10303000194908600846006819490968884203D29E
:10304000154800681649086012496868096808430D
:1030500068600020286013480068401C114908601F
:1030600001F08CFA08F0070008B9012000E0002008
:1030700050B900BFA02080F31188BFF34F8FBFF37A
:103080006F8F00BF00BFFEE74046BDE8F081000043
:1030900030020020440200203402002028020020D8
:1030A000380200203C0200200648006830B1054983
:1030B000096801F14400496C491C0160014800683D
:1030C0007047000054020020001F4FF0807303601F
:1030D000001F21F001030360001F034B036014383D
:1030E0000260203870470000692E0008014602483F
:1030F00030F811007047000084580008014602486B
:1031000030F811007047000084580008014601485B
:1031100000887047020000202DE9F04104461E4857
:1031200001681E48006802F013FB8046404601F02B
:10313000DBFF05461A4A1B4B01F07CFD08D34046D5
:1031400001F0D2FF0546164A174B01F0ADFE03D23F
:10315000FEF702FABDE8F0811448214602684046B5
:10316000FEF7C2FE07460C480068104908600021BF
:10317000384602F0B1FA06D20020FEF729FA012003
:10318000FEF70CFA05E00020FEF708FA0120FEF732
:103190001FFA00BFDEE70000080000200C0000203E
:1031A0009A9999999999B93F9999B9BF10020020B4
:1031B0000020014908707047A002002010B50020CF
:1031C0000CE00A4901EBC001094A12680A6007498C
:1031D00001EBC001074A12684A60401C0228F0DB7C
:1031E00010220249C820FDF715FD10BDA0040020E3
:1031F0007C5800088058000810B500F009F8FFF767
:10320000D7FF00200149087010BD00001300002006
:1032100010B500210348FEF7E4FA00210148FEF74B
:10322000F5FA10BD0008004010B501210420FEF79A
:103230008FF81248FEF73EFB4FF4FA500F49088012
:10324000032088800E48FEF7E3FA012211460C485D
:10325000FEF7D3FA1E2000280DDB00BF00BF00F0F0
:103260001F02012191404209920002F1E022C2F8BE
:10327000001100BF00BF00BF10BD00009604002079
:103280000008004001460A69D1E901309860D1E99F
:10329000010358605068884201D18868506000205E
:1032A00008611068401E10601068704700F1080146
:1032B00041604FF0FF31816000F10801C1600161A0
:1032C00000210160704700210161704710B502467E
:1032D0000B685C1C0CB9106907E002F1080000E003
:1032E0004068446824689C42FAD944684C604C6841
:1032F000A160886041600A611468641C146010BD9C
:1033000042684A6093688B60936859609160086175
:1033100003685B1C0360704700BFA02080F3118826
:10332000BFF34F8FBFF36F8F00BF0E480068401C84
:103330000C49086008460068012812D10A48006854
:10334000C0B208B9012000E0002050B900BFA020A1
:1033500080F31188BFF34F8FBFF36F8F00BF00BFA3
:10336000FEE770474802002004ED00E00D480068C9
:1033700050B900BFA02080F31188BFF34F8FBFF377
:103380006F8F00BF00BFFEE706480068401E05497A
:1033900008600846006820B9002080F3118800BF4B
:1033A00000BF70474802002070B506463546002E23
:1033B00044D0083D2C46224960680968084008B19D
:1033C000012000E0002050B900BFA02080F3118848
:1033D000BFF34F8FBFF36F8F00BF00BFFEE72068C2
:1033E00008B9012000E0002050B900BFA02080F300
:1033F0001188BFF34F8FBFF36F8F00BF00BFFEE791
:103400000F49606809680840C0B12068B0B90C492C
:10341000606809688843606000F030FA09496068B4
:1034200009680844074908602046FFF7EBFA064898
:103430000068401C0449086001F0A0F870BD00005D
:1034400044020020340200204002002000204FF0FF
:10345000E02108618861064800684FF47A71B0FB8A
:10346000F1F0401E4FF0E0214861072008617047ED
:103470001402002070B5FCF721FF0446102C16D36F
:1034800004F1E02090F8F05315480078854201DB04
:10349000012000E0002050B900BFA02080F3118877
:1034A000BFF34F8FBFF36F8F00BF00BFFEE70D4824
:1034B000006800F4E0600C490968884201D80120E6
:1034C00000E0002050B900BFA02080F31188BFF3B6
:1034D0004F8FBFF36F8F00BF00BFFEE770BD0000CE
:1034E0004C0200200CED00E0500200202DE9F041DC
:1034F00005460E4617462C46FFF70EFF94F944008A
:10350000401C10B9002084F8440094F94500401C88
:1035100010B9002084F84500FFF728FFA06B28B9F8
:103520003A46314604F1240000F0CCF82046FFF77B
:10353000C8FCBDE8F081000070B504460025D4B198
:103540001248006808B9012000E0002050B900BF0F
:10355000A02080F31188BFF34F8FBFF36F8F00BFA0
:1035600000BFFEE700F08AF900212046FFF71EF8B1
:1035700001F004F805463DB94FF080500449086059
:10358000BFF34F8FBFF36F8F70BD00008802002024
:1035900004ED00E02DE9F04704460F464FF0000926
:1035A00054B900BFA02080F31188BFF34F8FBFF341
:1035B0006F8F00BF00BFFEE70FB1012000E00020C9
:1035C00050B900BFA02080F31188BFF34F8FBFF325
:1035D0006F8F00BF00BFFEE72048006808B90120D8
:1035E00000E0002050B900BFA02080F31188BFF395
:1035F0004F8FBFF36F8F00BF00BFFEE700F03EF9B3
:10360000174806682068C5192068B04207D92068A5
:10361000A8420BD9B54209D94FF0010906E020684C
:10362000A84201D8B54201D94FF001092560B9F18E
:10363000000F03D0A81B0021FEF7B8FF00F09EFF8B
:103640008046B8F1000F07D14FF08050054908605F
:10365000BFF34F8FBFF36F8FBDE8F0878802002064
:103660006402002004ED00E0034909680160034999
:103670000968416070470000780200206402002061
:1036800001200149086070477402002070B50446AB
:103690000D4654B900BFA02080F31188BFF34F8FAF
:1036A000BFF36F8F00BF00BFFEE705480168183108
:1036B0002046FFF70BFE01212846FEF777FF70BD7D
:1036C0005402002070B505460E46144655B900BF99
:1036D000A02080F31188BFF34F8FBFF36F8F00BF1F
:1036E00000BFFEE70648016818312846FFF708FECC
:1036F0000CB14FF0FF3621463046FEF757FF70BD44
:10370000540200202DE9F04706460F4634464FF09C
:103710000109002E60D0606C50B900BFA02080F37A
:103720001188BFF34F8FBFF36F8F00BF00BFFEE75D
:10373000206CB84201D23D4600E0256CE06AA84208
:103740004AD0606C012847D124480068844201D0E7
:10375000012000E0002050B900BFA02080F31188B4
:10376000BFF34F8FBFF36F8F00BF00BFFEE7D4F8EA
:103770002C80E562A06900F0004010B9C5F1050099
:10378000A06108EB8801164A02EB8101606988425A
:1037900001D1012000E00020F0B1201DFFF772FDF3
:1037A00040B994F82C10012088400E4909688143E3
:1037B0000C48016094F82C100120884009490968E0
:1037C000084308490860E16A01EB8101044A02EB01
:1037D0008100211DFFF794FDBDE8F0875402002011
:1037E000C04C0020680200201CB51D4800210B467B
:1037F0004FF48072CDE900101AA11C4800F0C8FCFB
:103800000446012C02D100F03BFF0446012C15D1E7
:1038100000BFA02080F31188BFF34F8FBFF36F8FDD
:1038200000BF4FF0FF3012490860012011490860C5
:1038300000201149086000F083F810E0601C08B116
:10384000012000E0002050B900BFA02080F31188C3
:10385000BFF34F8FBFF36F8F00BF00BFFEE71CBDEC
:103860008402002049444C450000000091280008D3
:10387000800200206C0200206402002002480068E0
:10388000401C014908607047880200201D480068FC
:1038900018B101201C49086032E000201A49086074
:1038A0001A480068B0FA80F0C0F11F0101EB8100F6
:1038B000174A52F8200008B1012000E0002050B95A
:1038C00000BFA02080F31188BFF34F8FBFF36F8F2D
:1038D00000BF00BFFEE701EB81020D4B03EB82004E
:1038E00042685268426000F108024368934202D184
:1038F0004268526842604268D268064B1A6000BF54
:103900007047000088020020740200206802002036
:10391000C04C00205402002002460E2A01DD002087
:103920007047024820F812100120F9E72400002017
:10393000024602480180012070470000020000207A
:103940001CB53849084600780190FF200A461070DF
:103950000846007800909DF8000000F47F609DF814
:103960000020904201D1012000E0002050B900BFAA
:10397000A02080F31188BFF34F8FBFF36F8F00BF7C
:1039800000BFFEE79DF8000000F0A000264A10707E
:103990000720264A106009E024480068401E234A98
:1039A00010609DF800004006000E00909DF8000099
:1039B00000F080008028EFD01C480068C0F10700AC
:1039C000042801D1012000E0002050B900BFA02050
:1039D00080F31188BFF34F8FBFF36F8F00BF00BF1D
:1039E000FEE7124800680002104A10601046008886
:1039F00000F4E06010600B4A019810700C480068F9
:103A000040F07F600A4908600846006840F0704056
:103A10000860FFF71BFD002006490860FCF718FC52
:103A200000201CBD00E400E04C02002050020020F9
:103A300020ED00E0480200202DE9F0410446012677
:103A4000002722460021012000F007F805462846FD
:103A5000FEF732FF2846BDE8F0812DE9F843054620
:103A60000E4617460DB1012000E0002050B900BFFE
:103A7000A02080F31188BFF34F8FBFF36F8F00BF7B
:103A800000BFFEE705FB06F808F14800FFF766FAFD
:103A900004464CB1A14609F148093B464A46314625
:103AA00028460094FEF717FF2046BDE8F883000083
:103AB00070B505460E462C4654B900BFA02080F3D1
:103AC0001188BFF34F8FBFF36F8F00BF00BFFEE7BA
:103AD000FFF722FCD4E90F12206801FB0200A0606E
:103AE0000020A06320686060E06B401E226C2168AB
:103AF00000FB0211E160FF2084F8440084F84500D7
:103B00009EB9206908B9012000E00020A8B904F19D
:103B1000100000F0E7FC80B14FF0805009490860C8
:103B2000BFF34F8FBFF36F8F07E004F11000FFF773
:103B3000BDFB04F12400FFF7B9FBFFF717FC0120E0
:103B400070BD000004ED00E02DE9FF4383B00646A0
:103B500088461D464FF00009344654B900BFA020E6
:103B600080F31188BFF34F8FBFF36F8F00BF00BF8B
:103B7000FEE7B8F1000F01D1206C08B9012000E088
:103B8000002050B900BFA02080F31188BFF34F8FF1
:103B9000BFF36F8F00BF00BFFEE7022D02D1E06BC5
:103BA000012801D1012000E0002050B900BFA02071
:103BB00080F31188BFF34F8FBFF36F8F00BF00BF3B
:103BC000FEE700F015FB08B9059808B9012000E0F0
:103BD000002050B900BFA02080F31188BFF34F8FA1
:103BE000BFF36F8F00BF00BFFEE700BFFFF794FB7E
:103BF000A06BE16B884201D3022D28D12A464146B1
:103C00002046FEF7A9FD0746606A08B9012000E0DA
:103C1000002068B904F1240000F064FC88B14FF082
:103C2000805032490860BFF34F8FBFF36F8F08E0B9
:103C30003FB14FF080502D490860BFF34F8FBFF365
:103C40006F8FFFF793FB012007B0BDE8F083059865
:103C500018B9FFF78BFB0020F6E7B9F1000F04D18C
:103C600001A8FFF701FD4FF00109FFF77FFBFFF708
:103C700005FEFFF751FB94F94400401C10B90020E9
:103C800084F8440094F94500401C10B9002084F8E1
:103C90004500FFF76BFB05A901A800F037FAF0B962
:103CA0002046FEF71CFFA0B104F110000599FFF7B4
:103CB000EDFC2046FFF705F900F060FC002895D1E7
:103CC0004FF0805009490860BFF34F8FBFF36F8FEB
:103CD0008CE72046FFF7F5F800F050FC86E7204619
:103CE000FFF7EFF800F04AFC0020ADE704ED00E03C
:103CF0002DE9F84F07468A4690461E463C4654B981
:103D000000BFA02080F31188BFF34F8FBFF36F8FE8
:103D100000BF00BFFEE7BAF1000F01D1206C08B967
:103D2000012000E0002050B900BFA02080F31188DE
:103D3000BFF34F8FBFF36F8F00BF00BFFEE7022EB0
:103D400002D1E06B012801D1012000E0002050B930
:103D500000BFA02080F31188BFF34F8FBFF36F8F98
:103D600000BF00BFFEE7FFF785FB00BFA021EFF318
:103D7000118081F31188BFF34F8FBFF36F8F00BFA6
:103D80000546A06BE16B884201D3022E25D194F940
:103D900045B0A06B0090324651462046FEF7DCFC51
:103DA0000BF1010088B9606A08B9012000E0002029
:103DB00050B904F1240000F095FB28B1B8F1000FD0
:103DC00002D00120C8F8000004E00BF1010040B26D
:103DD00084F845004FF0010901E04FF0000900BFF1
:103DE00085F3118800BF4846BDE8F88F2DE9F741FB
:103DF00083B005460E464FF000082C4654B900BF6C
:103E0000A02080F31188BFF34F8FBFF36F8F00BFE7
:103E100000BFFEE70EB9206C08B9012000E00020C9
:103E200050B900BFA02080F31188BFF34F8FBFF3BC
:103E30006F8F00BF00BFFEE700F0DAF908B9059800
:103E400008B9012000E0002050B900BFA02080F395
:103E50001188BFF34F8FBFF36F8F00BF00BFFEE726
:103E600000BFFFF759FAA76BF7B131462046FEF7BE
:103E70005EFC781EA063206908B9012000E00020E4
:103E800060B904F1100000F02DFB38B14FF0805004
:103E90002F490860BFF34F8FBFF36F8FFFF766FAAC
:103EA000012006B0BDE8F081059818B9FFF75EFA69
:103EB0000020F6E7B8F1000F04D101A8FFF7D4FB0A
:103EC0004FF00108FFF752FAFFF7D8FCFFF724FA8A
:103ED00094F94400401C10B9002084F8440094F97F
:103EE0004500401C10B9002084F84500FFF73EFA59
:103EF00005A901A800F00AF9F0B92046FEF7E2FD95
:103F0000A0B104F124000599FFF7C0FB2046FEF79D
:103F1000D8FF00F033FB0028A3D14FF080500C49AC
:103F20000860BFF34F8FBFF36F8F9AE72046FEF70D
:103F3000C8FF00F023FB94E72046FEF7C2FF00F025
:103F40001DFB2046FEF7BEFD00288AD00020A8E712
:103F500004ED00E02DE9F34182B005464FF0000882
:103F60002C46002654B900BFA02080F31188BFF36F
:103F70004F8FBFF36F8F00BF00BFFEE7206C08B903
:103F8000012000E0002050B900BFA02080F311887C
:103F9000BFF34F8FBFF36F8F00BF00BFFEE700F08E
:103FA00027F908B9039808B9012000E0002050B9AA
:103FB00000BFA02080F31188BFF34F8FBFF36F8F36
:103FC00000BF00BFFEE700BFFFF7A6F9A76BFFB178
:103FD000781EA063206810B9FFF766F8A06020691A
:103FE00008B9012000E0002060B904F1100000F0E1
:103FF00079FA38B14FF0805043490860BFF34F8FD2
:10400000BFF36F8FFFF7B2F9012004B0BDE8F08174
:10401000039898B90EB9012000E0002050B900BF04
:10402000A02080F31188BFF34F8FBFF36F8F00BFC5
:1040300000BFFEE7FFF79AF90020E6E7B8F1000FAE
:1040400004D16846FFF710FB4FF00108FFF78EF927
:10405000FFF714FCFFF760F994F94400401C10B915
:10406000002084F8440094F94500401C10B9002059
:1040700084F84500FFF77AF903A9684600F046F88E
:1040800040BB2046FEF71EFDF0B1206838B9FFF7AF
:1040900043F9A06800F0CAF90646FFF767F904F192
:1040A00024000399FFF7F2FA2046FEF70AFF00F01A
:1040B00065FA002888D14FF0805013490860BFF39B
:1040C0004F8FBFF36F8F7FE72046FEF7FAFE00F0B9
:1040D00055FA79E72046FEF7F4FE00F04FFA204645
:1040E000FEF7F0FC0028EED05EB1FFF715F9204690
:1040F000FEF771FB07463946A068FFF703FBFFF7A1
:1041000035F9002081E7000004ED00E070B50546B8
:104110000C4655B900BFA02080F31188BFF34F8F24
:10412000BFF36F8F00BF00BFFEE754B900BFA020F0
:1041300080F31188BFF34F8FBFF36F8F00BF00BFB5
:10414000FEE7FFF7E9F8104802686868131A0F499C
:1041500028680968884204D06868904201D801261E
:104160000DE02068984207D92068C01A20602846D0
:10417000FFF77AFA002602E0002020600126FFF710
:10418000F5F8304670BD000064020020780200207F
:104190002DE9FF4F85B0804689461746DDE912AB11
:1041A000B800FEF7DBFE064656B15020FEF7D6FEFD
:1041B00004460CB1266304E03046FFF7F5F800E052
:1041C00000247CB10020CDE900ABCDE902403A46A5
:1041D00049464046089BFEF791FB2046FEF726FA2B
:1041E000012501E04FF0FF35284609B0BDE8F08F0A
:1041F0000549096809B9012005E00449096809B9B8
:10420000022000E0002070476C020020880200209D
:104210000149086870470000640200202DE9F04160
:104220004FF000084448006800287CD143480068EB
:10423000451C4248056015BB41480068006808B944
:10424000012000E0002050B900BFA02080F31188B9
:10425000BFF34F8FBFF36F8F00BF00BFFEE738483B
:1042600007683848006836490860364807603648AD
:104270000068401C34490860FEF750FD00BF334819
:10428000006885423CD300BF2D480068006808B92B
:10429000012000E0002020B14FF0FF302B490860E2
:1042A0002DE027480068C068C4686668B54202D23D
:1042B0002648066023E0201DFEF7E4FFA06A18B13F
:1042C00004F11800FEF7DEFF94F82C10012088405E
:1042D0001F49096808431E490860E16A01EB810132
:1042E0001C4A02EB8100211DFFF70AF81A49E06A17
:1042F0000968C96A8842C7D34FF00108C4E700BF04
:1043000015480068C06A00EB8000124951F820008F
:10431000012801D94FF001081048006808B14FF09A
:10432000010805E0FFE70E480068401C0C490860E2
:104330004046BDE8F08100008802002064020020B1
:10434000580200205C020020780200208002002039
:1043500068020020C04C002054020020740200209B
:104360007002002070B505462C460026002D55D061
:104370002B480068844201D1012000E0002050B9A0
:1043800000BFA02080F31188BFF34F8FBFF36F8F62
:1043900000BF00BFFEE7606C50B900BFA02080F3F3
:1043A0001188BFF34F8FBFF36F8F00BF00BFFEE7D1
:1043B000606C401E6064216CE06A88422ED0606CA4
:1043C00060BB201DFEF75EFF78B9E06A00EB80005D
:1043D000144951F8200040B994F82C10012088406D
:1043E00011490968814310480160206CE062E06A6D
:1043F000C0F10500A06194F82C10012088400A4902
:104400000968084308490860E16A01EB8101054A2F
:1044100002EB8100211DFEF773FF0126304670BDBF
:1044200054020020C04C00206802002070B50546F0
:104430002C460026002D4DD02749E06A0968C96A3C
:10444000884240D2A06900F0004028B922480068A4
:10445000C06AC0F10500A061E16A01EB81011F4A59
:1044600002EB81016069884201D1012000E0002057
:1044700018B3201DFEF706FF40B994F82C10012058
:10448000884017490968814315480160124800684F
:10449000C06AE06294F82C10012088401049096835
:1044A00008430F490860E16A01EB81010B4A02EB06
:1044B0008100211DFEF724FF03E007480068C06A61
:1044C000E062012606E00449206C0968C96A884256
:1044D00000D20126304670BD54020020C04C00209E
:1044E0006802002070B50646F068C46854B900BF81
:1044F000A02080F31188BFF34F8FBFF36F8F00BFF1
:1045000000BFFEE704F11800FEF7BCFE1548006886
:10451000A8B9201DFEF7B6FE94F82C1001208840A3
:1045200011490968084310490860E16A01EB8101FB
:104530000E4A02EB8100211DFEF7E2FE04E004F1C9
:1045400018010B48FEF7DCFE0A49E06A0968C96AEF
:10455000884204D9012501200749086000E00025B0
:10456000284670BD8802002068020020C04C002050
:104570004C4D0020540200207402002070B500242D
:1045800000263648006850B900BFA02080F311888B
:10459000BFF34F8FBFF36F8F00BF00BFFEE7FEF783
:1045A000BBFE2E480068401E2C4908600846006883
:1045B00000284FD12A48006800284BD024E0294821
:1045C000C068C46804F11800FEF75CFE201DFEF709
:1045D00059FE94F82C1001208840234909680843AB
:1045E00021490860E16A01EB8101204A02EB810068
:1045F000211DFEF785FE1E49E06A0968C96A8842E6
:1046000002D301201B4908601648006808B9012040
:1046100000E000200028D2D00CB1FEF77FFB164846
:10462000056865B100BFFFF7F9FD10B10120114920
:1046300008606D1E002DF6D100200F4908600D485E
:10464000006838B1012630070C490860BFF34F8F6E
:10465000BFF36F8FFEF78AFE304670BD88020020E0
:10466000600200204C4D002068020020C04C002059
:1046700054020020740200207002002004ED00E0CB
:104680001CB50024FEF72CF80D48006850B10D4809
:10469000022100230A02CDE900100BA10C48FFF70C
:1046A00077FD044654B900BFA02080F31188BFF302
:1046B0004F8FBFF36F8F00BF00BFFEE720461CBDCA
:1046C0009402002098020020546D722053766300FB
:1046D000A92E00082DE9FE4304460D4616461F4646
:1046E000DDF828804FF0000954B900BFA02080F306
:1046F0001188BFF34F8FBFF36F8F00BF00BFFEE77E
:104700001448006810B3009501960294062D15DA3E
:10471000FFF76EFD022808D10023424669460D4886
:104720000068FFF711FA814610E000231A46694637
:1047300008480068FFF708FA814607E000233A4678
:10474000694604480068FFF7D3FA81464846BDE849
:10475000FE8300009402002021F00042A2F160528A
:10476000B2F5801F01F0004328BFD2F17F6C0BD956
:104770005FEA001C43EAC20242EB507018BF704768
:1047800028BF20F001007047B2F5801FBCBF18465B
:1047900070474FEA410C1CF5001F02D2084600F09A
:1047A00096BF70B500F02CFB00000089FFF7F6BF44
:1047B0004FF00040A0F580007047000010B591EA6E
:1047C000030F48BF83F0004300F1AC83841A71EB00
:1047D000030C05D2121943EB0C03001B61EB0C0117
:1047E000DFF824E14FEA1154A4EB135C1EEA430FF7
:1047F00018BF9EEA445F73D023EA0E03DCF1200E5B
:1048000021EA045143F4801332D322FA0CFE10EB58
:104810000E0023FA0CFE41EB0E01CCF1200E03FA40
:104820000EFE10EB0E0051F10001B1F5801FCCF12E
:10483000200E32D201EB045112FA0EF2BDE8104004
:1048400058BF7047401C38BF5FEA420218BF70472C
:10485000002814BF20F0010041F100014FEA41039C
:1048600013F5001F38BF7047A1F1C04100F016BB1F
:10487000012A43EB0302ACF1200CDCF11F0E32BF26
:104880004FF0000E23FA0CF310EB030041EB045140
:10489000B4EB115FD0D0A1EB045101F580114908B0
:1048A0005FEA300001EB04510ED350F1000038BF35
:1048B00012FA0EFE08D1BDE81040C9E7401C38BF0F
:1048C0005FEA4202CAD1C3E7BDE810404FEA4103A4
:1048D00013F5001F38BF7047A1F1C04100F0DEBAE8
:1048E0009EEA445F08D011EA5E0FBDE8104004BFA5
:1048F00001F0004100207047BDE8104070B500F0A5
:104900007FFA00BF64FBBE3E0000E0FF491058BFC5
:10491000C1F140415B1058BFC3F140438B42EFF3FC
:10492000008070472DE9C04130B4DFF8A0C23CEAF6
:10493000111418BF3CEA131400F0EC8081EA03055F
:104940001CEA111444EAD57418BF1CEA131500F0D0
:10495000C780A4EB05044FF0004545EAC12145EAB4
:10496000C32341EA505143EA525304F17F74994200
:1049700004F500344FEAC0204FEAC22208BF90423B
:1049800000F09C804FEA13650FF24016765D4FEA07
:10499000134506FB05F7C7F1807706FB07F74FEADB
:1049A000D737A7FB03687642C8F58038A7FB06CE49
:1049B00038BFA8F1010807FB08E64FF0000EA6FB80
:1049C000028CE6FB03CEDCF1000CCEF1004E38BFCA
:1049D000AEF1010EA6FB0C584FF000074FF000059A
:1049E000E6FB0E87A1FB08C6A0FB07CE16EB0E0662
:1049F00045F10005E1FB076515F1E04E7EBFA4F52A
:104A000080345FEA46066D4116F1800745F10005E6
:104A10004FEA17274FEA066647EA0567A6F1DE4622
:104A2000B6F1805F4FEA15251FD9384624F0010CF6
:104A300005EBC471BCF1FE6F01EB0C1102D8F0BCA8
:104A4000BDE8008124425CBF01F5801E9EEAC47F60
:104A500002D4F0BCBDE80081244238D4F0BCA1F1FE
:104A6000C041BDE8004100F019BA4FEAD22242EA43
:104A700043524FEAD323A7FB02864FEAD02040EAF5
:104A8000415007FB03661EEA0E0F4FEAD12105FBDA
:104A9000026658BFA6EB0056B6EB00564FEA520E20
:104AA0004EEAC37E18EB0E0E56EB530EBDD518EB37
:104AB00002085E417F1C55F10005B6E74FF48015F2
:104AC0004FF000074FF000064FF00008ADE7F0BCD4
:104AD0004FF0000001F1C04101F00041BDE800814C
:104AE00011EA0C1F0CEA131500D00CE013EA0C1F9E
:104AF00000F025804FF00000F0BC81EA030101F0D6
:104B00000041BDE80081F0BCBDE8004181EA03013D
:104B100000F0C4B9F0BCBDE8004170B500F070F918
:104B2000097EFC3E00F007B881EA03014FF0000067
:104B300001F00041704781EA030100F0AFB9F0BC19
:104B4000BDE800414FF0000021497047FFFDFBF92F
:104B5000F7F5F4F2F0EEEDEBE9E8E6E4E3E1E0DEB0
:104B6000DDDBDAD8D7D5D4D3D1D0CFCDCCCBCAC822
:104B7000C7C6C5C4C2C1C0BFBEBDBCBBBAB9B8B749
:104B8000B6B5B4B3B2B1B0AFAEADACABAAA9A8A83C
:104B9000A7A6A5A4A3A3A2A1A09F9F9E9D9C9C9B0A
:104BA0009A999998979796959594939392919190B5
:104BB0008F8F8E8E8D8C8C8B8B8A89898888878746
:104BC0008685858484838382828181800000FF07BB
:104BD0000000F87F4FEA41034FEA5353A3F5806387
:104BE000D3F11E03C8BFD3F1210C0CDD4FF00042FE
:104BF00042EAC12242EA505232FA03FC8CEAE17CDA
:104C0000ACEBE1707047102BC4BF0020704703F578
:104C1000787CBCF1FF3F04D06FF0004282EA2100B3
:104C2000704770B500F0ECF849922480002070477E
:104C3000F2E7000051EA030C17D41CF5801F58BF9F
:104C4000BCF5801F00F10680994218BF704708BF6D
:104C50009042704707D711F5801F58BF13F5801F8A
:104C600019D499427047894270471CF5801F08D5B6
:104C7000BCF5801FF7D58B4218BF704708BF824232
:104C800070474FF4001C1CEB410F38BF1CEB430F67
:104C900001D28B42704770B500F0B2F892244900FF
:104CA0004FF000514FF08053FFF730BEDFF848C19E
:104CB00070B51CEA111E1EBF1CEA13159EEA0C0FEC
:104CC00095EA0C0F00F06F8081EA030423EA4C138D
:104CD0004EEAD47E21EA4C1141F4801143F4801352
:104CE000AE44A1FB024CA0FB0365AEF17F7E3619FA
:104CF00055EB0C05A1FB034C4CF10003A0FB021C7F
:104D000016EB0C06654153F10003094218BF46F04B
:104D1000010613F4007F0BD14FEA03314FEA05304F
:104D2000340341EA155140EA16506FF003020AE0DD
:104D30004FEAC3214FEAC520F40241EA555140EA47
:104D400056506FF0020202EB2E4201EB025585EA4B
:104D5000CE710AD05FEA440C18BF24F0004450F131
:104D6000000041F1000120EAD47040F2FE7C62456F
:104D700000D270BDA84214BF4FF080444FF04044B1
:104D8000002E08BF0024BEF1806FA8BFA1F1C04172
:104D9000BDE8704080F282804FF0000001F1C04118
:104DA00001F0004170479EEA0C0F0CEA131518BF82
:104DB00095EA0C0F06D04FF0000081EA030E0EF0CA
:104DC000004170BD00F01CF88900013E00F007B8FA
:104DD00000F009B84FEA430C5FEA5C5C08D081EA56
:104DE000030100F05BB84FEA410C5FEA5C5CF6D16E
:104DF0004FF00000014970470000FF070000F87FF6
:104E00000EF1020E2EF0030E5EF8046B364205D44E
:104E1000012A43EB030515F5001F12D8012841EBC9
:104E2000010C1CF5001F0CD80ED14FEAD17C15F5F2
:104E3000001F0CEB4C0C0CF1020C08BF4CEBD37CAC
:104E400004E04FF0080C01E04FEAD37C0CEB4C057A
:104E500026FA05F606F00706B6F1040C06D20EEBAC
:104E6000860CBDE870404CF0010C6047DFE80CF0A8
:104E7000090B02024FF000414FF00000A1F50021A4
:104E800070BD19461046012851EB010418BFD4F536
:104E9000001484BF002001F0004170BD0808A0F597
:104EA00000114FEA3101704753EA010C17D41CF589
:104EB000801F58BFBCF5801F00F106808B4218BFD1
:104EC000704708BF8242704707D713F5801F58BF4D
:104ED00011F5801F19D48B4270479B4270471CF517
:104EE000801F08D5BCF5801FF7D5994218BF7047C1
:104EF00008BF904270474FF4001C1CEB430F38BFB3
:104F00001CEB410F01D2994270470FB40CBC03BC9B
:104F1000FFF7C1BE10B591EA030F48BF83F000430D
:104F20003FF554AC841A71EB030C07D212198CF0C4
:104F3000004C43EB0C03001B61EB0C01DFF8A4E118
:104F40004FEA1154A4EB135C1EEA430F18BF9EEA0C
:104F5000445F00F0B08023EA6E03524221EA04511C
:104F6000C3EB6E0338BF5B1EDCF1200E25D322FAA3
:104F70000CFE10EB0E0043FA0CFE41EB0E01CCF1DF
:104F8000200E03FA0EFE10EB0E0051F10001CCF1E1
:104F9000200E29D412FA0EF201EB0451BDE81040A4
:104FA00058BF7047401C1CBFB2F1004F704700282B
:104FB0000CBF491C20F00100704712EB020E43EBBE
:104FC000030218BF4FF0010E4EEA4202ACF1200C72
:104FD000DCF11E0E54D943FA0CFE10EB0E0051F119
:104FE000FF31CCF11E0ED5D50EF1010E12FA0EFED8
:104FF000404141EB010101EB445C5FEA5C5C10D98C
:1050000010EBDE7001EB045138BFBEF1004FBDE87C
:10501000104018BF704700280CBF491C20F0010049
:10502000704730D24FEAD42C11F5001124F40064FB
:105030001BD0B1FA81F20B3AA41AA41ED2F12003BC
:10504000914030FA03F31943904001EBCC71002CEE
:1050500001EB0451BDE81040A8BF704701F1C04109
:105060004FF0000001F000417047B0FA80F310FAF1
:1050700003F100D110BDE41A173C4805C90AE4E762
:1050800001EB045110BD491001EB0451BDE8104083
:105090004FEA300002E04FF0000170474A0008BFBD
:1050A0000042F8D0B2F5001F28BF704701F0004160
:1050B0004FF0000070479EEA445F07D011EA5E0F90
:1050C000BDE8104004BF002100207047BDE810403B
:1050D00070B5FFF795FE00BF40DFF63E83F000415C
:1050E000104670470000E0FF43004FEAD30C4FEA40
:1050F0003C0C43401FBF40070CF1605113F0FE4FC2
:1051000070471CF0006F03D100200CF00041704785
:105110000CF0004343EA507010B540EACC0000F0B8
:1051200090FA00BF000000924FEA0001FFF7B6BE00
:105130004FF000414FF00000A1F500217047000042
:1051400090EA010F48BF81F0004100F10883421A44
:105150003CBF801A89184FEAD0524FF07F4C1CEAAE
:10516000410FA2EBD15318BF9CEA026F00F03B80C5
:105170004FF0004C4CEA00204CEA012121FA03FCDC
:1051800010EB0C0C1ED202F1FF325FEA1C2040EB48
:10519000C25038BF70471CF07F0F4FEA400C18BF59
:1051A000BCF17F4F38BF7047C3F12003994008BF5F
:1051B00020F00100BCF17F4F38BF7047A0F1C04024
:1051C00000F085BA4FEA3C00000A40EBC25028BF0D
:1051D0001CF0FF0F4FEA400CE6D018BFBCF17F4F28
:1051E00038BF7047EAE79CEA026F05D010EA5C0F0F
:1051F00008BF00F00040704710B500F022FA00BF71
:1052000064FBBE3E401058BFC0F14040491058BF3B
:10521000C1F140418142EFF3008070474FF47F0CB1
:105220001CEAD0121EBF1CEAD11392EA0C0F93EABB
:105230000C0F00F0858090EA010F48BF42F48072A5
:1052400040F4000C41F400002CF07F4120F07F403E
:1052500000B58142A2EB03020FF2081CACEB504EEA
:10526000C0F100009EF800E04FEA4E0E00FB0EFC7D
:1052700038BF49004FEA2C1C02F5FA020CFB0EF372
:105280004FEACE1E4FEA112C4FEAC1210EEB635EAE
:1052900042EB22420EFB0CFC4FEA1C5300FB0311B5
:1052A0004FEA112C4FEA01310EFB0CFC4FEADC4CAB
:1052B00000FB0C11C14228BF09184CEB03335DF809
:1052C00004EB10EB410143EBC250B2F57C0F38BF49
:1052D000704729D512F0F00F1CBF00F1C04000F05C
:1052E00000407047008182838485868788898B8C03
:1052F0008D8E8F919293959697999A9C9D9FA0A23F
:10530000A3A5A7A8AAACAEB0B2B3B5B7B9BCBEC08E
:10531000C2C5C7C9CCCED1D4D7D9DCDFE2E6E9EC2F
:10532000F0F3F7FAFE0000004FEA400C0CF1807C2D
:10533000BCF17E4F28BF7047B0F1C04000F0C7B944
:1053400090EA010F0CEAD11348BF42F48072624523
:1053500038BF634507D213F47F0F16D080EA0100EF
:1053600000F00040704710B500F06BF9097EFC3E7C
:1053700000F005B880EA010000F00040704780EAC4
:10538000010000F0004000F0A2B912F47F0F04BF4A
:105390000248704780EA010000F099B90000C07F20
:1053A00050EA010C00F113801CF5000F58BFBCF54A
:1053B000000F01D48842704707D710F5000F58BF7F
:1053C00011F5000F15D488427047894270471CF5CB
:1053D000000F04D5BCF5000FF7D5814270474FF0A0
:1053E000807C1CEB400F38BF1CEB410F01D2814287
:1053F000704710B500F025F9922449004FF0005095
:105400004FF08051FFF7FEBE41000B0ED3F19E021C
:1054100008D950F400034FEA032323FA02F048BFEF
:105420004042704710B500F00CF900BF499224804B
:10543000002070476FF0004282EA200070470000B1
:10544000C10DD1F19E0206DB4FEA002343F0004379
:1054500023FA02F07047004207D54FEA4001B1F14C
:10546000FE4F02D24FF00000704710B500F0E9F88F
:1054700049922480002070476FEA200070470000A6
:1054800010F0004148BF4042B0FA80F310FA03F236
:10549000C3F19D030BD051EAC35101EB1220530617
:1054A00038BF704700F1010008BF20F001007047CD
:1054B000B0FA80F310FA03F2C3F19D030AD0D905C4
:1054C00001EB1220530638BF704700F1010008BFFE
:1054D00020F001007047000050EA010C00F1138039
:1054E0001CF5000F58BFBCF5000F01D4884270476F
:1054F00007D710F5000F58BF11F5000F15D48842DB
:105500007047894270471CF5000F04D5BCF5000FA9
:10551000F7D5814270474FF0807C1CEB400F38BFBD
:105520001CEB410F01D28142704710B500F089F8A1
:10553000922449004FF000504FF08051FFF762BEB7
:105540004FF47F0C1CEAD0121EBF1CEAD11392EA62
:105550000C0F93EA0C0F00F0478090EA010F48BF50
:1055600042F480724FF0004C4CEA00204CEA0121DA
:1055700002EB0302A0FB0113A2F50002002918BFF1
:1055800043F001035B0028BF4FEA330342EB2242A2
:105590005FEA132C4CEBC2502EBFBCEB436FB2F54D
:1055A0007C0F70474FEA036CBCF1004F08BF20F03E
:1055B0000100B2F57C0F38BF70470BD582F0FF02B7
:1055C00012F5803FC8BF704700F1C040D8BF00F05F
:1055D0000040704700F5000C5FEA4C0C48BF704774
:1055E000B0F1C04000F073B890EA010F0CEAD1139B
:1055F00048BF42F48072624538BF634504D280EAF6
:10560000010000F00040704710B500F01AF800BF2C
:105610008900013E00F007B800F009B85FEA410CCC
:105620005FEA1C6C08D080EA010000F050B85FEA25
:10563000400C5FEA1C6CF6D14FF00040A0F58000F2
:1056400070470EF1020E2EF0030E5EF8044B24425A
:1056500004D44FEA4102B2F17F4F11D84FEA400320
:10566000B3F17F4F0CD80ED14FEAD07CB2F17F4F0F
:105670000CEB4C0C0CF1020C08BF4CEBD17C04E0A1
:105680004FF0080C01E04FEAD17C0CEB4C0324FAFC
:1056900003F404F00704B4F1040C06D20EEB840CFE
:1056A000BDE810404CF0010C6047DFE80CF0070843
:1056B00002024FF00040A0F5800010BD08464200F5
:1056C00018BFD2F1807288BF00F0004010BDFF21EA
:1056D00041EAD050C005704751EA000C00F1138038
:1056E0001CF5000F58BFBCF5000F01D48142704774
:1056F00007D711F5000F58BF10F5000F15D48142E0
:105700007047894270471CF5000F04D5BCF5000FA7
:10571000F7D5884270474FF0807C1CEB410F38BFB3
:105720001CEB400F01D28842704780EA010081EAF9
:10573000000180EA0100FFF7F8BE80F0004090EA27
:10574000010F7FF504AD81F0004100F008B80000C2
:1057500090EA010F48BF81F000413FF5F8AC421AD2
:1057600004D882F00042A0EB020011444FEAD0526C
:105770004FF07F4C1CEA410FA2EBD15318BF9CEABB
:10578000026F4AD04FF0004C4CEA00204CEA012155
:1057900021FA03FCB0EB0C0C0FD412F0FE0F36D044
:1057A0005FEA4C001DD5001240EBC25038BF704775
:1057B0001CF03F0F18BF70470BE0A2F101025FEA37
:1057C0001C2040EBC25038BF70471CF07F0F18BF41
:1057D0007047C3F12003994014BF401E20F0010020
:1057E000704780084FEA122308BF7047B0FA80FC68
:1057F000A2EB0C02CCF1280C60FA0CF093EA122F09
:1058000004BF00EBC25070474FEAC3707047130AE1
:105810005FEADC1008BF7047F6E79CEA026F04D02D
:1058200010EA5C0F08BF0020704710B5FFF709FFB2
:1058300040DFF63E81F0004070470000000C014060
:1058400000000000000C014001000000000C0140BD
:1058500002000000000C01400A000000001001409E
:105860000C000000001001400B000000001001407F
:105870000A0000000700000000010200D007E40257
:105880004E0CAE01AAAA1111000100000000000098
:105890000000000000000000000C014004000000B7
:1058A000000C014003000000C85800080000002060
:1058B000A00200008C010008CC590008A0020020C2
:1058C00048510000E8010008012A031AB0BE13FD88
:1058D0003042081A0102690C1A0202690C1A03020A
:1058E000690C1A0402690C1A0502690C1A0602698D
:1058F0000C1A0702690C1A0802690C321E1AED0C08
:105900001319391B081F6C290C411A206C690C1AD9
:10591000326C69241A336C690C1A346C690C1A35B0
:105920006C690C1A366C690C1A3743690C12387A98
:10593000090C12397A0A0C123A7A0B0C123B7A0CC7
:105940000C23E703130D311B08310C1AE80C2A3124
:10595000B9317CE903010C1AEA185A810C1AEB18C8
:10596000690C1AEC185A990C1AED0C13FD0714085F
:105970000D0A1B08EE0C1A49181A7D0C1AEF0C1AA6
:10598000150C1A450C1AF00C1A650C1AB50C1AF104
:105990004869301AF20C69301AF30C69301AF40CA9
:1059A00069301AF53C4B45146C900C36065B4F661B
:1059B0006D7D077F6F4013A04093127A000920018C
:0C59C000020304060708091AAA0101549A
:04000005080001519D
:00000001FF
