:020000040800F2
:10000000F0750020C5020008CD020008CF020008EC
:10001000D1020008D3020008D50200080000000049
:100020000000000000000000000000002D02000899
:10003000D90200080000000071020008C92300086E
:10004000DF020008DF020008DF020008DF0200080C
:10005000DF020008DF020008DF020008DF020008FC
:10006000DF020008DF020008DF020008DF020008EC
:10007000DF020008DF020008DF020008DF020008DC
:10008000DF020008DF020008DF020008DF020008CC
:10009000DF020008DF020008DF020008DF020008BC
:1000A000DF020008DF020008DF020008DF020008AC
:1000B000DF020008DF02000869240008DF020008F0
:1000C000DF020008DF020008DF020008DF0200088C
:1000D000DF0200085D2F0008DF020008DF020008D1
:1000E000DF020008DF020008DF0200080000000055
:1000F0000000000000000000000000000000000000
:100100000000000000000000DF020008DF0200081D
:10011000DF020008DF020008DF020008DF0200083B
:10012000DF020008DF020008DF020008DF0200082B
:10013000DF020008DF020008DF020008DF0200081B
:10014000DF020008DF020008DF020008DF0200080B
:1001500000F002F800F05AF80AA090E8000C82447F
:100160008344AAF10107DA4501D100F04FF8AFF25C
:10017000090EBAE80F0013F0010F18BFFB1A43F085
:1001800001031847C0710000E07100000A444FF0FD
:10019000000C10F8013B13F0070408BF10F8014BE6
:1001A0001D1108BF10F8015B641E05D010F8016B2B
:1001B000641E01F8016BF9D113F0080F1EBF10F88F
:1001C000014BAD1C0C1B09D16D1E58BF01F801CBB2
:1001D000FAD505E014F8016B01F8016B6D1EF9D535
:1001E0009142D6D37047000000230024002500264A
:1001F000103A28BF78C1FBD8520728BF30C148BF8A
:100200000B6070471FB51FBD10B510BD00F03DF964
:100210001146FFF7F7FF03F005FC00F05BF903B4AC
:10022000FFF7F2FF03BC00F063F90000224B1968EE
:100230000868B0E8F00F80F30988BFF36F8F4FF0C4
:10024000000080F311884EF00D0E70470000000092
:1002500006480068006880F3088862B661B6BFF39C
:100260004F8FBFF36F8F00DF00BF00BF08ED00E0CE
:10027000EFF30980BFF36F8F0F4B1A6820E9F00F7F
:10028000106008B54FF0A00080F31188BFF34F8FC6
:10029000BFF36F8F04F078FE4FF0000080F31188F9
:1002A000BDE8084019680868B0E8F00F80F30988D5
:1002B000BFF36F8F704700BF14040020EFF3058079
:1002C000704700000948804709480047FEE7FEE7FD
:1002D000FEE7FEE7FEE7FEE7FEE7FEE7FEE7FEE7F6
:1002E00004480549054A064B70470000FD230008F5
:1002F00051010008F06F0020F0750020F07100201F
:10030000F0710020032A40F2308010F0030C00F05E
:10031000158011F8013BBCF1020F624498BF11F83F
:1003200001CB00F8013B38BF11F8013BA2F10402F8
:1003300098BF00F801CB38BF00F8013B11F0030370
:1003400000F07180083AC0F0088051F8043B083A88
:1003500051F804CBA0E80810F5E7121D5CBF51F876
:10036000043B40F8043BAFF30080D20724BF11F8F0
:10037000013B11F801CB48BF11F8012B24BF00F855
:10038000013B00F801CB48BF00F8012B70474FF04C
:1003900000020429C0F0128010F0030C00F01B8052
:1003A000CCF1040CBCF1020F18BF00F8012BA8BF60
:1003B00020F8022BA1EB0C0100F00DB85FEAC17C24
:1003C00024BF00F8012B00F8012B48BF00F8012BD7
:1003D00070474FF0000200B5134694469646203908
:1003E00022BFA0E80C50A0E80C50B1F12001BFF4EE
:1003F000F7AF090728BFA0E80C5048BF0CC05DF854
:1004000004EB890028BF40F8042B08BF704748BFA1
:1004100020F8022B11F0804F18BF00F8012B704715
:1004200070477047704710B5203AC0F00B80B1E8B4
:100430001850203AA0E81850B1E81850A0E8185019
:10044000BFF4F5AF5FEA027C24BFB1E81850A0E822
:10045000185044BF18C918C0BDE810405FEA827C3C
:1004600024BF51F8043B40F8043B08BF7047D20753
:1004700028BF31F8023B48BF11F8012B28BF20F8F4
:10048000023B48BF00F8012B7047754600F02CF87E
:10049000AE4605006946534620F00700854618B071
:1004A00020B5FFF71DFFBDE820404FF000064FF0DC
:1004B00000074FF000084FF0000B21F00701AC4699
:1004C000ACE8C009ACE8C009ACE8C009ACE8C009B8
:1004D0008D46704710B50446AFF300802046BDE856
:1004E0001040FFF79CBE0000004870478C6F002052
:1004F00001491820ABBEFEE726000200704721B17B
:10050000826842F00102826003E0826822F0010208
:1005100082607047014600208A6802F004020AB136
:10052000012000E0002070470146C86C80B270478F
:100530000246002013680B400BB1012000E00020B0
:100540007047014600208A6802F008020AB10120C3
:1005500000E000207047000030B502460020002374
:1005600050680F4C20400D790C6844EA0524204364
:10057000506090680B4C2040D1E902542C434D79D7
:1005800044EA450420439060D06A20F470000C7C5B
:10059000641EE4B2234340EA0350D06230BD000041
:1005A000FFFEF0FFFDF7F1FFF0B504460D46002019
:1005B0000021092D11DDE068A5F10A0606EB4607CA
:1005C000072606FA07F18843A5F10A0606EB460658
:1005D00003FA06F10843E0600CE0206905EB4507EB
:1005E000072606FA07F1884305EB450603FA06F1EC
:1005F00008432061072A0FDA606B561E06EB860758
:100600001F2606FA07F18843561E06EB860605FAF2
:1006100006F10843606322E00D2A0FDA206BD61F33
:1006200006EB86071F2606FA07F18843D61F06EB5E
:10063000860605FA06F10843206310E0E06AA2F19D
:100640000D0606EB86071F2606FA07F18843A2F17E
:100650000D0606EB860605FA06F10843E062F0BDDA
:10066000816841F008018160704721B1826842F4DD
:10067000A002826003E0826822F4A00282607047D8
:10068000816841F0040181607047002101600171BF
:1006900041718160C16001210174704700210C200B
:1006A0000F4A9268C24002F0010211430D200C4A29
:1006B0009268C24002F0010241EA42010E20084A5B
:1006C0009268C24002F0010241EA82010F20044A0E
:1006D0009268C24002F0010241EAC2010846704736
:1006E000000C014010B5002302220C210A4800F042
:1006F00053FB002302220D21074800F04DFB00238D
:1007000002220E21044800F047FB002302220F21A1
:10071000014800F041FB10BD000C01402DE9F047FD
:100720000446204600F07EF8054606F0C1FB8146EF
:10073000484606F0F1F907460022054B05F00AFE8F
:10074000054605F021FD81464846BDE8F0870000DA
:10075000000059402DE9F04704460020FFF7DEFF76
:1007600080460120FFF7DAFF8146002549464046D2
:1007700006F036FD824606F0CFF921F0004106462C
:1007800005F002FD05464FF07E51284606F0BCFC00
:1007900001D2012000E0002020704046BDE8F08733
:1007A0000146012902DD4FF0FF307047014830F863
:1007B0003100FAE7640600200146012902DD4FF00E
:1007C000FF307047024800EBC1008088F9E7000065
:1007D000640600200146012902DD4FF0FF3070471A
:1007E000014830F81100FAE73000002001460129E5
:1007F00002DD4FF0FF307047024800EBC100408837
:10080000F9E70000640600200146012902DD4FF0EF
:10081000FF307047024800EBC100C088F9E70000D4
:10082000640600200146012902DD4FF0FF307047C9
:10083000014830F81100FAE72C0000202DE9F84FAC
:1008400000246846FFF786FF83460021584606F0DD
:100850005BFB02D39DF8000010B14FF6FF7411E06E
:10086000584606F059F907460022084B05F036FFB6
:10087000054605F089FC824603F0A0FF814606F09C
:10088000DBFA04462046BDE8F88F00000000244053
:100890001FB502F051FC00F08BF910216B48FFF7F7
:1008A00076FD00206A49088048806A4908804880AF
:1008B000804608226549C82000F0CAF98046B8F190
:1008C000000F05D06148008810B16048808808B9E1
:1008D00003F0E0FF05F0B2F8039000BF01205E498D
:1008E000087000BFFA2103A805F02CF800BF00240F
:1008F00014E00025002708E05849085D02F05CFC80
:100900000544012004F0D0F97F1C142FF4DB1420DF
:10091000B5FBF0F0524921F81400641C022CE8DB0E
:1009200000248EE0494901EBC4018988474A32F826
:100930003420881A06F0BCFA82460021504606F0A0
:1009400047FA01D1002539E0404901EBC401C988CB
:100950003E4A02EBC4025288881A06F0A9FA0290B5
:100960005146029806F072F98146384931F8340050
:1009700006F0B6FA4946009006F0FAFA8346334983
:1009800001EBC401488806F0ABFA5946019006F025
:1009900027FC0746324931F8140006F0A1FA49460F
:1009A000019006F0E5FA8346394606F0E1F805467F
:1009B0000021284606F0A8FA00D20025284603F0B8
:1009C000FDFE834606F054FA04EB8401254A02EB4F
:1009D000C1011F4A32F8142021F812001C4830F8D7
:1009E0001400401C80B21A4921F81400142802DBBC
:1009F000002021F81400174830F81400142806DAF3
:100A0000144830F81400401C124921F81400002644
:100A1000002008E004EB8401124A02EBC10131F826
:100A200010100E44401C0B4931F814108142F1DCC7
:100A3000084830F81400B6FBF0F00B4921F8140018
:100A4000641C022CBFF64AAF6CE70000640600206D
:100A50003400002038000020200000201873000817
:100A600030000020740600202C00002073B50446DE
:100A7000012C01DD00207CBD0CB9C82000E0D02095
:100A80000646012201A9304600F028F9054625B1A5
:100A9000BDF80400024921F834002846EBE70000C5
:100AA0006406002073B50446012C01DD00207CBDE6
:100AB0000CB9CC2000E0D4200646012201A9304622
:100AC00000F00CF905462DB1BDF80400024901EB18
:100AD000C40188802846EAE76406002073B504460E
:100AE000012C01DD00207CBD0CB9CA2000E0D22021
:100AF0000646012201A9304600F0F0F805462DB166
:100B0000BDF80400024901EBC40148802846EAE729
:100B10006406002073B50446012C01DD00207CBD75
:100B20000CB9CE2000E0D6200646012201A93046AD
:100B300000F0D4F805462DB1BDF80410024800EBD2
:100B4000C400C1802846EAE76406002010B50023EF
:100B500003220B21074800F01FF9002303220A217A
:100B6000044800F019F9002303220C21014800F089
:100B700013F910BD0010014070B54AF2010580EA7A
:100B8000010444F47F4440F0FF0604EA060000221A
:100B90000BE000F00103044600EBD476C6F34F00EF
:100BA00013B14AF201046040521C082AF1D370BD0F
:100BB00010B5012004F0B6FA0349086002F018FDF0
:100BC00001200249087010BD400000203C000020B8
:100BD0002DE9F04180460F4615461B48007808B9BC
:100BE000FFF7E6FF4FF0FF311848006804F068FD9A
:100BF000012826D102F0FAFD404602F08EFC06469E
:100C00009EB102F0F3FDA12002F0A6FD064666B1FA
:100C1000002408E002F044FD3855681EA04201D0CF
:100C200002F0AEFC641CAC42F4DB02F025FE0023B3
:100C30001A4619460548006804F026FB3046BDE810
:100C4000F0810020FBE700003C0000204000002075
:100C50002DE9F04106460D4614462F464FF6FF702B
:100C600000EA440239463046FFF7B2FF804640466C
:100C7000BDE8F0812DE9F04180460E461746154843
:100C8000007808B9FFF794FF0024611E124800683D
:100C900004F016FD012819D102F0A8FD404602F02B
:100CA0003CFC0446002504E0705D02F055FD04465E
:100CB0006D1CBD4201DA002CF6D102F0DDFD0023EF
:100CC0001A4619460448006804F0DEFA2046BDE8DA
:100CD000F08100003C000020400000202DE9F041A0
:100CE00006460D4614462F464FF6FF7000EA4402B2
:100CF00039463046FFF7BEFF80464046BDE8F081EA
:100D000001461D48814204D11C488069C0F380001F
:100D100070471B48814204D118488069C0F3C00065
:100D2000F6E71848814204D114488069C0F30010E6
:100D3000EEE71548814204D110488069C0F34010A5
:100D4000E6E71248814204D10C488069C0F3801064
:100D5000DEE70F48814204D108488069C0F3C01023
:100D6000D6E70C48814204D104488069C0F30020D2
:100D7000CEE70020CCE70000000801400010024050
:100D8000000C014000100140001401400018014017
:100D9000001C0140002001402DE9F04105460C46B1
:100DA000174698460F2C02D90020BDE8F08128464E
:100DB000FFF7A6FF18B90121284600F071F8B8F135
:100DC000000F10D1022F05D1E8680121A14088430E
:100DD000E86008E0032F06D127F00107E868012149
:100DE000A1400843E860082C01D22E4601E0083CEF
:100DF0002E1D3068A2000F2191408843306048EAE0
:100E00008700A10088403168084330600120CCE7AA
:100E1000F0B50A46002300240021002500F000461A
:100E2000B6F1004F02D11D4EF16901E01B4E716811
:100E3000C0F3034583B200F44016B6F5401F08D155
:100E400021F07061154E766826F07066134F7E6053
:100E500012E000F48016B6F5801F06D1032606FACC
:100E600005F4A14341F0706106E0460D360103FA36
:100E700006F6B14341F0706122B1460D360103FA26
:100E800006F6314300F00046B6F1004F02D1034EA2
:100E9000F16101E0014E7160F0BD00000000014011
:100EA000002945D0454A904206D1454A926942F010
:100EB0000402434B9A6180E0424A904206D1404A84
:100EC000926942F008023E4B9A6176E03E4A9042B7
:100ED00006D13B4A926942F01002394B9A616CE0AC
:100EE0003A4A904206D1364A926942F02002344B87
:100EF0009A6162E0364A904206D1314A926942F0E4
:100F000040022F4B9A6158E0324A904206D12C4A57
:100F1000926942F080022A4B9A614EE02E4A90423A
:100F20004BD1274A926942F48072254B9A6144E082
:100F3000224A904206D1224A926922F00402204BB2
:100F40009A613AE01F4A904206D11D4A926922F006
:100F500008021B4B9A6130E01B4A904206D1184AA6
:100F6000926922F01002164B9A6126E0174A9042CD
:100F700006D1134A926922F02002114B9A611CE0BB
:100F8000134A904206D10E4A926922F040020C4B5D
:100F90009A6112E00F4A904206D1094A926922F002
:100FA0008002074B9A6108E00B4A904205D1044A3F
:100FB000926922F48072024B9A61704700080140E6
:100FC00000100240000C01400010014000140140DC
:100FD00000180140001C0140002001400148007839
:100FE00070470000000000204CF6CC40014908602A
:100FF00070470000003000404AF6AA20014908600E
:101000007047000000300040014948607047000010
:101010000030004001498860704700000030004007
:1010200001490860704700000030004010B500F032
:10103000B5FAFFF757FBFFF789FD02F069FC0020C6
:101040000149087010BD0000000000200720064A7A
:101050009268C24002F001020AB1012000E00020C3
:101060000146084670470000001001400849097811
:1010700051B90849097839B90749097821B90749A7
:10108000097809B1012100E00021084670470000FD
:10109000020000200400002003000020D0030020F4
:1010A0000B20064A9268C24002F001020AB90120F0
:1010B00000E000200146084670470000000C014097
:1010C00000F0010149B1002105E000220A4B03EBC9
:1010D00081039A70491C0229F7DB00F0020149B133
:1010E000022105E00022044B03EB81039A70491CA6
:1010F0000429F7DB70470000C406002000F001015E
:1011000049B1002105E001220A4B03EB81039A70EB
:10111000491C0229F7DB00F0020149B1022105E078
:101120000122044B03EB81039A70491C0429F7DB6D
:1011300070470000C406002010B5002003E0002125
:10114000044A5170401C0428F9DB002000F022F909
:1011500010BD0000C40600202DE9F74F84B0894679
:101160009246B9F1010F01D1002000E002200446AF
:101170000021049805F0C8FE15D200208DF80E005D
:1011800001208DF80D0000208DF80F000A208DF849
:101190000C00E0B203A900F055F8611CC8B203A925
:1011A00000F050F845E0049805F0B6FC0746002230
:1011B000214B05F093FACDE9000104F0E5FF029020
:1011C00003F0FCFA05461D49284605F09DFF00D2B4
:1011D0001A4D1B49284605F039FD074605F02CFE3F
:1011E000064606EB8601480005F062FE8046294669
:1011F00005F0ECFF074605F01FFE83468DF80EA0B4
:1012000001208DF80D008DF80F00F0B28DF80C0064
:10121000E0B203A900F016F800208DF80F000BF0E3
:10122000FF008DF80C00611CC8B203A900F00AF899
:1012300000BF07B0BDE8F08F000024400000C642A8
:1012400000002041042805DA21B1034A02EB8002A4
:101250000B68136070470000C406002038B5FFF724
:101260006BFF4FF4FA7003F01FFD01208DF80300AF
:1012700000208DF8020001208DF801000A208DF871
:10128000000000208DF80300002404E0E0B269466D
:10129000FFF7D8FF641C042CF8DB012000F07AF87B
:1012A0004FF4FA7003F000FD092415E0E0B28DF868
:1012B000000001208DF80300002504E0E8B2694633
:1012C000FFF7C0FF6D1C042DF8DB012000F062F871
:1012D000FA2003F0E9FC641E002CE7DA0A208DF8FE
:1012E000000000208DF80300002404E0E0B269460D
:1012F000FFF7A8FF641C042CF8DB012000F04AF87B
:101300004FF4FA7003F0D0FC38BD000010B5022392
:1013100000220D211E48FFF73FFD022300220E216F
:101320001B48FFF739FD022300220F211848FFF761
:1013300033FD0D20002121B101228240144B1A619E
:1013400005E000F1100201239340114A136100BF30
:101350000E20002121B1012282400D4B1A6105E0CF
:1013600000F1100201239340094A136100BF0F20CE
:10137000002121B101228240054B1A6105E000F1F4
:10138000100201239340024A136100BF10BD000008
:10139000001001402DE9F041054603F081FB424871
:1013A000407B18B14048807B10B10DB9002408E0A3
:1013B0003D48007B3D490C5C3B48C07B08B144F094
:1013C000800426063848407A18B13748807A10B130
:1013D0000DB9002408E03448007A34490C5C3248E6
:1013E000C07A08B144F0800446EA04462E484079A9
:1013F00018B12D48807910B10DB9002408E02A48B1
:1014000000792A490C5C2848C07908B144F080046E
:1014100046EA04262448407818B12348807810B161
:101420000DB9002408E02048007820490C5C1E48D3
:10143000C07808B144F0800426431F271AE00F202B
:101440000122BA4032400AB1012200E000221146D6
:1014500001F0010222B101228240154B1A6105E020
:1014600000F1100201239340114A136100BF02F002
:1014700081FA7F1E002FE2DA0F20002121B1012224
:1014800082400B4B1A6105E000F1100201239340EA
:10149000074A136100BF642001F048FF02F096FA8A
:1014A00003F028FBBDE8F081C40600209203002071
:1014B0000010014030B5014609B1012000E00020D4
:1014C0000346032083F0010202F0010424B1012449
:1014D0008440054D2C6105E000F110040125A54074
:1014E000014C256100BF30BD0010014070B50728D8
:1014F00000DB70BD0A4D55F8302005EBC005AB8808
:101500000C4604F001051DB101259D40156104E064
:1015100003F110050126AE40166100BF00BFE8E7E9
:10152000CC72000830B50021084613E00B4C54F88B
:10153000301004EBC004A28801231BB101249440A5
:101540000C6104E002F110040125A5400D6100BF0B
:10155000411C08460728E9DB30BD0000CC720008BA
:1015600030B50021084613E00B4C54F8301004EB62
:10157000C004A28800231BB1012494400C6104E044
:1015800002F110040125A5400D6100BF411C084671
:101590000728E9DB30BD0000CC72000870B50024DC
:1015A0001DE0154A02EBC4029188134A52F8340038
:1015B00002230022FFF7F0FB0F4B53F8340003EB3C
:1015C000C403998801221AB101238B40036104E00E
:1015D00001F1100301259D40056100BF641C072C2B
:1015E000DFDB0223012203210448FFF7D5FB0020A3
:1015F000FFF760FF70BD0000CC72000800100140D2
:1016000003F0DCF903F070F900F016FE03F060F966
:1016100000BF012003F048FB01200D4908700D4870
:1016200000780028F5D00120FFF744FF0A4800F0B9
:10163000D3F8044600200749087014B1204600F092
:1016400085F903F045F90020FFF734FFE1E70000DA
:101650001F00002024000020640400202DE9F84F22
:101660008146B9F1000F0AD100BFA02080F3118894
:10167000BFF34F8FBFF36F8F00BF00BFFEE70020A7
:101680000346024603210090484604F03BFD3249E0
:101690003248006805F038FD01D8002408E03049E0
:1016A0002E48006805F030FD01D8012400E0022436
:1016B0002C4800EBC40080884FF6FF71884221D08F
:1016C000284800EBC400C08888421BD0254901EBA4
:1016D000C401C88805F004FC824605F01DFA0746DF
:1016E0000022214B04F036FE054604F04DFD1F4953
:1016F00008604FF080411D48006805F0A7FA1B49BB
:10170000086012E0174901EBC401488805F0E8FBC6
:10171000824605F001FA05460022134B04F01AFE3A
:10172000074604F031FD1149086011490F4800686F
:1017300005F0EAFC06D34FF07E510C48006805F036
:10174000E3FB03D24FF07E500849086001200949AD
:101750000870BDE8F88F00000000C0400C000020B9
:101760000000A040D406002000002440B803002060
:101770000000C642D003002010B503F0B5F80120E8
:101780000149087010BD00002400002010B5044677
:101790000E480078C8B900210D4800F072FE002103
:1017A0000B4800F083FE0121094800F06AFE094859
:1017B0000078FA2801DB02F0D5FF064801780078AE
:1017C000401C044A1070501C445410BD24000020DA
:1017D000000800406404002070B505460DB90020E3
:1017E00070BD284602F0B2F808B90020F8E76C1C7A
:1017F000FFF7F4FB2178884201D00020F0E70026B3
:101800006078032802D0102810D107E02878001F44
:10181000C1B2A01C00F006F906460DE02878001FB2
:10182000C1B2A01C01F0F8FB064605E0607801217A
:1018300002F07EF9064600BF00BF0EB10148CFE7B7
:101840000020CDE75F05002029B1064AD269024396
:10185000044BDA6104E0034AD2698243014BDA6146
:10186000704700000010024029B1064A9269024305
:10187000044B9A6104E0034A92698243014B9A61E6
:10188000704700000010024010B5014600220023FE
:1018900000204A11012A02D1094C236806E0022ADD
:1018A00002D1074C236A01E0054C636A01F01F0274
:1018B000012494401C400CB1012000E0002010BD28
:1018C0000010024001490860704700008004424255
:1018D0002DE9F04107460D4615B90020BDE8F0811D
:1018E000384601F02DFE04465CB1606848B160885E
:1018F000616888470646002E02DB2E800120EDE756
:1019000000BF0020EAE72DE9F04105460E462846D3
:1019100001F016FE044654B1A06838B16088A26890
:101920003146904707463846BDE8F08100BF0020A9
:10193000FAE730B50546284601F002FE04461CB120
:10194000A06808B1012030BD0020FCE710B50446B6
:1019500004B910BD02F06AFD00200B4908600AE0DE
:10196000611C094A1268885C02F01AFE0648006889
:10197000401C054908602078034909688842EFDC6B
:1019800002F03EFD00BFE4E7280000202DE9F84307
:101990008046022269466420FFF71AF918B94FF011
:1019A000FF30BDE8F883BDF8000005F099FA044661
:1019B000154905F0A9FA08D3BDF8000005F090FA22
:1019C0000446124905F0A0FB06D246200090BDF85F
:1019D0000010002001F0E2FABDF8000005F080FAE6
:1019E0000B4908600846006805F096F80646002294
:1019F000084B04F0AFFC044604F0C6FB0449086041
:101A0000BDF80000CDE70000000020420000C84201
:101A10000C00002000002440014601480078704777
:101A2000010000202DE9F043B3B00546894615B109
:101A3000B9F1040F03D0002033B0BDE8F0832C4689
:101A40006088000AA17840EA012060802088000AAE
:101A5000217840EA012020806088642805DD032188
:101A6000084602F065F80120E6E70DF101070026BF
:101A7000B4F800801AE007EB46014046FFF728FF64
:101A800028B90221032002F053F80120D4E737F8E7
:101A90001600000A17F8161040EA012027F8160071
:101AA00008F101001FFA80F8701CC6B22088618816
:101AB00008444045DFDCA0784006000E8DF80000A9
:101AC000FFF78CFA8046A078012101EB4000C3B2F9
:101AD0006A460321404602F053F80120ACE70000BB
:101AE0002DE9FC4701218748FFF792F900230322E3
:101AF0000B218548FFF750F9022300220721834874
:101B0000FFF74AF90223002208218048FFF744F931
:101B10000720002121B1012282407C4B1A6105E09F
:101B200000F1100201239340784A136100BF0021A5
:101B30000846FFF7DBFC002002F012FF002403221E
:101B400069466620FFF784F808B9012406E0BDF86D
:101B5000000010B1BDF8020000B9012474B36C4854
:101B60006C49086000206C4908606C4908606C4949
:101B70006848006805F0FCF9054605F079F980B27F
:101B8000ADF8000066496448006805F0F1F90546C3
:101B900005F06EF980B2ADF8020061495F48006857
:101BA00005F0E6F9054605F063F980B2ADF80400EA
:101BB000032269466620FFF791F832E0BDF8000085
:101BC00005F08EF9814604F0A7FF07460022554B29
:101BD00004F0C0FB054604F0D7FA4E490860BDF892
:101BE000020005F07DF9814604F096FF07460022C9
:101BF0004C4B04F0AFFB054604F0C6FA46490860BA
:101C0000BDF8040005F06CF9814604F085FF074635
:101C10000022444B04F09EFB054604F0B5FA3F4910
:101C20000860012240496C20FFF712F810B13E48CD
:101C3000008830B905203C49088001226C20FFF75C
:101C40004DF8012239496E20FFF702F810B13748EC
:101C5000008830B95A203549088001226E20FFF7EC
:101C60003DF8012232497020FEF7F2FF10B13048F2
:101C7000008830B906202E49088001227020FFF725
:101C80002DF818222B494FF49670FEF7A1FF10B9DA
:101C900002F0CEFD19E00025002010E0254901EBFF
:101CA000C0010988282905DB224901EBC001098808
:101CB000462901DD012100E000210D43401C0328DD
:101CC000ECDB0DB102F0B4FD00BF01221A49722015
:101CD000FEF7BEFF10B11848008830B9052016493C
:101CE000088001227220FEF7F9FF134800881428AB
:101CF00006DD14201049088001227220FEF7EEFF55
:101D0000BDE8FC8700023000000C014000100140DB
:101D10000000E040AC030020A4030020A803002042
:101D200000007A4400408F40B0030020B20300203E
:101D3000B4030020D4060020B603002001460C297D
:101D40002BD2DFE801F006090C0F1215181B1E211B
:101D5000242714480088704712484088FBE7114840
:101D60008088F8E70F48C088F5E70E480089F2E759
:101D70000C484089EFE70B488089ECE70948C089A7
:101D8000E9E70848008AE6E70648408AE3E70548AD
:101D9000808AE0E70348C08ADDE700BF00BF4FF05C
:101DA000FF30D8E7D406002073B504460025012C87
:101DB00005D0052C03D0092C01D000207CBD4FF4A8
:101DC000967000EB440086B2012201A93046FEF76E
:101DD00085FF05469DB1012C04D1BDF804000949D9
:101DE00048800CE0052C04D1BDF804100548418161
:101DF00005E0092C03D1BDF80410024841822846B1
:101E0000DCE70000D406002070B504464FF0FF3533
:101E100024B1012C0CD0022C1ED113E01149124820
:101E2000006805F0A5F8064605F006F8054616E038
:101E30000C490E48006805F09BF8064604F0FCFFCC
:101E400005460CE007490A48006805F091F8064687
:101E500004F0F2FF054602E04FF0FF3500BF00BF7F
:101E6000284670BD00007A44AC030020A403002083
:101E7000A80300200146014800887047B6030020EF
:101E80002DE9F04704464FF0FF3A04F0FF09B9F19D
:101E90000D0F7BD2DFE809F07A070B0F131D222705
:101EA0003949546671003B4890F800A06EE03A480A
:101EB00090F800A06AE0394890F800A066E0384940
:101EC0003848006805F054F8054604F0B5FF82462E
:101ED0005CE00020FEF7A6FC824657E00120FEF7FA
:101EE000A1FC824652E02E492F48006805F040F8D8
:101EF000804602F063FC074604F00EFE21F000412C
:101F0000054604F07FFB824640E02848006804F064
:101F100003FE21F0004107460022254B04F0DEFBC2
:101F2000054604F06FFB824630E000211F48006840
:101F300005F0EAF801D8012000E00020824625E003
:101F400017491C48006805F013F8804602F036FC7B
:101F5000074604F0E1FD21F00041054604F052FB84
:101F6000824613E000211348006805F0CDF801D83F
:101F7000012000E00020824608E00F4908680028A0
:101F800001DB014600E041428A4600BF00BF5046E7
:101F9000BDE8F087020000200400002003000020BC
:101FA0000000C8420C000020B8030020BC03002041
:101FB00000005940C0030020C40300200146014A2C
:101FC00010887047B40300200146014A108870470A
:101FD000B20300200146014A10887047B003002078
:101FE0002DE9F35F0446022C02DD0020BDE8FC9FD2
:101FF000662000EB44001FFA80FA022201A9504635
:10200000FEF738FE8146B9F1000F3DD024B1012C16
:1020100014D0022C36D123E0BDF8040004F060FF98
:10202000834604F079FD07460022184B04F092F92C
:10203000054604F0A9F81649086024E0BDF804003C
:1020400004F04EFF834604F067FD074600220F4B65
:1020500004F080F9054604F097F80E49086012E094
:10206000BDF8040004F03CFF834604F055FD05462E
:102070000022064B04F06EF9074604F085F8064985
:10208000086000E000BF00BF4846AFE700408F4057
:10209000AC030020A4030020A803002073B505466C
:1020A000BDF804000A2801DD0A200190012201A9DF
:1020B0007220FEF713FE04461CB1BDF8040002496D
:1020C000088020467CBD0000B603002073B505469D
:1020D000BDF80400032802DA0320019005E0BDF8F2
:1020E00004000A2801DD0A200190012201A97020C4
:1020F000FEF7F4FD04461CB1BDF804000149088058
:1021000020467CBDB403002073B50546012201A919
:102110006E20FEF7E3FD04461CB1BDF80400024941
:10212000088020467CBD0000B203002073B5054640
:10213000012201A96C20FEF7D1FD04461CB1BDF8B7
:1021400004000249088020467CBD0000B003002046
:1021500038B5002014490860144908601449086023
:1021600014481549086015480088002805DD134803
:1021700000884FF47A71484300E0642004466425E7
:10218000642000232246042100900D48006803F0DB
:10219000B9FF012803D00A480068FFF75FFA012061
:1021A00002F0C4FB38BD0000BC030020C0030020C7
:1021B000C80300200000E040CC030020B003002052
:1021C000D403002008B51548006850B900BFA0200E
:1021D00080F31188BFF34F8FBFF36F8F00BF00BF35
:1021E000FEE7002003460246032100900B480068EA
:1021F00003F088FF00200A4908604FF07E5009492B
:10220000086000200849086008490860084908700B
:102210000849087002F08AFB08BD0000D4030020C2
:10222000C0030020B8030020BC030020C803002026
:10223000D0030020D103002010B502230022082182
:102240002F48FEF7A9FD0820002121B1012282407C
:102250002B4B1A6105E000F1100201239340284A3C
:10226000136100BF2748806940F480402549886198
:1022700040F2413024490880081D008842F22C01B8
:1022800008432149091D08801E48806940F0050067
:102290001C4988611A48001D006820F0C0001849D8
:1022A000091D08600846006840F080000860084684
:1022B000006840F0100008600846006820F44060A4
:1022C00008600846006840F48060086008460068BE
:1022D00020F440700860252000280DDB00BF00BFFF
:1022E00000F01F02012191404209920002F1E02218
:1022F000C2F8001100BF00BF00BF62B610BD0000F1
:102300000008014000100240083801402DE9F0416A
:1023100006460C4600251749304604F0F5FD01D26B
:10232000022505E01449304604F0EEFD00D20125F7
:102330001249304604F01CFE804602F03FFA074680
:1023400004F096FD0E4901EBC50188800B4920463B
:1023500004F00EFE074604F08BFD094901EBC501B0
:10236000C880182206494FF49670FEF783FCBDE83A
:10237000F08100000000A0400000C04000002041AB
:10238000D4060020704700002DE9F047044620469F
:1023900004F0C2FB074600220A4B04F09FF90546F1
:1023A00003F0F2FE0446204602F008FA054604F067
:1023B0005FFD1FFA80F94946002000F0EFFDBDE8FF
:1023C000F08700000000244010B500BFA02080F37B
:1023D0001188BFF34F8FBFF36F8F00BF03F034FB43
:1023E00018B14FF080500449086000BF002080F30E
:1023F000118800BF10BD000004ED00E010B51648C4
:10240000006840F00100144908600846406813491C
:1024100008401149486008460068114908400E49C3
:1024200008600846006820F480200860084640687C
:1024300020F4FE0048600846006820F0A0500860C4
:102440004FF47F0088600020C862FFF79BFF4FF0C9
:1024500000600449086010BD001002400000FFF059
:10246000FFFFF6FE08ED00E010B50121024800F084
:1024700005F8FFF781F910BD00080040CA43028249
:10248000704721B1028842F00102028004E0028814
:102490004FF6FE731A40028070471AB183890B43CE
:1024A000838102E083898B438381704781847047F5
:1024B000002202881D4B98420ED01D4B98420BD033
:1024C000B0F1804F08D01B4B984205D01A4B984270
:1024D00002D01A4B984204D14FF68F731A404B88A2
:1024E0001A43174B984207D0164B984204D04FF628
:1024F000FF431A40CB881A4302808B8883850B8860
:1025000003850A4B98420BD0094B984208D00E4BDA
:10251000984205D00D4B984202D00D4B984201D104
:102520000B7A03860123838270470000002C014050
:10253000003401400004004000080040000C00404E
:1025400000100040001400400040014000440140E1
:10255000004801404FF6FF71818000210180C18059
:10256000418001727047000000BF012015490870CA
:10257000FEF794F8044614480078844220D04FF4C3
:10258000FA6002F091FB01200E490870FEF786F810
:10259000A04215D10C490C7000250FE00120FEF778
:1025A00089FFC82002F080FB012006490870002046
:1025B000FEF780FFC82002F077FB6D1CA542EDDB23
:1025C000D3E700001C0000200000002008B500BF79
:1025D00003F034FA009000BF00BF4FF4FA51684690
:1025E00003F0B0F900BF1748007800B91EE01648A4
:1025F000007800B91AE01548007800B916E01448D0
:10260000007800B912E01348007800B90EE01248D3
:10261000007800B90AE01148007800B906E01048D7
:10262000007800B902E002F0A3F8D5E700BFFEF79A
:1026300097FF642002F038FBFEF774FF642002F07D
:1026400033FBF4E71C0000201D0000201E000020CA
:102650001F00002020000020210000202200002078
:10266000230000201FB500BF00BF00BF4FF00009CE
:10267000CA46CB4600250026002003900290019018
:10268000009000BF01203E49087000F047FD07465A
:1026900000F036FD804600F025FD04468FB9B9F103
:1026A000000F0CD0029830B9B5F5FA7F05DA012099
:1026B0003449087001E000200090002002900025BD
:1026C00011E0B9F1000F0ED01935B5F5966F0ADD9E
:1026D000B6F5966F07DD009828B901202A490870E1
:1026E000029001900090B8F1000F11D1BAF1000FE3
:1026F0000CD0019830B9B6F5FA7F05DA01202349EC
:10270000087001E00020009000200190002611E0F8
:10271000BAF1000F0ED01936B5F5966F0ADDB6F591
:10272000966F07DD009828B90120174908700290BC
:102730000190009044B900200390BBF1000F18D025
:1027400001201349087014E01248007878B9BBF1F1
:10275000000F0CD00398193003900398B0F5966FD2
:1027600007DD01200B4908700020039001E00020E4
:102770000390C246B946A346192002F095FA81E7B4
:102780001E00002010000020120000201100002078
:10279000140000201300002008B5002002F0E0F82B
:1027A000002053490860534908604FF47A7002F0E2
:1027B0007BFA00BF012050490870FEF757FC18B99A
:1027C000322002F071FAF5E703F038F9009000F0DA
:1027D0001FFD4848006849490860084601684848A4
:1027E000006804F0C5F94649086046494448006855
:1027F00004F08AFC02D24348414908604FF07E5100
:102800003F48006804F080FB03D24FF07E503C4903
:1028100008603D49098801EB8101480004F048FB4C
:10282000834637480168584604F0A2FB824604F00C
:1028300003FB36490860084605683348008800EB0A
:102840004001C1EBC0106421C1EBC000A0EB050842
:102850002C46642C02DD012002F082F80EE0B4F573
:102860007A7F02DD4FF47A7000E0601C074638463C
:1028700002F01AFAE41B01201F490870002CEEDC5C
:102880004446002002F06CF80EE0B4F57A7F02DDD9
:102890004FF47A7000E0601C0746384602F004FAF4
:1028A000E41B012014490870002CEEDC03F0C6F88C
:1028B00006460099701A1449098801EB4102C2EBDF
:1028C000C111B0EBC10F0AD20098301A0E49098825
:1028D00001EB4102C2EBC111C0EBC10901E04FF0B5
:1028E0000A0900BF4946684603F02CF800BF61E7BB
:1028F000C8030020BC03002023000020C0030020E8
:10290000B80300200000C642B4030020C403002026
:1029100008B50124FEF7FAFCFEF7A0FC00BF03F0A7
:102920008DF8009000BF01201749087000BF4FF4D8
:10293000FA71684603F006F800BF2046FEF72AFD4C
:102940001248007810B10CB1012000E000200146CF
:102950000320FEF7CBFD0E48007810B10CB101202A
:1029600000E0002001460220FEF7C0FD0948007883
:1029700010B10CB1012000E0002001460120FEF75B
:10298000B5FD84F00104CEE7210000200400002002
:1029900003000020020000201FB500BF0024002516
:1029A0000026012072490870FFF79AF8012071494A
:1029B000087040F6C41002F077F901206C490870E5
:1029C00040F6C41002F070F9012069490870002037
:1029D000012103468022CDE9001067A1684802F07A
:1029E0007DFF6848009068480088002805DD66483B
:1029F00000884FF47A72504300E00A200146002319
:102A0000012262A003F038FB6449086003F016F865
:102A1000039000BF01205649087000BF642103A83D
:102A200002F090FF00BF0020FEF7F6FF012805D15D
:102A30005B48007810B95B48007830B1FEF706FBC0
:102A400010B1002001F072FFE4E7FEF729FB80F0EF
:102A5000010048490978884211D0FEF721FB80F037
:102A60000100444908700846007828B1FFF7AAFB26
:102A7000002001F075FF01E0FFF76AFBCAE73D485F
:102A8000007800B1C6E7FEF7E1FA10B9012001F0C5
:102A90004DFF02A8FDF75EFE434908600021424851
:102AA000006804F031FA0CD23D48007850B9643522
:102AB00041F28830854205D9012039490870002546
:102AC00000E00025394801683748006804F088FBB9
:102AD000834604F021F821F0004107460022344BE0
:102AE00003F0FAFE0ED264343248008800EB400155
:102AF000C1EBC010B4EBC00F05D900240120294957
:102B0000087000E00024294801682748006804F0A4
:102B100067FB834604F000F821F000410746264A8F
:102B2000264B03F09FFD1DD2643609F101092448AC
:102B30000168504604F01CF882464EF6602086423A
:102B400014DD00265746484604F0B2F98046414657
:102B5000384604F07BF80746394614480068FFF70A
:102B6000D5FB03E04FF00009CA46002652E70000FB
:102B700022000020020000204B6C6170616E00009A
:102B8000992700085D160008B003002054696D65A0
:102B900072526567756C61746F720000D403002017
:102BA0000400002003000020080000200C0000208A
:102BB0000000F03FB20300209A9999999999C93F72
:102BC000B803002008B5022300220621D248FEF7F0
:102BD000E3F80020FEF7DAFE0120D0490870D04962
:102BE000087000BF322002F05FF80120CD49087064
:102BF000CD48007828B9CD48007810B9C848007889
:102C000008B1012000E000200446C44800780128F3
:102C100004D0022873D0032872D112E1C249097886
:102C200011B9C249097809B1012100E00021084623
:102C300001F066FE00210420FEF758FC002105206B
:102C4000FEF754FC6846FDF785FDB9490860B448B5
:102C5000007828B100220121B648FEF77DFA05E090
:102C600000220121B2480068FEF776FA0022022114
:102C7000B1480068FEF770FA34B10120FEF73EFA61
:102C80000220FEF71DFA05E00120FEF719FA0220E6
:102C9000FEF716FAA948007868B100F02DFBA048AD
:102CA0000078002862D0FEF7D1F900285ED102201A
:102CB0009A4908705AE0A248007810B300F01CFB53
:102CC0009D48006803F028FF07469E4A9E4B03F08C
:102CD0008DFA054600229D4B03F0C4FC46D296486F
:102CE000006803F019FF0746964A974B03F07EFAF7
:102CF000054603F049FA8346FFF746FB36E036E027
:102D000002E19348007800B300F0F6FA8A480068C0
:102D100003F002FF07468B4A8B4B03F013FE054678
:102D20000022134603F0D8FD20D28348006803F048
:102D3000F3FE0746834A844B03F004FE054603F086
:102D400023FA8346FFF720FB10E08248007868B141
:102D500000F0D2FA00F0E6FA0120704908707049DC
:102D600008700020714908706F490870D2E0002097
:102D700001F0C6FD01210420FEF7B8FB002105206B
:102D8000FEF7B4FB0020FDF7C9FC81460120FDF7EA
:102D9000C5FC8246002201214846FEF7DDF90022EB
:102DA00002215046FEF7D8F964480078A0B300F03D
:102DB000A3FA0020FDF70EFD85B229460020FDF79D
:102DC00055FE0120FDF706FD85B229460120FDF7DD
:102DD0004DFE0020FDF7A2FC81460120FDF79EFC80
:102DE0008246002201214846FEF7B6F90022022160
:102DF0005046FEF7B1F9642001F056FF0320FEF7BC
:102E00007DF940F2DC5001F04FFF0320FEF758F946
:102E100003204249087013E0FFE74948007828B1D1
:102E200000F06AFA03203D49087009E04A4800783A
:102E300030B100F061FA0120384908703849087053
:102E400068E0002001F05CFD00210420FEF74EFB4D
:102E500001210520FEF74AFB0020FDF75FFC8146BB
:102E60000120FDF75BFC8246002201214846FEF767
:102E700073F9002202215046FEF76EF92F480078C0
:102E8000B0B300F039FA0020FDF7A4FC85B2294662
:102E90000020FDF707FE0120FDF79CFC85B22946C6
:102EA0000120FDF7FFFD0020FDF738FC81460120E1
:102EB000FDF734FC8246002201214846FEF74CF91A
:102EC000002202215046FEF747F9642001F0ECFE93
:102ED0000320FEF713F940F2DC5001F0E5FE032079
:102EE000FEF7EEF801200D4908700D4908700AE060
:102EF000FFE71948007830B100F0FEF901200749DA
:102F000008700749087005E0012004490870FFF7C0
:102F10001FF900BF66E6000000100140010000201C
:102F2000020000201D0000200400002003000020FB
:102F300008000020000080BF0C00002012000020CC
:102F4000100000209A9999999999B93F000024405E
:102F500011000020130000201400002010B50B48C1
:102F6000008840F22551084078B10848008800F0F8
:102F7000070038B9054800F00BF80446E0B2FEF748
:102F800005FC02E0014800F003F810BD00380140E4
:102F900001468888C0F30800704700002DE9F3411E
:102FA0008046BDF8040003F09BFF0446164903F079
:102FB000ABFF08D3BDF8040003F092FF04461349A9
:102FC00004F0A2F802D20020BDE8FC81022201A98F
:102FD0006420FDF74FFEA8B1BDF8040003F080FFA8
:102FE0000B4908600846006803F096FD064600227B
:102FF000084B03F0AFF9044603F0C6F80449086033
:103000000120E1E70020DFE7000020420000C84285
:103010000C000020000024402DE9F84305468846B6
:1030200015B1B8F1070F02D20020BDE8F8832C4695
:103030006088000AA17840EA012060802088000AA8
:10304000217840EA012020806188642906DC20790B
:1030500000EBD07149106288914205D00321102005
:1030600000F066FD0120E0E700260CE021883144F5
:1030700088B2FEF75EFC28B90321102000F058FD4D
:103080000120D2E7761C6088B042EFDC671D002685
:103090000CE037F81620120A17F8163042EA03211E
:1030A0002288324490B2FEF72EFC761C6088B04233
:1030B000EFDC2088000A217840EA0120ADF800000A
:1030C0006088000AA17840EA0120ADF80200FDF70F
:1030D00085FF064604236A46102100F051FD0120B9
:1030E000A3E700000C2005498968C14001F00101F7
:1030F00009B9012070470020FCE7000000100140E2
:103100000A2005498968C14001F0010109B901207F
:1031100070470020FCE70000001001400B2005492B
:103120008968C14001F0010109B901207047002000
:10313000FCE700000010014000B585B00121480205
:10314000FEF792FB6846FDF7A0FA002000908DF88C
:1031500004008DF805004FF46020029000200390D9
:1031600001208DF8100069461148FDF7F5F901219D
:103170000F48FDF7C4F90523012200210C48FDF793
:1031800013FA0B48FDF76CFA00BF0948FDF7D9F9AF
:103190000028FAD10648FDF773FA00BF0448FDF78E
:1031A000B9F90028FAD103490880488005B000BD6C
:1031B000002401402C00002010B504460523012204
:1031C00021460948FDF7F0F901210748FDF74DFABE
:1031D00000BF02210448FDF7ABF90028F9D00248EE
:1031E000FDF7A2F910BD000000240140F0B505462E
:1031F0000E464FF6FF77002406E0295DB8B2FDF7D2
:10320000BBFC0746601CC4B2B442F6DBB8B2F0BDEA
:103210002DE9F84F2D4801682D48006803F0E0FFC4
:1032200000902C480099006803F0A2FE83462A48CB
:103230000099006803F09CFE044628480168204677
:1032400003F096FC044625480460254801682048A0
:10325000006803F0C5FF824622480168504603F02B
:1032600087FE82461A4800681D4908602146584674
:1032700003F07EFC0546514603F07AFC8146484641
:1032800003F04AFC21F0004105460022164B03F0F2
:1032900023FB15D20021484603F036FF02D8DFF8A1
:1032A0004C900DE0DFF84490484603F035FC0746AB
:1032B00000220F4B03F012FA054602F065FF81462B
:1032C0000C48C0F80090BDE8F88F00000C0000200A
:1032D00008000020AC030020A4030020C803002045
:1032E000CC030020A803002000003E400000F04175
:1032F0000000F0BFBC03002000200549087005490C
:10330000087005490870054908700549087070473C
:1033100012000020100000201100002013000020E7
:103320001400002010B500F006F810BD00E0401EAB
:103330000028FCDA7047F8B5322700208DF802002B
:103340008DF803000026E2E000252FE02C46012046
:103350008DF801000B208DF80000E8B26946FDF7FA
:1033600071FF00208DF80100601C0446032800DD79
:10337000241FE0B26946FDF765FF601C0446032880
:1033800000DD241FE0B26946FDF75CFF601C0446C7
:10339000032800DD241FE0B26946FDF753FF00203B
:1033A000FDF7F8FF322001F07FFC6D1C042DCDDB12
:1033B00001208DF801000C208DF8000069460320E3
:1033C000FDF740FF00208DF801006946FDF73AFF48
:1033D00069460120FDF736FF69460220FDF732FFFE
:1033E0000020FDF7D7FF322001F05EFC01208DF8B0
:1033F00001000D208DF8000069460320FDF722FF33
:1034000000208DF801006946FDF71CFF6946012088
:10341000FDF718FF69460220FDF714FF0020FDF7B5
:10342000B9FF322001F040FC03252FE02C4601209B
:103430008DF801000E208DF80000E8B26946FDF716
:1034400001FF00208DF80100601C0446032800DD08
:10345000241FE0B26946FDF7F5FE601C0446032810
:1034600000DD241FE0B26946FDF7ECFE601C044657
:10347000032800DD241FE0B26946FDF7E3FE0020CB
:10348000FDF788FF322001F00FFC6D1E002DCDDA14
:1034900001208DF801000F208DF800006946002002
:1034A000FDF7D0FE00208DF8010069460120FDF7F0
:1034B000C9FE69460220FDF7C5FE69460320FDF7F7
:1034C000C1FE0020FDF766FF322001F0EDFB012078
:1034D0008DF8010010208DF8000069460020FDF7EE
:1034E000B1FE00208DF8010069460120FDF7AAFE1B
:1034F00069460220FDF7A6FE69460320FDF7A2FEFD
:103500000020FDF747FF322001F0CEFB761C032E92
:10351000FFF61AAFFDF710FEF8BD31B5A02000F0A0
:103520001BF9044654B16D46687800F015F904465D
:103530001CB1287800F010F9044600BF204638BDC1
:10354000F0B5014600254FF44C720C2392FBF3F0CA
:1035500084B200200CE000EB4006084F37F82660EC
:103560008E4204D100EB400607EB860502E0401CCA
:10357000A042F0DB00BF2846F0BD00006200002042
:1035800010B50223012207211848FDF705FC07208A
:10359000002121B101228240144B1A6105E000F1A3
:1035A000100201239340114A136100BF062001213C
:1035B00021B1012282400D4B1A6105E000F1100299
:1035C00001239340094A136100BF0620002121B165
:1035D00001228240054B1A6105E000F1100201232F
:1035E0009340024A136100BF10BD0000000C01406F
:1035F00010B50223012206211348FDF7CDFB00235D
:10360000012207211048FDF7C7FB0620012121B147
:10361000012282400C4B1A6105E000F110020123E7
:103620009340094A136100BF0720012121B1012203
:103630008240054B1A6105E000F11002012393401E
:10364000014A136100BF10BD000C014010B50621F6
:10365000012222B101238B40104C236105E001F1CE
:10366000100301249C400D4B1C6100BF07210B4A35
:103670009268CA4002F0010000BF0621002222B178
:1036800001238B40054C236105E001F11003012467
:103690009C40024B1C6100BF10BD0000000C0140AB
:1036A00070B500260023012207210848FDF774FBAE
:1036B000072507E0FFF7CAFF044604FA05F0304388
:1036C000C6B26D1E002DF5DA304670BD000C01400B
:1036D00010B502467AB90720002121B101238340A9
:1036E0001C4C236105E000F1100301249C40194BA0
:1036F0001C6100BF0FE00720012121B1012383409D
:10370000144C236105E000F1100301249C40114B8F
:103710001C6100BF00BF0620012121B101238340AD
:103720000C4C236105E000F1100301249C40094B7F
:103730001C6100BF0620002121B101238340054CFC
:10374000236105E000F1100301249C40014B1C6142
:1037500000BF10BD000C014070B5054600260223D5
:10376000012207212048FDF717FB07240BE0012168
:10377000A1402940002901DD012100E00021084687
:10378000FFF7A6FF641E002CF1DA002301220721B7
:103790001548FDF701FB0620012121B101228240DD
:1037A000114B1A6105E000F11002012393400E4A0B
:1037B000136100BF07200C498968C14001F0010175
:1037C00001B901260620002121B101228240064BC9
:1037D0001A6105E000F1100201239340024A1361CF
:1037E00000BF304670BD0000000C014010B5022340
:1037F000012207211F48FDF7CFFA0720012121B13F
:10380000012282401B4B1A6105E000F110020123E6
:103810009340184A136100BF0620012121B1012203
:103820008240144B1A6105E000F11002012393401D
:10383000104A136100BF0720002121B101228240FC
:103840000C4B1A6105E000F1100201239340094A74
:10385000136100BF0620002121B101228240054BE7
:103860001A6105E000F1100201239340014A13613F
:1038700000BF10BD000C014010B50720002121B190
:1038800001228240214B1A6105E000F11002012360
:1038900093401E4A136100BF0620002121B101227E
:1038A00082401A4B1A6105E000F110020123934097
:1038B000164A136100BF0223012207211348FDF7B6
:1038C0006BFA0620012121B1012282400F4B1A61BF
:1038D00005E000F11002012393400C4A136100BF80
:1038E0000720012121B101228240084B1A6105E025
:1038F00000F1100201239340044A136100BF00232A
:10390000012207210148FDF747FA10BD000C0140D4
:1039100070B549F640444FF4C3650120FDF7D2FF6E
:1039200000BF6120FDF7B0FF0028FAD045F25550E6
:10393000FDF776FB0620FDF767FB4FF4C360FDF74C
:1039400069FBFDF759FBFDF74FFB70BD70B50446F1
:103950002078801E611C0D5A2078801EC1B2601C28
:10396000FFF744FC0646B54201D1012070BD00209E
:10397000FCE7000000B51420FFF7D8FC0D20012162
:1039800021B101228240104B1A6105E000F11002C2
:10399000012393400C4A136100BF1420FFF7C6FCBB
:1039A0000D20002121B101228240074B1A6105E060
:1039B00000F1100201239340034A136100BF142059
:1039C000FFF7B4FC00BD00000010014000B514205A
:1039D000FFF7ACFC0E20012121B101228240104BE7
:1039E0001A6105E000F11002012393400C4A1361B3
:1039F00000BF1420FFF79AFC0E20002121B1012204
:103A00008240074B1A6105E000F110020123934048
:103A1000034A136100BF1420FFF788FC00BD0000BB
:103A2000001001401CB5FDF701FB002001210346F9
:103A30008022CDE9001027A1284801F04FFF002087
:103A4000012103468022CDE9001025A1264801F07E
:103A500045FF002002210346CA02CDE9001023A140
:103A6000244801F03BFF0020012103468022CDE9DC
:103A7000001021A1224801F031FF0020012103465E
:103A80008022CDE900101FA11F4801F027FF002070
:103A9000012103468022CDE900101CA11D4801F040
:103AA0001DFF0020012103464A02CDE900101AA1A2
:103AB0001C4801F013FF0020012103468022CDE9BC
:103AC000001019A1194801F009FF01F007FA0020C0
:103AD0001CBD000041444452455353006925000871
:103AE000414E414C4F470000910800084D6F646201
:103AF00075730000011600084C6564734469670023
:103B00001129000842544E0065260008574F524BB9
:103B100000000000C52B0008526567756C61746F6A
:103B2000720000009929000857647400CD25000830
:103B30007CB504460D46FDF751FA8DF8000004F0FF
:103B40003F0040F080008DF801008DF80250032105
:103B50006846FFF74BFBADF80300FB210748FCF775
:103B600016FC06480099C0F801109DF80410417138
:103B700005200249087001207CBD00005F0500207F
:103B80002DE9F0478046894616461C46002C02DD8A
:103B90000EB9BDE8F087F52C00D9FAE7FB211548EE
:103BA000FCF7F5FB134D6D1C85F8008085F801903E
:103BB0005CB14FF0000A06E022463146A81CFCF733
:103BC000A1FB0AF1010AA245F6DBA01C0949087015
:103BD00008460178401CFFF709FB074605490A78AB
:103BE000491C8F52481E0078801C491E087000BF77
:103BF000CFE700005F0500202DE9F04105460F46A4
:103C00001748066817480068001D00F005FF50B906
:103C10001448006890F82C10012088401249096867
:103C200081431148016074190E4800684460B44231
:103C300007D20C480168091D0C48006800F016FF07
:103C40000CE008480168091D0948006800F00EFFF3
:103C500008480068844201D206480460BDE8F0814B
:103C60002404002014040020280400201C04002048
:103C7000180400204004002010B5044600F010FF96
:103C80002F480068401C2E4908602E48006840B943
:103C90002C4804600846006801280DD100F0F4F9B2
:103CA0000AE02948006838B926480068C06AE16A15
:103CB000884201D82348046024480068401C2349F6
:103CC000086094F82C1001208840214909680843B5
:103CD0001F490860E16A01EB81011E4A02EB810184
:103CE0004868A0608268E260211D8268516081603E
:103CF000E16A01EB8101174A02EB81026261E16A2C
:103D000001EB8101134A52F82110491CE26A02EBCF
:103D10008202104B43F8221000F0ECFE0A480068C3
:103D200068B108480068C06AE16A884207D24FF06B
:103D3000805009490860BFF34F8FBFF36F8F10BDEC
:103D400020040020140400202C0400203C04002047
:103D500028040020EC6E002004ED00E010B500F017
:103D60009FFE0C48006890B90B4800F06FFE0B48AE
:103D700000F06CFE08480A490860084809490860D4
:103D800000220C21032001F0DEF90249086000F056
:103D9000B1FE10BD58040020646F0020786F002031
:103DA0005004002054040020704770B504460D46AE
:103DB000206C70B1216CE0680144E160D4E902102C
:103DC000884201D32168E1602846226CE168FCF753
:103DD00099FA70BD2DE9F04104460F4615464FF0A3
:103DE0000008A66B206C48B9206800282CD1A06878
:103DF00001F008FF80460020A06025E07DB939462B
:103E0000226C6068FCF77EFA216C60680844606090
:103E1000D4E90101884217D32068606014E0394674
:103E2000226CE068FCF76EFA216CE068411AE160F0
:103E30002168E068884203D2216CA068411AE160E1
:103E4000022D01D106B1761E701CA0634046BDE86C
:103E5000F08101464A6A22B10A6B1268C2F103007E
:103E600000E00020704700000146084A126812680E
:103E70000AB9012200E000220A600A6822B9034A56
:103E80001268D268106800E00020704750040020DB
:103E900030B54FF4D043154800F007042CB1C01DD5
:103EA00020F00700114C041B1B1B0246104C226023
:103EB00000240F4D6C60D018083820F007000D4C1E
:103EC000206000240B4D2D686C600A4D2D682C601D
:103ED0001146441A4C60074C24680C60064D4C682F
:103EE0002C60064D4C682C6030BD0000EC060020B4
:103EF000EC030020F4030020FC030020F803002062
:103F000000BFFFF751FF064800680128F9D94FF0BC
:103F1000805004490860BFF34F8FBFF36F8FF0E705
:103F2000EC6E002004ED00E010B5044654B1002012
:103F3000A06020600021E16000231A461946204657
:103F400001F0A2F910BD2DE9F04106460D461746D5
:103F50009846069C0DB9246000E02760E66325645E
:103F60000121204601F022F9BDE8F0812DE9FF5F33
:103F700081460F469246DDE90E6B109CAAF10100C6
:103F8000216B01EB800828F0070808F0070008B94A
:103F9000012000E0002050B900BFA02080F311886C
:103FA000BFF34F8FBFF36F8F00BF00BFFEE77FB13E
:103FB000002507E0795D04F134004155785D00B9D2
:103FC00002E06D1C0A2DF5D300BF00213D200155F4
:103FD000032E01D2012000E0002050B900BFA02034
:103FE00080F31188BFF34F8FBFF36F8F00BF00BF07
:103FF000FEE7032E00D30226E6622664201D00F0B1
:1040000032FD04F1180000F02EFD2461C6F103001A
:10401000A061646249464046039A00F07BFB206041
:10402000BBF1000F01D0CBF80040BDE8FF9F2DE9A8
:10403000F04706460D4617469846DDE908940DB14F
:10404000012000E0002050B900BFA02080F31188BB
:10405000BFF34F8FBFF36F8F00BF00BFFEE7FFF7C7
:104060007DFE2660A561C4F81C80C4F82090201D48
:1040700000F0F9FC2FB194F8240040F0040084F81B
:104080002400BDE8F087000010B5002407E004EB31
:1040900084010C4A02EB810000F0D8FC641C032C64
:1040A000F5D3094800F0D2FC084800F0CFFC0848DE
:1040B00000F0CCFC04480749086004480649086041
:1040C00010BD0000EC6E0020286F00203C6F002027
:1040D000506F0020180400201C04002010B5014679
:1040E000164800E0006803688B42FBD30246436831
:1040F00013448B4204D143684C6823444360014617
:104100000A464B6813440468A34211D10C4C03685F
:104110002468A34208D04B680468646823444B6059
:1041200003681B680B6005E0054B1B680B6001E032
:1041300003680B60884200D0016010BDEC030020D2
:10414000F40300202DE9F04104460D4616461F46B3
:104150004FF0000865602461B5420CD8F01BA169DE
:10416000884202D34FF0010811E0211D0948006880
:1041700000F07CFC0BE0BE4204D2BD4202D34FF003
:10418000010804E0211D0448006800F06FFC40466F
:10419000BDE8F081540400205004002070B50546AD
:1041A00000F07EFCA86B08B9012400E0002400F0B8
:1041B000A1FC204670BD70B5054600F071FCA86BEF
:1041C000E96B884201D1012400E0002400F092FC58
:1041D000204670BD70B505460E460E480068C068A2
:1041E000C468201D00F018FC94F8240000F00400BE
:1041F00028B132462946204600F0D6F805E094F86A
:10420000240000F0FE0084F824002046216A88473C
:1042100070BD0000500400207FB57FE001980028A9
:104220007CDB039C606908B9012000E0002010B924
:10423000201D00F0F1FB684600F00EF905460198DC
:104240000A2869D2DFE800F06805072E365806080C
:104250002F3700BF00BF00BF94F8240040F00100DA
:1042600084F824000298A269811803462A46204651
:10427000FFF768FFA8B194F8240000F0040038B1FB
:104280000298A26981182A46204600F08DF805E0C0
:1042900094F8240000F0FE0084F824002046216AEF
:1042A00088473AE000BF94F8240000F0FE0084F84C
:1042B000240032E000BF94F8240040F0010084F8AC
:1042C00024000298A061A06908B1012000E000204C
:1042D00050B900BFA02080F31188BFF34F8FBFF308
:1042E0006F8F00BF00BFFEE7A06941192B462A4629
:1042F0002046FFF727FF10E094F8240000F00200AA
:1043000018B9204600F014FC05E094F8240000F0F1
:10431000FE0084F8240000E000BF00BF002201A9D5
:104320000348006801F018F900287FF477AF7FBDDB
:1043300058040020F8B505460C4600F01DFE6846FE
:1043400000F08AF80646009820BB44B9B54206D86A
:1043500001F0D6FD31462846FFF73CFF1CE03CB19A
:104360000E480068006808B9012000E000200446FB
:10437000A91B22460A48006800F070FC01F0C0FD4D
:1043800050B94FF0805007490860BFF34F8FBFF31B
:104390006F8F01E001F0B4FDF8BD0000540400206F
:1043A0005804002004ED00E070B504460D461646A2
:1043B00004E0A06905442046216A8847A0694119A4
:1043C0002B4632462046FFF7BDFE0028F1D170BDD6
:1043D00009480068006808B9012000E0002020B109
:1043E0004FF0FF300549086005E003480068C068E9
:1043F000006802490860704718040020400400204B
:1044000010B5022000F050FC0820002121B101224B
:104410008240054B1A6105E000F110020123934030
:10442000014A136100BF10BD0008014010B508200B
:10443000012121B101228240064B1A6105E000F101
:10444000100201239340034A136100BF012000F0D2
:104450002BFC10BD0008014070B5044601F0EEFAD7
:10446000054607480068854204D200F00BF8012099
:10447000206001E00020206001480560284670BDF2
:104480006004002070B508E00D480068C06804684A
:104490004FF0FF312046FFF79DFE09480068006895
:1044A00008B9012000E000200028EDD0044805688C
:1044B00004480068024908600248056070BD0000B9
:1044C00050040020540400200E480068401C08B925
:1044D000012000E0002050B900BFA02080F3118827
:1044E000BFF34F8FBFF36F8F00BF00BFFEE700BF6A
:1044F000A02080F31188BFF34F8FBFF36F8F00BFF1
:1045000000BFFEE70804002008B500BF6846FFF7BB
:10451000ABFC044620460099FFF70CFFFFF77CFE3A
:10452000F4E770B5044600F0BBFA94F9455010E08A
:10453000606A08B9012000E0002038B904F12400C5
:1045400001F04EFC18B100F0E9FB00E003E0681E4A
:1045500045B2002DECDC00BFFF2084F8450000F0E0
:10456000C9FA00F09DFA94F9445010E0206908B9A6
:10457000012000E0002048B904F1100001F030FCF7
:1045800008B100F0CBFB681E45B200E001E0002D51
:10459000ECDC00BFFF2084F8440000F0ABFA70BDF3
:1045A00000BF0849098801F080010029F9D00549B8
:1045B000091D088000BF0349098801F08001002916
:1045C000F9D07047003801402DE9F04705464FF01B
:1045D000000900F0D1FC4248006808B9FFF758FC18
:1045E00075B105F00700C0F11008C8F1FF30A8420E
:1045F00001D2012000E0002008B9454400E0002578
:10460000012000EBE570002853D0002D51D0354833
:10461000006885424DD8344E3046046801E0264695
:1046200024686068A84202D220680028F7D12C488C
:10463000006884423DD0306800F10809206830608D
:104640006068401B102819D9671907F0070008B9DE
:10465000012000E0002050B900BFA02080F31188A5
:10466000BFF34F8FBFF36F8F00BF00BFFEE76068DF
:10467000401B786065603846FFF730FD1949606877
:104680000968081A17490860084600681749096848
:10469000884203D21348006814490860606840F0FB
:1046A000004060600020206011480068401C1049F4
:1046B000086001F025FC09F0070008B9012000E0BE
:1046C000002050B900BFA02080F31188BFF34F8FA6
:1046D000BFF36F8F00BF00BFFEE74846BDE8F0871D
:1046E000F4030020F8030020EC030020FC0300206A
:1046F000000400200648006830B10549096801F14E
:104700004400496C491C0160014800687047000082
:1047100014040020001F4FF080730360001F21F07D
:1047200001030360001F034B03601438026020384C
:1047300070470000C94400080146024830F81100E3
:1047400070470000307300080146022902D1034877
:1047500000887047024830F81100FAE70873000833
:10476000307300080020014908707047640400207D
:1047700010B50020094908700949087009490870F6
:104780000949087009490870094908700949087001
:1047900009490870FCF730FC10BD00001C00002027
:1047A0001D0000201E0000201F000020200000200F
:1047B00021000020220000202300002070B50546C3
:1047C00002F0D4FC04460146284602F009FD15F02B
:1047D000004F4FF07F410ED0B0F13F4F28BFB1EBFB
:1047E000400F0ED2B0F17C5F1DDDB1EB400F1AD34C
:1047F00013E0044617E0B0F13F4F08D9B1EB400F8A
:1048000005D34FF07E51204602F0EAFCF1E7B0F10B
:104810007C5F08DBB1EB400F05D34FF07E512046A3
:1048200002F0A6F9E5E7284664F31E0070BD00001B
:1048300010B5002022E000EB80014122A2EB4101F3
:10484000134A02EBC002118000EB80010A2202EB46
:10485000810101EB81014FF6FF7202EA41010C4A2E
:1048600002EBC00251804FF6FF71094A02EBC00211
:104870009180074A02EBC002D180401C0328DADB9A
:10488000182203494FF49670FCF7F4F910BD0000AC
:10489000D406002010B500200CE00A4901EBC0014D
:1048A000094A12680A60074901EBC001074A126809
:1048B0004A60401C0228F0DB10220249C820FCF7A5
:1048C000D9F910BD64060020207300082473000885
:1048D00010B500F009F8FFF745FF00200149087006
:1048E00010BD00002400002010B500210348FDF792
:1048F000C8FD00210148FDF7D9FD10BD00080040AA
:1049000010B50621024602F0010323B101238B40BA
:10491000054C236105E001F1100301249C40024B8A
:104920001C6100BF10BD00000010014010B504461E
:1049300021460020FCF7DAFD0720214601F00102A4
:1049400022B101228240054B1A6105E000F11002FC
:1049500001239340014A136100BF10BD00100140C4
:1049600010B504469CB900210620FCF7BFFD0820C5
:10497000012121B1012282400F4B1A6105E000F1B3
:104980001002012393400C4A136100BF13E0012180
:104990000620FCF7ABFD0820002121B10122824056
:1049A000054B1A6105E000F1100201239340024A11
:1049B000136100BF00BF10BD0010014010B5012100
:1049C0000420FCF741FF1248FDF7C4FD4FF4FA50F4
:1049D0000F490880032088800E48FDF769FD0122F9
:1049E00011460C48FDF759FD1E2000280DDB00BFC5
:1049F00000BF00F01F02012191404209920002F124
:104A0000E022C2F8001100BF00BF00BF10BD0000CF
:104A10005A0600200008004001460A69D1E9013029
:104A20009860D1E9010358605068884201D18868D4
:104A30005060002008611068401E106010687047C8
:104A400001480068704700002004002000F10801C0
:104A500041604FF0FF31816000F10801C1600161E8
:104A600000210160704700210161704710B50246C6
:104A70000B685C1C0CB9106907E002F1080000E04B
:104A80004068446824689C42FAD944684C604C6889
:104A9000A160886041600A611468641C146010BDE4
:104AA00000BFA02080F31188BFF34F8FBFF36F8F3B
:104AB00000BF0E480068401C0C49086008460068AA
:104AC000012812D10A480068C0B208B9012000E0EC
:104AD000002050B900BFA02080F31188BFF34F8F92
:104AE000BFF36F8F00BF00BFFEE7704708040020D0
:104AF00004ED00E00D48006850B900BFA02080F32D
:104B00001188BFF34F8FBFF36F8F00BF00BFFEE769
:104B100006480068401E054908600846006820B93C
:104B2000002080F3118800BF00BF704708040020F8
:104B300070B506463546002E3BD0083D2C466068D1
:104B4000C00F50B900BFA02080F31188BFF34F8F72
:104B5000BFF36F8F00BF00BFFEE7206808B90120D8
:104B600000E0002050B900BFA02080F31188BFF3FF
:104B70004F8FBFF36F8F00BF00BFFEE76068C00FAD
:104B8000B8B12068A8B9606820F00040606000F00B
:104B9000F3F9084960680968084406490860204636
:104BA000FFF79CFA04480068401C0349086001F0C4
:104BB000A7F970BDF80300200404002000204FF086
:104BC000E02108618861064800684FF47A71B0FB03
:104BD000F1F0401E4FF0E021486107200861704766
:104BE000D803002070B5FBF769FB0446102C16D3E0
:104BF00004F1E02090F8F05315480078854201DB7D
:104C0000012000E0002050B900BFA02080F31188EF
:104C1000BFF34F8FBFF36F8F00BF00BFFEE70D489C
:104C2000006800F4E0600C490968884201D801205E
:104C300000E0002050B900BFA02080F31188BFF32E
:104C40004F8FBFF36F8F00BF00BFFEE770BD000046
:104C50000C0400200CED00E0100400202DE9F041D0
:104C600005460E4617462C46FFF71AFF94F94400F6
:104C7000401C10B9002084F8440094F94500401C01
:104C800010B9002084F84500FFF734FFA06B28B965
:104C90003A46314604F1240000F062F82046FFF75E
:104CA00040FCBDE8F081000070B504460025D4B199
:104CB0001248006808B9012000E0002050B900BF88
:104CC000A02080F31188BFF34F8FBFF36F8F00BF19
:104CD00000BFFEE700F050F900212046FEF78CFFF0
:104CE00001F00EF905463DB94FF0805004490860C7
:104CF000BFF34F8FBFF36F8F70BD00004C040020D7
:104D000004ED00E003490968016003490968416056
:104D100070470000380400202404002001200149CD
:104D2000086070473404002070B504460D4654B93D
:104D300000BFA02080F31188BFF34F8FBFF36F8FA8
:104D400000BF00BFFEE70548016818312046FFF7A5
:104D50008DFE01212846FEF74FFF70BD1404002090
:104D600070B504460E46154654B900BFA02080F326
:104D70001188BFF34F8FBFF36F8F00BF00BFFEE7F7
:104D800060680F490968C8610D49826809680A624C
:104D90000B4909681831826851600949096818315E
:104DA0008160074909688C622168491C21600DB146
:104DB0004FF0FF3629463046FEF71EFF70BD00005B
:104DC000140400202DE9F04706460F4634464FF004
:104DD0000109002E7AD0606C50B900BFA02080F38A
:104DE0001188BFF34F8FBFF36F8F00BF00BFFEE787
:104DF000206CB84201D23D4600E0256CE06AA84232
:104E000064D0606C012861D131480068844201D0CF
:104E1000012000E0002050B900BFA02080F31188DD
:104E2000BFF34F8FBFF36F8F00BF00BFFEE7D4F813
:104E30002C80E562A06900F0004010B9C5F10300C4
:104E4000A06108EB8801234A02EB81016069884276
:104E500001D1012000E00020C0B3201DFFF7DCFDE0
:104E600040B994F82C10012088401B4909688143FF
:104E70001948016094F82C100120884016490968EF
:104E8000084315490860E16A01EB8101114A02EB10
:104E900081014868A0608268E260211D82685160DB
:104EA0008160E16A01EB81010A4A02EB81026261E1
:104EB000E16A01EB8101074A52F82110491CE26ABC
:104EC00002EB8202034B43F8221000BFBDE8F087DB
:104ED00014040020EC6E0020280400201CB51E489D
:104EE00000210B468022CDE900101CA11D4800F0D6
:104EF000F5FC0446012C02D101F0DAF80446012C3D
:104F000015D100BFA02080F31188BFF34F8FBFF3EE
:104F10006F8F00BF4FF0FF30134908600120134925
:104F2000086000201249086000F080F810E0601C62
:104F300008B1012000E0002050B900BFA02080F39C
:104F40001188BFF34F8FBFF36F8F00BF00BFFEE725
:104F5000084800681CBD00004404002049444C453A
:104F600000000000013F0008400400202C04002045
:104F7000240400204804002002480068401C014925
:104F8000086070474C0400201D48006818B10120DB
:104F90001C49086032E000201A4908601A4800687D
:104FA000B0FA80F0C0F11F0101EB8100174A52F8FE
:104FB000200008B1012000E0002050B900BFA0206F
:104FC00080F31188BFF34F8FBFF36F8F00BF00BF17
:104FD000FEE701EB81020D4B03EB82004268526851
:104FE000426000F108024368934202D1426852686D
:104FF00042604268D268064B1A6000BF70470000EA
:105000004C0400203404002028040020EC6E002012
:105010001404002002460E2A01DD002070470248D9
:1050200020F812100120F9E7440000201CB538498F
:10503000084600780190FF200A4610700846007864
:1050400000909DF8000000F47F609DF800209042E1
:1050500001D1012000E0002050B900BFA02080F362
:105060001188BFF34F8FBFF36F8F00BF00BFFEE704
:105070009DF8000000F0A000264A10700720264A84
:10508000106009E024480068401E234A10609DF823
:1050900000004006000E00909DF8000000F0800027
:1050A0008028EFD01C480068C0F10700042801D117
:1050B000012000E0002050B900BFA02080F311883B
:1050C000BFF34F8FBFF36F8F00BF00BFFEE71248E3
:1050D00000680002104A10601046008800F4E0608A
:1050E00010600B4A019810700C48006840F07F6017
:1050F0000A4908600846006840F070400860FFF701
:105100005DFD002006490860FBF7A2F800201CBDE9
:1051100000E400E00C0400201004002020ED00E07A
:10512000080400202DE9F04104460126002722460C
:105130000021012000F007F805462846FEF7F4FE9E
:105140002846BDE8F0812DE9F84305460E4617468E
:105150000024E5B1601EB0FBF5F0B04217D305FBAB
:1051600006F010F1490F12D805FB06F808F14800C7
:10517000FFF72AFA0446B4B1A14609F148093B46B3
:105180004A46314628460094FEF7DDFE0BE054B94E
:1051900000BFA02080F31188BFF34F8FBFF36F8F44
:1051A00000BF00BFFEE72046BDE8F8832DE9F041CF
:1051B00005460E4601272C4654B900BFA02080F3B7
:1051C0001188BFF34F8FBFF36F8F00BF00BFFEE7A3
:1051D000002C42D0E06B00283FD04FF0FF31E06B55
:1051E000B1FBF0F0216C884237D3FFF759FCD4E9CA
:1051F0000F12206801FB0200A0600020A06320685D
:105200006060E06B401E226C216800FB0211E160CF
:10521000FF2084F8440084F845009EB9206908B94D
:10522000012000E00020A8B904F1100000F0D8FD32
:1052300080B14FF0805013490860BFF34F8FBFF328
:105240006F8F07E004F11000FFF700FC04F1240069
:10525000FFF7FCFBFFF74EFC00E000270FB1012039
:1052600000E0002050B900BFA02080F31188BFF3F8
:105270004F8FBFF36F8F00BF00BFFEE73846BDE81A
:10528000F081000004ED00E02DE9FF4383B0064605
:1052900088461D464FF00009344654B900BFA0208F
:1052A00080F31188BFF34F8FBFF36F8F00BF00BF34
:1052B000FEE7B8F1000F01D1206C08B9012000E031
:1052C000002050B900BFA02080F31188BFF34F8F9A
:1052D000BFF36F8F00BF00BFFEE7022D02D1E06B6E
:1052E000012801D1012000E0002050B900BFA0201A
:1052F00080F31188BFF34F8FBFF36F8F00BF00BFE4
:10530000FEE700F08BFB08B9059808B9012000E022
:10531000002050B900BFA02080F31188BFF34F8F49
:10532000BFF36F8F00BF00BFFEE700BFFFF7B8FB02
:10533000A06BE16B884201D3022D28D12A46414659
:105340002046FEF747FD0746606A08B9012000E0E5
:10535000002068B904F1240000F042FD88B14FF04C
:10536000805032490860BFF34F8FBFF36F8F08E062
:105370003FB14FF080502D490860BFF34F8FBFF30E
:105380006F8FFFF7B7FB012007B0BDE8F0830598EA
:1053900018B9FFF7AFFB0020F6E7B9F1000F04D111
:1053A00001A8FFF7AFFC4FF00109FFF7A3FBFFF7E0
:1053B000E3FDFFF775FB94F94400401C10B9002091
:1053C00084F8440094F94500401C10B9002084F88A
:1053D0004500FFF78FFB05A901A800F03BFAF0B9E3
:1053E0002046FEF7E8FEA0B104F110000599FFF792
:1053F0009BFC2046FFF795F800F082FD002895D130
:105400004FF0805009490860BFF34F8FBFF36F8F93
:105410008CE72046FFF785F800F072FD86E720460E
:10542000FFF77FF800F06CFD0020ADE704ED00E031
:105430002DE9FC5F80468B4691461E46444654B992
:1054400000BFA02080F31188BFF34F8FBFF36F8F91
:1054500000BF00BFFEE7BBF1000F01D1206C08B90F
:10546000012000E0002050B900BFA02080F3118887
:10547000BFF34F8FBFF36F8F00BF00BFFEE7022E59
:1054800002D1E06B012801D1012000E0002050B9D9
:1054900000BFA02080F31188BFF34F8FBFF36F8F41
:1054A00000BF00BFFEE7FFF79DFB00BFA021EFF3A9
:1054B000118081F31188BFF34F8FBFF36F8F00BF4F
:1054C0000546A06BE16B884201D3022E3BD194F9D3
:1054D0004570A06B0190324659462046FEF77AFC93
:1054E000781C88B9606A08B9012000E0002050B932
:1054F00004F1240000F074FC28B1B9F1000F02D0CF
:105500000120C9F800001BE0FFF79AFA009000980C
:10551000874214D27F2F01D0012000E0002050B933
:1055200000BFA02080F31188BFF34F8FBFF36F8FB0
:1055300000BF00BFFEE7781C40B284F8450000BF02
:105540004FF0010A01E04FF0000A00BF85F3118817
:1055500000BF5046BDE8FC9F2DE9F74183B00546EA
:105560000E464FF000082C4654B900BFA02080F32F
:105570001188BFF34F8FBFF36F8F00BF00BFFEE7EF
:105580000EB9206C08B9012000E0002050B900BF1E
:10559000A02080F31188BFF34F8FBFF36F8F00BF40
:1055A00000BFFEE700F03AFA08B9059808B90120F3
:1055B00000E0002050B900BFA02080F31188BFF3A5
:1055C0004F8FBFF36F8F00BF00BFFEE700BFFFF735
:1055D00067FAA76BF7B131462046FEF7E6FB781E67
:1055E000A063206908B9012000E0002060B904F13F
:1055F000100000F0F5FB38B14FF080502F490860E3
:10560000BFF34F8FBFF36F8FFFF774FA012006B01F
:10561000BDE8F081059818B9FFF76CFA0020F6E7AD
:10562000B8F1000F04D101A8FFF76CFB4FF001089F
:10563000FFF760FAFFF7A0FCFFF732FA94F9440095
:10564000401C10B9002084F8440094F94500401C27
:1056500010B9002084F84500FFF74CFA05A901A80D
:1056600000F0F8F8F0B92046FEF798FDA0B104F17B
:1056700024000599FFF758FB2046FEF752FF00F083
:105680003FFC0028A3D14FF080500C490860BFF3C5
:105690004F8FBFF36F8F9AE72046FEF742FF00F06F
:1056A0002FFC94E72046FEF73CFF00F029FC204643
:1056B000FEF774FD00288AD00020A8E704ED00E082
:1056C0002DE9F34182B0054600272C46B84654B96F
:1056D00000BFA02080F31188BFF34F8FBFF36F8FFF
:1056E00000BF00BFFEE7206C08B9012000E00020E9
:1056F00050B900BFA02080F31188BFF34F8FBFF3D4
:105700006F8F00BF00BFFEE700F088F908B903986B
:1057100008B9012000E0002050B900BFA02080F3AC
:105720001188BFF34F8FBFF36F8F00BF00BFFEE73D
:1057300000BFFFF7B5F9A66BFEB1701EA06320682D
:1057400010B9FEF7D7FFA060206908B9012000E07A
:10575000002060B904F1100000F042FB38B14FF0B6
:1057600080503B490860BFF34F8FBFF36F8FFFF747
:10577000C1F9012004B0BDE8F081039818B9FFF722
:10578000B9F90020F6E71FB96846FFF7BBFA012711
:10579000FFF7B0F9FFF7F0FBFFF782F994F9440047
:1057A000401C10B9002084F8440094F94500401CC6
:1057B00010B9002084F84500FFF79CF903A968465A
:1057C00000F048F840BB2046FEF7E8FCF0B1206846
:1057D00038B9FFF765F9A06800F08CFA8046FFF74A
:1057E00089F904F124000399FFF79EFA2046FEF799
:1057F00098FE00F085FB00289BD14FF080501449A3
:105800000860BFF34F8FBFF36F8F92E72046FEF71C
:1058100088FE00F075FB8CE72046FEF782FE00F064
:105820006FFB2046FEF7BAFC002882D0B8F1000FCB
:105830000BD0FFF735F92046FEF70BFB0646314645
:10584000A068FFF7BFFAFFF755F9002092E70000C4
:1058500004ED00E070B505460C4655B900BFA02028
:1058600080F31188BFF34F8FBFF36F8F00BF00BF6E
:10587000FEE754B900BFA02080F31188BFF34F8F1B
:10588000BFF36F8F00BF00BFFEE7FFF709F91148B4
:10589000036868681A1A104928680968884206D09F
:1058A0006868984203D80126002020600DE0206837
:1058B000904207D92068801A20602846FFF722FA14
:1058C000002602E0002020600126FFF713F9304691
:1058D00070BD000024040020380400202DE9FF4F93
:1058E00085B0804689461746DDE912ABB800FEF761
:1058F0006BFE064676B15020FEF766FE04462CB1DC
:1059000050212046FAF765FD266304E03046FFF794
:105910000FF900E000247CB10020CDE900ABCDE917
:1059200002403A4649464046089BFEF71FFB204688
:10593000FEF7A2F9012501E04FF0FF35284609B036
:10594000BDE8F08F2DE9F04704460F464FF00009FF
:1059500054B900BFA02080F31188BFF34F8FBFF36D
:105960006F8F00BF00BFFEE70FB1012000E00020F5
:1059700050B900BFA02080F31188BFF34F8FBFF351
:105980006F8F00BF00BFFEE72148006808B9012003
:1059900000E0002050B900BFA02080F31188BFF3C1
:1059A0004F8FBFF36F8F00BF00BFFEE7FFF7E4FA32
:1059B000184806682068C5192068B04207D92068D1
:1059C000A8420BD9B54209D94FF0010906E0206879
:1059D000A84201D8B54201D94FF001092560B9F1BB
:1059E000000F03D0A81B0021FEF706F900F088FA8B
:1059F0008046B8F1000F07D14FF08050064908608B
:105A0000BFF34F8FBFF36F8F4846BDE8F0870000AC
:105A10004C0400202404002004ED00E0054909683E
:105A200009B9012005E00449096809B9022000E02C
:105A3000002070472C0400204C0400200149086815
:105A400070470000240400202DE9F0414FF00008C9
:105A50006148006800287DD160480068451C5F48A7
:105A6000056015BB5E480068006808B9012000E0C9
:105A7000002050B900BFA02080F31188BFF34F8FE2
:105A8000BFF36F8F00BF00BFFEE75548076855485A
:105A90000068534908605348076053480068401C39
:105AA00051490860FEF794FC00BF504800688542E9
:105AB00077D300BF4A480068006808B9012000E0B9
:105AC000002020B14FF0FF304849086068E04448AA
:105AD0000068C068C4686668B54202D24348066080
