:020000040800F2
:10000000F8750020C5020008CD020008CF020008E4
:10001000D1020008D3020008D50200080000000049
:100020000000000000000000000000002D02000899
:10003000D90200080000000071020008C92400086D
:10004000DF020008DF020008DF020008DF0200080C
:10005000DF020008DF020008DF020008DF020008FC
:10006000DF020008DF020008DF020008DF020008EC
:10007000DF020008DF020008DF020008DF020008DC
:10008000DF020008DF020008DF020008DF020008CC
:10009000DF020008DF020008DF020008DF020008BC
:1000A000DF020008DF020008DF020008DF020008AC
:1000B000DF020008DF02000869250008DF020008EF
:1000C000DF020008DF020008DF020008DF0200088C
:1000D000DF02000879320008DF020008DF020008B2
:1000E000DF020008DF020008DF0200080000000055
:1000F0000000000000000000000000000000000000
:100100000000000000000000DF020008DF0200081D
:10011000DF020008DF020008DF020008DF0200083B
:10012000DF020008DF020008DF020008DF0200082B
:10013000DF020008DF020008DF020008DF0200081B
:10014000DF020008DF020008DF020008DF0200080B
:1001500000F002F800F05AF80AA090E8000C82447F
:100160008344AAF10107DA4501D100F04FF8AFF25C
:10017000090EBAE80F0013F0010F18BFFB1A43F085
:100180000103184788740000A87400000A444FF067
:10019000000C10F8013B13F0070408BF10F8014BE6
:1001A0001D1108BF10F8015B641E05D010F8016B2B
:1001B000641E01F8016BF9D113F0080F1EBF10F88F
:1001C000014BAD1C0C1B09D16D1E58BF01F801CBB2
:1001D000FAD505E014F8016B01F8016B6D1EF9D535
:1001E0009142D6D37047000000230024002500264A
:1001F000103A28BF78C1FBD8520728BF30C148BF8A
:100200000B6070471FB51FBD10B510BD00F03DF964
:100210001146FFF7F7FF03F01FFD00F05BF903B491
:10022000FFF7F2FF03BC00F063F90000224B1968EE
:100230000868B0E8F00F80F30988BFF36F8F4FF0C4
:10024000000080F311884EF00D0E70470000000092
:1002500006480068006880F3088862B661B6BFF39C
:100260004F8FBFF36F8F00DF00BF00BF08ED00E0CE
:10027000EFF30980BFF36F8F0F4B1A6820E9F00F7F
:10028000106008B54FF0A00080F31188BFF34F8FC6
:10029000BFF36F8F04F0D4FF4FF0000080F311889C
:1002A000BDE8084019680868B0E8F00F80F30988D5
:1002B000BFF36F8F704700BF20040020EFF305806D
:1002C000704700000948804709480047FEE7FEE7FD
:1002D000FEE7FEE7FEE7FEE7FEE7FEE7FEE7FEE7F6
:1002E00004480549054A064B70470000FD240008F4
:1002F00051010008F86F0020F8750020F871002007
:10030000F8710020032A40F2308010F0030C00F056
:10031000158011F8013BBCF1020F624498BF11F83F
:1003200001CB00F8013B38BF11F8013BA2F10402F8
:1003300098BF00F801CB38BF00F8013B11F0030370
:1003400000F04A80083AC0F0088051F8043B083AAF
:1003500051F804CBA0E80810F5E7121D5CBF51F876
:10036000043B40F8043BAFF30080D20724BF11F8F0
:10037000013B11F801CB48BF11F8012B24BF00F855
:10038000013B00F801CB48BF00F8012B70474FF04C
:1003900000020429C0F0128010F0030C00F050801D
:1003A000CCF1040CBCF1020F18BF00F8012BA8BF60
:1003B00020F8022BA1EB0C0100F042B85FEAC17CEF
:1003C00024BF00F8012B00F8012B48BF00F8012BD7
:1003D000704770477047704710B5203AC0F00B80E7
:1003E000B1E81850203AA0E81850B1E81850A0E839
:1003F0001850BFF4F5AF5FEA027C24BFB1E8185093
:10040000A0E8185044BF18C918C0BDE810405FEA02
:10041000827C24BF51F8043B40F8043B08BF70477E
:10042000D20728BF31F8023B48BF11F8012B28BF83
:1004300020F8023B48BF00F8012B70474FF0000244
:1004400000B5134694469646203922BFA0E80C50CA
:10045000A0E80C50B1F12001BFF4F7AF090728BFA5
:10046000A0E80C5048BF0CC05DF804EB890028BF21
:1004700040F8042B08BF704748BF20F8022B11F04A
:10048000804F18BF00F8012B7047754600F02CF81C
:10049000AE4605006946534620F00700854618B071
:1004A00020B5FFF71DFFBDE820404FF000064FF0DC
:1004B00000074FF000084FF0000B21F00701AC4699
:1004C000ACE8C009ACE8C009ACE8C009ACE8C009B8
:1004D0008D46704710B50446AFF300802046BDE856
:1004E0001040FFF79CBE000000487047986F002046
:1004F00001491820ABBEFEE726000200704721B17B
:10050000826842F00102826003E0826822F0010208
:1005100082607047014600208A6802F004020AB136
:10052000012000E0002070470146C86C80B270478F
:100530000246002013680B400BB1012000E00020B0
:100540007047014600208A6802F008020AB10120C3
:1005500000E000207047000030B502460020002374
:1005600050680F4C20400D790C6844EA0524204364
:10057000506090680B4C2040D1E902542C434D79D7
:1005800044EA450420439060D06A20F470000C7C5B
:10059000641EE4B2234340EA0350D06230BD000041
:1005A000FFFEF0FFFDF7F1FFF0B504460D46002019
:1005B0000021092D11DDE068A5F10A0606EB4607CA
:1005C000072606FA07F18843A5F10A0606EB460658
:1005D00003FA06F10843E0600CE0206905EB4507EB
:1005E000072606FA07F1884305EB450603FA06F1EC
:1005F00008432061072A0FDA606B561E06EB860758
:100600001F2606FA07F18843561E06EB860605FAF2
:1006100006F10843606322E00D2A0FDA206BD61F33
:1006200006EB86071F2606FA07F18843D61F06EB5E
:10063000860605FA06F10843206310E0E06AA2F19D
:100640000D0606EB86071F2606FA07F18843A2F17E
:100650000D0606EB860605FA06F10843E062F0BDDA
:10066000816841F008018160704721B1826842F4DD
:10067000A002826003E0826822F4A00282607047D8
:10068000816841F0040181607047002101600171BF
:1006900041718160C16001210174704700210C200B
:1006A0000F4A9268C24002F0010211430D200C4A29
:1006B0009268C24002F0010241EA42010E20084A5B
:1006C0009268C24002F0010241EA82010F20044A0E
:1006D0009268C24002F0010241EAC2010846704736
:1006E000000C014010B5002302220C210A4800F042
:1006F00057FB002302220D21074800F051FB002385
:1007000002220E21044800F04BFB002302220F219D
:10071000014800F045FB10BD000C01402DE9F047F9
:100720000446204600F084F8054606F027FD814681
:10073000484606F057FB07460022054B05F070FFC0
:10074000054605F087FE81464846BDE8F087000073
:10075000000059402DE9F04704460020FFF7DEFF76
:1007600080460120FFF7DAFF8146002549464046D2
:1007700006F09CFE824606F035FB21F0004106465D
:1007800005F068FE0546284606F02CFB06460022CA
:10079000054B06F007FA01D2012000E0002020708E
:1007A0004046BDE8F08700000000E03F0146012917
:1007B00002DD4FF0FF307047014830F83100FAE7B2
:1007C000700600200146012902DD4FF0FF3070471E
:1007D000024800EBC1008088F9E7000070060020A5
:1007E0000146012902DD4FF0FF307047014830F823
:1007F0001100FAE7300000200146012902DD4FF028
:10080000FF307047024800EBC1004088F9E7000064
:10081000700600200146012902DD4FF0FF307047CD
:10082000024800EBC100C088F9E700007006002014
:100830000146012902DD4FF0FF307047014830F8D2
:100840001100FAE72C0000202DE9F84F002468463B
:10085000FFF780FF83460021584606F0BBFC02D319
:100860009DF8000010B14FF6FF7411E0584606F0F5
:10087000B9FA07460022084B06F096F8054605F03F
:10088000E9FD824604F0E8F8814606F03BFC0446A8
:100890002046BDE8F88F0000000024401FB502F09C
:1008A000D9FD00F089F910216A48FFF770FD00209A
:1008B0006949088048806949088048808046082244
:1008C0006449C82000F0C8F98046B8F1000F05D08F
:1008D0006048008810B15F48808808B904F028F9A2
:1008E00005F012FA039000BF01205D490870FA215B
:1008F00003A805F08DF9002414E00025002708E086
:100900005849085D02F0E6FD0544012004F028FB8B
:100910007F1C142FF4DB1420B5FBF0F0524921F8B2
:100920001400641C022CE8DB00248EE0494901EB32
:10093000C4018988474A32F83420881A06F01EFC20
:1009400082460021504606F0A9FB01D1002539E07E
:10095000404901EBC401C9883E4A02EBC4025288F7
:10096000881A06F00BFC02905146029806F0D4FA61
:100970008146384931F8340006F018FC49460090A9
:1009800006F05CFC8346334901EBC401488806F05D
:100990000DFC5946019006F089FD0746324931F8B1
:1009A000140006F003FC4946019006F047FC83461C
:1009B000394606F043FA05460021284606F00AFCAF
:1009C00000D20025284604F047F8834606F0B6FB1F
:1009D00004EB8401254A02EBC1011F4A32F81420BE
:1009E00021F812001C4830F81400401C80B21A494B
:1009F00021F81400142802DB002021F81400174805
:100A000030F81400142806DA144830F81400401C9A
:100A1000124921F814000026002008E004EB8401AC
:100A2000124A02EBC10131F810100E44401C0B4970
:100A300031F814108142F1DC084830F81400B6FB9C
:100A4000F0F00B4921F81400641C022CBFF64CAFE7
:100A50006CE7000070060020340000203800002001
:100A600020000020E47500083000002080060020EF
:100A70002C00002073B50446012C01DD00207CBD54
:100A80000CB9C82000E0D0200646012201A930465A
:100A900000F028F9054625B1BDF80400024921F807
:100AA00034002846EBE700007006002073B50446CA
:100AB000012C01DD00207CBD0CB9CC2000E0D4204D
:100AC0000646012201A9304600F00CF905462DB179
:100AD000BDF80400024901EBC40188802846EAE71A
:100AE0007006002073B50446012C01DD00207CBD9A
:100AF0000CB9CA2000E0D2200646012201A93046E6
:100B000000F0F0F805462DB1BDF80400024901EBF4
:100B1000C40148802846EAE77006002073B5044601
:100B2000012C01DD00207CBD0CB9CE2000E0D620D8
:100B30000646012201A9304600F0D4F805462DB141
:100B4000BDF80410024800EBC400C1802846EAE763
:100B50007006002010B5002303220B21074800F087
:100B60001FF9002303220A21044800F019F9002389
:100B700003220C21014800F013F910BD00100140C0
:100B800070B54AF2010580EA010444F47F4440F064
:100B9000FF0604EA060000220BE000F00103044611
:100BA00000EBD476C6F34F0013B14AF20104604063
:100BB000521C082AF1D370BD10B5012004F00EFCC0
:100BC0000349086002F02EFE01200249087010BDA2
:100BD000400000203C0000202DE9F04180460F46F7
:100BE00015461B48007808B9FFF7E6FF4FF0FF31C4
:100BF0001848006804F0BCFE012826D102F010FF5E
:100C0000404602F0A4FD06469EB102F009FFA12075
:100C100002F0BCFE064666B1002408E002F05AFE6F
:100C20003855681EA04201D002F0C4FD641CAC42DD
:100C3000F4DB02F03BFF00231A4619460548006822
:100C400004F07EFC3046BDE8F0810020FBE70000A8
:100C50003C000020400000202DE9F04106460D46F2
:100C600014462F464FF6FF7000EA440239463046DC
:100C7000FFF7B2FF80464046BDE8F0812DE9F04124
:100C800080460E4617461548007808B9FFF794FFCE
:100C90000024611E1248006804F06AFE012819D180
:100CA00002F0BEFE404602F052FD0446002504E07C
:100CB000705D02F06BFE04466D1CBD4201DA002C33
:100CC000F6D102F0F3FE00231A46194604480068E4
:100CD00004F036FC2046BDE8F08100003C00002016
:100CE000400000202DE9F04106460D4614462F46EF
:100CF0004FF6FF7000EA440239463046FFF7BEFF68
:100D000080464046BDE8F08101461D48814204D13D
:100D10001C488069C0F3800070471B48814204D1A1
:100D200018488069C0F3C000F6E71848814204D132
:100D300014488069C0F30010EEE71548814204D1E1
:100D400010488069C0F34010E6E71248814204D1A0
:100D50000C488069C0F38010DEE70F48814204D15F
:100D600008488069C0F3C010D6E70C48814204D11E
:100D700004488069C0F30020CEE70020CCE70000E3
:100D80000008014000100240000C0140001001402A
:100D90000014014000180140001C014000200140E7
:100DA0002DE9F04105460C46174698460F2C02D90E
:100DB0000020BDE8F0812846FFF7A6FF18B9012101
:100DC000284600F071F8B8F1000F10D1022F05D1BC
:100DD000E8680121A1408843E86008E0032F06D1BC
:100DE00027F00107E8680121A1400843E860082CCA
:100DF00001D22E4601E0083C2E1D3068A2000F21D2
:100E000091408843306048EA8700A10088403168FB
:100E1000084330600120CCE7F0B50A4600230024E7
:100E20000021002500F00046B6F1004F02D11D4E12
:100E3000F16901E01B4E7168C0F3034583B200F411
:100E40004016B6F5401F08D121F07061154E766846
:100E500026F07066134F7E6012E000F48016B6F53F
:100E6000801F06D1032606FA05F4A14341F0706104
:100E700006E0460D360103FA06F6B14341F0706113
:100E800022B1460D360103FA06F6314300F0004662
:100E9000B6F1004F02D1034EF16101E0014E7160E5
:100EA000F0BD000000000140002945D0454A9042B5
:100EB00006D1454A926942F00402434B9A6180E0B0
:100EC000424A904206D1404A926942F008023E4BA3
:100ED0009A6176E03E4A904206D13B4A926942F0DE
:100EE0001002394B9A616CE03A4A904206D1364A78
:100EF000926942F02002344B9A6162E0364A904295
:100F000006D1314A926942F040022F4B9A6158E073
:100F1000324A904206D12C4A926942F080022A4B12
:100F20009A614EE02E4A90424BD1274A926942F490
:100F30008072254B9A6144E0224A904206D1224AAF
:100F4000926922F00402204B9A613AE01F4A9042D3
:100F500006D11D4A926922F008021B4B9A6130E0CB
:100F60001B4A904206D1184A926922F01002164B91
:100F70009A6126E0174A904206D1134A926922F0FC
:100F80002002114B9A611CE0134A904206D10E4A8E
:100F9000926922F040020C4B9A6112E00F4A904293
:100FA00006D1094A926922F08002074B9A6108E053
:100FB0000B4A904205D1044A926922F48072024B96
:100FC0009A6170470008014000100240000C014087
:100FD000001001400014014000180140001C0140B5
:100FE0000020014001480078704700000000002008
:100FF0004CF6CC40014908607047000000300040CA
:101000004AF6AA20014908607047000000300040FD
:101010000149486070470000003000400149886085
:101020007047000000300040014908607047000030
:101030000030004010B500F097FAFFF753FBFFF7C0
:1010400089FD02F07FFD00200149087010BD0000FD
:10105000000000200720064A9268C24002F0010208
:101060000AB1012000E00020014608467047000058
:10107000001001400849097851B90849097839B97F
:101080000749097821B90749097809B1012100E028
:1010900000210846704700000200002004000020E4
:1010A00003000020D00300200B20064A9268C240B3
:1010B00002F001020AB9012000E0002001460846C2
:1010C00070470000000C014000F0010149B100210F
:1010D00005E000220A4B03EB81039A70491C0229A8
:1010E000F7DB00F0020149B1022105E00022044BC8
:1010F00003EB81039A70491C0429F7DB7047000059
:10110000D006002000F0010149B1002105E00122D4
:101110000A4B03EB81039A70491C0229F7DB00F0AC
:10112000020149B1022105E00122044B03EB8103D6
:101130009A70491C0429F7DB70470000D006002094
:1011400010B5002003E00021044A5170401C04281F
:10115000F9DB002000F022F910BD0000D0060020CD
:101160002DE9F74F84B089469246B9F1010F01D1BC
:10117000002000E0022004460021049806F02AF82E
:1011800015D200208DF80E0001208DF80D000020F2
:101190008DF80F000A208DF80C00E0B203A900F0D2
:1011A00055F8611CC8B203A900F050F845E0049856
:1011B00005F018FE07460022214B05F0F5FBCDE9AE
:1011C000000105F047F9029003F046FC05461D4971
:1011D000284606F0FFF800D21A4D1B49284605F0B4
:1011E0009BFE074605F08EFF064606EB860148008B
:1011F00005F0C4FF8046294606F04EF9074605F083
:1012000081FF83468DF80EA001208DF80D008DF82A
:101210000F00F0B28DF80C00E0B203A900F016F850
:1012200000208DF80F000BF0FF008DF80C00611C02
:10123000C8B203A900F00AF800BF07B0BDE8F08FFC
:10124000000024400000C64200002041042805DAC6
:1012500021B1034A02EB80020B6813607047000063
:10126000D006002038B5FFF76BFF4FF4FA7003F09B
:1012700077FE01208DF8030000208DF80200012088
:101280008DF801000A208DF8000000208DF8030081
:10129000002404E0E0B26946FFF7D8FF641C042C88
:1012A000F8DB012000F07AF84FF4FA7003F058FEF2
:1012B000092415E0E0B28DF8000001208DF803004C
:1012C000002504E0E8B26946FFF7C0FF6D1C042D5D
:1012D000F8DB012000F062F8FA2003F041FE641E02
:1012E000002CE7DA0A208DF8000000208DF80300BA
:1012F000002404E0E0B26946FFF7A8FF641C042C58
:10130000F8DB012000F04AF84FF4FA7003F028FEF1
:1013100038BD000010B5022300220D211E48FFF742
:101320003FFD022300220E211B48FFF739FD022357
:1013300000220F211848FFF733FD0D20002121B1B5
:1013400001228240144B1A6105E000F110020123D2
:101350009340114A136100BF0E20002121B10122E8
:1013600082400D4B1A6105E000F110020123934009
:10137000094A136100BF0F20002121B101228240E0
:10138000054B1A6105E000F1100201239340024A67
:10139000136100BF10BD0000001001402DE9F041B5
:1013A000054603F0CDFC4248407B18B14048807BA5
:1013B00010B10DB9002408E03D48007B3D490C5CAC
:1013C0003B48C07B08B144F0800426063848407A88
:1013D00018B13748807A10B10DB9002408E03448BC
:1013E000007A34490C5C3248C07A08B144F0800479
:1013F00046EA04462E48407918B12D48807910B14C
:101400000DB9002408E02A4800792A490C5C2848D4
:10141000C07908B144F0800446EA042624484078A4
:1014200018B12348807810B10DB9002408E0204895
:10143000007820490C5C1E48C07808B144F0800454
:1014400026431F271AE00F200122BA4032400AB17A
:10145000012200E00022114601F0010222B1012226
:101460008240154B1A6105E000F110020123934000
:10147000114A136100BF02F097FB7F1E002FE2DAD2
:101480000F20002121B1012282400B4B1A6105E09F
:1014900000F1100201239340074A136100BF64204A
:1014A00002F05EF802F0ACFB03F074FCBDE8F081E2
:1014B000D0060020920300200010014030B5014604
:1014C00009B1012000E000200346032083F001025F
:1014D00002F0010424B101248440054D2C6105E093
:1014E00000F110040125A540014C256100BF30BD6D
:1014F0000010014070B5072800DB70BD0A4D55F89B
:10150000302005EBC005AB880C4604F001051DB189
:1015100001259D40156104E003F110050126AE4050
:10152000166100BF00BFE8E79875000830B50021DC
:10153000084613E00B4C54F8301004EBC004A288AA
:1015400000231BB1012494400C6104E002F110045B
:101550000125A5400D6100BF411C08460728E9DBB5
:1015600030BD00009875000870B500241DE0154AD4
:1015700002EBC4029188134A52F83400022300227D
:10158000FFF70EFC0F4B53F8340003EBC4039988AC
:1015900001221AB101238B40036104E001F1100321
:1015A00001259D40056100BF641C072CDFDB022381
:1015B000012203210448FFF7F3FB0020FFF77EFF21
:1015C00070BD0000987500080010014003F04CFB4E
:1015D00003F0D8FA00F0B0FE03F0C8FA00BF012013
:1015E00003F0BEFC01200D4908700D48007800286A
:1015F000F5D00120FFF762FF0A4800F017F9044612
:1016000000200749087014B1204600F0C9F903F022
:10161000ADFA0020FFF752FFE1E700001F000020B5
:10162000250000207004002038B5044654B900BFDE
:10163000A02080F31188BFF34F8FBFF36F8F00BFDF
:1016400000BFFEE70020034602460321009020462B
:1016500004F0BEFE01200149087038BDD10300200E
:1016600038B5044654B900BFA02080F31188BFF3F9
:101670004F8FBFF36F8F00BF00BFFEE70020034610
:10168000024603210090204604F0A2FE002003F051
:101690009BFA38BD2DE9F84F8146B9F1000F0AD108
:1016A00000BFA02080F31188BFF34F8FBFF36F8F6F
:1016B00000BF00BFFEE70020034602460321009062
:1016C000484604F085FE37493748006805F082FE39
:1016D00001D8002408E035493348006805F07AFE57
:1016E00001D8012400E00224314800EBC4008088C6
:1016F0004FF6FF71884221D02D4800EBC400C0880E
:1017000088421BD02A4901EBC401C88805F04EFD70
:10171000824605F067FB05460022264B04F080FF59
:10172000074604F097FE244908604FF080412248A4
:10173000006805F0F1FB2049086012E01C4901EB4C
:10174000C401488805F032FD824605F04BFB074690
:101750000022184B04F064FF054604F07BFE164996
:10176000086016491448006805F034FE05D3144992
:101770001148006805F02EFD02D211480E4908609C
:1017800004F0C2FA0546002003462A4601210090D3
:101790000C48006804F01CFE01200B490870BDE8ED
:1017A000F88F00000000C0400C0000200000A040A6
:1017B000E006002000002440B80300200000BE42E4
:1017C00000004040DC030020D003002010B503F0EF
:1017D000D9F901200149087010BD00002500002042
:1017E00010B504460E480078C8B900210D4800F035
:1017F000C8FE00210B4800F0D9FE0121094800F085
:10180000C0FE09480078FA2801DB03F0F5F8064825
:1018100001780078401C044A1070501C445410BDDC
:1018200025000020000800407004002070B5054627
:101830000DB9002070BD284602F0A2F908B90020B9
:10184000F8E76C1CFFF7CEFB2178884201D000201E
:10185000F0E700266078032802D0102810D107E0B6
:101860002878001FC1B2A01C00F006F906460DE062
:101870002878001FC1B2A01C01F05CFD064605E0FF
:101880006078012102F06EFA064600BF00BF0EB17B
:101890000148CFE70020CDE76B05002029B1064ABB
:1018A000D2690243044BDA6104E0034AD2698243FD
:1018B000014BDA61704700000010024029B1064A6E
:1018C00092690243044B9A6104E0034A926982439D
:1018D000014B9A61704700000010024010B50146AC
:1018E0000022002300204A11012A02D1094C23685A
:1018F00006E0022A02D1074C236A01E0054C636A24
:1019000001F01F02012494401C400CB1012000E0B2
:10191000002010BD0010024001490860704700001F
:10192000800442422DE9F04107460D4615B90020DA
:10193000BDE8F081384601F01DFF04465CB16068E7
:1019400048B16088616888470646002E02DB2E8019
:101950000120EDE700BF0020EAE72DE9F041054650
:101960000E46284601F006FF044654B1A06838B17F
:101970006088A2683146904707463846BDE8F08146
:1019800000BF0020FAE730B50546284601F0F2FE18
:1019900004461CB1A06808B1012030BD0020FCE75E
:1019A00010B5044604B910BD02F06AFE00200B49D0
:1019B00008600AE0611C094A1268885C02F01AFF9C
:1019C00006480068401C05490860207803490968FA
:1019D0008842EFDC02F03EFE00BFE4E72800002072
:1019E0002DE9F8438046022269466420FFF7F4F8A7
:1019F00018B94FF0FF30BDE8F883BDF8000005F0DE
:101A0000D5FB0446154905F0E5FB08D3BDF80000F9
:101A100005F0CCFB0446124905F0DCFC06D232206E
:101A20000090BDF80010002001F046FCBDF8000059
:101A300005F0BCFB0B4908600846006805F0D2F9C8
:101A400006460022084B04F0EBFD044604F002FDBC
:101A500004490860BDF80000CDE700000000A04187
:101A60000000C8420C00002000002440014601484C
:101A700000787047010000202DE9F043B3B005461F
:101A8000894615B1B9F1040F03D0002033B0BDE889
:101A9000F0832C466088000AA17840EA012060802B
:101AA0002088000A217840EA01202080608864288C
:101AB00005DD0321084602F055F90120E6E70DF1A6
:101AC00001070026B4F800801AE007EB4601404603
:101AD000FFF728FF28B90221032002F043F9012073
:101AE000D4E737F81600000A17F8161040EA01206C
:101AF00027F8160008F101001FFA80F8701CC6B222
:101B00002088618808444045DFDCA0784006000E4C
:101B10008DF80000FFF766FA8046A078012101EBFE
:101B20004000C3B26A460321404602F043F9012057
:101B3000ACE700002DE9FC4701218048FFF76CF974
:101B4000002303220B217E48FFF72AF902230022FB
:101B500007217C48FFF724F9022300220821794855
:101B6000FFF71EF9002003F02FF8002003F04AF8D9
:101B70000025032269466620FFF76EF808B90125A3
:101B800006E0BDF8000010B1BDF8020000B9012563
:101B90007DB36D486D4908606D486E4908606E48B8
:101BA0006E4908606E496948006805F047FB0446C5
:101BB00005F0C4FA80B2ADF80000694965480068D4
:101BC00005F03CFB044605F0B9FA80B2ADF802001E
:101BD00063496248006805F031FB044605F0AEFA3F
:101BE00080B2ADF80400032269466620FFF77AF858
:101BF00033E0FFE7BDF8000005F0D8FA044605F031
:101C0000F1F880460022574B04F00AFD064604F026
:101C100021FC4E490860BDF8020005F0C7FA0446F1
:101C200005F0E0F8804600224E4B04F0F9FC064631
:101C300004F010FC47490860BDF8040005F0B6FA4E
:101C4000044605F0CFF880460022464B04F0E8FC3D
:101C5000064604F0FFFB41490860012242496C201E
:101C6000FEF7FAFF10B14048008830B905203E4920
:101C7000088001226C20FFF735F801223B496E20D5
:101C8000FEF7EAFF10B13948008830B95A203749C9
:101C9000088001226E20FFF725F8012234497020C8
:101CA000FEF7DAFF10B13248008830B9062030491B
:101CB000088001227020FFF715F818222D494FF4F3
:101CC0009670FEF789FF10B902F000FF19E00024BA
:101CD000002010E0274901EBC0010988282905DB15
:101CE000244901EBC0010988462901DD012100E0FA
:101CF00000210C43401C0328ECDB0CB102F0E6FE93
:101D000000BF01221C497220FEF7A6FF10B11A483D
:101D1000008830B905201849088001227220FEF79A
:101D2000E1FF15480088142806DD142012490880B8
:101D300001227220FEF7D6FFBDE8FC8700023000CA
:101D4000000C0140001001400000A040AC03002046
:101D50009A99193EA403002000002041A803002006
:101D600000007A4400408F40B0030020B2030020FE
:101D7000B4030020E0060020B603002001460C2931
:101D80002BD2DFE801F006090C0F1215181B1E21DB
:101D9000242714480088704712484088FBE7114800
:101DA0008088F8E70F48C088F5E70E480089F2E719
:101DB0000C484089EFE70B488089ECE70948C08967
:101DC000E9E70848008AE6E70648408AE3E705486D
:101DD000808AE0E70348C08ADDE700BF00BF4FF01C
:101DE000FF30D8E7E006002073B504460025012C3B
:101DF00005D0052C03D0092C01D000207CBD4FF468
:101E0000967000EB440086B2012201A93046FEF72D
:101E100069FF05469DB1012C04D1BDF804000949B4
:101E200048800CE0052C04D1BDF804100548418120
:101E300005E0092C03D1BDF8041002484182284670
:101E4000DCE70000E006002070B504464FF0FF35E7
:101E500024B1012C0CD0022C1ED113E011491248E0
:101E6000006805F0EBF9064605F04CF9054616E06A
:101E70000C490E48006805F0E1F9064605F042F904
:101E800005460CE007490A48006805F0D7F9064600
:101E900005F038F9054602E04FF0FF3500BF00BFFE
:101EA000284670BD00007A44AC030020A403002043
:101EB000A80300200146014800887047B6030020AF
:101EC0002DE9F04704464FF0FF3A04F0FF09B9F15D
:101ED0000D0F7BD2DFE809F07A070B0F131D2227C5
:101EE0003949546671003B4890F800A06EE03A48CA
:101EF00090F800A06AE0394890F800A066E0384900
:101F00003848006805F09AF9054605F0FBF8824666
:101F10005CE00020FEF78CFC824657E00120FEF7D3
:101F200087FC824652E02E492F48006805F086F96A
:101F3000804602F091FD074604F054FF21F0004175
:101F4000054604F0C5FC824640E02848006804F0DD
:101F500049FF21F0004107460022254B04F024FDF3
:101F6000054604F0B5FC824630E000211F480068B9
:101F700005F030FA01D8012000E00020824625E07B
:101F800017491C48006805F059F9804602F064FDC5
:101F9000074604F027FF21F00041054604F098FCB5
:101FA000824613E000211348006805F013FA01D8B7
:101FB000012000E00020824608E00F490868002860
:101FC00001DB014600E041428A4600BF00BF5046A7
:101FD000BDE8F0870200002004000020030000207C
:101FE0000000C8420C000020B8030020BC03002001
:101FF00000005940C0030020C40300200146014AEC
:1020000010887047B40300200146014A10887047C9
:10201000B20300200146014A10887047B003002037
:102020002DE9F35F0446022C02DD0020BDE8FC9F91
:10203000662000EB44001FFA80FA022201A95046F4
:10204000FEF71CFE8146B9F1000F3DD024B1012CF2
:1020500014D0022C36D123E0BDF8040005F0A6F818
:10206000834604F0BFFE07460022184B04F0D8FA5E
:10207000054604F0EFF91649086024E0BDF80400B5
:1020800005F094F8834604F0ADFE074600220F4B9E
:1020900004F0C6FA054604F0DDF90E49086012E0C6
:1020A000BDF8040005F082F8834604F09BFE054667
:1020B0000022064B04F0B4FA074604F0CBF90649B7
:1020C000086000E000BF00BF4846AFE700408F4017
:1020D000AC030020A4030020A803002073B505462C
:1020E000BDF80400142801DD14200190012201A98B
:1020F0007220FEF7F7FD04461CB1BDF8040002494A
:10210000088020467CBD0000B603002073B505465C
:10211000BDF80400032803DBBDF80400142801DD2A
:1021200000207CBD012201A97020FEF7DBFD0446E2
:102130001CB1BDF80400024908802046F1E7000008
:10214000B403002073B50546012201A96E20FEF7F5
:10215000C9FD04461CB1BDF80400024908802046B0
:102160007CBD0000B203002073B50546012201A921
:102170006C20FEF7B7FD04461CB1BDF8040002490F
:10218000088020467CBD0000B003002008B5002078
:102190001B4908601B4908601B4908601B481C4913
:1021A0000860002000901B480088002805DD1948C1
:1021B00000884FF47A71484300E06420024600230F
:1021C00004211548006804F003F91448006850B968
:1021D00000BFA02080F31188BFF34F8FBFF36F8F34
:1021E00000BF00BFFEE70020034602460321009027
:1021F0000A48006804F0ECF8012002F0E5FC08BD94
:10220000BC030020C0030020C80300200000E04001
:10221000CC030020B0030020D8030020D40300200A
:1022200038B53A48006850B900BFA02080F3118843
:10223000BFF34F8FBFF36F8F00BF00BFFEE734487F
:10224000006850B900BFA02080F31188BFF34F8F02
:10225000BFF36F8F00BF00BFFEE72E48006850B984
:1022600000BFA02080F31188BFF34F8FBFF36F8FA3
:1022700000BF00BFFEE70020034602460321009096
:102280002448006804F0A4F8002003460246032115
:1022900000901F48006804F09BF800201E49087059
:1022A0001E4908701E4908601E481F49086000202A
:1022B0001E4908601E4908601749087017490870D0
:1022C00000901C480088002805DD1A4800884FF45B
:1022D0007A71484300E064200246002304210B4841
:1022E000006804F075F803F00FFD05463220002366
:1022F0002A46012100900548006804F069F8044668
:10230000012C02D0002002F05FFC38BDD403002075
:10231000DC030020D8030020D0030020D1030020DC
:10232000C003002000004040B8030020BC03002090
:10233000C8030020B603002010B5022300220821A4
:102340002F48FEF72DFD0820002121B101228240F7
:102350002B4B1A6105E000F1100201239340284A3B
:10236000136100BF2748806940F480402549886197
:1023700040F2413024490880081D008842F22C01B7
:1023800008432149091D08801E48806940F0050066
:102390001C4988611A48001D006820F0C0001849D7
:1023A000091D08600846006840F080000860084683
:1023B000006840F0100008600846006820F44060A3
:1023C00008600846006840F48060086008460068BD
:1023D00020F440700860252000280DDB00BF00BFFE
:1023E00000F01F02012191404209920002F1E02217
:1023F000C2F8001100BF00BF00BF62B610BD0000F0
:102400000008014000100240083801402DE9F04169
:1024100006460C4600251749304604F0DBFE01D283
:10242000022505E01449304604F0D4FE00D201250F
:102430001249304604F002FF804602F00DFB0746C9
:1024400004F07CFE0E4901EBC50188800B49204653
:1024500004F0F4FE074604F071FE094901EBC501E2
:10246000C880182206494FF49670FEF707FCBDE8B5
:10247000F08100000000A0400000C04000002041AA
:10248000E0060020704700002DE9F0470446204692
:1024900004F0A8FC074600220A4B04F085FA054622
:1024A00003F0D8FF0446204602F0D6FA054604F0B1
:1024B00045FE1FFA80F94946002000F0FDFEBDE808
:1024C000F08700000000244010B500BFA02080F37A
:1024D0001188BFF34F8FBFF36F8F00BF03F01AFC5B
:1024E00018B14FF080500449086000BF002080F30D
:1024F000118800BF10BD000004ED00E010B51648C3
:10250000006840F00100144908600846406813491B
:1025100008401149486008460068114908400E49C2
:1025200008600846006820F480200860084640687B
:1025300020F4FE0048600846006820F0A0500860C3
:102540004FF47F0088600020C862FFF79BFF4FF0C8
:1025500000600449086010BD001002400000FFF058
:10256000FFFFF6FE08ED00E010B50121024800F083
:1025700005F8FFF72BF910BD00080040CA4302829E
:10258000704721B1028842F00102028004E0028813
:102590004FF6FE731A40028070471AB183890B43CD
:1025A000838102E083898B438381704781847047F4
:1025B000002202881D4B98420ED01D4B98420BD032
:1025C000B0F1804F08D01B4B984205D01A4B98426F
:1025D00002D01A4B984204D14FF68F731A404B88A1
:1025E0001A43174B984207D0164B984204D04FF627
:1025F000FF431A40CB881A4302808B8883850B885F
:1026000003850A4B98420BD0094B984208D00E4BD9
:10261000984205D00D4B984202D00D4B984201D103
:102620000B7A03860123838270470000002C01404F
:10263000003401400004004000080040000C00404D
:1026400000100040001400400040014000440140E0
:10265000004801404FF6FF71818000210180C18058
:10266000418001727047000000BF012015490870C9
:10267000FEF714F8044614480078844220D04FF442
:10268000FA6002F06DFC01200E490870FEF706F8B2
:10269000A04215D10C490C7000250FE00120FEF777
:1026A0000DFFC82002F05CFC0120064908700020E4
:1026B000FEF704FFC82002F053FC6D1CA542EDDBC1
:1026C000D3E700001C0000200000002008B500BF78
:1026D00003F01AFB009000BF4FF4FA51684603F074
:1026E00097FA15480078C8B114480078B0B114487A
:1026F000007898B11348007880B11348007868B129
:102700001248007850B11248007838B1114800786A
:1027100020B11148007808B1012000E000200446F3
:1027200014B102F06FF9D7E7FEF700FF00BF642095
:1027300002F016FCFBE700001C0000201D0000203A
:102740001E0000201F00002020000020210000208B
:102750002200002023000020240000201FB500BF1D
:1027600000BF00BF4FF00009CA46CB460025002637
:102770000020039002900190009000BF01203E498C
:10278000087000F059FE074600F048FE804600F051
:1027900037FE04468FB9B9F1000F0CD0029830B95A
:1027A000B5F5FA7F05DA01203449087001E0002010
:1027B000009000200290002511E0B9F1000F0ED02A
:1027C0001935B5F5966F0ADDB6F5966F07DD0098F9
:1027D00028B901202A490870029001900090B8F1B0
:1027E000000F11D1BAF1000F0CD0019830B9B6F535
:1027F000FA7F05DA01202349087001E000200090EB
:1028000000200190002611E0BAF1000F0ED0193619
:10281000B5F5966F0ADDB6F5966F07DD009828B915
:1028200001201749087002900190009044B90020DF
:102830000390BBF1000F18D001201349087014E079
:102840001248007878B9BBF1000F0CD0039819300A
:1028500003900398B0F5966F07DD01200B490870CF
:102860000020039001E000200390C246B946A34631
:10287000192002F075FB81E71E00002010000020E7
:10288000120000201100002014000020130000207E
:102890000EB500BF002002F0B5F900206D490860B8
:1028A0006D4908604FF47A7002F05AFB00BF0120B6
:1028B0006A490870FEF7DEFB30B9002002F0A2F989
:1028C000322002F04DFBF2E703F01EFA019062485D
:1028D000006863490860084601686248006804F0BF
:1028E000ADFA6049086060495E48006804F072FD16
:1028F00002D25D485B4908605C495A48006804F0B0
:1029000069FC02D25948574908605949098801EBC6
:102910008101480004F032FC80465248016840467C
:1029200004F08CFC074604F0EDFB524908600846B1
:102930000068642866DD062418E04E48006890FBB5
:10294000F4F5FA2D11DD05FB04F04949098801EB86
:102950004102C2EBC1116422C2EBC101091A91FB11
:10296000F4F6FA2E00DD03E000BF641E002CE4DC68
:1029700000BF64B9642D0ADD01243D48008800EBE6
:102980004001C1EBC0106421C1EBC000461B3548BB
:10299000D0F800A0002002902CE0012002F032F9D3
:1029A000284602F0DDFA002002F02CF9304602F051
:1029B000D7FA51462B48006804F078FD009004F0E7
:1029C00011FA21F00041074600222B4B04F0EAF8EF
:1029D0000DD32A48007850B92948007838B92948D9
:1029E000007820B90020FFF741F8012802D001202B
:1029F000029003E0201EA4F10104CED100BF029892
:102A000028B154E700201B49086002F0FBF803F0EE
:102A10007BF981460199A9EB01001549098801EB71
:102A20004102C2EBC111B0EBC10F0BD20198A9EB6F
:102A300000000F49098801EB4102C2EBC111C0EB54
:102A4000C10B01E04FF00A0B594601A803F0E0F872
:102A50002DE70000C8030020BC0300202300002055
:102A6000C0030020B80300200000BE420000404028
:102A7000B4030020C4030020000014400200002022
:102A8000040000200300002008B50124FEF742FCEA
:102A9000FEF7E8FB00BF03F037F9009000BF01200C
:102AA000164908704FF4FA71684603F0B1F82046F1
:102AB000FEF774FC1248007810B10CB1012000E060
:102AC000002001460320FEF715FD0E48007810B1E6
:102AD0000CB1012000E0002001460220FEF70AFDB3
:102AE0000948007810B10CB1012000E00020014637
:102AF0000120FEF7FFFC84F00104D0E72100002054
:102B00000400002003000020020000201CB503F098
:102B1000FBF8009000BF00BF01203A4908704FF455
:102B20007A71684603F074F8FEF7A4FA0028F3D02F
:102B3000354800780028EFD03448016834480068F0
:102B400004F0B4FC834659463248006804F076FB32
:102B5000824659463048006804F070FB04462F480E
:102B60000168204604F06AF904462C4804602C48A9
:102B700001682648006804F099FC01902948016822
:102B8000019804F05BFB019020480068244908602C
:102B90002146504604F052F90546019904F04EF9D9
:102BA0008146484604F01EF921F000410546002206
:102BB0001D4B03F0F7FF15D20021484604F00AFC34
:102BC00002D8DFF868900DE0DFF86090484604F026
:102BD00009F907460022164B03F0E6FE054603F00E
:102BE00039FC8146484604F0FDF805460022104BAA
:102BF00003F0DAFE074603F02DFC81460D48C0F8CD
:102C0000009089E724000020D10300200800002064
:102C10000C000020AC030020A4030020C803002007
:102C2000CC030020A803002000003E400000F0413B
:102C30000000F0BFBC0300201FB500BF00BF002490
:102C400000250026012083490870FEF773FF01204C
:102C50008149087040F6C41002F082F901207D49D4
:102C6000087040F6C41002F07BF901207949087021
:102C70000020012103468022CDE9001077A1794888
:102C800002F096FF0020012103468022CDE90010CA
:102C900075A1764802F08CFF754800907548008851
:102CA000002805DD734800884FF47A72504300E035
:102CB0000A200146002301226FA003F043FB714963
:102CC00008607148009071480088002805DD6F4851
:102CD00000884FF47A72504300E00A200146002336
:102CE00001226BA003F02EFB6D4908606D480023A4
:102CF000012242F2107100906BA003F023FB6E4999
:102D0000086003F001F8039000BF012051490870EA
:102D1000642103A802F07CFF0020FEF7A7FE012833
:102D200005D16648007810B96548007818B10020D0
:102D300001F04AFFE9E7FEF7B7F980F001004649E4
:102D4000097888420ED0FEF7AFF980F001004249C1
:102D500008700846007810B1FFF762FA01E0FFF74B
:102D600015FAD2E73C48007800B1CEE7FEF772F9D9
:102D700010B9012001F028FF02A8FDF7EBFC514932
:102D8000086000214F48006804F024FA0CD24B4838
:102D9000007850B9643541F28830854205DD012064
:102DA00046490870002500E000254748016845486D
:102DB000006804F07BFB834604F014F821F0004126
:102DC00007460022414B03F0EDFE0ED2643440482A
:102DD000008800EB4001C1EBC010B4EBC00F05DD73
:102DE000002401203649087000E0002436480168BC
:102DF0003448006804F05AFB834603F0F3FF21F0E7
:102E000000410746334A344B03F092FD1DD264362D
:102E100009F1010931480168504604F00FF8824673
:102E20004EF66020864214DD00265746484604F0E0
:102E3000A5F980464146384604F06EF80746394603
:102E400021480068FFF7E2FA03E04FF00009CA46A4
:102E500000265AE722000020020000204B6C61701F
:102E6000616E000091280008506964000D2B000875
:102E700061160008B603002054696D657250756DC7
:102E800070000000D403002095160008B003002055
:102E900054696D6572526567756C61746F7200007C
:102EA000D80300202916000854696D657243616CCF
:102EB0006350696400000000DC030020040000206F
:102EC00003000020080000200C0000200000E03F6C
:102ED000B20300209A9999999999C93FB8030020A3
:102EE00008B5022300220621D248FDF759FF002031
:102EF000FEF776FD0120D0490870D049087000BF68
:102F0000322002F02DF80120CD490870CD4800781C
:102F100028B9CD48007810B9C848007808B1012018
:102F200000E000200446C4480078012804D00228AC
:102F300073D0032872D112E1C249097811B9C2498C
:102F4000097809B1012100E00021084601F026FEC0
:102F500000210420FEF7CEFA00210520FEF7CAFA70
:102F60006846FDF7F7FBB9490860B448007828B116
:102F700000220121B648FEF7F3F805E00022012106
:102F8000B2480068FEF7ECF800220221B148006860
:102F9000FEF7E6F834B10120FEF7B4F80220FEF7A0
:102FA00093F805E00120FEF78FF80220FEF78CF879
:102FB000A948007868B100F0B9FAA0480078002864
:102FC00062D0FEF747F800285ED102209A490870C7
:102FD0005AE0A248007810B300F0A8FA9D480068B3
:102FE00003F000FF07469E4A9E4B03F065FA054634
:102FF00000229D4B03F09CFC46D29648006803F0EB
:10300000F1FE0746964A974B03F056FA054603F041
:1030100021FA8346FFF738FA36E036E002E19348BA
:10302000007800B300F082FA8A48006803F0DAFE04
:1030300007468B4A8B4B03F0EBFD054600221346F7
:1030400003F0B0FD20D28348006803F0CBFE0746B2
:10305000834A844B03F0DCFD054603F0FBF983460D
:10306000FFF712FA10E08248007868B100F05EFACB
:1030700000F072FA01207049087070490870002051
:10308000714908706F490870D2E0002001F086FD98
:1030900001210420FEF72EFA00210520FEF72AFA6E
:1030A0000020FDF73BFB81460120FDF737FB824600
:1030B000002201214846FEF753F800220221504623
:1030C000FEF74EF864480078A0B300F02FFA002015
:1030D000FDF786FB85B229460020FDF7CBFC0120D9
:1030E000FDF77EFB85B229460120FDF7C3FC0020D9
:1030F000FDF714FB81460120FDF710FB82460022FC
:1031000001214846FEF72CF8002202215046FEF726
:1031100027F8642001F024FF0320FDF7F3FF40F2BD
:10312000DC5001F01DFF0320FDF7CEFF03204249D4
:10313000087013E0FFE74948007828B100F0F6F97D
:1031400003203D49087009E04A48007830B100F09A
:10315000EDF90120384908703849087068E000200E
:1031600001F01CFD00210420FEF7C4F90121052017
:10317000FEF7C0F90020FDF7D1FA81460120FDF7E6
:10318000CDFA8246002201214846FDF7E9FF0022E0
:1031900002215046FDF7E4FF2F480078B0B300F05D
:1031A000C5F90020FDF71CFB85B229460020FDF77C
:1031B0007DFC0120FDF714FB85B229460120FDF7B7
:1031C00075FC0020FDF7AAFA81460120FDF7A6FA5A
:1031D0008246002201214846FDF7C2FF002202215B
:1031E0005046FDF7BDFF642001F0BAFE0320FDF755
:1031F00089FF40F2DC5001F0B3FE0320FDF764FFCD
:1032000001200D4908700D4908700AE0FFE71948D0
:10321000007830B100F08AF90120074908700749A9
:10322000087005E0012004490870FEF7AFFF00BFF9
:1032300066E60000001001400100002002000020AE
:103240001D000020040000200300002008000020D2
:10325000000080BF0C0000201200002010000020A1
:103260009A9999999999B93F00002440110000203A
:10327000130000201400002010B50B48008840F215
:103280002551084078B10848008800F0070038B997
:10329000054800F00BF80446E0B2FEF7A1FA02E0A0
:1032A000014800F003F810BD00380140014688884D
:1032B000C0F30800704700002DE9F3418046BDF8D7
:1032C000040003F073FF0446164903F083FF08D39C
:1032D000BDF8040003F06AFF0446134904F07AF8CD
:1032E00002D20020BDE8FC81022201A96420FDF782
:1032F000C5FCA8B1BDF8040003F058FF0B490860F5
:103300000846006803F06EFD06460022084B03F0F5
:1033100087F9044603F09EF8044908600120E1E7BC
:103320000020DFE70000A0410000C8420C000020A0
:10333000000024402DE9F8430546884615B1B8F150
:10334000070F02D20020BDE8F8832C466088000AEF
:10335000A17840EA012060802088000A217840EAB4
:10336000012020806188642906DC207900EBD0717F
:1033700049106288914205D00321102000F0F2FC30
:103380000120E0E700260CE02188314488B2FEF7F6
:10339000FAFA28B90321102000F0E4FC0120D2E75A
:1033A000761C6088B042EFDC671D00260CE037F821
:1033B0001620120A17F8163042EA032122883244F6
:1033C00090B2FEF7CAFA761C6088B042EFDC208823
:1033D000000A217840EA0120ADF800006088000A68
:1033E000A17840EA0120ADF80200FDF7FBFD06469A
:1033F00004236A46102100F0DDFC0120A3E7000051
:103400000C2005498968C14001F0010109B901207A
:1034100070470020FCE70000001001400A20054929
:103420008968C14001F0010109B9012070470020FD
:10343000FCE70000001001400B2005498968C140ED
:1034400001F0010109B9012070470020FCE70000EC
:103450000010014000B585B001214802FEF72EFAA8
:103460006846FDF712F9002000908DF804008DF8F1
:1034700005004FF4602002900020039001208DF899
:10348000100069461148FDF767F801210F48FDF764
:1034900036F80523012200210C48FDF785F80B487A
:1034A000FDF7DEF800BF0948FDF74BF80028FAD118
:1034B0000648FDF7E5F800BF0448FDF72BF80028A3
:1034C000FAD103490880488005B000BD00240140BE
:1034D0002C00002010B5044605230122214609488E
:1034E000FDF762F801210748FDF7BFF800BF022190
:1034F0000448FDF71DF80028F9D00248FDF714F83C
:1035000010BD000000240140F0B505460E464FF600
:10351000FF77002406E0295DB8B2FDF731FB0746CE
:10352000601CC4B2B442F6DBB8B2F0BD002005495D
:103530000870054908700549087005490870054973
:1035400008707047120000201000002011000020B9
:10355000130000201400002010B500F006F810BD84
:1035600000E0401E0028FCDA7047F8B53227002042
:103570008DF802008DF803000026E2E000252FE020
:103580002C4601208DF801000B208DF80000E8B2D8
:103590006946FDF75BFE00208DF80100601C0446C3
:1035A000032800DD241FE0B26946FDF74FFE601CD2
:1035B0000446032800DD241FE0B26946FDF746FEFD
:1035C000601C0446032800DD241FE0B26946FDF7B5
:1035D0003DFE0020FDF7E2FE322001F0C1FC6D1C33
:1035E000042DCDDB01208DF801000C208DF80000AA
:1035F00069460320FDF72AFE00208DF80100694688
:10360000FDF724FE69460120FDF720FE69460220F1
:10361000FDF71CFE0020FDF7C1FE322001F0A0FCEA
:1036200001208DF801000D208DF80000694603206F
:10363000FDF70CFE00208DF801006946FDF706FE3F
:1036400069460120FDF702FE69460220FDF7FEFDF6
:103650000020FDF7A3FE322001F082FC03252FE0BD
:103660002C4601208DF801000E208DF80000E8B2F4
:103670006946FDF7EBFD00208DF80100601C044653
:10368000032800DD241FE0B26946FDF7DFFD601C62
:103690000446032800DD241FE0B26946FDF7D6FD8D
:1036A000601C0446032800DD241FE0B26946FDF7D4
:1036B000CDFD0020FDF772FE322001F051FC6D1EA1
:1036C000002DCDDA01208DF801000F208DF80000CB
:1036D00069460020FDF7BAFD00208DF8010069461B
:1036E0000120FDF7B3FD69460220FDF7AFFD6946F5
:1036F0000320FDF7ABFD0020FDF750FE322001F066
:103700002FFC01208DF8010010208DF80000694683
:103710000020FDF79BFD00208DF801006946012087
:10372000FDF794FD69460220FDF790FD69460320F0
:10373000FDF78CFD0020FDF731FE322001F010FC7A
:10374000761C032EFFF61AAFFDF7FAFCF8BD31B573
:10375000A02000F01BF9044654B16D46687800F0D3
:1037600015F904461CB1287800F010F9044600BF92
:10377000204638BDF0B5014600254FF44C720C23AD
:1037800092FBF3F084B200200CE000EB4006084FFF
:1037900037F826608E4204D100EB400607EB860521
:1037A00002E0401CA042F0DB00BF2846F0BD000054
:1037B0006200002010B50223012207211848FDF7FE
:1037C000EFFA0720002121B101228240144B1A6137
:1037D00005E000F1100201239340114A136100BF7C
:1037E0000620012121B1012282400D4B1A6105E022
:1037F00000F1100201239340094A136100BF062023
:10380000002121B101228240054B1A6105E000F13F
:10381000100201239340024A136100BF10BD000053
:10382000000C014010B50223012206211348FDF7C8
:10383000B7FA0023012207211048FDF7B1FA06204C
:10384000012121B1012282400C4B1A6105E000F1F7
:10385000100201239340094A136100BF0720012190
:1038600021B101228240054B1A6105E000F11002EE
:1038700001239340014A136100BF10BD000C0140B9
:1038800010B50621012222B101238B40104C236187
:1038900005E001F1100301249C400D4B1C6100BFA9
:1038A00007210B4A9268CA4002F0010000BF0621BE
:1038B000002222B101238B40054C236105E001F178
:1038C000100301249C40024B1C6100BF10BD00008E
:1038D000000C014070B50026002301220721084892
:1038E000FDF75EFA072507E0FFF7CAFF044604FA72
:1038F00005F03043C6B26D1E002DF5DA304670BDBE
:10390000000C014010B502467AB90720002121B110
:10391000012383401C4C236105E000F110030124C6
:103920009C40194B1C6100BF0FE00720012121B111
:1039300001238340144C236105E000F110030124AE
:103940009C40114B1C6100BF00BF0620012121B12A
:10395000012383400C4C236105E000F11003012496
:103960009C40094B1C6100BF0620002121B10123AE
:103970008340054C236105E000F1100301249C40C5
:10398000014B1C6100BF10BD000C014070B5054625
:1039900000260223012207212048FDF701FA07240F
:1039A0000BE00121A1402940002901DD012100E0B7
:1039B00000210846FFF7A6FF641E002CF1DA002361
:1039C000012207211548FDF7EBF90620012121B15D
:1039D00001228240114B1A6105E000F1100201231F
:1039E00093400E4A136100BF07200C498968C1400B
:1039F00001F0010101B901260620002121B10122B7
:103A00008240064B1A6105E000F110020123934049
:103A1000024A136100BF304670BD0000000C014037
:103A200010B50223012207211F48FDF7B9F907202D
:103A3000012121B1012282401B4B1A6105E000F1F6
:103A4000100201239340184A136100BF0620012190
:103A500021B101228240144B1A6105E000F11002ED
:103A600001239340104A136100BF0720002121B1B8
:103A7000012282400C4B1A6105E000F11002012383
:103A80009340094A136100BF0620002121B10122A1
:103A90008240054B1A6105E000F1100201239340BA
:103AA000014A136100BF10BD000C014010B5072092
:103AB000002121B101228240214B1A6105E000F171
:103AC0001002012393401E4A136100BF062000210B
:103AD00021B1012282401A4B1A6105E000F1100267
:103AE00001239340164A136100BF022301220721DC
:103AF0001348FDF755F90620012121B1012282402A
:103B00000F4B1A6105E000F11002012393400C4AAB
:103B1000136100BF0720012121B101228240084B1F
:103B20001A6105E000F1100201239340044A136179
:103B300000BF0023012207210148FDF731F910BD24
:103B4000000C014070B549F640444FF4C3650120B4
:103B5000FDF7E2FE00BF6120FDF7C0FE0028FAD0AD
:103B600045F25550FDF760FA0620FDF751FA4FF483
:103B7000C360FDF753FAFDF743FAFDF739FA70BD5C
:103B800070B504462078801E611C0D5A2078801E76
:103B9000C1B2601CFFF7B8FC0646B54201D1012056
:103BA00070BD0020FCE7000000B51420FFF7D8FC32
:103BB0000D20012121B101228240104B1A6105E044
:103BC00000F11002012393400C4A136100BF14203E
:103BD000FFF7C6FC0D20002121B101228240074BD6
:103BE0001A6105E000F1100201239340034A1361BA
:103BF00000BF1420FFF7B4FC00BD0000001001401E
:103C000000B51420FFF7ACFC0E20012121B10122E8
:103C10008240104B1A6105E000F11002012393402D
:103C20000C4A136100BF1420FFF79AFC0E200021FC
:103C300021B101228240074B1A6105E000F1100218
:103C400001239340034A136100BF1420FFF788FC4F
:103C500000BD0000001001401CB5FDF7EBF900208D
:103C6000012103468022CDE9001027A1284801F058
:103C70009FFF0020012103468022CDE9001025A1ED
:103C8000264801F095FF002002210346CA02CDE933
:103C9000001023A1244801F08BFF002001210346DE
:103CA0008022CDE9001021A1224801F081FF0020EF
:103CB000012103468022CDE900101FA11F4801F019
:103CC00077FF0020012103468022CDE900101CA1CE
:103CD0001D4801F06DFF0020012103464A02CDE995
:103CE00000101AA11C4801F063FF002001210346C7
:103CF0008022CDE9001019A1194801F059FF01F007
:103D000049FA00201CBD0000414444524553530071
:103D100069260008414E414C4F4700009D080008AD
:103D20004D6F646275730000CD1500084C656473B7
:103D300044696700892A000842544E005D27000844
:103D4000574F524B00000000E12E00085265677586
:103D50006C61746F72000000392C000857647400A5
:103D6000CD2600087CB504460D46FDF73BF98DF8DD
:103D7000000004F03F0040F080008DF801008DF855
:103D8000025003216846FFF7BFFBADF80300FB219B
:103D90000748FCF7FCFA06480099C0F801109DF8A6
:103DA0000410417105200249087001207CBD00000B
:103DB0006B0500202DE9F0478046894616461C46D3
:103DC000002C02DD0EB9BDE8F087F52C00D9FAE72A
:103DD000FB211548FCF7DBFA134D6D1C85F80080BC
:103DE00085F801905CB14FF0000A06E022463146AA
:103DF000A81CFCF787FA0AF1010AA245F6DBA01C11
:103E00000949087008460178401CFFF77DFB07460A
:103E100005490A78491C8F52481E0078801C491EAB
:103E2000087000BFCFE700006B0500202DE9F041CE
:103E300005460F461748066817480068001D00F041
:103E400041FF50B91448006890F82C1001208840B8
:103E50001249096881431148016074190E480068CD
:103E60004460B44207D20C480168091D0C48006840
:103E700000F04CFF0CE008480168091D0948006883
:103E800000F044FF08480068844201D206480460FC
:103E9000BDE8F0813004002020040020340400201C
:103EA00028040020240400204C04002010B50446FF
:103EB00000F046FF2F480068401C2E4908602E483D
:103EC000006840B92C4804600846006801280DD1FC
:103ED00000F004FA0AE02948006838B9264800686A
:103EE000C06AE16A884201D8234804602448006817
:103EF000401C2349086094F82C1001208840214977
:103F0000096808431F490860E16A01EB81011E4A04
:103F100002EB81014868A0608268E260211D82682E
:103F200051608160E16A01EB8101174A02EB810275
:103F30006261E16A01EB8101134A52F82110491CC8
:103F4000E26A02EB8202104B43F8221000F022FFDB
:103F50000A48006868B108480068C06AE16A884297
:103F600007D24FF0805009490860BFF34F8FBFF36D
:103F70006F8F10BD2C040020200400203804002086
:103F80004804002034040020F86E002004ED00E016
:103F900010B500F0D5FE0C48006890B90B4800F051
:103FA000A5FE0B4800F0A2FE08480A490860084830
:103FB0000949086000220C21032001F020FA02497F
:103FC000086000F0E7FE10BD64040020706F002060
:103FD000846F00205C04002060040020704770B5EE
:103FE00004460D46206C70B1216CE0680144E1602C
:103FF000D4E90210884201D32168E1602846226C8E
:10400000E168FCF77FF970BD2DE9F04104460F46E9
:1040100015464FF00008A66B206C48B920680028B0
:104020002CD1A06801F054FF80460020A06025E05C
:104030007DB93946226C6068FCF764F9216C6068D0
:1040400008446060D4E90101884217D320686060A9
:1040500014E03946226CE068FCF754F9216CE06802
:10406000411AE1602168E068884203D2216CA068AF
:10407000411AE160022D01D106B1761E701CA063C9
:104080004046BDE8F08101464A6A22B10A6B1268D7
:10409000C2F1030000E00020704700000146084A1A
:1040A000126812680AB9012200E000220A600A6858
:1040B00022B9034A1268D268106800E000207047F5
:1040C0005C04002030B54FF4D043174800F00704DB
:1040D0002CB1C01D20F00700134C041B1B1B024613
:1040E000124C22600024114D6C60D018083820F06A
:1040F00007000F4C206000240D4D2D686C600C4DA6
:104100002D682C601146441A4C60094C24680C60E0
:10411000084D4C682C60084D4C682C604FF00044F2
:10412000064D2C6030BD0000F8060020F40300208E
:10413000FC030020040400200004002010040020E0
:1041400000BFFFF74BFF064800680128F9D94FF080
:10415000805004490860BFF34F8FBFF36F8FF0E7C3
:10416000F86E002004ED00E010B5044654B10020C4
:10417000A06020600021E16000231A461946204615
:1041800001F0DEF910BD2DE9F04106460D46174657
:104190009846069C0DB9246000E02760E66325641C
:1041A0000121204601F05EF9BDE8F0812DE9FF5FB5
:1041B00081460F469246DDE90E6B109CAAF1010084
:1041C000216B01EB800828F0070808F0070008B908
:1041D000012000E0002050B900BFA02080F311882A
:1041E000BFF34F8FBFF36F8F00BF00BFFEE787B1F4
:1041F000002507E0795D04F134004155785D00B990
:1042000002E06D1C0A2DF5D300BF00213D200155B1
:1042100002E0002084F83400032E01D2012000E0E7
:10422000002050B900BFA02080F31188BFF34F8F4A
:10423000BFF36F8F00BF00BFFEE7032E00D302263F
:10424000E662266400206064201D00F05CFD04F13D
:10425000180000F058FD2461C6F10300A0616462FB
:104260000020A06484F84C0049464046039A00F0C0
:104270009BFB2060BBF1000F01D0CBF80040BDE8F4
:10428000FF9F2DE9F04706460D4617469846DDE9A3
:1042900008940DB1012000E0002050B900BFA0201B
:1042A00080F31188BFF34F8FBFF36F8F00BF00BF44
:1042B000FEE7FFF76DFE2660A561C4F81C80C4F818
:1042C0002090201D00F01FFD2FB194F8240040F035
:1042D000040084F82400BDE8F087000010B5002435
:1042E00007E004EB84010C4A02EB810000F0FEFCC5
:1042F000641C032CF5D3094800F0F8FC084800F0D2
:10430000F5FC084800F0F2FC04480749086004483E
:104310000649086010BD0000F86E0020346F0020D0
:10432000486F00205C6F0020240400202804002037
:1043300010B50146164800E0006803688B42FBD3C5
:104340000246436813448B4204D143684C682344BB
:10435000436001460A464B6813440468A34211D1E6
:104360000C4C03682468A34208D04B680468646856
:1043700023444B6003681B680B6005E0054B1B681A
:104380000B6001E003680B60884200D0016010BD43
:10439000F4030020FC0300202DE9F04104460D4603
:1043A00016461F464FF0000865602461B5420CD8E0
:1043B000F01BA169884202D34FF0010811E0211DD2
:1043C0000948006800F0A2FC0BE0BE4204D2BD42E6
:1043D00002D34FF0010804E0211D0448006800F0FA
:1043E00095FC4046BDE8F081600400205C0400209C
:1043F00070B5054600F0A4FCA86B08B9012400E0E4
:10440000002400F0C7FC204670BD70B5054600F0E2
:1044100097FCA86BE96B884201D1012400E00024DD
:1044200000F0B8FC204670BD70B505460E460E483B
:104430000068C068C468201D00F044FC94F82400A3
:1044400000F0040028B132462946204600F0D6F894
:1044500005E094F8240000F0FE0084F824002046D3
:10446000216A884770BD00005C0400207FB57FE0B2
:10447000019800287CDB039C606908B9012000E0FA
:10448000002010B9201D00F01DFC684600F00EF958
:10449000054601980A2869D2DFE800F06805072E72
:1044A000365806082F3700BF00BF00BF94F824001D
:1044B00040F0010084F824000298A26981180346A4
:1044C0002A462046FFF768FFA8B194F8240000F0C0
:1044D000040038B10298A26981182A46204600F0EB
:1044E0008DF805E094F8240000F0FE0084F8240024
:1044F0002046216A88473AE000BF94F8240000F083
:10450000FE0084F8240032E000BF94F8240040F05C
:10451000010084F824000298A061A06908B101207C
:1045200000E0002050B900BFA02080F31188BFF345
:104530004F8FBFF36F8F00BF00BFFEE7A069411927
:104540002B462A462046FFF727FF10E094F8240068
:1045500000F0020018B9204600F03AFC05E094F89B
:10456000240000F0FE0084F8240000E000BF00BF3B
:10457000002201A90348006801F046F900287FF4F1
:1045800077AF7FBD64040020F8B505460C4600F007
:104590004FFE684600F08AF80646009820BB44B9F2
:1045A000B54206D801F012FE31462846FFF73CFF1F
:1045B0001CE03CB10E480068006808B9012000E02A
:1045C00000200446A91B22460A48006800F0A2FC0D
:1045D00001F0FCFD50B94FF0805007490860BFF36F
:1045E0004F8FBFF36F8F01E001F0F0FDF8BD0000C9
:1045F000600400206404002004ED00E070B504466F
:104600000D46164604E0A06905442046216A884705
:10461000A06941192B4632462046FFF7BDFE00280F
:10462000F1D170BD09480068006808B9012000E0B8
:10463000002020B14FF0FF300549086005E0034835
:104640000068C068006802490860704724040020C0
:104650004C04002010B5022000F082FC082000214C
:1046600021B101228240054B1A6105E000F11002E0
:1046700001239340014A136100BF10BD00080140AF
:1046800010B50820012121B101228240064B1A6198
:1046900005E000F1100201239340034A136100BFBB
:1046A000012000F05DFC10BD0008014070B504461B
:1046B00001F02AFB054607480068854204D200F055
:1046C0000BF80120206001E0002020600148056017
:1046D000284670BD6C04002070B508E00D480068E5
:1046E000C06804684FF0FF312046FFF79DFE09487F
:1046F0000068006808B9012000E000200028EDD023
:1047000004480568044800680249086002480560DA
:1047100070BD00005C040020600400200E480068AA
:10472000401C08B9012000E0002050B900BFA020C3
:1047300080F31188BFF34F8FBFF36F8F00BF00BFAF
:10474000FEE700BFA02080F31188BFF34F8FBFF3B7
:104750006F8F00BF00BFFEE71404002008B500BF44
:104760006846FFF79BFC044620460099FFF70CFFC4
:10477000FFF77CFEF4E770B5044600F0E1FA94F927
:10478000455010E0606A08B9012000E0002038B907
:1047900004F1240001F08AFC18B100F01BFC00E0D9
:1047A00003E0681E45B2002DECDC00BFFF2084F85A
:1047B000450000F0EFFA00F0C3FA94F9445010E01D
:1047C000206908B9012000E0002048B904F1100078
:1047D00001F06CFC08B100F0FDFB681E45B200E082
:1047E00001E0002DECDC00BFFF2084F8440000F065
:1047F000D1FA70BD00BF0849098801F08001002985
:10480000F9D00549091D088000BF0349098801F056
:1048100080010029F9D07047003801402DE9F041AE
:1048200004464FF0000800F003FD5148006808B945
:10483000FFF748FC4F480068204000287ED13CB379
:1048400004F10800A04223D9083404F0070000B3A3
:1048500004F00700C0F108002044A04216D904F07B
:104860000700C0F10800044404F0070008B9012063
:1048700000E0002068B900BFA02080F31188BFF3DA
:104880004F8FBFF36F8F00BF00BFFEE7002400E033
:104890000024002C54D038480068844250D8374E49
:1048A0003046056801E02E462D686868A04202D2B5
:1048B00028680028F7D12E480068854240D030682B
:1048C00000F10808286830606868001B102819D9B2
:1048D0002F1907F0070008B9012000E0002050B9A7
:1048E00000BFA02080F31188BFF34F8FBFF36F8FFD
:1048F00000BF00BFFEE76868001B78606C60384648
:10490000FFF716FD1C4968680968081A1A4908600B
:10491000084600681A490968884203D216480068A8
:1049200017490860134968680968084368600020EF
:10493000286014480068401C124900E000E008604C
:1049400001F044FC08F0070008B9012000E0002055
:1049500050B900BFA02080F31188BFF34F8FBFF381
:104960006F8F00BF00BFFEE74046BDE8F08100004A
:10497000FC0300201004002000040020F4030020A9
:1049800004040020080400200648006830B10549EE
:10499000096801F14400496C491C01600148006844
:1049A0007047000020040020001F4FF08073036058
:1049B000001F21F001030360001F034B0360143844
:1049C00002602038704700001D4700080146024879
:1049D00030F8110070470000F87500080146022900
:1049E00002D1034800887047024830F81100FAE706
:1049F000D4750008F8750008002001490870704758
:104A00007004002010B500200A4908700A49087097
:104A10000A4908700A4908700A4908700A4908706A
:104A20000A4908700A4908700A490870FCF7E8FA50
:104A300010BD00001C0000201D0000201E000020F2
:104A40001F00002020000020210000202200002064
:104A5000230000202400002070B5054602F0ECFC85
:104A600004460146284602F021FD15F0004F4FF0A4
:104A70007F410ED0B0F13F4F28BFB1EB400F0ED2B7
:104A8000B0F17C5F1DDDB1EB400F1AD313E004469B
:104A900017E0B0F13F4F08D9B1EB400F05D34FF00D
:104AA0007E51204602F002FDF1E7B0F17C5F08DBA9
:104AB000B1EB400F05D34FF07E51204602F0BEF916
:104AC000E5E7284664F31E0070BD000010B5002025
:104AD00022E000EB80014122A2EB4101134A02EBEC
:104AE000C002118000EB80010A2202EB810101EB80
:104AF00081014FF6FF7202EA41010C4A02EBC0024B
:104B000051804FF6FF71094A02EBC0029180074ABB
:104B100002EBC002D180401C0328DADB18220349D3
:104B20004FF49670FCF7AAF810BD0000E0060020D4
:104B300010B500200CE00A4901EBC001094A1268D7
:104B40000A60074901EBC001074A12684A60401C2D
:104B50000228F0DB10220249C820FCF78FF810BDB4
:104B600070060020E8750008EC75000810B500F02C
:104B700009F8FFF741FF00200149087010BD00004F
:104B80002500002010B500210348FDF7FAFC0021A4
:104B90000148FDF70BFD10BD0008004010B50621CF
:104BA000024602F0010323B101238B40054C23612F
:104BB00005E001F1100301249C40024B1C6100BF81
:104BC00010BD00000010014010B504462146002031
:104BD000FCF790FC0720214601F0010222B10122DE
:104BE0008240074B1A6105E000F110020123934057
:104BF000034A136100BF002000F004F810BD00005C
:104C00000010014010B504469CB900210620FCF7B5
:104C100071FC0820012121B101228240114B1A614F
:104C200005E000F11002012393400E4A136100BF1A
:104C300016E0FCF70FFA98B101210620FCF75AFCA8
:104C40000820002121B101228240064B1A6105E0B3
:104C500000F1100201239340024A136100BF00BF1C
:104C600010BD00000010014010B501210420FCF728
:104C700015FE1248FDF7EEFC4FF4FA500F4908807C
:104C8000032088800E48FDF793FC012211460C4852
:104C9000FDF783FC1E2000280DDB00BF00BF00F0E5
:104CA0001F02012191404209920002F1E022C2F864
:104CB000001100BF00BF00BF10BD0000660600204D
:104CC0000008004001460A69D1E901309860D1E945
:104CD000010358605068884201D188685060002004
:104CE00008611068401E10601068704700F10801EC
:104CF00041604FF0FF31816000F10801C160016146
:104D000000210160704700210161704710B5024623
:104D10000B685C1C0CB9106907E002F1080000E0A8
:104D20004068446824689C42FAD944684C604C68E6
:104D3000A160886041600A611468641C146010BD41
:104D400000BFA02080F31188BFF34F8FBFF36F8F98
:104D500000BF0E480068401C0C4908600846006807
:104D6000012812D10A480068C0B208B9012000E049
:104D7000002050B900BFA02080F31188BFF34F8FEF
:104D8000BFF36F8F00BF00BFFEE770471404002021
:104D900004ED00E00D48006850B900BFA02080F38A
:104DA0001188BFF34F8FBFF36F8F00BF00BFFEE7C7
:104DB00006480068401E054908600846006820B99A
:104DC000002080F3118800BF00BF7047140400204A
:104DD00070B506463546002E44D0083D2C46224983
:104DE00060680968084008B1012000E0002050B95F
:104DF00000BFA02080F31188BFF34F8FBFF36F8FE8
:104E000000BF00BFFEE7206808B9012000E00020D5
:104E100050B900BFA02080F31188BFF34F8FBFF3BC
:104E20006F8F00BF00BFFEE70F4960680968084048
:104E3000C0B12068B0B90C496068096888436060F7
:104E400000F0F6F9094960680968084407490860F4
:104E50002046FFF76DFA06480068401C04490860C8
:104E600001F0B4F970BD000010040020000400201F
:104E70000C04002000204FF0E02108618861064802
:104E800000684FF47A71B0FBF1F0401E4FF0E02162
:104E90004861072008617047E003002070B5FBF708
:104EA0000DFA0446102C16D304F1E02090F8F053CC
:104EB00015480078854201DB012000E0002050B950
:104EC00000BFA02080F31188BFF34F8FBFF36F8F17
:104ED00000BF00BFFEE70D48006800F4E0600C4929
:104EE0000968884201D8012000E0002050B900BFC5
:104EF000A02080F31188BFF34F8FBFF36F8F00BFE7
:104F000000BFFEE770BD0000180400200CED00E0BB
:104F10001C0400202DE9F04105460E4617462C469C
:104F2000FFF70EFF94F94400401C10B9002084F8EC
:104F3000440094F94500401C10B9002084F8450055
:104F4000FFF728FFA06B28B93A46314604F1240048
:104F500000F062F82046FFF70EFCBDE8F08100008B
:104F600070B504460025D4B11248006808B9012084
:104F700000E0002050B900BFA02080F31188BFF3EB
:104F80004F8FBFF36F8F00BF00BFFEE700F050F9F7
:104F900000212046FEF74AFF01F018F905463DB909
:104FA0004FF0805004490860BFF34F8FBFF36F8FFD
:104FB00070BD00005804002004ED00E003490968BA
:104FC0000160034909684160704700004404002003
:104FD000300400200120014908607047400400208F
:104FE00070B504460D4654B900BFA02080F3118867
:104FF000BFF34F8FBFF36F8F00BF00BFFEE70548C1
:10500000016818312046FFF781FE01212846FEF78E
:105010000DFF70BD2004002070B504460E461546F5
:1050200054B900BFA02080F31188BFF34F8FBFF3A6
:105030006F8F00BF00BFFEE760680F490968C86155
:105040000D49826809680A620B490968183182684B
:1050500051600949096818318160074909688C6203
:105060002168491C21600DB14FF0FF3629463046BA
:10507000FEF7DCFE70BD0000200400202DE9F047A3
:1050800006460F4634464FF00109002E7AD0606C78
:1050900050B900BFA02080F31188BFF34F8FBFF33A
:1050A0006F8F00BF00BFFEE7206CB84201D23D46C3
:1050B00000E0256CE06AA84264D0606C012861D1F0
:1050C00031480068844201D0012000E0002050B93E
:1050D00000BFA02080F31188BFF34F8FBFF36F8F05
:1050E00000BF00BFFEE7D4F82C80E562A06900F0A5
:1050F000004010B9C5F10300A06108EB8801234A04
:1051000002EB81016069884201D1012000E00020AA
:10511000C0B3201DFFF7D6FD40B994F82C10012034
:1051200088401B49096881431948016094F82C1094
:105130000120884016490968084315490860E16A5A
:1051400001EB8101114A02EB81014868A06082688D
:10515000E260211D826851608160E16A01EB81019A
:105160000A4A02EB81026261E16A01EB8101074AAE
:1051700052F82110491CE26A02EB8202034B43F809
:10518000221000BFBDE8F08720040020F86E002048
:10519000340400201CB51E4800210B468022CDE9B6
:1051A00000101CA11D4800F003FD0446012C02D193
:1051B00001F0E4F80446012C15D100BFA02080F3D3
:1051C0001188BFF34F8FBFF36F8F00BF4FF0FF30D9
:1051D0001349086001201349086000201249086043
:1051E00000F080F810E0601C08B1012000E0002011
:1051F00050B900BFA02080F31188BFF34F8FBFF3D9
:105200006F8F00BF00BFFEE7084800681CBD0000AC
:105210005004002049444C45000000004141000872
:105220004C040020380400203004002054040020E6
:1052300002480068401C014908607047580400207B
:105240001D48006818B101201C49086032E00020A8
:105250001A4908601A480068B0FA80F0C0F11F01CE
:1052600001EB8100174A52F8200008B1012000E04C
:10527000002050B900BFA02080F31188BFF34F8FEA
:10528000BFF36F8F00BF00BFFEE701EB81020D4B44
:1052900003EB820042685268426000F108024368F2
:1052A000934202D14268526842604268D268064B1B
:1052B0001A6000BF7047000058040020400400201E
:1052C00034040020F86E00202004002002460E2A3C
:1052D00001DD00207047024820F812100120F9E794
:1052E000440000201CB53849084600780190FF2092
:1052F0000A4610700846007800909DF8000000F4FF
:105300007F609DF80020904201D1012000E0002044
:1053100050B900BFA02080F31188BFF34F8FBFF3B7
:105320006F8F00BF00BFFEE79DF8000000F0A000F7
:10533000264A10700720264A106009E024480068B9
:10534000401E234A10609DF800004006000E0090A9
:105350009DF8000000F080008028EFD01C48006815
:10536000C0F10700042801D1012000E0002050B95D
:1053700000BFA02080F31188BFF34F8FBFF36F8F62
:1053800000BF00BFFEE7124800680002104A10602C
:105390001046008800F4E06010600B4A019810701D
:1053A0000C48006840F07F600A49086008460068C1
:1053B00040F070400860FFF75DFD0020064908607E
:1053C000FAF746FF00201CBD00E400E018040020AE
:1053D0001C04002020ED00E0140400202DE9F04121
:1053E00004460126002722460021012000F007F88C
:1053F00005462846FEF7B8FE2846BDE8F0812DE9AF
:10540000F84305460E4617460024E5B1601EB0FB82
:10541000F5F0B04217D305FB06F010F1490F12D892
:1054200005FB06F808F14800FFF7F8F90446B4B1A7
:10543000A14609F148093B464A46314628460094B0
:10544000FEF7A1FE0BE054B900BFA02080F3118845
:10545000BFF34F8FBFF36F8F00BF00BFFEE7204643
:10546000BDE8F8832DE9F04105460E4601272C469C
:1054700054B900BFA02080F31188BFF34F8FBFF352
:105480006F8F00BF00BFFEE7002C42D0E06B00280A
:105490003FD04FF0FF31E06BB1FBF0F0216C884260
:1054A00037D3FFF74DFCD4E90F12206801FB02004F
:1054B000A0600020A06320686060E06B401E226C4A
:1054C000216800FB0211E160FF2084F8440084F8A9
:1054D00045009EB9206908B9012000E00020A8B964
:1054E00004F1100000F0E2FD80B14FF0805013494C
:1054F0000860BFF34F8FBFF36F8F07E004F1100018
:10550000FFF7F4FB04F12400FFF7F0FBFFF742FC88
:1055100000E000270FB1012000E0002050B900BFDB
:10552000A02080F31188BFF34F8FBFF36F8F00BFB0
:1055300000BFFEE73846BDE8F081000004ED00E062
:105540002DE9FF4383B0064688461D464FF000090B
:10555000344654B900BFA02080F31188BFF34F8FA9
:10556000BFF36F8F00BF00BFFEE7B8F1000F01D19E
:10557000206C08B9012000E0002050B900BFA02035
:1055800080F31188BFF34F8FBFF36F8F00BF00BF51
:10559000FEE7022D02D1E06B012801D1012000E0DD
:1055A000002050B900BFA02080F31188BFF34F8FB7
:1055B000BFF36F8F00BF00BFFEE700F095FB08B997
:1055C000059808B9012000E0002050B900BFA020D4
:1055D00080F31188BFF34F8FBFF36F8F00BF00BF01
:1055E000FEE700BFFFF7ACFBA06BE16B884201D385
:1055F000022D28D12A4641462046FEF705FD0746E2
:10560000606A08B9012000E0002068B904F12400B4
:1056100000F04CFD88B14FF0805032490860BFF374
:105620004F8FBFF36F8F08E03FB14FF080502D498F
:105630000860BFF34F8FBFF36F8FFFF7ABFB012005
:1056400007B0BDE8F083059818B9FFF7A3FB002069
:10565000F6E7B9F1000F04D101A8FFF7AFFC4FF056
:105660000109FFF797FBFFF7E3FDFFF769FB94F9EB
:105670004400401C10B9002084F8440094F945000F
:10568000401C10B9002084F84500FFF783FB05A9F2
:1056900001A800F049FAF0B92046FEF7B6FEA0B125
:1056A00004F110000599FFF79BFC2046FFF763F813
:1056B00000F08CFD002895D14FF08050094908601A
:1056C000BFF34F8FBFF36F8F8CE72046FFF753F880
:1056D00000F07CFD86E72046FFF74DF800F076FDF0
:1056E0000020ADE704ED00E02DE9F84F07468B46BA
:1056F00090461E463C4654B900BFA02080F3118856
:10570000BFF34F8FBFF36F8F00BF00BFFEE7BBF14A
:10571000000F01D1206C08B9012000E0002050B931
:1057200000BFA02080F31188BFF34F8FBFF36F8FAE
:1057300000BF00BFFEE7022E02D1E06B012801D1BD
:10574000012000E0002050B900BFA02080F31188A4
:10575000BFF34F8FBFF36F8F00BF00BFFEE7FFF7B0
:105760009DFB00BFA021EFF3118081F31188BFF3EF
:105770004F8FBFF36F8F00BF0546A06BE16B884270
:1057800001D3022E37D194F945A0A06B0090324688
:1057900059462046FEF738FC0AF1010088B9606AD4
:1057A00008B9012000E0002050B904F1240000F005
:1057B0007DFC28B1B8F1000F02D00120C8F800002C
:1057C00016E0BAF17F0F01D0012000E0002050B9AF
:1057D00000BFA02080F31188BFF34F8FBFF36F8FFE
:1057E00000BF00BFFEE70AF1010040B284F84500A7
:1057F0004FF0010901E04FF0000900BF85F3118867
:1058000000BF4846BDE8F88F2DE9F74183B0054653
:105810000E464FF000082C4654B900BFA02080F37C
:105820001188BFF34F8FBFF36F8F00BF00BFFEE73C
:105830000EB9206C08B9012000E0002050B900BF6B
:10584000A02080F31188BFF34F8FBFF36F8F00BF8D
:1058500000BFFEE700F048FA08B9059808B9012032
:1058600000E0002050B900BFA02080F31188BFF3F2
:105870004F8FBFF36F8F00BF00BFFEE700BFFFF782
:105880005FFAA76BF7B131462046FEF7A8FB781EFA
:10589000A063206908B9012000E0002060B904F18C
:1058A000100000F003FC38B14FF080502F49086021
:1058B000BFF34F8FBFF36F8FFFF76CFA012006B075
:1058C000BDE8F081059818B9FFF764FA0020F6E703
:1058D000B8F1000F04D101A8FFF770FB4FF00108E9
:1058E000FFF758FAFFF7A4FCFFF72AFA94F94400EF
:1058F000401C10B9002084F8440094F94500401C75
:1059000010B9002084F84500FFF744FA05A901A862
:1059100000F00AF9F0B92046FEF76AFDA0B104F1E3
:1059200024000599FFF75CFB2046FEF724FF00F0FA
:105930004DFC0028A3D14FF080500C490860BFF304
:105940004F8FBFF36F8F9AE72046FEF714FF00F0EA
:105950003DFC94E72046FEF70EFF00F037FC2046A2
:10596000FEF746FD00288AD00020A8E704ED00E0FD
:105970002DE9F34182B005464FF000082C46002681
:1059800054B900BFA02080F31188BFF34F8FBFF33D
:105990006F8F00BF00BFFEE7206C08B9012000E058
:1059A000002050B900BFA02080F31188BFF34F8FB3
:1059B000BFF36F8F00BF00BFFEE700F095F908B995
:1059C000039808B9012000E0002050B900BFA020D2
:1059D00080F31188BFF34F8FBFF36F8F00BF00BFFD
:1059E000FEE700BFFFF7ACF9A76BFFB1781EA0631D
:1059F000206810B9FEF7C8FFA060206908B901202F
:105A000000E0002060B904F1100000F04FFB38B155
:105A10004FF0805043490860BFF34F8FBFF36F8F43
:105A2000FFF7B8F9012004B0BDE8F081039898B9F8
:105A30000EB9012000E0002050B900BFA02080F383
:105A40001188BFF34F8FBFF36F8F00BF00BFFEE71A
:105A5000FFF7A0F90020E6E7B8F1000F04D168468F
:105A6000FFF7ACFA4FF00108FFF794F9FFF7E0FBFE
:105A7000FFF766F994F94400401C10B9002084F83F
:105A8000440094F94500401C10B9002084F84500FA
:105A9000FFF780F903A9684600F046F840BB2046AE
:105AA000FEF7A6FCF0B1206838B9FFF749F9A06805
:105AB00000F086FA0646FFF76DF904F12400039919
:105AC000FFF78EFA2046FEF756FE00F07FFB002817
:105AD00088D14FF0805013490860BFF34F8FBFF358
