:020000040800F2
:10000000F0750020C5020008CD020008CF020008EC
:10001000D1020008D3020008D50200080000000049
:100020000000000000000000000000002D02000899
:10003000D902000800000000710200081D24000819
:10004000DF020008DF020008DF020008DF0200080C
:10005000DF020008DF020008DF020008DF020008FC
:10006000DF020008DF020008DF020008DF020008EC
:10007000DF020008DF020008DF020008DF020008DC
:10008000DF020008DF020008DF020008DF020008CC
:10009000DF020008DF020008DF020008DF020008BC
:1000A000DF020008DF020008DF020008DF020008AC
:1000B000DF020008DF020008BD240008DF0200089C
:1000C000DF020008DF020008DF020008DF0200088C
:1000D000DF020008C1300008DF020008DF0200086C
:1000E000DF020008DF020008DF0200080000000055
:1000F0000000000000000000000000000000000000
:100100000000000000000000DF020008DF0200081D
:10011000DF020008DF020008DF020008DF0200083B
:10012000DF020008DF020008DF020008DF0200082B
:10013000DF020008DF020008DF020008DF0200081B
:10014000DF020008DF020008DF020008DF0200080B
:1001500000F002F800F05AF80AA090E8000C82447F
:100160008344AAF10107DA4501D100F04FF8AFF25C
:10017000090EBAE80F0013F0010F18BFFB1A43F085
:100180000103184744700000647000000A444FF0F7
:10019000000C10F8013B13F0070408BF10F8014BE6
:1001A0001D1108BF10F8015B641E05D010F8016B2B
:1001B000641E01F8016BF9D113F0080F1EBF10F88F
:1001C000014BAD1C0C1B09D16D1E58BF01F801CBB2
:1001D000FAD505E014F8016B01F8016B6D1EF9D535
:1001E0009142D6D37047000000230024002500264A
:1001F000103A28BF78C1FBD8520728BF30C148BF8A
:100200000B6070471FB51FBD10B510BD00F03DF964
:100210001146FFF7F7FF03F043FC00F05BF903B46E
:10022000FFF7F2FF03BC00F063F90000224B1968EE
:100230000868B0E8F00F80F30988BFF36F8F4FF0C4
:10024000000080F311884EF00D0E70470000000092
:1002500006480068006880F3088862B661B6BFF39C
:100260004F8FBFF36F8F00DF00BF00BF08ED00E0CE
:10027000EFF30980BFF36F8F0F4B1A6820E9F00F7F
:10028000106008B54FF0A00080F31188BFF34F8FC6
:10029000BFF36F8F04F042FF4FF0000080F311882E
:1002A000BDE8084019680868B0E8F00F80F30988D5
:1002B000BFF36F8F704700BF1C040020EFF3058071
:1002C000704700000948804709480047FEE7FEE7FD
:1002D000FEE7FEE7FEE7FEE7FEE7FEE7FEE7FEE7F6
:1002E00004480549054A064B7047000051240008A0
:1002F00051010008F06F0020F0750020F07100201F
:10030000F0710020032A40F2308010F0030C00F05E
:10031000158011F8013BBCF1020F624498BF11F83F
:1003200001CB00F8013B38BF11F8013BA2F10402F8
:1003300098BF00F801CB38BF00F8013B11F0030370
:1003400000F04A80083AC0F0088051F8043B083AAF
:1003500051F804CBA0E80810F5E7121D5CBF51F876
:10036000043B40F8043BAFF30080D20724BF11F8F0
:10037000013B11F801CB48BF11F8012B24BF00F855
:10038000013B00F801CB48BF00F8012B70474FF04C
:1003900000020429C0F0128010F0030C00F050801D
:1003A000CCF1040CBCF1020F18BF00F8012BA8BF60
:1003B00020F8022BA1EB0C0100F042B85FEAC17CEF
:1003C00024BF00F8012B00F8012B48BF00F8012BD7
:1003D000704770477047704710B5203AC0F00B80E7
:1003E000B1E81850203AA0E81850B1E81850A0E839
:1003F0001850BFF4F5AF5FEA027C24BFB1E8185093
:10040000A0E8185044BF18C918C0BDE810405FEA02
:10041000827C24BF51F8043B40F8043B08BF70477E
:10042000D20728BF31F8023B48BF11F8012B28BF83
:1004300020F8023B48BF00F8012B70474FF0000244
:1004400000B5134694469646203922BFA0E80C50CA
:10045000A0E80C50B1F12001BFF4F7AF090728BFA5
:10046000A0E80C5048BF0CC05DF804EB890028BF21
:1004700040F8042B08BF704748BF20F8022B11F04A
:10048000804F18BF00F8012B7047754600F02CF81C
:10049000AE4605006946534620F00700854618B071
:1004A00020B5FFF71DFFBDE820404FF000064FF0DC
:1004B00000074FF000084FF0000B21F00701AC4699
:1004C000ACE8C009ACE8C009ACE8C009ACE8C009B8
:1004D0008D46704710B50446AFF300802046BDE856
:1004E0001040FFF79CBE000000487047906F00204E
:1004F00001491820ABBEFEE726000200704721B17B
:10050000826842F00102826003E0826822F0010208
:1005100082607047014600208A6802F004020AB136
:10052000012000E0002070470146C86C80B270478F
:100530000246002013680B400BB1012000E00020B0
:100540007047014600208A6802F008020AB10120C3
:1005500000E000207047000030B502460020002374
:1005600050680F4C20400D790C6844EA0524204364
:10057000506090680B4C2040D1E902542C434D79D7
:1005800044EA450420439060D06A20F470000C7C5B
:10059000641EE4B2234340EA0350D06230BD000041
:1005A000FFFEF0FFFDF7F1FFF0B504460D46002019
:1005B0000021092D11DDE068A5F10A0606EB4607CA
:1005C000072606FA07F18843A5F10A0606EB460658
:1005D00003FA06F10843E0600CE0206905EB4507EB
:1005E000072606FA07F1884305EB450603FA06F1EC
:1005F00008432061072A0FDA606B561E06EB860758
:100600001F2606FA07F18843561E06EB860605FAF2
:1006100006F10843606322E00D2A0FDA206BD61F33
:1006200006EB86071F2606FA07F18843D61F06EB5E
:10063000860605FA06F10843206310E0E06AA2F19D
:100640000D0606EB86071F2606FA07F18843A2F17E
:100650000D0606EB860605FA06F10843E062F0BDDA
:10066000816841F008018160704721B1826842F4DD
:10067000A002826003E0826822F4A00282607047D8
:10068000816841F0040181607047002101600171BF
:1006900041718160C16001210174704700210C200B
:1006A0000F4A9268C24002F0010211430D200C4A29
:1006B0009268C24002F0010241EA42010E20084A5B
:1006C0009268C24002F0010241EA82010F20044A0E
:1006D0009268C24002F0010241EAC2010846704736
:1006E000000C014010B5002302220C210A4800F042
:1006F00057FB002302220D21074800F051FB002385
:1007000002220E21044800F04BFB002302220F219D
:10071000014800F045FB10BD000C01402DE9F047F9
:100720000446204600F084F8054606F005FB8146A5
:10073000484606F035F907460022054B05F04EFD08
:10074000054605F065FC81464846BDE8F087000097
:10075000000059402DE9F04704460020FFF7DEFF76
:1007600080460120FFF7DAFF8146002549464046D2
:1007700006F07AFC824606F013F921F000410646A5
:1007800005F046FC0546284606F00AF90646002212
:10079000054B05F0E5FF01D2012000E000202070AC
:1007A0004046BDE8F08700000000E03F0146012917
:1007B00002DD4FF0FF307047014830F83100FAE7B2
:1007C000680600200146012902DD4FF0FF30704726
:1007D000024800EBC1008088F9E7000068060020AD
:1007E0000146012902DD4FF0FF307047014830F823
:1007F0001100FAE7300000200146012902DD4FF028
:10080000FF307047024800EBC1004088F9E7000064
:10081000680600200146012902DD4FF0FF307047D5
:10082000024800EBC100C088F9E70000680600201C
:100830000146012902DD4FF0FF307047014830F8D2
:100840001100FAE72C0000202DE9F84F002468463B
:10085000FFF780FF83460021584606F099FA02D33D
:100860009DF8000010B14FF6FF7411E0584606F0F5
:1008700097F807460022084B05F074FE054605F080
:10088000C7FB824604F018F8814606F019FA0446C0
:100890002046BDE8F88F0000000024401FB502F09C
:1008A000FDFC00F089F910216A48FFF770FD002077
:1008B0006949088048806949088048808046082244
:1008C0006449C82000F0C8F98046B8F1000F05D08F
:1008D0006048008810B15F48808808B904F058F873
:1008E00005F0D6F8039000BF01205D490870FA2199
:1008F00003A804F097FA002414E00025002708E07C
:100900005849085D02F00AFD0544012004F05CFA34
:100910007F1C142FF4DB1420B5FBF0F0524921F8B2
:100920001400641C022CE8DB00248EE0494901EB32
:10093000C4018988474A32F83420881A06F0FCF945
:1009400082460021504606F087F901D1002539E0A2
:10095000404901EBC401C9883E4A02EBC4025288F7
:10096000881A06F0E9F902905146029806F0B2F8AA
:100970008146384931F8340006F0F6F949460090CE
:1009800006F03AFA8346334901EBC401488806F081
:10099000EBF95946019006F067FB0746324931F8FA
:1009A000140006F0E1F94946019006F025FA834665
:1009B000394606F021F805460021284606F0E8F9F8
:1009C00000D20025284603F077FF834606F094F90D
:1009D00004EB8401254A02EBC1011F4A32F81420BE
:1009E00021F812001C4830F81400401C80B21A494B
:1009F00021F81400142802DB002021F81400174805
:100A000030F81400142806DA144830F81400401C9A
:100A1000124921F814000026002008E004EB8401AC
:100A2000124A02EBC10131F810100E44401C0B4970
:100A300031F814108142F1DC084830F81400B6FB9C
:100A4000F0F00B4921F81400641C022CBFF64CAFE7
:100A50006CE7000068060020340000203800002009
:100A600020000020A071000830000020780600203F
:100A70002C00002073B50446012C01DD00207CBD54
:100A80000CB9C82000E0D0200646012201A930465A
:100A900000F028F9054625B1BDF80400024921F807
:100AA00034002846EBE700006806002073B50446D2
:100AB000012C01DD00207CBD0CB9CC2000E0D4204D
:100AC0000646012201A9304600F00CF905462DB179
:100AD000BDF80400024901EBC40188802846EAE71A
:100AE0006806002073B50446012C01DD00207CBDA2
:100AF0000CB9CA2000E0D2200646012201A93046E6
:100B000000F0F0F805462DB1BDF80400024901EBF4
:100B1000C40148802846EAE76806002073B5044609
:100B2000012C01DD00207CBD0CB9CE2000E0D620D8
:100B30000646012201A9304600F0D4F805462DB141
:100B4000BDF80410024800EBC400C1802846EAE763
:100B50006806002010B5002303220B21074800F08F
:100B60001FF9002303220A21044800F019F9002389
:100B700003220C21014800F013F910BD00100140C0
:100B800070B54AF2010580EA010444F47F4440F064
:100B9000FF0604EA060000220BE000F00103044611
:100BA00000EBD476C6F34F0013B14AF20104604063
:100BB000521C082AF1D370BD10B5012004F07CFB53
:100BC0000349086002F052FD01200249087010BD7F
:100BD000400000203C0000202DE9F04180460F46F7
:100BE00015461B48007808B9FFF7E6FF4FF0FF31C4
:100BF0001848006804F0EEFD012826D102F034FE0A
:100C0000404602F0C8FC06469EB102F02DFEA1202F
:100C100002F0E0FD064666B1002408E002F07EFD29
:100C20003855681EA04201D002F0E8FC641CAC42BA
:100C3000F4DB02F05FFE00231A46194605480068FF
:100C400004F0C2FB3046BDE8F0810020FBE7000065
:100C50003C000020400000202DE9F04106460D46F2
:100C600014462F464FF6FF7000EA440239463046DC
:100C7000FFF7B2FF80464046BDE8F0812DE9F04124
:100C800080460E4617461548007808B9FFF794FFCE
:100C90000024611E1248006804F09CFD012819D14F
:100CA00002F0E2FD404602F076FC0446002504E036
:100CB000705D02F08FFD04466D1CBD4201DA002C10
:100CC000F6D102F017FE00231A46194604480068C0
:100CD00004F07AFB2046BDE8F08100003C000020D3
:100CE000400000202DE9F04106460D4614462F46EF
:100CF0004FF6FF7000EA440239463046FFF7BEFF68
:100D000080464046BDE8F08101461D48814204D13D
:100D10001C488069C0F3800070471B48814204D1A1
:100D200018488069C0F3C000F6E71848814204D132
:100D300014488069C0F30010EEE71548814204D1E1
:100D400010488069C0F34010E6E71248814204D1A0
:100D50000C488069C0F38010DEE70F48814204D15F
:100D600008488069C0F3C010D6E70C48814204D11E
:100D700004488069C0F30020CEE70020CCE70000E3
:100D80000008014000100240000C0140001001402A
:100D90000014014000180140001C014000200140E7
:100DA0002DE9F04105460C46174698460F2C02D90E
:100DB0000020BDE8F0812846FFF7A6FF18B9012101
:100DC000284600F071F8B8F1000F10D1022F05D1BC
:100DD000E8680121A1408843E86008E0032F06D1BC
:100DE00027F00107E8680121A1400843E860082CCA
:100DF00001D22E4601E0083C2E1D3068A2000F21D2
:100E000091408843306048EA8700A10088403168FB
:100E1000084330600120CCE7F0B50A4600230024E7
:100E20000021002500F00046B6F1004F02D11D4E12
:100E3000F16901E01B4E7168C0F3034583B200F411
:100E40004016B6F5401F08D121F07061154E766846
:100E500026F07066134F7E6012E000F48016B6F53F
:100E6000801F06D1032606FA05F4A14341F0706104
:100E700006E0460D360103FA06F6B14341F0706113
:100E800022B1460D360103FA06F6314300F0004662
:100E9000B6F1004F02D1034EF16101E0014E7160E5
:100EA000F0BD000000000140002945D0454A9042B5
:100EB00006D1454A926942F00402434B9A6180E0B0
:100EC000424A904206D1404A926942F008023E4BA3
:100ED0009A6176E03E4A904206D13B4A926942F0DE
:100EE0001002394B9A616CE03A4A904206D1364A78
:100EF000926942F02002344B9A6162E0364A904295
:100F000006D1314A926942F040022F4B9A6158E073
:100F1000324A904206D12C4A926942F080022A4B12
:100F20009A614EE02E4A90424BD1274A926942F490
:100F30008072254B9A6144E0224A904206D1224AAF
:100F4000926922F00402204B9A613AE01F4A9042D3
:100F500006D11D4A926922F008021B4B9A6130E0CB
:100F60001B4A904206D1184A926922F01002164B91
:100F70009A6126E0174A904206D1134A926922F0FC
:100F80002002114B9A611CE0134A904206D10E4A8E
:100F9000926922F040020C4B9A6112E00F4A904293
:100FA00006D1094A926922F08002074B9A6108E053
:100FB0000B4A904205D1044A926922F48072024B96
:100FC0009A6170470008014000100240000C014087
:100FD000001001400014014000180140001C0140B5
:100FE0000020014001480078704700000000002008
:100FF0004CF6CC40014908607047000000300040CA
:101000004AF6AA20014908607047000000300040FD
:101010000149486070470000003000400149886085
:101020007047000000300040014908607047000030
:101030000030004010B500F097FAFFF753FBFFF7C0
:1010400089FD02F0A3FC00200149087010BD0000DA
:10105000000000200720064A9268C24002F0010208
:101060000AB1012000E00020014608467047000058
:10107000001001400849097851B90849097839B97F
:101080000749097821B90749097809B1012100E028
:1010900000210846704700000200002004000020E4
:1010A00003000020D00300200B20064A9268C240B3
:1010B00002F001020AB9012000E0002001460846C2
:1010C00070470000000C014000F0010149B100210F
:1010D00005E000220A4B03EB81039A70491C0229A8
:1010E000F7DB00F0020149B1022105E00022044BC8
:1010F00003EB81039A70491C0429F7DB7047000059
:10110000C806002000F0010149B1002105E00122DC
:101110000A4B03EB81039A70491C0229F7DB00F0AC
:10112000020149B1022105E00122044B03EB8103D6
:101130009A70491C0429F7DB70470000C80600209C
:1011400010B5002003E00021044A5170401C04281F
:10115000F9DB002000F022F910BD0000C8060020D5
:101160002DE9F74F84B089469246B9F1010F01D1BC
:10117000002000E0022004460021049805F008FE4B
:1011800015D200208DF80E0001208DF80D000020F2
:101190008DF80F000A208DF80C00E0B203A900F0D2
:1011A00055F8611CC8B203A900F050F845E0049856
:1011B00005F0F6FB07460022214B05F0D3F9CDE9F7
:1011C000000104F025FF029003F076FB05461D495F
:1011D000284605F0DDFE00D21A4D1B49284605F0D1
:1011E00079FC074605F06CFD064606EB86014800D3
:1011F00005F0A2FD8046294605F02CFF074605F0C4
:101200005FFD83468DF80EA001208DF80D008DF84E
:101210000F00F0B28DF80C00E0B203A900F016F850
:1012200000208DF80F000BF0FF008DF80C00611C02
:10123000C8B203A900F00AF800BF07B0BDE8F08FFC
:10124000000024400000C64200002041042805DAC6
:1012500021B1034A02EB80020B6813607047000063
:10126000C806002038B5FFF76BFF4FF4FA7003F0A3
:10127000ABFD01208DF8030000208DF80200012055
:101280008DF801000A208DF8000000208DF8030081
:10129000002404E0E0B26946FFF7D8FF641C042C88
:1012A000F8DB012000F07AF84FF4FA7003F08CFDBF
:1012B000092415E0E0B28DF8000001208DF803004C
:1012C000002504E0E8B26946FFF7C0FF6D1C042D5D
:1012D000F8DB012000F062F8FA2003F075FD641ECF
:1012E000002CE7DA0A208DF8000000208DF80300BA
:1012F000002404E0E0B26946FFF7A8FF641C042C58
:10130000F8DB012000F04AF84FF4FA7003F05CFDBE
:1013100038BD000010B5022300220D211E48FFF742
:101320003FFD022300220E211B48FFF739FD022357
:1013300000220F211848FFF733FD0D20002121B1B5
:1013400001228240144B1A6105E000F110020123D2
:101350009340114A136100BF0E20002121B10122E8
:1013600082400D4B1A6105E000F110020123934009
:10137000094A136100BF0F20002121B101228240E0
:10138000054B1A6105E000F1100201239340024A67
:10139000136100BF10BD0000001001402DE9F041B5
:1013A000054603F001FC4248407B18B14048807B71
:1013B00010B10DB9002408E03D48007B3D490C5CAC
:1013C0003B48C07B08B144F0800426063848407A88
:1013D00018B13748807A10B10DB9002408E03448BC
:1013E000007A34490C5C3248C07A08B144F0800479
:1013F00046EA04462E48407918B12D48807910B14C
:101400000DB9002408E02A4800792A490C5C2848D4
:10141000C07908B144F0800446EA042624484078A4
:1014200018B12348807810B10DB9002408E0204895
:10143000007820490C5C1E48C07808B144F0800454
:1014400026431F271AE00F200122BA4032400AB17A
:10145000012200E00022114601F0010222B1012226
:101460008240154B1A6105E000F110020123934000
:10147000114A136100BF02F0BBFA7F1E002FE2DAAF
:101480000F20002121B1012282400B4B1A6105E09F
:1014900000F1100201239340074A136100BF64204A
:1014A00001F082FF02F0D0FA03F0A8FBBDE8F08162
:1014B000C8060020920300200010014030B501460C
:1014C00009B1012000E000200346032083F001025F
:1014D00002F0010424B101248440054D2C6105E093
:1014E00000F110040125A540014C256100BF30BD6D
:1014F0000010014070B5072800DB70BD0A4D55F89B
:10150000302005EBC005AB880C4604F001051DB189
:1015100001259D40156104E003F110050126AE4050
:10152000166100BF00BFE8E75471000830B5002124
:10153000084613E00B4C54F8301004EBC004A288AA
:1015400000231BB1012494400C6104E002F110045B
:101550000125A5400D6100BF411C08460728E9DBB5
:1015600030BD00005471000870B500241DE0154A1C
:1015700002EBC4029188134A52F83400022300227D
:10158000FFF70EFC0F4B53F8340003EBC4039988AC
:1015900001221AB101238B40036104E001F1100321
:1015A00001259D40056100BF641C072CDFDB022381
:1015B000012203210448FFF7F3FB0020FFF77EFF21
:1015C00070BD0000547100080010014003F074FA6F
:1015D00003F008FA00F05AFE03F0F8F900BF01200A
:1015E00003F0F2FB01200D4908700D480078002837
:1015F000F5D00120FFF762FF0A4800F0FBF804462F
:1016000000200749087014B1204600F0ADF903F03E
:10161000DDF90020FFF752FFE1E700001F00002086
:10162000250000206804002038B5044654B900BFE6
:10163000A02080F31188BFF34F8FBFF36F8F00BFDF
:1016400000BFFEE70020034602460321009020462B
:1016500004F09CFC01200149087038BDD103002032
:101660002DE9F84F8146B9F1000F0AD100BFA02043
:1016700080F31188BFF34F8FBFF36F8F00BF00BFA0
:10168000FEE700200346024603210090484604F08E
:101690007DFC37493748006805F07AFC01D8002402
:1016A00008E035493348006805F072FC01D8012490
:1016B00000E00224314800EBC40080884FF6FF713F
:1016C000884221D02D4800EBC400C08888421BD03E
:1016D0002A4901EBC401C88805F046FB824605F0A3
:1016E0005FF905460022264B04F078FD074604F01A
:1016F0008FFC244908604FF080412248006805F0C3
:10170000E9F92049086012E01C4901EBC40148884E
:1017100005F02AFB824605F043F907460022184BE4
:1017200004F05CFD054604F073FC16490860164998
:101730001448006805F02CFC05D30F4911480068D7
:1017400005F026FB02D20C480E49086004F0A0F90F
:101750000546002003462A46012100900B480068F8
:1017600004F014FC01200A490870BDE8F88F00005D
:101770000000C0400C0000200000A040D80600205F
:1017800000002440B80300200000BE42D80300201F
:10179000D003002010B503F025F90120014908709D
:1017A00010BD00002500002010B504460E4800784A
:1017B000C8B900210D4800F08EFE00210B4800F052
:1017C0009FFE0121094800F086FE09480078FA28AA
:1017D00001DB03F041F8064801780078401C044A18
:1017E0001070501C445410BD25000020000800401B
:1017F0006804002070B505460DB9002070BD28466C
:1018000002F0E2F808B90020F8E76C1CFFF7EAFBE9
:101810002178884201D00020F0E700266078032874
:1018200002D0102810D107E02878001FC1B2A01CF8
:1018300000F006F906460DE02878001FC1B2A01C92
:1018400001F09CFC064605E06078012102F0AEF94B
:10185000064600BF00BF0EB10148CFE70020CDE72C
:101860006305002029B1064AD2690243044BDA61BC
:1018700004E0034AD2698243014BDA6170470000F9
:101880000010024029B1064A92690243044B9A6152
:1018900004E0034A92698243014B9A617047000059
:1018A0000010024010B501460022002300204A111A
:1018B000012A02D1094C236806E0022A02D1074C12
:1018C000236A01E0054C636A01F01F020124944081
:1018D0001C400CB1012000E0002010BD00100240AF
:1018E0000149086070470000800442422DE9F04140
:1018F00007460D4615B90020BDE8F081384601F0D5
:101900005DFE04465CB1606848B1608861688847E4
:101910000646002E02DB2E800120EDE700BF0020EE
:10192000EAE72DE9F04105460E46284601F046FE5D
:10193000044654B1A06838B16088A2683146904727
:1019400007463846BDE8F08100BF0020FAE730B511
:101950000546284601F032FE04461CB1A06808B1D5
:10196000012030BD0020FCE710B5044604B910BDCD
:1019700002F096FD00200B4908600AE0611C094A4C
:101980001268885C02F076FE06480068401C054933
:1019900008602078034909688842EFDC02F06AFD9C
:1019A00000BFE4E7280000202DE9F843804602222A
:1019B00069466420FFF710F918B94FF0FF30BDE811
:1019C000F883BDF8000005F0CFF90446154905F08D
:1019D000DFF908D3BDF8000005F0C6F90446124946
:1019E00005F0D6FA06D232200090BDF80010002093
:1019F00001F086FBBDF8000005F0B6F90B49086060
:101A00000846006804F0CCFF06460022084B04F0AC
:101A1000E5FB044604F0FCFA04490860BDF8000048
:101A2000CDE700000000A0410000C8420C000020EB
:101A30000000244001460148007870470100002062
:101A40002DE9F043B3B00546894615B1B9F1040F4D
:101A500003D0002033B0BDE8F0832C466088000A34
:101A6000A17840EA012060802088000A217840EABD
:101A7000012020806088642805DD0321084602F0EB
:101A800095F80120E6E70DF101070026B4F8008083
:101A90001AE007EB46014046FFF728FF28B902216C
:101AA000032002F083F80120D4E737F81600000A7B
:101AB00017F8161040EA012027F8160008F1010077
:101AC0001FFA80F8701CC6B220886188084440451F
:101AD000DFDCA0784006000E8DF80000FFF782FAE8
:101AE0008046A078012101EB4000C3B26A46032181
:101AF000404602F083F80120ACE700002DE9FC47E6
:101B000001218948FFF788F9002303220B21874828
:101B1000FFF746F90223002207218548FFF740F925
:101B20000223002208218248FFF73AF9072000210A
:101B300021B1012282407E4B1A6105E000F11002C2
:101B4000012393407A4A136100BF00210846FFF742
:101B5000D1FC002002F082FF0024032269466620A7
:101B6000FFF77AF808B9012406E0BDF8000010B1CB
:101B7000BDF8020000B9012484B36E486E490860C4
:101B80006E486F4908604FF07E506E4908606E499C
:101B90006948006805F030F9054605F0ADF880B2F7
:101BA000ADF8000068496648006805F025F905466B
:101BB00005F0A2F880B2ADF8020063496148006800
:101BC00005F01AF9054605F097F880B2ADF8040063
:101BD000032269466620FFF785F833E0FFE7BDF88A
:101BE000000005F0C1F8814604F0DAFE0746002245
:101BF000564B04F0F3FA054604F00AFA4E49086021
:101C0000BDF8020005F0B0F8814604F0C9FE0746B1
:101C100000224E4B04F0E2FA054604F0F9F9484977
:101C20000860BDF8040005F09FF8814604F0B8FE96
:101C300007460022454B04F0D1FA054604F0E8F9C6
:101C400040490860012242496C20FFF705F810B1B5
:101C50003F48008830B905203D49088001226C20AA
:101C6000FFF740F801223B496E20FEF7F5FF10B167
:101C70003848008830B95A203649088001226E2041
:101C8000FFF730F8012234497020FEF7E5FF10B16C
:101C90003148008830B903202F4908800122702084
:101CA000FFF720F818222D494FF49670FEF794FFA5
:101CB00010B902F03BFE19E00025002010E0274992
:101CC00001EBC0010988282905DB244901EBC0018B
:101CD0000988462901DD012100E000210D43401C57
:101CE0000328ECDB0DB102F021FE00BF01221C49EC
:101CF0007220FEF7B1FF10B11948008830B90520F5
:101D00001749088001227220FEF7ECFF1448008872
:101D1000142806DD14201249088001227220FEF7E3
:101D2000E1FFBDE8FC87000000023000000C01402C
:101D3000001001400000A040AC0300209A99193E19
:101D4000A4030020A803002000007A4400408F4034
:101D5000B0030020B2030020B4030020D806002006
:101D6000B603002001460C292BD2DFE801F006095A
:101D70000C0F1215181B1E212427144800887047C9
:101D800012484088FBE711488088F8E70F48C08870
:101D9000F5E70E480089F2E70C484089EFE70B4869
:101DA0008089ECE70948C089E9E70848008AE6E746
:101DB0000648408AE3E70548808AE0E70348C08A8E
:101DC000DDE700BF00BF4FF0FF30D8E7D8060020A6
:101DD00073B504460025012C05D0052C03D0092C31
:101DE00001D000207CBD4FF4967000EB440086B219
:101DF000012201A93046FEF775FF05469DB1012C71
:101E000004D1BDF80400094948800CE0052C04D138
:101E1000BDF804100548418105E0092C03D1BDF847
:101E20000410024841822846DCE70000D806002062
:101E300070B504464FF0FF3524B1012C0CD0022CB4
:101E40001ED113E011491248006804F0D5FF064680
:101E500004F036FF054616E00C490E48006804F011
:101E6000CBFF064604F02CFF05460CE007490A4864
:101E7000006804F0C1FF064604F022FF054602E0B8
:101E80004FF0FF3500BF00BF284670BD00007A4408
:101E9000AC030020A4030020A80300200146014851
:101EA00000887047B60300202DE9F04704464FF044
:101EB000FF3A04F0FF09B9F10D0F7BD2DFE809F01A
:101EC0007A070B0F131D22273949546671003B48CE
:101ED00090F800A06EE03A4890F800A06AE0394817
:101EE00090F800A066E038493848006804F084FFA4
:101EF000054604F0E5FE82465CE00020FEF798FC13
:101F0000824657E00120FEF793FC824652E02E49BC
:101F10002F48006804F070FF804602F0CDFC0746B1
:101F200004F03EFD21F00041054604F0AFFA824680
:101F300040E02848006804F033FD21F000410746E6
:101F40000022254B04F00EFB054604F09FFA824662
:101F500030E000211F48006805F01AF801D8012080
:101F600000E00020824625E017491C48006804F084
:101F700043FF804602F0A0FC074604F011FD21F06B
:101F80000041054604F082FA824613E0002113481E
:101F9000006804F0FDFF01D8012000E00020824627
:101FA00008E00F490868002801DB014600E04142D3
:101FB0008A4600BF00BF5046BDE8F08702000020FF
:101FC00004000020030000200000C8420C00002094
:101FD000B8030020BC03002000005940C0030020CB
:101FE000C40300200146014A10887047B403002052
:101FF0000146014A10887047B20300200146014A99
:1020000010887047B00300202DE9F35F0446022CCE
:1020100002DD0020BDE8FC9F662000EB44001FFAB3
:1020200080FA022201A95046FEF728FE8146B9F146
:10203000000F3DD024B1012C14D0022C36D123E066
:10204000BDF8040004F090FE834604F0A9FC0746A6
:102050000022184B04F0C2F8054603F0D9FF1649D8
:10206000086024E0BDF8040004F07EFE834604F01E
:1020700097FC074600220F4B04F0B0F8054603F02A
:10208000C7FF0E49086012E0BDF8040004F06CFEC2
:10209000834604F085FC05460022064B04F09EF8BA
:1020A000074603F0B5FF0649086000E000BF00BF27
:1020B0004846AFE700408F40AC030020A403002057
:1020C000A803002073B50546BDF804000A2801DD09
:1020D0000A200190012201A97220FEF703FE0446A6
:1020E0001CB1BDF804000249088020467CBD0000F8
:1020F000B603002073B50546BDF80400032802DAD4
:102100000320019005E0BDF804000A2801DD0A2043
:102110000190012201A97020FEF7E4FD04461CB1E4
:10212000BDF804000149088020467CBDB4030020AE
:1021300073B50546012201A96E20FEF7D3FD0446C2
:102140001CB1BDF804000249088020467CBD000097
:10215000B203002073B50546012201A96C20FEF7E9
:10216000C1FD04461CB1BDF80400024908802046A8
:102170007CBD0000B003002008B5002010490860B5
:102180001049086010490860104811490860002093
:10219000009010480088002805DD0E4800884FF4A4
:1021A0007A71484300E064200246002304210A4873
:1021B000006803F0EBFE012002F036FC08BD0000D1
:1021C000BC030020C0030020C80300200000E04042
:1021D000CC030020B0030020D403002008B522481F
:1021E000006850B900BFA02080F31188BFF34F8F63
:1021F000BFF36F8F00BF00BFFEE71C48006850B9F7
:1022000000BFA02080F31188BFF34F8FBFF36F8F03
:1022100000BF00BFFEE700200346024603210090F6
:102220001248006803F0B2FE002003460246032174
:1022300000900D48006803F0A9FE00200C490870CA
:102240000C4908700C4908600C480D4908600020D2
:102250000C4908600C490860054908700549087078
:1022600002F0E2FB08BD0000D8030020D4030020E8
:10227000D0030020D1030020C00300200000A040B4
:10228000B8030020BC030020C803002010B50223BF
:10229000002208212F48FEF783FD0820002121B1EC
:1022A000012282402B4B1A6105E000F1100201234C
:1022B0009340284A136100BF2748806940F480405A
:1022C0002549886140F2413024490880081D008872
:1022D00042F22C0108432149091D08801E488069EB
:1022E00040F005001C4988611A48001D006820F074
:1022F000C0001849091D08600846006840F08000C9
:1023000008600846006840F0100008600846006851
:1023100020F4406008600846006840F4806008606F
:102320000846006820F440700860252000280DDB76
:1023300000BF00BF00F01F0201219140420992003E
:1023400002F1E022C2F8001100BF00BF00BF62B678
:1023500010BD000000080140001002400838014094
:102360002DE9F04106460C4600251749304604F099
:102370000FFD01D2022505E01449304604F008FDA6
:1023800000D201251249304604F036FD804602F0A5
:1023900093FA074604F0B0FC0E4901EBC5018880B2
:1023A0000B49204604F028FD074604F0A5FC094926
:1023B00001EBC501C880182206494FF49670FEF75C
:1023C0005DFCBDE8F08100000000A0400000C040BE
:1023D00000002041D8060020704700002DE9F0479A
:1023E0000446204604F0DCFA074600220A4B04F0BB
:1023F000B9F8054603F00CFE0446204602F05CFAEC
:10240000054604F079FC1FFA80F94946002000F0E7
:1024100077FEBDE8F08700000000244010B500BF43
:10242000A02080F31188BFF34F8FBFF36F8F00BFE1
:1024300003F034FB18B14FF080500449086000BF2E
:10244000002080F3118800BF10BD000004ED00E003
:1024500010B51648006840F00100144908600846AD
:10246000406813490840114948600846006811490E
:1024700008400E4908600846006820F48020086083
:102480000846406820F4FE0048600846006820F0D6
:10249000A05008604FF47F0088600020C862FFF7FA
:1024A0009BFF4FF000600449086010BD001002401F
:1024B0000000FFF0FFFFF6FE08ED00E010B501217F
:1024C000024800F005F8FFF765F910BD000800406C
:1024D000CA430282704721B1028842F001020280A1
:1024E00004E002884FF6FE731A40028070471AB16A
:1024F00083890B43838102E083898B438381704707
:1025000081847047002202881D4B98420ED01D4BDB
:1025100098420BD0B0F1804F08D01B4B984205D0A9
:102520001A4B984202D01A4B984204D14FF68F733F
:102530001A404B881A43174B984207D0164B9842C3
:1025400004D04FF6FF431A40CB881A4302808B8891
:1025500083850B8803850A4B98420BD0094B984220
:1025600008D00E4B984205D00D4B984202D00D4B2F
:10257000984201D10B7A03860123838270470000C1
:10258000002C0140003401400004004000080040DD
:10259000000C0040001000400014004000400140CA
:1025A00000440140004801404FF6FF718180002146
:1025B0000180C180418001727047000000BF01208E
:1025C00015490870FEF76AF80446144800788442FA
:1025D00020D04FF4FA6002F0F7FB01200E4908709A
:1025E000FEF75CF8A04215D10C490C7000250FE0F5
:1025F0000120FEF763FFC82002F0E6FB0120064938
:1026000008700020FEF75AFFC82002F0DDFB6D1CA9
:10261000A542EDDBD3E700001C00002000000020F5
:1026200008B500BF03F034FA009000BF4FF4FA5130
:10263000684602F0F7FB15480078C8B114480078E6
:10264000B0B11448007898B11348007880B11348AD
:10265000007868B11248007850B11248007838B15B
:102660001148007820B11148007808B1012000E03D
:102670000020044614B102F0F5F8D7E7FEF756FF44
:1026800000BF642002F0A0FBFBE700001C0000205C
:102690001D0000201E0000201F0000202000002040
:1026A0002100002022000020230000202400002020
:1026B0001FB500BF00BF00BF4FF00009CA46CB46A0
:1026C000002500260020039002900190009000BF9A
:1026D00001203E49087000F0D3FD074600F0C2FD1E
:1026E000804600F0B1FD04468FB9B9F1000F0CD05F
:1026F000029830B9B5F5FA7F05DA0120344908703F
:1027000001E00020009000200290002511E0B9F1C6
:10271000000F0ED01935B5F5966F0ADDB6F5966F38
:1027200007DD009828B901202A490870029001901D
:102730000090B8F1000F11D1BAF1000F0CD0019840
:1027400030B9B6F5FA7F05DA01202349087001E0B7
:102750000020009000200190002611E0BAF1000F47
:102760000ED01936B5F5966F0ADDB6F5966F07DD12
:10277000009828B901201749087002900190009034
:1027800044B900200390BBF1000F18D00120134979
:10279000087014E01248007878B9BBF1000F0CD033
:1027A0000398193003900398B0F5966F07DD012068
:1027B0000B4908700020039001E000200390C246FE
:1027C000B946A346192002F0FFFA81E71E00002057
:1027D0001000002012000020110000201400002032
:1027E0001300002008B5002002F038F900203F490E
:1027F00008603F4908604FF47A7002F0E5FA00BFC4
:1028000001203C490870FEF735FC18B9322002F06F
:10281000DBFAF5E703F03CF90090354800683649EB
:102820000860084601683548006804F0E5F8334957
:10283000086033493148006804F0AAFB02D23048EE
:102840002E4908602F492D48006804F0A1FA02D2F1
:102850002C482A49086003202B490880098801EB8D
:102860008101480004F068FA81462448016848461E
:1028700004F0C2FA804604F023FA244908600846AE
:1028800005682148008800EB4001C1EBC0106421BD
:10289000C1EBC000461B012002F0E0F8284602F020
:1028A00093FA002002F0DAF8304602F08DFA03F0D5
:1028B000EFF804460098201A1349098801EB4102F9
:1028C000C2EBC111B0EBC10F0AD20098201A0E4919
:1028D000098801EB4102C2EBC111C0EBC10700E066
:1028E0000A273946684602F09DFA89E7C8030020A6
:1028F000BC03002023000020C0030020B8030020F8
:102900000000BE420000A040B4030020C403002029
:1029100008B50124FEF7FEFCFEF7A4FC00BF03F09F
:10292000B7F8009000BF0120164908704FF4FA7103
:10293000684602F077FA2046FEF730FD124800782C
:1029400010B10CB1012000E0002001460320FEF789
:10295000D1FD0E48007810B10CB1012000E000203C
:1029600001460220FEF7C6FD0948007810B10CB1FF
:10297000012000E0002001460120FEF7BBFD84F0AD
:102980000104D0E721000020040000200300002003
:10299000020000201CB503F07BF8009000BF00BFD0
:1029A0000120344908704FF47A71684602F03AFA0F
:1029B000FEF760FB0028F3D02F4800780028EFD006
:1029C0002E4801682E48006804F04EFB83465946A5
:1029D0002C48006804F010FA824659462A480068DC
:1029E00004F00AFA044629480168204604F004F875
:1029F000044626480460264801682148006804F01F
:102A000033FB019023480168019804F0F5F9019027
:102A10001B4800681E4908602146504603F0ECFF41
:102A20000546019903F0E8FF8146484603F0B8FFE8
:102A300021F0004105460022174B03F091FE15D20C
:102A40000021484604F0A4FA02D8DFF850900DE0C7
:102A5000DFF84890484603F0A3FF07460022104BDA
:102A600003F080FD054603F0D3FA81460D48C0F817
:102A7000009095E724000020D10300200C000020E6
:102A800008000020AC030020A4030020C80300209D
:102A9000CC030020A803002000003E400000F041CD
:102AA0000000F0BFBC0300201FB500BF00BF002422
:102AB0000025002601207F490870FFF71FF801203C
:102AC0007D49087040F6C41002F07EF90120794972
:102AD000087040F6C41002F077F9012075490870BB
:102AE0000020012103468022CDE9001073A1754822
:102AF00002F08EFF0020012103468022CDE9001064
:102B000071A1724802F084FF7148009071480088FA
:102B1000002805DD6F4800884FF47A72504300E0CA
:102B20000A200146002301226BA003F0E9F96E4957
:102B300008606E480023012242F2107100906CA0E0
:102B400003F0DEF96E49086002F0A2FF039000BFB7
:102B5000012058490870642103A802F063F900209D
:102B6000FEF768FF012805D16648007810B966486D
:102B7000007830B1FEF76EFA10B1002001F054FF7A
:102B8000E6E7FEF791FA80F001004B4909788842A8
:102B900018D0FEF789FA80F001004749087008460E
:102BA000007810B1FFF71AFB01E0FFF7E5FA01200A
:102BB00001F054FF4FF4967002F006F9002001F086
:102BC0004DFFC5E73C48007800B1C1E7FEF742FA87
:102BD00010B9012001F028FF02A8FDF7BBFD4B4909
:102BE000086000214948006804F0D2F80CD245483A
:102BF000007850B9643541F28830854205DD012006
:102C000040490870002500E00025414801683F4820
:102C1000006804F029FA834603F0C2FE21F0004167
:102C2000074600223B4B03F09BFD0ED264343A482A
:102C3000008800EB4001C1EBC010B4EBC00F05DD14
:102C4000002401203049087000E000243048016869
:102C50002E48006804F008FA834603F0A1FE21F034
:102C6000004107462D4A2E4B03F040FC1DD264362E
:102C700009F101092B480168504603F0BDFE824668
:102C80004EF66020864214DD00265746484604F082
:102C900053F880464146384603F01CFF0746394644
:102CA0001B480068FFF75CFB03E04FF00009CA46D1
:102CB00000264DE722000020020000204B6C6170CE
:102CC000616E0000E527000850696400952900083E
:102CD00061160008B003002054696D657252656783
:102CE000756C61746F720000D4030020291600080F
:102CF00054696D657243616C635069640000000043
:102D0000D803002004000020030000200800002059
:102D10000C0000200000E03FB20300209A9999992E
:102D20009999C93FB803002008B502230022062163
:102D3000D248FEF735F80020FEF736FE0120D049D4
:102D40000870D049087000BF322002F03DF8012021
:102D5000CD490870CD48007828B9CD48007810B921
:102D6000C848007808B1012000E000200446C448AB
:102D70000078012804D0022873D0032872D112E110
:102D8000C249097811B9C249097809B1012100E0A5
:102D90000021084601F032FE00210420FEF7AAFBC4
:102DA00000210520FEF7A6FB6846FDF7D3FCB949D4
:102DB0000860B448007828B100220121B648FEF727
:102DC000CFF905E000220121B2480068FEF7C8F9FA
:102DD00000220221B1480068FEF7C2F934B1012097
:102DE000FEF790F90220FEF76FF905E00120FEF7EB
:102DF0006BF90220FEF768F9A948007868B100F085
:102E0000B9FAA0480078002862D0FEF723F900281C
:102E10005ED102209A4908705AE0A248007810B3A7
:102E200000F0A8FA9D48006803F0BAFD07469E4AE4
:102E30009E4B03F01FF9054600229D4B03F056FB05
:102E400046D29648006803F0ABFD0746964A974B7A
:102E500003F010F9054603F0DBF88346FFF7BEFAEE
:102E600036E036E002E19348007800B300F082FAE1
:102E70008A48006803F094FD07468B4A8B4B03F0A9
:102E8000A5FC05460022134603F06AFC20D28348C5
:102E9000006803F085FD0746834A844B03F096FCE7
:102EA000054603F0B5F88346FFF798FA10E082482C
:102EB000007868B100F05EFA00F072FA0120704903
:102EC0000870704908700020714908706F490870D7
:102ED000D2E0002001F092FD01210420FEF70AFB60
:102EE00000210520FEF706FB0020FDF717FC8146B8
:102EF0000120FDF713FC8246002201214846FEF71F
:102F00002FF9002202215046FEF72AF96448007882
:102F1000A0B300F02FFA0020FDF762FC85B229462D
:102F20000020FDF7A7FD0120FDF75AFC85B22946D8
:102F30000120FDF79FFD0020FDF7F0FB81460120F9
:102F4000FDF7ECFB8246002201214846FEF708F916
:102F5000002202215046FEF703F9642001F034FFFD
:102F60000320FEF7CFF840F2DC5001F02DFF0320E4
:102F7000FEF7AAF803204249087013E0FFE749482A
:102F8000007828B100F0F6F903203D49087009E007
:102F90004A48007830B100F0EDF901203849087056
:102FA0003849087068E0002001F028FD0021042065
:102FB000FEF7A0FA01210520FEF79CFA0020FDF79C
:102FC000ADFB81460120FDF7A9FB824600220121CD
:102FD0004846FEF7C5F8002202215046FEF7C0F829
:102FE0002F480078B0B300F0C5F90020FDF7F8FBDA
:102FF00085B229460020FDF759FD0120FDF7F0FBC1
:1030000085B229460120FDF751FD0020FDF786FB22
:1030100081460120FDF782FB8246002201214846BD
:10302000FEF79EF8002202215046FEF799F8642030
:1030300001F0CAFE0320FEF765F840F2DC5001F013
:10304000C3FE0320FEF740F801200D4908700D492A
:1030500008700AE0FFE71948007830B100F08AF9FB
:103060000120074908700749087005E0012004495C
:103070000870FFF781F800BF66E60000001001400D
:1030800001000020020000201D000020040000209C
:103090000300002008000020000080BF0C0000207A
:1030A00012000020100000209A9999999999B93F2F
:1030B0000000244011000020130000201400002014
:1030C00010B50B48008840F22551084078B10848F7
:1030D000008800F0070038B9054800F00BF80446F6
:1030E000E0B2FEF761FB02E0014800F003F810BD1A
:1030F0000038014001468888C0F30800704700008E
:103100002DE9F3418046BDF8040003F02DFE04468E
:10311000164903F03DFE08D3BDF8040003F024FE79
:103120000446134903F034FF02D20020BDE8FC81BD
:10313000022201A96420FDF7A1FDA8B1BDF8040099
:1031400003F012FE0B4908600846006803F028FCF3
:1031500006460022084B03F041F8044602F058FFEF
:10316000044908600120E1E70020DFE70000A041FA
:103170000000C8420C000020000024402DE9F84364
:103180000546884615B1B8F1070F02D20020BDE808
:10319000F8832C466088000AA17840EA012060800C
:1031A0002088000A217840EA012020806188642973
:1031B00006DC207900EBD07149106288914205D07D
:1031C0000321102000F0F2FC0120E0E700260CE0D3
:1031D0002188314488B2FEF7BAFB28B903211020B8
:1031E00000F0E4FC0120D2E7761C6088B042EFDCFE
:1031F000671D00260CE037F81620120A17F8163063
:1032000042EA03212288324490B2FEF78AFB761C00
:103210006088B042EFDC2088000A217840EA012073
:10322000ADF800006088000AA17840EA0120ADF8FE
:103230000200FDF7D7FE064604236A46102100F07F
:10324000DDFC0120A3E700000C2005498968C1408E
:1032500001F0010109B9012070470020FCE70000DE
:10326000001001400A2005498968C14001F00101B0
:1032700009B9012070470020FCE700000010014060
:103280000B2005498968C14001F0010109B90120FD
:1032900070470020FCE700000010014000B585B039
:1032A00001214802FEF7EEFA6846FDF7EEF900202C
:1032B00000908DF804008DF805004FF46020029016
:1032C0000020039001208DF8100069461148FDF799
:1032D00043F901210F48FDF712F9052301220021CE
:1032E0000C48FDF761F90B48FDF7BAF900BF094832
:1032F000FDF727F90028FAD10648FDF7C1F900BF0C
:103300000448FDF707F90028FAD1034908804880EE
:1033100005B000BD002401402C00002010B504467B
:103320000523012221460948FDF73EF901210748FE
:10333000FDF79BF900BF02210448FDF7F9F80028CA
:10334000F9D00248FDF7F0F810BD0000002401405C
:10335000F0B505460E464FF6FF77002406E0295DDE
:10336000B8B2FDF70DFC0746601CC4B2B442F6DBF0
:10337000B8B2F0BD0020054908700549087005493C
:103380000870054908700549087070471200002050
:103390001000002011000020130000201400002065
:1033A00010B500F006F810BD00E0401E0028FCDA61
:1033B0007047F8B5322700208DF802008DF8030021
:1033C0000026E2E000252FE02C4601208DF80100C8
:1033D0000B208DF80000E8B26946FDF737FF0020AA
:1033E0008DF80100601C0446032800DD241FE0B2B4
:1033F0006946FDF72BFF601C0446032800DD241FEF
:10340000E0B26946FDF722FF601C0446032800DD98
:10341000241FE0B26946FDF719FF0020FDF7BEFF4B
:10342000322001F0D1FC6D1C042DCDDB01208DF884
:1034300001000C208DF8000069460320FDF706FF0F
:1034400000208DF801006946FDF700FF6946012064
:10345000FDF7FCFE69460220FDF7F8FE0020FDF7AF
:103460009DFF322001F0B0FC01208DF801000D20FD
:103470008DF8000069460320FDF7E8FE00208DF876
:1034800001006946FDF7E2FE69460120FDF7DEFE18
:1034900069460220FDF7DAFE0020FDF77FFF3220AB
:1034A00001F092FC03252FE02C4601208DF801004D
:1034B0000E208DF80000E8B26946FDF7C7FE002037
:1034C0008DF80100601C0446032800DD241FE0B2D3
:1034D0006946FDF7BBFE601C0446032800DD241F7F
:1034E000E0B26946FDF7B2FE601C0446032800DD29
:1034F000241FE0B26946FDF7A9FE0020FDF74EFF4C
:10350000322001F061FC6D1E002DCDDA01208DF816
:1035100001000F208DF8000069460020FDF796FE9F
:1035200000208DF8010069460120FDF78FFE6946F5
:103530000220FDF78BFE69460320FDF787FE002081
:10354000FDF72CFF322001F03FFC01208DF8010037
:1035500010208DF8000069460020FDF777FE00205E
:103560008DF8010069460120FDF770FE69460220D2
:10357000FDF76CFE69460320FDF768FE0020FDF7AD
:103580000DFF322001F020FC761C032EFFF61AAF4F
:10359000FDF7D6FDF8BD31B5A02000F01BF90446BB
:1035A00054B16D46687800F015F904461CB12878CE
:1035B00000F010F9044600BF204638BDF0B50146C2
:1035C00000254FF44C720C2392FBF3F084B20020E0
:1035D0000CE000EB4006084F37F826608E4204D11D
:1035E00000EB400607EB860502E0401CA042F0DB42
:1035F00000BF2846F0BD00006200002010B5022385
:10360000012207211848FDF7CBFB0720002121B13B
:1036100001228240144B1A6105E000F110020123DF
:103620009340114A136100BF0620012121B10122FC
:1036300082400D4B1A6105E000F110020123934016
:10364000094A136100BF0620002121B101228240F6
:10365000054B1A6105E000F1100201239340024A74
:10366000136100BF10BD0000000C014010B5022323
:10367000012206211348FDF793FB002301220721B5
:103680001048FDF78DFB0620012121B10122824067
:103690000C4B1A6105E000F1100201239340094A26
:1036A000136100BF0720012121B101228240054B97
:1036B0001A6105E000F1100201239340014A1361F1
:1036C00000BF10BD000C014010B50621012222B13F
:1036D00001238B40104C236105E001F1100301240C
:1036E0009C400D4B1C6100BF07210B4A9268CA40E9
:1036F00002F0010000BF0621002222B101238B400D
:10370000054C236105E001F1100301249C40024BAC
:103710001C6100BF10BD0000000C014070B5002608
:103720000023012207210848FDF73AFB072507E09F
:10373000FFF7CAFF044604FA05F03043C6B26D1E17
:10374000002DF5DA304670BD000C014010B5024680
:103750007AB90720002121B1012383401C4C236149
:1037600005E000F1100301249C40194B1C6100BFCF
:103770000FE00720012121B101238340144C236174
:1037800005E000F1100301249C40114B1C6100BFB7
:1037900000BF0620012121B1012383400C4C23618D
:1037A00005E000F1100301249C40094B1C6100BF9F
:1037B0000620002121B101238340054C236105E04F
:1037C00000F1100301249C40014B1C6100BF10BD9F
:1037D000000C014070B50546002602230122072196
:1037E0002048FDF7DDFA07240BE00121A140294024
:1037F000002901DD012100E000210846FFF7A6FFB6
:10380000641E002CF1DA0023012207211548FDF780
:10381000C7FA0620012121B101228240114B1A6111
:1038200005E000F11002012393400E4A136100BF2E
:1038300007200C498968C14001F0010101B9012646
:103840000620002121B101228240064B1A6105E0C9
:1038500000F1100201239340024A136100BF304679
:1038600070BD0000000C014010B5022301220721A9
:103870001F48FDF795FA0720012121B1012282405E
:103880001B4B1A6105E000F1100201239340184A16
:10389000136100BF0620012121B101228240144B97
:1038A0001A6105E000F1100201239340104A1361F0
:1038B00000BF0720002121B1012282400C4B1A6178
:1038C00005E000F1100201239340094A136100BF93
:1038D0000620002121B101228240054B1A6105E03A
:1038E00000F1100201239340014A136100BF10BD93
:1038F000000C014010B50720002121B101228240B7
:10390000214B1A6105E000F11002012393401E4A89
:10391000136100BF0620002121B1012282401A4B11
:103920001A6105E000F1100201239340164A136169
:1039300000BF0223012207211348FDF731FA0620B8
:10394000012121B1012282400F4B1A6105E000F1F3
:103950001002012393400C4A136100BF072001218C
:1039600021B101228240084B1A6105E000F11002EA
:1039700001239340044A136100BF00230122072161
:103980000148FDF70DFA10BD000C014070B549F675
:1039900040444FF4C3650120FDF7A2FF00BF612042
:1039A000FDF780FF0028FAD045F25550FDF73CFBAB
:1039B0000620FDF72DFB4FF4C360FDF72FFBFDF74D
:1039C0001FFBFDF715FB70BD70B504462078801E07
:1039D000611C0D5A2078801EC1B2601CFFF7B8FC34
:1039E0000646B54201D1012070BD0020FCE7000071
:1039F00000B51420FFF7D8FC0D20012121B10122D0
:103A00008240104B1A6105E000F11002012393403F
:103A10000C4A136100BF1420FFF7C6FC0D200021E3
:103A200021B101228240074B1A6105E000F110022A
:103A300001239340034A136100BF1420FFF7B4FC35
:103A400000BD00000010014000B51420FFF7ACFCE1
:103A50000E20012121B101228240104B1A6105E0A4
:103A600000F11002012393400C4A136100BF14209F
:103A7000FFF79AFC0E20002121B101228240074B62
:103A80001A6105E000F1100201239340034A13611B
:103A900000BF1420FFF788FC00BD000000100140AB
:103AA0001CB5FDF7C7FA0020012103468022CDE9AD
:103AB000001027A1284801F0ABFF00200121034698
:103AC0008022CDE9001025A1264801F0A1FF0020A9
:103AD00002210346CA02CDE9001023A1244801F0C7
:103AE00097FF0020012103468022CDE9001021A18B
:103AF000224801F08DFF0020012103468022CDE9FC
:103B000000101FA11F4801F083FF00200121034680
:103B10008022CDE900101CA11D4801F079FF002092
:103B2000012103464A02CDE900101AA11C4801F008
:103B30006FFF0020012103468022CDE9001019A16A
:103B4000194801F065FF01F097FA00201CBD000044
:103B50004144445245535300BD250008414E414C59
:103B60004F4700009D0800084D6F646275730000A8
:103B7000CD1500084C65647344696700112900087D
:103B800042544E00B1260008574F524B000000002F
:103B9000292D0008526567756C61746F7200000012
:103BA000A92A000857647400212600087CB5044641
:103BB0000D46FDF717FA8DF8000004F03F0040F0C5
:103BC00080008DF801008DF8025003216846FFF750
:103BD000BFFBADF80300FB210748FCF7D8FB064804
:103BE0000099C0F801109DF80410417105200249A8
:103BF000087001207CBD0000630500202DE9F0471E
:103C00008046894616461C46002C02DD0EB9BDE8EA
:103C1000F087F52C00D9FAE7FB211548FCF7B7FB34
:103C2000134D6D1C85F8008085F801905CB14FF054
:103C3000000A06E022463146A81CFCF763FB0AF1A5
:103C4000010AA245F6DBA01C094908700846017864
:103C5000401CFFF77DFB074605490A78491C8F5237
:103C6000481E0078801C491E087000BFCFE7000086
:103C7000630500202DE9F04105460F461748066808
:103C800017480068001D00F045FF50B9144800684F
:103C900090F82C100120884012490968814311488E
:103CA000016074190E4800684460B44207D20C48A1
:103CB0000168091D0C48006800F050FF0CE008483E
:103CC0000168091D0948006800F048FF08480068BD
:103CD000844201D206480460BDE8F0812C04002033
:103CE0001C040020300400202404002020040020B4
:103CF0004804002010B5044600F056FF2348006831
:103D0000401C224908602248006840B920480460ED
:103D10000846006801280DD100F0DCF90AE01D48D2
:103D2000006838B91A480068C06AE16A884201D858
:103D30001748046018480068401C1749086094F848
:103D40002C10012088401549096808431349086070
:103D5000E16A01EB8101124A02EB8100211D00F0B2
:103D600017FF00F04BFF0B48006868B10848006877
:103D7000C06AE16A884207D24FF080500949086062
:103D8000BFF34F8FBFF36F8F10BD000028040020DA
:103D90001C040020340400204404002030040020CF
:103DA000F06E002004ED00E010B500F0FDFE0C48C0
:103DB000006890B90B4800F0C1FE0B4800F0BEFE51
:103DC00008480A49086008480949086000220C218F
:103DD000032001F082FA0249086000F00FFF10BDD5
:103DE0005C040020686F00207C6F002054040020D9
:103DF00058040020704770B504460D46206C70B121
:103E0000216CE0680144E160D4E90210884201D3EA
:103E10002168E1602846226CE168FCF773FA70BD06
:103E20002DE9F04104460F4615464FF00008A66BF9
:103E3000206C48B9206800282CD1A06801F0D2FE7F
:103E400080460020A06025E07DB93946226C60687C
:103E5000FCF758FA216C606808446060D4E90101FD
:103E6000884217D32068606014E03946226CE0680D
:103E7000FCF748FA216CE068411AE1602168E068CB
:103E8000884203D2216CA068411AE160022D01D161
:103E900006B1761E701CA0634046BDE8F081014665
:103EA0004A6A22B10A6B1268C2F1030000E00020E6
:103EB000704700000146084A126812680AB90122D8
:103EC00000E000220A600A6822B9034A1268D26838
:103ED000106800E0002070475404002030B54FF413
:103EE000D043174800F007042CB1C01D20F0070094
:103EF000134C041B1B1B0246124C22600024114D64
:103F00006C60D018083820F007000F4C20600024A7
:103F10000D4D2D686C600C4D2D682C601146441AB7
:103F20004C60094C24680C60084D4C682C60084DAE
:103F30004C682C604FF00044064D2C6030BD0000F2
:103F4000F0060020F0030020F80300200004002009
:103F5000FC0300200C04002000BFFFF74BFF0648C5
:103F600000680128F9D94FF0805004490860BFF378
:103F70004F8FBFF36F8FF0E7F06E002004ED00E08D
:103F800010B5044654B10020A06020600021E1601B
:103F900000231A461946204601F016FA10BD2DE9F5
:103FA000F04106460D4617469846069C0DB924601A
:103FB00000E02760E66325640121204601F0B8F99E
:103FC000BDE8F0812DE9FF5F81460E469246DDE9AE
:103FD0000E7B109CAAF10100216B01EB800828F0F8
:103FE000070808F0070008B9012000E0002050B9D8
:103FF00000BFA02080F31188BFF34F8FBFF36F8FF6
:1040000000BF00BFFEE786B1002507E0715D04F147
:1040100034004155705D00B902E06D1C0A2DF5D3E6
:1040200000BF00213D20015502E0002084F834004B
:10403000032F00D30227E762276400206064201D5D
:1040400000F089FD04F1180000F085FD2461C7F13E
:104050000300A06164620020A06484F84C0049461B
:104060004046039A00F0D0FB2060BBF1000F01D066
:10407000CBF80040BDE8FF9F2DE9F04706460D460E
:1040800017469846DDE908940DB1012000E00020B4
:1040900050B900BFA02080F31188BFF34F8FBFF34A
:1040A0006F8F00BF00BFFEE78CB1FFF77DFE26607B
:1040B000A561C4F81C80C4F82090201D00F04BFDC1
:1040C0002FB194F8240040F0040084F82400BDE8E7
:1040D000F087000010B5002407E004EB84010C4ACF
:1040E00002EB810000F02AFD641C032CF5D3094883
:1040F00000F024FD084800F021FD084800F01EFDF6
:1041000004480749086004480649086010BD0000DB
:10411000F06E00202C6F0020406F0020546F0020B4
:10412000200400202404002010B50146164800E0B9
:10413000006803688B42FBD30246436813448B42FA
:1041400004D143684C682344436001460A464B68E7
:1041500013440468A34211D10C4C03682468A342A1
:1041600008D04B680468646823444B6003681B688C
:104170000B6005E0054B1B680B6001E003680B60FA
:10418000884200D0016010BDF0030020F803002039
:104190002DE9F04104460D4616461F464FF0000833
:1041A00065602461B5420CD8F01BA169884202D336
:1041B0004FF0010811E0211D0948006800F0CEFC15
:1041C0000BE0BE4204D2BD4202D34FF0010804E02E
:1041D000211D0448006800F0C1FC4046BDE8F081A4
:1041E000580400205404002070B5054600F0DCFCA3
:1041F000A86B08B9012400E0002400F0FFFC204671
:1042000070BD70B5054600F0CFFCA86BE96B884225
:1042100001D1012400E0002400F0F0FC204670BD34
:10422000F8B505460F461A480068C068C468201DE6
:1042300000F070FC94F8240000F00400E8B1A069DC
:1042400041192B463A462046FFF7A2FFD8B100207D
:1042500003462A4601460090204601F097FE064696
:1042600056B900BFA02080F31188BFF34F8FBFF372
:104270006F8F00BF00BFFEE705E094F8240020F038
:10428000010084F824002046216A8847F8BD000018
:104290005404002070B586B08BE003980028FBDB47
:1042A000059C606908B9012000E0002010B9201DBC
:1042B00000F030FC02A800F009F9054603980A282E
:1042C00075D2DFE800F009050739416306083A4274
:1042D00000BF00BF00BF00BF94F8240040F0010001
:1042E00084F824000498A269811803462A462046CF
:1042F000FFF74EFFF8B12046216A884794F8240062
:1043000000F00400B8B1002000900498A1694218A0
:1043100000231946204601F039FE064656B900BF73
:10432000A02080F31188BFF34F8FBFF36F8F00BFC2
:1043300000BFFEE700BF3BE000BF94F8240020F080
:10434000010084F8240033E000BF94F8240040F01A
:10435000010084F824000498A061A06908B101203C
:1043600000E0002050B900BFA02080F31188BFF307
:104370004F8FBFF36F8F00BF00BFFEE7A0694119E9
:104380002B462A462046FFF703FF11E094F824004D
:1043900000F0020018B9204600F04EFC05E094F849
:1043A000240020F0010084F8240001E0FFE700BFB2
:1043B00000BF002203A90448006801F057F9002853
:1043C0007FF46BAF06B070BD5C040020F8B5054605
:1043D0000C4600F09BFE684600F078F80646009810
:1043E00020BB44B9B54206D801F008FD3146284645
:1043F000FFF716FF1CE03CB10E480068006808B9E2
:10440000012000E000200446A91B22460A4800685B
:1044100000F0B4FC01F0F2FC50B94FF080500749B5
:104420000860BFF34F8FBFF36F8F01E001F0E6FC30
:10443000F8BD0000580400205C04002004ED00E0FA
:104440000A490968096809B9012100E0002121B180
:104450004FF0FF31064A116006E004490968C96857
:10446000C868034A416811607047000020040020BA
:104470004804002010B5022000F0A6FC082000210E
:1044800021B101228240054B1A6105E000F11002C2
:1044900001239340014A136100BF10BD0008014091
:1044A00010B50820012121B101228240064B1A617A
:1044B00005E000F1100201239340034A136100BF9D
:1044C000012000F081FC10BD0008014070B50446D9
:1044D00001F0DEFA054607480068854204D200F084
:1044E0000BF80120206001E00020206001480560F9
:1044F000284670BD640400202DE9F84334E02548C7
:104500000068C068056823480068C068C468201D4A
:1045100000F000FB2046216A884794F8240000F050
:10452000040008B3A0694619AE4207D96660246149
:10453000211D1848006800F011FB15E0002003461B
:104540002A4601460090204601F020FD074657B953
:1045500000BFA02080F31188BFF34F8FBFF36F8F90
:1045600000BF00BFFEE700BF0A480068006808B946
:10457000012000E000200028C1D00648D0F80080CB
:1045800005480068034908600348C0F80080BDE89A
:10459000F883000054040020580400200E480068EE
:1045A000401C08B9012000E0002050B900BFA02045
:1045B00080F31188BFF34F8FBFF36F8F00BF00BF31
:1045C000FEE700BFA02080F31188BFF34F8FBFF339
:1045D0006F8F00BF00BFFEE71004002008B500BFCA
:1045E0006846FFF767FC044620460099FFF7EEFE99
:1045F000FFF750FEF4E770B5044600F0D5FA94F9E1
:10460000455010E0606A08B9012000E0002038B988
:1046100004F1240001F0A6FB18B100F079FC00E0E1
:1046200003E0681E45B2002DECDC00BFFF2084F8DB
:10463000450000F0E3FA00F0B7FA94F9445010E0B6
:10464000206908B9012000E0002048B904F11000F9
:1046500001F088FB08B100F05BFC681E45B200E089
:1046600001E0002DECDC00BFFF2084F8440000F0E6
:10467000C5FA70BD00BF0849098801F08001002912
:10468000F9D00549091D088000BF0349098801F0D8
:1046900080010029F9D07047003801402DE9F04130
:1046A00004464FF0000800F031FD4948006808B9A1
:1046B000FFF714FC474800682040002870D1D4B1AF
:1046C000083404F00700B0B104F00700C0F108009E
:1046D000044404F0070008B9012000E0002050B9AC
:1046E00000BFA02080F31188BFF34F8FBFF36F8FFF
:1046F00000BF00BFFEE7002C52D03748006884425C
:104700004ED8364E3046056801E02E462D68686862
:10471000A04202D228680028F7D12D4800688542BF
:104720003ED0306800F10808286830606868001BD7
:10473000102819D92F1907F0070008B9012000E047
:10474000002050B900BFA02080F31188BFF34F8F25
:10475000BFF36F8F00BF00BFFEE76868001B786083
:104760006C603846FFF7E0FC1B4968680968081A66
:10477000194908600846006819490968884203D247
:1047800015480068164908601249686809680843B6
:1047900068600020286013480068401C11490860C8
:1047A00001F02CFB08F0070008B9012000E0002010
:1047B00050B900BFA02080F31188BFF34F8FBFF323
:1047C0006F8F00BF00BFFEE74046BDE8F0810000EC
:1047D000F80300200C040020FC030020F00300205C
:1047E00000040020040400200648006830B1054998
:1047F000096801F14400496C491C016001480068E6
:10480000704700001C040020001F4FF080730360FD
:10481000001F21F001030360001F034B03601438E5
:1048200002602038704700009D450008014602489C
:1048300030F8110070470000B471000801460229E9
:1048400002D1034800887047024830F81100FAE7A7
:1048500090710008B4710008002001490870704789
:104860006804002010B500200A4908700A49087041
:104870000A4908700A4908700A4908700A4908700C
:104880000A4908700A4908700A490870FCF7B8FB21
:1048900010BD00001C0000201D0000201E00002094
:1048A0001F00002020000020210000202200002006
:1048B000230000202400002070B5054602F09AFB7A
:1048C00004460146284602F0CFFB15F0004F4FF09A
:1048D0007F410ED0B0F13F4F28BFB1EB400F0ED259
:1048E000B0F17C5F1DDDB1EB400F1AD313E004463D
:1048F00017E0B0F13F4F08D9B1EB400F05D34FF0AF
:104900007E51204602F0B0FBF1E7B0F17C5F08DB9E
:10491000B1EB400F05D34FF07E51204602F06CF80A
:10492000E5E7284664F31E0070BD000010B50020C6
:1049300022E000EB80014122A2EB4101134A02EB8D
:10494000C002118000EB80010A2202EB810101EB21
:1049500081014FF6FF7202EA41010C4A02EBC002EC
:1049600051804FF6FF71094A02EBC0029180074A5D
:1049700002EBC002D180401C0328DADB1822034975
:104980004FF49670FCF77AF910BD0000D8060020AD
:1049900010B500200CE00A4901EBC001094A126879
:1049A0000A60074901EBC001074A12684A60401CCF
:1049B0000228F0DB10220249C820FCF75FF910BD85
:1049C00068060020A4710008A871000810B500F066
:1049D00009F8FFF741FF00200149087010BD0000F1
:1049E0002500002010B500210348FDF774FD0021CB
:1049F0000148FDF785FD10BD0008004010B50621F7
:104A0000024602F0010323B101238B40054C2361D0
:104A100005E001F1100301249C40024B1C6100BF22
:104A200010BD00000010014010B5044621460020D2
:104A3000FCF760FD0720214601F0010222B10122AE
:104A40008240054B1A6105E000F1100201239340FA
:104A5000014A136100BF10BD0010014010B50446AB
:104A60009CB900210620FCF745FD0820012121B159
:104A7000012282400F4B1A6105E000F11002012370
:104A800093400C4A136100BF13E001210620FCF79C
:104A900031FD0820002121B101228240054B1A611D
:104AA00005E000F1100201239340024A136100BFA8
:104AB00000BF10BD0010014010B501210420FCF71B
:104AC000D1FE1248FDF770FD4FF4FA500F490880EF
:104AD000032088800E48FDF715FD012211460C4881
:104AE000FDF705FD1E2000280DDB00BF00BF00F014
:104AF0001F02012191404209920002F1E022C2F816
:104B0000001100BF00BF00BF10BD00005E06002006
:104B10000008004001460A69D1E901309860D1E9F6
:104B2000010358605068884201D1886850600020B5
:104B300008611068401E10601068704700F108019D
:104B400041604FF0FF31816000F10801C1600161F7
:104B500000210160704700210161704710B50246D5
:104B60000B685C1C0CB9106907E002F1080000E05A
:104B70004068446824689C42FAD944684C604C6898
:104B8000A160886041600A611468641C146010BDF3
:104B900042684A6093688B609368596091600861CD
:104BA00003685B1C0360704700BFA02080F311887E
:104BB000BFF34F8FBFF36F8F00BF0E480068401CDC
:104BC0000C49086008460068012812D10A480068AC
:104BD000C0B208B9012000E0002050B900BFA020F9
:104BE00080F31188BFF34F8FBFF36F8F00BF00BFFB
:104BF000FEE770471004002004ED00E00D48006857
:104C000050B900BFA02080F31188BFF34F8FBFF3CE
:104C10006F8F00BF00BFFEE706480068401E0549D1
:104C200008600846006820B9002080F3118800BFA2
:104C300000BF70471004002070B506463546002EB0
:104C400044D0083D2C46224960680968084008B1F4
:104C5000012000E0002050B900BFA02080F311889F
:104C6000BFF34F8FBFF36F8F00BF00BFFEE7206819
:104C700008B9012000E0002050B900BFA02080F357
:104C80001188BFF34F8FBFF36F8F00BF00BFFEE7E8
:104C90000F49606809680840C0B12068B0B90C4984
:104CA000606809688843606000F030FA094960680C
:104CB00009680844074908602046FFF735FA0648A6
:104CC0000068401C0449086001F098F870BD0000BD
:104CD0000C040020FC0300200804002000204FF0FA
:104CE000E02108618861064800684FF47A71B0FBE2
:104CF000F1F0401E4FF0E021486107200861704745
:104D0000DC03002070B5FBF7D9FA0446102C16D34B
:104D100004F1E02090F8F05315480078854201DB5B
:104D2000012000E0002050B900BFA02080F31188CE
:104D3000BFF34F8FBFF36F8F00BF00BFFEE70D487B
:104D4000006800F4E0600C490968884201D801203D
:104D500000E0002050B900BFA02080F31188BFF30D
:104D60004F8FBFF36F8F00BF00BFFEE770BD000025
:104D7000140400200CED00E0180400202DE9F0419F
:104D800005460E4617462C46FFF70EFF94F94400E1
:104D9000401C10B9002084F8440094F94500401CE0
:104DA00010B9002084F84500FFF728FFA06B28B950
:104DB0003A46314604F1240000F0CCF82046FFF7D3
:104DC0001AFCBDE8F081000070B504460025D4B19E
:104DD0001248006808B9012000E0002050B900BF67
:104DE000A02080F31188BFF34F8FBFF36F8F00BFF8
:104DF00000BFFEE700F08AF900212046FEF73AFFE7
:104E000000F0FCFF05463DB94FF0805004490860B2
:104E1000BFF34F8FBFF36F8F70BD000050040020B1
:104E200004ED00E02DE9F04704460F464FF000097D
:104E300054B900BFA02080F31188BFF34F8FBFF398
:104E40006F8F00BF00BFFEE70FB1012000E0002020
:104E500050B900BFA02080F31188BFF34F8FBFF37C
:104E60006F8F00BF00BFFEE72048006808B901202F
:104E700000E0002050B900BFA02080F31188BFF3EC
:104E80004F8FBFF36F8F00BF00BFFEE700F03EF90A
:104E9000174806682068C5192068B04207D92068FD
:104EA000A8420BD9B54209D94FF0010906E02068A4
:104EB000A84201D8B54201D94FF001092560B9F1E6
:104EC000000F03D0A81B0021FEF7D4FE00F096FFD0
:104ED0008046B8F1000F07D14FF0805005490860B7
:104EE000BFF34F8FBFF36F8FBDE8F08750040020F2
:104EF0002C04002004ED00E0034909680160034927
:104F00000968416070470000400400202C04002024
:104F100001200149086070473C04002070B5044638
:104F20000D4654B900BFA02080F31188BFF34F8F06
:104F3000BFF36F8F00BF00BFFEE70548016818315F
:104F40002046FFF70BFE01212846FEF793FE70BDB9
:104F50001C04002070B505460E46144655B900BF26
:104F6000A02080F31188BFF34F8FBFF36F8F00BF76
:104F700000BFFEE70648016818312846FFF708FE23
:104F80000CB14FF0FF3621463046FEF773FE70BD80
:104F90001C0400202DE9F04706460F4634464FF02A
:104FA0000109002E60D0606C50B900BFA02080F3D2
:104FB0001188BFF34F8FBFF36F8F00BF00BFFEE7B5
:104FC000206CB84201D23D4600E0256CE06AA84260
:104FD0004AD0606C012847D124480068844201D03F
:104FE000012000E0002050B900BFA02080F311880C
:104FF000BFF34F8FBFF36F8F00BF00BFFEE7D4F842
:105000002C80E562A06900F0004010B9C5F10300F2
:10501000A06108EB8801164A02EB810160698842B1
:1050200001D1012000E00020F0B1201DFFF772FD4A
:1050300040B994F82C10012088400E49096881433A
:105040000C48016094F82C10012088400949096837
:10505000084308490860E16A01EB8101044A02EB58
:105060008100211DFFF794FDBDE8F0871C0400209E
:10507000F06E0020300400201CB51D4800210B46B6
:105080008022CDE900101BA11C4800F0C1FC0446A1
:10509000012C02D100F050FF0446012C15D100BFB5
:1050A000A02080F31188BFF34F8FBFF36F8F00BF35
:1050B0004FF0FF30124908600120124908600020BB
:1050C0001149086000F07CF810E0601C08B1012074
:1050D00000E0002050B900BFA02080F31188BFF38A
:1050E0004F8FBFF36F8F00BF00BFFEE71CBD0000F6
:1050F0004C04002049444C4500000000593F000882
:1051000048040020340400202C04002002480068D9
:10511000401C014908607047500400201D48006889
:1051200018B101201C49086032E000201A490860CB
:105130001A480068B0FA80F0C0F11F0101EB81004D
:10514000174A52F8200008B1012000E0002050B9B1
:1051500000BFA02080F31188BFF34F8FBFF36F8F84
:1051600000BF00BFFEE701EB81020D4B03EB8200A5
:1051700042685268426000F108024368934202D1DB
:105180004268526842604268D268064B1A6000BFAB
:1051900070470000500400203C0400203004002030
:1051A000F06E00201C04002002460E2A01DD0020C3
:1051B0007047024820F812100120F9E7440000204F
:1051C0001CB53849084600780190FF200A46107047
:1051D0000846007800909DF8000000F47F609DF87C
:1051E0000020904201D1012000E0002050B900BF12
:1051F000A02080F31188BFF34F8FBFF36F8F00BFE4
:1052000000BFFEE79DF8000000F0A000264A1070E5
:105210000720264A106009E024480068401E234AFF
:1052200010609DF800004006000E00909DF8000000
:1052300000F080008028EFD01C480068C0F1070013
:10524000042801D1012000E0002050B900BFA020B7
:1052500080F31188BFF34F8FBFF36F8F00BF00BF84
:10526000FEE7124800680002104A106010460088ED
:1052700000F4E06010600B4A019810700C48006860
:1052800040F07F600A4908600846006840F07040BE
:105290000860FFF723FD002006490860FAF7D8FFF1
:1052A00000201CBD00E400E01404002018040020CD
:1052B00020ED00E0100400202DE9F0410446012615
:1052C000002722460021012000F007F80546284665
:1052D000FEF756FE2846BDE8F0812DE9F843054665
:1052E0000E4617460DB1012000E0002050B900BF66
:1052F000A02080F31188BFF34F8FBFF36F8F00BFE3
:1053000000BFFEE705FB06F808F14800FFF7C6F905
:1053100004464CB1A14609F148093B464A4631468C
:1053200028460094FEF73BFE2046BDE8F8830000C7
:1053300070B505460E462C4654B900BFA02080F338
:105340001188BFF34F8FBFF36F8F00BF00BFFEE721
:10535000FFF72AFCD4E90F12206801FB0200A060CD
:105360000020A06320686060E06B401E226C216812
:1053700000FB0211E160FF2084F8440084F845003E
:105380009EB9206908B9012000E00020A8B904F105
:10539000100000F0E7FC80B14FF080500949086030
:1053A000BFF34F8FBFF36F8F07E004F11000FFF7DB
:1053B000C5FB04F12400FFF7C1FBFFF71FFC012030
:1053C00070BD000004ED00E02DE9FF4383B0064608
:1053D00088461D464FF00009344654B900BFA0204E
:1053E00080F31188BFF34F8FBFF36F8F00BF00BFF3
:1053F000FEE7B8F1000F01D1206C08B9012000E0F0
:10540000002050B900BFA02080F31188BFF34F8F58
:10541000BFF36F8F00BF00BFFEE7022D02D1E06B2C
:10542000012801D1012000E0002050B900BFA020D8
:1054300080F31188BFF34F8FBFF36F8F00BF00BFA2
:10544000FEE700F015FB08B9059808B9012000E057
:10545000002050B900BFA02080F31188BFF34F8F08
:10546000BFF36F8F00BF00BFFEE700BFFFF79CFBDD
:10547000A06BE16B884201D3022D28D12A46414618
:105480002046FEF7CDFC0746606A08B9012000E01F
:10549000002068B904F1240000F064FC88B14FF0EA
:1054A000805032490860BFF34F8FBFF36F8F08E021
:1054B0003FB14FF080502D490860BFF34F8FBFF3CD
:1054C0006F8FFFF79BFB012007B0BDE8F0830598C5
:1054D00018B9FFF793FB0020F6E7B9F1000F04D1EC
:1054E00001A8FFF709FD4FF00109FFF787FBFFF760
:1054F0000DFEFFF759FB94F94400401C10B9002041
:1055000084F8440094F94500401C10B9002084F848
:105510004500FFF773FB05A901A800F037FAF0B9C1
:105520002046FEF76EFEA0B104F110000599FFF7CA
:10553000F5FC2046FFF75FF800F060FC002895D1ED
:105540004FF0805009490860BFF34F8FBFF36F8F52
:105550008CE72046FFF74FF800F050FC86E7204626
:10556000FFF749F800F04AFC0020ADE704ED00E049
:105570002DE9F84F07468A4690461E463C4654B9E8
:1055800000BFA02080F31188BFF34F8FBFF36F8F50
:1055900000BF00BFFEE7BAF1000F01D1206C08B9CF
:1055A000012000E0002050B900BFA02080F3118846
:1055B000BFF34F8FBFF36F8F00BF00BFFEE7022E18
:1055C00002D1E06B012801D1012000E0002050B998
:1055D00000BFA02080F31188BFF34F8FBFF36F8F00
:1055E00000BF00BFFEE7FFF78DFB00BFA021EFF378
:1055F000118081F31188BFF34F8FBFF36F8F00BF0E
:105600000546A06BE16B884201D3022E25D194F9A7
:1056100045B0A06B0090324651462046FEF700FC94
:105620000BF1010088B9606A08B9012000E0002090
:1056300050B904F1240000F095FB28B1B8F1000F37
:1056400002D00120C8F8000004E00BF1010040B2D4
:1056500084F845004FF0010901E04FF0000900BF58
:1056600085F3118800BF4846BDE8F88F2DE9F74162
:1056700083B005460E464FF000082C4654B900BFD3
:10568000A02080F31188BFF34F8FBFF36F8F00BF4F
:1056900000BFFEE70EB9206C08B9012000E0002031
:1056A00050B900BFA02080F31188BFF34F8FBFF324
:1056B0006F8F00BF00BFFEE700F0DAF908B9059868
:1056C00008B9012000E0002050B900BFA02080F3FD
:1056D0001188BFF34F8FBFF36F8F00BF00BFFEE78E
:1056E00000BFFFF761FAA76BF7B131462046FEF71E
:1056F00082FB781EA063206908B9012000E0002029
:1057000060B904F1100000F02DFB38B14FF080506B
:105710002F490860BFF34F8FBFF36F8FFFF76EFA0B
:10572000012006B0BDE8F081059818B9FFF766FAC8
:105730000020F6E7B8F1000F04D101A8FFF7DCFB69
:105740004FF00108FFF75AFAFFF7E0FCFFF72CFAD9
:1057500094F94400401C10B9002084F8440094F9E6
:105760004500401C10B9002084F84500FFF746FAB8
:1057700005A901A800F00AF9F0B92046FEF734FDAA
:10578000A0B104F124000599FFF7C8FB2046FEF7FD
:1057900032FF00F033FB0028A3D14FF080500C49BA
:1057A0000860BFF34F8FBFF36F8F9AE72046FEF775
:1057B00022FF00F023FB94E72046FEF71CFF00F0D9
:1057C0001DFB2046FEF710FD00288AD00020A8E728
:1057D00004ED00E02DE9F34182B005464FF00008EA
:1057E0002C46002654B900BFA02080F31188BFF3D7
:1057F0004F8FBFF36F8F00BF00BFFEE7206C08B96B
:10580000012000E0002050B900BFA02080F31188E3
:10581000BFF34F8FBFF36F8F00BF00BFFEE700F0F5
:1058200027F908B9039808B9012000E0002050B911
:1058300000BFA02080F31188BFF34F8FBFF36F8F9D
:1058400000BF00BFFEE700BFFFF7AEF9A76BFFB1D7
:10585000781EA063206810B9FEF7C6FFA06020691B
:1058600008B9012000E0002060B904F1100000F048
:1058700079FA38B14FF0805043490860BFF34F8F39
:10588000BFF36F8FFFF7BAF9012004B0BDE8F081D4
:10589000039898B90EB9012000E0002050B900BF6C
:1058A000A02080F31188BFF34F8FBFF36F8F00BF2D
:1058B00000BFFEE7FFF7A2F90020E6E7B8F1000F0E
:1058C00004D16846FFF718FB4FF00108FFF796F97F
:1058D000FFF71CFCFFF768F994F94400401C10B96D
:1058E000002084F8440094F94500401C10B90020C1
:1058F00084F84500FFF782F903A9684600F046F8EE
:1059000040BB2046FEF770FCF0B1206838B9FFF7C5
:105910004BF9A06800F0CAF90646FFF76FF904F1E9
:1059200024000399FFF7FAFA2046FEF764FE00F020
:1059300065FA002888D14FF0805013490860BFF302
:105940004F8FBFF36F8F7FE72046FEF754FE00F0C6
:1059500055FA79E72046FEF74EFE00F04FFA204652
:10596000FEF742FC0028EED05EB1FFF71DF920469D
:10597000FEF795FA07463946A068FFF70BFBFFF7DD
:105980003DF9002081E7000004ED00E070B5054618
:105990000C4655B900BFA02080F31188BFF34F8F8C
:1059A000BFF36F8F00BF00BFFEE754B900BFA02058
:1059B00080F31188BFF34F8FBFF36F8F00BF00BF1D
:1059C000FEE7FFF7F1F8104802686868131A0F49FC
:1059D00028680968884204D06868904201D8012686
:1059E0000DE02068984207D92068C01A2060284638
:1059F000FFF782FA002602E0002020600126FFF770
:105A0000FDF8304670BD00002C040020400400204A
:105A10002DE9FF4F85B0804689461746DDE912AB78
:105A2000B800FEF73BFE064656B15020FEF736FEA4
:105A300004460CB1266304E03046FFF7FDF800E0B1
:105A400000247CB10020CDE900ABCDE902403A460C
:105A500049464046089BFEF7B5FA2046FEF74AF94C
:105A6000012501E04FF0FF35284609B0BDE8F08F71
:105A70000549096809B9012005E00449096809B91F
:105A8000022000E000207047340400205004002071
:105A900001490868704700002C0400202DE9F041FE
:105AA0004FF000084448006800287CD14348006853
:105AB000451C4248056015BB41480068006808B9AC
:105AC000012000E0002050B900BFA02080F3118821
:105AD000BFF34F8FBFF36F8F00BF00BFFEE73848A3
