:020000040800F2
:1000000038700020C5020008CD020008CF020008A9
:10001000D1020008D3020008D50200080000000049
:100020000000000000000000000000002D02000899
:10003000D90200080000000071020008A51C000899
:10004000DF020008DF020008DF020008DF0200080C
:10005000DF020008DF020008DF020008DF020008FC
:10006000DF020008DF020008DF020008DF020008EC
:10007000DF020008DF020008DF020008DF020008DC
:10008000DF020008DF020008DF020008DF020008CC
:10009000DF020008DF020008DF020008DF020008BC
:1000A000DF020008DF020008DF020008DF020008AC
:1000B000DF020008DF020008451D0008DF0200081B
:1000C000DF020008DF020008DF020008DF0200088C
:1000D000DF020008B5230008DF020008DF02000885
:1000E000DF020008DF020008DF0200080000000055
:1000F0000000000000000000000000000000000000
:100100000000000000000000DF020008DF0200081D
:10011000DF020008DF020008DF020008DF0200083B
:10012000DF020008DF020008DF020008DF0200082B
:10013000DF020008DF020008DF020008DF0200081B
:10014000DF020008DF020008DF020008DF0200080B
:1001500000F002F800F05AF80AA090E8000C82447F
:100160008344AAF10107DA4501D100F04FF8AFF25C
:10017000090EBAE80F0013F0010F18BFFB1A43F085
:1001800001031847C05F0000E05F00000A444FF021
:10019000000C10F8013B13F0070408BF10F8014BE6
:1001A0001D1108BF10F8015B641E05D010F8016B2B
:1001B000641E01F8016BF9D113F0080F1EBF10F88F
:1001C000014BAD1C0C1B09D16D1E58BF01F801CBB2
:1001D000FAD505E014F8016B01F8016B6D1EF9D535
:1001E0009142D6D37047000000230024002500264A
:1001F000103A28BF78C1FBD8520728BF30C148BF8A
:100200000B6070471FB51FBD10B510BD00F03DF964
:100210001146FFF7F7FF02F0CBFC00F05BF903B4E7
:10022000FFF7F2FF03BC00F063F90000224B1968EE
:100230000868B0E8F00F80F30988BFF36F8F4FF0C4
:10024000000080F311884EF00D0E70470000000092
:1002500006480068006880F3088862B661B6BFF39C
:100260004F8FBFF36F8F00DF00BF00BF08ED00E0CE
:10027000EFF30980BFF36F8F0F4B1A6820E9F00F7F
:10028000106008B54FF0A00080F31188BFF34F8FC6
:10029000BFF36F8F03F046FF4FF0000080F311882B
:1002A000BDE8084019680868B0E8F00F80F30988D5
:1002B000BFF36F8F704700BFA4020020EFF30580EB
:1002C000704700000948804709480047FEE7FEE7FD
:1002D000FEE7FEE7FEE7FEE7FEE7FEE7FEE7FEE7F6
:1002E00004480549054A064B70470000D91C000820
:1002F00051010008386A002038700020386C002056
:10030000386C0020032A40F2308010F0030C00F01B
:10031000158011F8013BBCF1020F624498BF11F83F
:1003200001CB00F8013B38BF11F8013BA2F10402F8
:1003300098BF00F801CB38BF00F8013B11F0030370
:1003400000F04A80083AC0F0088051F8043B083AAF
:1003500051F804CBA0E80810F5E7121D5CBF51F876
:10036000043B40F8043BAFF30080D20724BF11F8F0
:10037000013B11F801CB48BF11F8012B24BF00F855
:10038000013B00F801CB48BF00F8012B70474FF04C
:1003900000020429C0F0128010F0030C00F050801D
:1003A000CCF1040CBCF1020F18BF00F8012BA8BF60
:1003B00020F8022BA1EB0C0100F042B85FEAC17CEF
:1003C00024BF00F8012B00F8012B48BF00F8012BD7
:1003D000704770477047704710B5203AC0F00B80E7
:1003E000B1E81850203AA0E81850B1E81850A0E839
:1003F0001850BFF4F5AF5FEA027C24BFB1E8185093
:10040000A0E8185044BF18C918C0BDE810405FEA02
:10041000827C24BF51F8043B40F8043B08BF70477E
:10042000D20728BF31F8023B48BF11F8012B28BF83
:1004300020F8023B48BF00F8012B70474FF0000244
:1004400000B5134694469646203922BFA0E80C50CA
:10045000A0E80C50B1F12001BFF4F7AF090728BFA5
:10046000A0E80C5048BF0CC05DF804EB890028BF21
:1004700040F8042B08BF704748BF20F8022B11F04A
:10048000804F18BF00F8012B7047754600F02CF81C
:10049000AE4605006946534620F00700854618B071
:1004A00020B5FFF71DFFBDE820404FF000064FF0DC
:1004B00000074FF000084FF0000B21F00701AC4699
:1004C000ACE8C009ACE8C009ACE8C009ACE8C009B8
:1004D0008D46704710B50446AFF300802046BDE856
:1004E0001040FFF79CBE000000487047D86900200C
:1004F00001491820ABBEFEE726000200704721B17B
:10050000826842F00102826003E0826822F0010208
:1005100082607047014600208A6802F004020AB136
:10052000012000E0002070470146C86C80B270478F
:100530000246002013680B400BB1012000E00020B0
:100540007047014600208A6802F008020AB10120C3
:1005500000E000207047000030B502460020002374
:1005600050680F4C20400D790C6844EA0524204364
:10057000506090680B4C2040D1E902542C434D79D7
:1005800044EA450420439060D06A20F470000C7C5B
:10059000641EE4B2234340EA0350D06230BD000041
:1005A000FFFEF0FFFDF7F1FFF0B504460D46002019
:1005B0000021092D11DDE068A5F10A0606EB4607CA
:1005C000072606FA07F18843A5F10A0606EB460658
:1005D00003FA06F10843E0600CE0206905EB4507EB
:1005E000072606FA07F1884305EB450603FA06F1EC
:1005F00008432061072A0FDA606B561E06EB860758
:100600001F2606FA07F18843561E06EB860605FAF2
:1006100006F10843606322E00D2A0FDA206BD61F33
:1006200006EB86071F2606FA07F18843D61F06EB5E
:10063000860605FA06F10843206310E0E06AA2F19D
:100640000D0606EB86071F2606FA07F18843A2F17E
:100650000D0606EB860605FA06F10843E062F0BDDA
:10066000816841F008018160704721B1826842F4DD
:10067000A002826003E0826822F4A00282607047D8
:10068000816841F0040181607047002101600171BF
:1006900041718160C16001210174704700210C200B
:1006A0000F4A9268C24002F0010211430D200C4A29
:1006B0009268C24002F0010241EA42010E20084A5B
:1006C0009268C24002F0010241EA82010F20044A0E
:1006D0009268C24002F0010241EAC2010846704736
:1006E000000C014010B5002302220C210A4800F042
:1006F0000FFB002302220D21074800F009FB002315
:1007000002220E21044800F003FB002302220F21E5
:10071000014800F0FDFA10BD000C01402DE9F04742
:100720000446204600F090F8054605F0BDFA8146E3
:10073000484605F0EDF807460022054B04F036FD6B
:10074000054604F04DFC81464846BDE8F0870000B0
:10075000000024402DE9F0470020FFF7DFFF0446AA
:100760000120FFF7DBFF804600250021204605F031
:10077000C7FA04D30021404605F0C2FA01D20F4D5A
:1007800018E04146204605F027FC814605F0C0F8F8
:1007900021F00041064604F023FC0546284605F0FA
:1007A000B7F806460022064B04F092FF01D2034D33
:1007B00000E025462846BDE8F0870000000080BF25
:1007C0000000E03F0146012902DD4FF0FF30704795
:1007D000014830F83100FAE7F00400200146012911
:1007E00002DD4FF0FF307047024800EBC100808807
:1007F000F9E70000F00400200146012902DD4FF076
:10080000FF307047014830F81100FAE71C00002063
:100810000146012902DD4FF0FF307047024800EB2E
:10082000C1004088F9E70000F004002001460129DA
:1008300002DD4FF0FF307047024800EBC100C08876
:10084000F9E70000F00400200146012902DD4FF025
:10085000FF307047014830F81100FAE71800002017
:100860002DE9F05F0024FFF775FF8346002158460D
:1008700005F046FA02D24FF6FF7411E0584605F033
:1008800047F807460022084B04F024FE054604F012
:10089000A7FB824603F0A4F8814605F0C9F9044697
:1008A0002046BDE8F09F0000000024400EB501F096
:1008B00061FE00F039F900BF10214648FFF767FDDF
:1008C000002708224349C82000F07EF907462FB1CF
:1008D0004048008810B13F48808808B903F0BAF852
:1008E00004F0DAF8029000BF4FF4FA7102A803F0A6
:1008F0009DFA002414E00025002608E03649085D32
:1009000001F078FE0544012003F062FA761C142EF3
:10091000F4DB1420B5FBF0F0304921F81400641C1E
:10092000022CE8DB002452E02A4901EBC40189884B
:10093000284A32F83420881A05F0B6F98246002198
:10094000504605F041F901D1002539E0214901EB7C
:10095000C401C9881F4A02EBC4025288881A05F0F4
:10096000A3F983465146584605F06CF8814619496B
:1009700031F8340005F0B0F94946009005F0F4F97B
:100980008046144901EBC401488805F0A5F94146A9
:10099000019005F021FB0646104931F8140005F0DE
:1009A0009BF94946019005F0DFF98046314604F095
:1009B000DBFF05460021284605F0A2F900D20025FC
:1009C000284605F051F9064921F81400641C022C50
:1009D0008ADAA9E7F0040020086100081C00002062
:1009E0001800002073B50446012C01DD00207CBDF9
:1009F0000CB9C82000E0D0200646012201A93046EB
:100A000000F028F9054625B1BDF80400024921F897
:100A100034002846EBE70000F004002073B50446DC
:100A2000012C01DD00207CBD0CB9CC2000E0D420DD
:100A30000646012201A9304600F00CF905462DB109
:100A4000BDF80400024901EBC40188802846EAE7AA
:100A5000F004002073B50446012C01DD00207CBDAC
:100A60000CB9CA2000E0D2200646012201A9304676
:100A700000F0F0F805462DB1BDF80400024901EB85
:100A8000C40148802846EAE7F004002073B5044614
:100A9000012C01DD00207CBD0CB9CE2000E0D62069
:100AA0000646012201A9304600F0D4F805462DB1D2
:100AB000BDF80410024800EBC400C1802846EAE7F4
:100AC000F004002070B54AF2010580EA010444F404
:100AD0007F4440F0FF0604EA060000220BE000F02D
:100AE0000103044600EBD476C6F34F0013B14AF27B
:100AF00001046040521C082AF1D370BD00BFFFF70B
:100B0000CDFD044607480078844209D04FF4FA60CE
:100B100003F05EF9FFF7C2FDA04201D101490C705C
:100B2000EDE700000000002010B5012003F0C8FB35
:100B30000349086001F040FE01200249087010BD21
:100B400024000020200000202DE9F04180460F46BF
:100B500015461B48007808B9FFF7E6FF4FF0FF3154
:100B60001848006803F03AFE012826D101F022FF60
:100B7000404601F070FD06469EB101F01BFFA1202A
:100B800001F0CEFE064666B1002408E001F06CFEDE
:100B90003855681EA04201D001F0D6FD641CAC425D
:100BA000F4DB01F04DFF00231A46194605480068A2
:100BB00003F00EFC3046BDE8F0810020FBE70000AA
:100BC00020000020240000202DE9F04106460D46BB
:100BD00014462F464FF6FF7000EA4402394630466D
:100BE000FFF7B2FF80464046BDE8F0812DE9F041B5
:100BF00080460E4617461548007808B9FFF794FF5F
:100C00000024611E1248006803F0E8FD012819D194
:100C100001F0D0FE404601F01EFD0446002504E030
:100C2000705D01F07DFE04466D1CBD4201DA002CB2
:100C3000F6D101F005FF00231A4619460448006862
:100C400003F0C6FB2046BDE8F08100002000002034
:100C5000240000202DE9F04106460D4614462F469B
:100C60004FF6FF7000EA440239463046FFF7BEFFF8
:100C700080464046BDE8F08101461D48814204D1CE
:100C80001C488069C0F3800070471B48814204D132
:100C900018488069C0F3C000F6E71848814204D1C3
:100CA00014488069C0F30010EEE71548814204D172
:100CB00010488069C0F34010E6E71248814204D131
:100CC0000C488069C0F38010DEE70F48814204D1F0
:100CD00008488069C0F3C010D6E70C48814204D1AF
:100CE00004488069C0F30020CEE70020CCE7000074
:100CF0000008014000100240000C014000100140BB
:100D00000014014000180140001C01400020014077
:100D10002DE9F04105460C46174698460F2C02D99E
:100D20000020BDE8F0812846FFF7A6FF18B9012191
:100D3000284600F071F8B8F1000F10D1022F05D14C
:100D4000E8680121A1408843E86008E0032F06D14C
:100D500027F00107E8680121A1400843E860082C5A
:100D600001D22E4601E0083C2E1D3068A2000F2162
:100D700091408843306048EA8700A100884031688C
:100D8000084330600120CCE7F0B50A460023002478
:100D90000021002500F00046B6F1004F02D11D4EA3
:100DA000F16901E01B4E7168C0F3034583B200F4A2
:100DB0004016B6F5401F08D121F07061154E7668D7
:100DC00026F07066134F7E6012E000F48016B6F5D0
:100DD000801F06D1032606FA05F4A14341F0706195
:100DE00006E0460D360103FA06F6B14341F07061A4
:100DF00022B1460D360103FA06F6314300F00046F3
:100E0000B6F1004F02D1034EF16101E0014E716075
:100E1000F0BD000000000140002945D0454A904245
:100E200006D1454A926942F00402434B9A6180E040
:100E3000424A904206D1404A926942F008023E4B33
:100E40009A6176E03E4A904206D13B4A926942F06E
:100E50001002394B9A616CE03A4A904206D1364A08
:100E6000926942F02002344B9A6162E0364A904225
:100E700006D1314A926942F040022F4B9A6158E004
:100E8000324A904206D12C4A926942F080022A4BA3
:100E90009A614EE02E4A90424BD1274A926942F421
:100EA0008072254B9A6144E0224A904206D1224A40
:100EB000926922F00402204B9A613AE01F4A904264
:100EC00006D11D4A926922F008021B4B9A6130E05C
:100ED0001B4A904206D1184A926922F01002164B22
:100EE0009A6126E0174A904206D1134A926922F08D
:100EF0002002114B9A611CE0134A904206D10E4A1F
:100F0000926922F040020C4B9A6112E00F4A904223
:100F100006D1094A926922F08002074B9A6108E0E3
:100F20000B4A904205D1044A926922F48072024B26
:100F30009A6170470008014000100240000C014017
:100F4000001001400014014000180140001C014045
:100F50000020014001480078704700000000002098
:100F600010B500F047FAFFF7BDFB002001490870FB
:100F700010BD0000000000200B20064A9268C2400D
:100F800002F001020AB9012000E0002001460846F3
:100F900070470000000C014000F0010149B1002140
:100FA00005E000220A4B03EB81039A70491C0229D9
:100FB000F7DB00F0020149B1022105E00022044BF9
:100FC00003EB81039A70491C0429F7DB704700008A
:100FD0000005002000F0010149B1002105E00122D7
:100FE0000A4B03EB81039A70491C0229F7DB00F0DE
:100FF000020149B1022105E00122044B03EB810308
:101000009A70491C0429F7DB704700000005002096
:1010100010B5002003E00021044A5170401C042850
:10102000F9DB002000F022F910BD000000050020CF
:101030002DE9F04F87B0064689469246B9F1010F77
:1010400001D1002000E0022004460021304604F0D7
:1010500057FE15D200208DF81A0001208DF81900D6
:1010600000208DF81B000A208DF81800E0B206A9B8
:1010700000F054F8611CC8B206A900F04FF842E035
:10108000304604F045FC0746204A214B04F020FB83
:1010900000D2204E304604F0CBFD0546284604F031
:1010A00003FE3146009004F08DFF019004F030FC07
:1010B00007460022184B04F00DFACDE9020103F0B7
:1010C0008FFF049002F08CFC059004F0B1FD834684
:1010D0008DF81AA001208DF819008DF81B00E8B2D8
:1010E0008DF81800E0B206A900F018F800208DF87D
:1010F0001B000BF0FF008DF81800611CC8B206A998
:1011000000F00CF800BF07B0BDE8F08FCDCCCCCC20
:10111000CCCC234066661E4100002440042805DA3A
:1011200021B1034A02EB80020B6813607047000094
:101130000005002038B5FFF76BFF4FF4FA7002F09E
:1011400047FE01208DF8030000208DF802000120E9
:101150008DF801000A208DF8000000208DF80300B2
:10116000002404E0E0B26946FFF7D8FF641C042CB9
:10117000F8DB012000F07AF84FF4FA7002F028FE54
:10118000092415E0E0B28DF8000001208DF803007D
:10119000002504E0E8B26946FFF7C0FF6D1C042D8E
:1011A000F8DB012000F062F8FA2002F011FE641E64
:1011B000002CE7DA0A208DF8000000208DF80300EB
:1011C000002404E0E0B26946FFF7A8FF641C042C89
:1011D000F8DB012000F04AF84FF4FA7002F0F8FD55
:1011E00038BD000010B5022301220D211E48FFF773
:1011F0008FFD022301220E211B48FFF789FD0223E8
:1012000001220F211848FFF783FD0D20002121B195
:1012100001228240144B1A6105E000F11002012303
:101220009340114A136100BF0E20002121B1012219
:1012300082400D4B1A6105E000F11002012393403A
:10124000094A136100BF0F20002121B10122824011
:10125000054B1A6105E000F1100201239340024A98
:10126000136100BF10BD0000001001402DE9F041E6
:10127000054602F09DFC4248407B18B14048807B07
:1012800010B10DB9002408E03D48007B3D490C5CDD
:101290003B48C07B08B144F0800426063848407AB9
:1012A00018B13748807A10B10DB9002408E03448ED
:1012B000007A34490C5C3248C07A08B144F08004AA
:1012C00046EA04462E48407918B12D48807910B17D
:1012D0000DB9002408E02A4800792A490C5C284806
:1012E000C07908B144F0800446EA042624484078D6
:1012F00018B12348807810B10DB9002408E02048C7
:10130000007820490C5C1E48C07808B144F0800485
:1013100026431F271AE00F200122BA4032400AB1AB
:10132000012200E00022114601F0010222B1012257
:101330008240154B1A6105E000F110020123934031
:10134000114A136100BF01F0DBFB7F1E002FE2DAC0
:101350000F20002121B1012282400B4B1A6105E0D0
:1013600000F1100201239340074A136100BF64207B
:1013700001F06CF901F0F0FB02F044FCBDE8F081F3
:10138000000500203E0200200010014030B5082872
:1013900000DB30BD094C54F8301004EBC004A288C7
:1013A00001231BB1012494400C6104E002F11004FC
:1013B0000125A5400D6100BF00BFEAE7C460000839
:1013C00030B5082800DB30BD094C54F8301004EB70
:1013D000C004A28800231BB1012494400C6104E0E6
:1013E00002F110040125A5400D6100BF00BFEAE72E
:1013F000C460000870B500241DE0104A02EBC4026E
:1014000091880E4A52F8340002230122FFF780FC33
:101410000A4B53F8340003EBC403998801221AB134
:1014200001238B40036104E001F1100301259D407D
:10143000056100BF641C082CDFDB70BDC4600008C0
:1014400002F03EFB02F030FB00F0A0FB02F020FBBC
:1014500000BF012002F0BCFC0B4800780028F8D047
:101460000020FFF7ADFF094800F042F804460020D5
:101470000549087014B1204600F0D0F802F008FBCE
:101480000020FFF783FFE4E713000020F0020020B4
:1014900010B502F009FB01200149087010BD0000E1
:1014A0001300002010B504460E480078C8B900218A
:1014B0000D4800F054FC00210B4800F065FC0121B0
:1014C000094800F04CFC09480078FA2801DB02F0DA
:1014D00081FA064801780078401C044A1070501CBC
:1014E000445410BD1300002000080040F00200200A
:1014F00070B505460DB9002070BD284601F0ECFA24
:1015000008B90020F8E76C1CFFF724FD2178884219
:1015100001D00020F0E700266078032802D01028D0
:1015200010D107E02878001FC1B2A01C00F0E2F83B
:1015300006460DE02878001FC1B2A01C00F098FFFD
:10154000064605E06078012101F0AAFB064600BFCF
:1015500000BF0EB10148CFE70020CDE7EB0300202C
:1015600029B1064AD2690243044BDA6104E0034A16
:10157000D2698243014BDA617047000000100240DB
:1015800029B1064A92690243044B9A6104E0034A76
:1015900092698243014B9A6170470000001002403B
:1015A0002DE9F04107460D4615B90020BDE8F08150
:1015B000384601F0A9F804465CB1606848B160881B
:1015C000616888470646002E02DB2E800120EDE789
:1015D00000BF0020EAE72DE9F04105460E46284607
:1015E00001F092F8044654B1A06838B16088A2684E
:1015F0003146904707463846BDE8F08100BF0020DD
:10160000FAE730B50546284601F07EF804461CB1DD
:10161000A06808B1012030BD0020FCE710B50446E9
:1016200004B910BD01F088FF00200B4908600AE0F2
:10163000611C094A1268885C02F068F80648006874
:10164000401C054908602078034909688842EFDC9E
:1016500001F05CFF00BFE4E7140000202DE9F8432F
:101660008046022269466420FFF76EFA18B94FF0EF
:10167000FF30BDE8F883BDF8000004F02DFB044600
:10168000154904F03DFB08D3BDF8000004F024FB2D
:101690000446124904F034FC06D232200090BDF812
:1016A0000010002000F0A6FEBDF8000004F014FBBE
:1016B0000B4908600846006804F02AF90646002233
:1016C000084B03F073FD044603F08AFC04490860EC
:1016D000BDF80000CDE700000000A0410000C842B6
:1016E0000C000020000024400146014800787047AB
:1016F000010000202DE9F043B3B00546894615B13D
:10170000B9F1040F03D0002033B0BDE8F0832C46BC
:101710006088000AA17840EA012060802088000AE1
:10172000217840EA012020806088642805DD0321BB
:10173000084601F0B5FA0120E6E70DF101070026A1
:10174000B4F800801AE007EB46014046FFF728FF97
:1017500028B90221032001F0A3FA0120D4E737F8C9
:101760001600000A17F8161040EA012027F81600A4
:1017700008F101001FFA80F8701CC6B22088618849
:1017800008444045DFDCA0784006000E8DF80000DC
:10179000FFF7E0FB8046A078012101EB4000C3B2D7
:1017A0006A460321404601F0A3FA0120ACE700009D
:1017B0002DE9FC4701215E48FFF7E6FA00241DE011
:1017C0005C4A02EBC40291885A4A52F83400022360
:1017D0000022FFF79DFA574B53F8340003EBC40384
:1017E000998801221AB101238B40036104E001F1C1
:1017F000100301269E40066100BF641C022CDFDB43
:101800000025032269466620FFF7DEF908B90125A5
:1018100006E0BDF8000010B1BDF8020000B90125D6
:101820007DB34FF080404449086044484449086013
:101830004449086044494048006804F095FA044669
:1018400004F012FA80B2ADF800003F493C4800684D
:1018500004F08AFA044604F007FA80B2ADF80200F8
:1018600039493848006804F07FFA044604F0FCF96E
:1018700080B2ADF80400032269466620FFF7EAF95A
:1018800033E0FFE7BDF8000004F026FA044604F058
:101890003FF8804600222D4B03F088FC064603F0FB
:1018A0009FFB25490860BDF8020004F015FA0446C4
:1018B00004F02EF880460022244B03F077FC064605
:1018C00003F08EFB1E490860BDF8040004F004FA22
:1018D000044604F01DF8804600221C4B03F066FC11
:1018E000064603F07DFB17490860012218496C2069
:1018F000FFF76AF910B11648008830B90F20144973
:10190000088001226C20FFF7A5F9012211496E2001
:10191000FFF75AF910B10F48008830B95A200D4925
:10192000088001226E20FFF795F9BDE8FC870000D2
:10193000000230002861000854020020CDCC4C3E4B
:101940004C0200205002002000007A4400408F40EA
:10195000580200205A02002070B504464FF0FF35AF
:1019600024B1012C0CD0022C1ED113E011491248D5
:10197000006804F0F9F9064604F05AF9054616E045
:101980000C490E48006804F0EFF9064604F050F9DF
:1019900005460CE007490A48006804F0E5F90646E8
:1019A00004F046F9054602E04FF0FF3500BF00BFE6
:1019B000284670BD00007A44540200204C020020EA
:1019C000500200200146014A10887047580200204A
:1019D0000146014A108870475A02002010B50F4B8B
:1019E0001868998801221AB101238B40036104E031
:1019F00001F1100301249C40046100BF074B98686B
:101A0000998901221AB101238B40036104E001F19D
:101A1000100301249C40046100BF10BD2861000830
:101A200030B5012800DD30BD094C54F8301004EB0E
:101A3000C004A28801231BB1012494400C6104E07E
:101A400002F110040125A5400D6100BF00BFEAE7C7
:101A50002861000830B5012800DD30BD094C54F87C
:101A6000301004EBC004A28800231BB10124944071
:101A70000C6104E002F110040125A5400D6100BFD6
:101A800000BFEAE7286100082DE9F35F0446022C55
:101A900002DD0020BDE8FC9F662000EB44001FFA39
:101AA00080FA022201A95046FFF7A0F88146B9F159
:101AB000000F3DD024B1012C14D0022C36D123E0EC
:101AC000BDF8040004F008F9834603F021FF07463F
:101AD0000022184B03F06AFB054603F081FA164911
:101AE000086024E0BDF8040004F0F6F8834603F033
:101AF0000FFF074600220F4B03F058FB054603F08B
:101B00006FFA0E49086012E0BDF8040004F0E4F832
:101B1000834603F0FDFE05460022064B03F046FB1C
:101B2000074603F05DFA0649086000E000BF00BF09
:101B30004846AFE700408F40540200204C0200208E
:101B40005002002073B50546012201A96C20FFF761
:101B500081F804461CB1BDF8040002490880204603
:101B60007CBD00005802002073B50546012201A982
:101B70006E20FFF76FF804461CB1BDF8040002495F
:101B8000088020467CBD00005A02002010B50223C8
:101B9000002208212F48FFF7BBF80820002121B1BF
:101BA000012282402B4B1A6105E000F11002012353
:101BB0009340284A136100BF2748806940F4804061
:101BC0002549886140F2413024490880081D008879
:101BD00042F22C0108432149091D08801E488069F2
:101BE00040F005001C4988611A48001D006820F07B
:101BF000C0001849091D08600846006840F08000D0
:101C000008600846006840F0100008600846006858
:101C100020F4406008600846006840F48060086076
:101C20000846006820F440700860252000280DDB7D
:101C300000BF00BF00F01F02012191404209920045
:101C400002F1E022C2F8001100BF00BF00BF62B67F
:101C500010BD00000008014000100240083801409B
:101C6000704700002DE9F0470446204603F050FE7F
:101C7000074600220A4B03F02DFC054603F0B0F99D
:101C80000446204601F0ACFE054603F0EDFF1FFAC6
:101C900080F94946002000F0ADFBBDE8F087000068
:101CA0000000244010B500BFA02080F31188BFF3CE
:101CB0004F8FBFF36F8F00BF02F0F4FE18B14FF0EB
:101CC00080500449086000BF002080F3118800BFE5
:101CD00010BD000004ED00E010B51648006840F0AB
:101CE000010014490860084640681349084011493A
:101CF000486008460068114908400E4908600846D7
:101D0000006820F4802008600846406820F4FE0047
:101D100048600846006820F0A05008604FF47F003B
:101D200088600020C862FFF79BFF4FF00060044905
:101D3000086010BD001002400000FFF0FFFFF6FE3B
:101D400008ED00E010B50121024800F005F8FFF7AA
:101D50009FFB10BD00080040CA430282704721B1BA
:101D6000028842F00102028004E002884FF6FE730E
:101D70001A40028070471AB183890B43838102E0C5
:101D800083898B4383817047818470470022028856
:101D90001D4B98420ED01D4B98420BD0B0F1804F96
:101DA00008D01B4B984205D01A4B984202D01A4BD0
:101DB000984204D14FF68F731A404B881A43174B41
:101DC000984207D0164B984204D04FF6FF431A4072
:101DD000CB881A4302808B8883850B8803850A4B46
:101DE00098420BD0094B984208D00E4B984205D030
:101DF0000D4B984202D00D4B984201D10B7A0386CD
:101E00000123838270470000002C01400034014010
:101E10000004004000080040000C0040001000409A
:101E200000140040004001400044014000480140CF
:101E30004FF6FF71818000210180C18041800172D5
:101E40007047000008B500BF00BF00BF4FF000089A
:101E5000C14600250026AB460020009082460023A4
:101E6000032204213148FEF753FF002303220521FA
:101E70002E48FEF74DFF00BF00F06EFB074600F056
:101E80005DFB044697B9B8F1000F0DD0BBF1000F10
:101E900006D1B5F5FA7F05DA01202549087001E081
:101EA0004FF0000A4FF0000B002512E0B8F1000FD0
:101EB0000FD01935B5F5FA6F0BDDB6F5FA6F08DD01
:101EC000BAF1000F05D101201A490870834600902D
:101ED00082468CB9B9F1000F0CD0009830B9B6F534
:101EE000FA7F05DA01201449087001E04FF0000A7A
:101EF00000200090002612E0B9F1000F0FD0193633
:101F0000B5F5FA6F0BDDB6F5FA6F08DDBAF1000F23
:101F100005D1012007490870834600908246A146FA
:101F2000B846192001F054FFA6E700000010014058
:101F30001000002012000020110000200124FFF7F3
:101F400051F9FFF7F7F800BF2046FFF78FF984F04B
:101F500001044FF4FA7001F03BFFF5E708B5FFF715
:101F600027FC00BF0024002502F096FD009000BF72
:101F70004FF4FA71684601F059FF0020FFF7B4FBF7
:101F8000012800D0F4E7FEF7F7FF18B1002032492E
:101F900008700DE004F5FA743048008800EB400149
:101FA000C1EBC010B4EBC00F02DD01202A4908705C
:101FB000FEF7D0FB2A49086000212948006803F099
:101FC0009FFE02D20120274908702348007828B1DB
:101FD000002201212448FFF72BF806E0214802786F
:101FE00001211F480068FFF723F8002202211F4843
:101FF0000068FFF71DF81848007848BB19480078BA
:1020000030BB1B48007818BB4FF07C5001F06AFCD5
:10201000164801681248006803F0DEFF804603F0AE
:1020200077FC21F0004106460022124B03F050FBE2
:102030000FD205F5FA751048008800EB4001C1EB9E
:10204000C010B5EBC00F05DD002501200849087060
:1020500000E000258CE7000002000020580200206C
:102060000800002005000020000080BF0C000020B8
:10207000040000200000E03F5A0200200020FFF78B
:10208000EDFA0120BF49087000240CE00020FFF7A2
:1020900097F9642001F09CFE0020FFF777F9642097
:1020A00001F096FE641C142CF0DB4FF4FA6001F092
:1020B0008FFE00BF322001F08BFEB348007840B99C
:1020C000B248007828B9B248007810B9B148007811
:1020D00008B1012000E000200446AB48007818B1A8
:1020E0000420FFF76DF902E00420FFF74FF9A7483D
:1020F000007818B10320FFF763F902E00320FFF72F
:1021000045F9A348007818B10520FFF759F902E016
:102110000520FFF73BF99F48007818B10220FFF730
:102120004FF902E00220FFF731F9964800780128C4
:1021300004D0022876D0032873D1C5E00620FFF72B
:1021400025F90720FFF722F94CB10120FFF71EF90E
:102150000120FEF73FFF0220FEF71EFF08E00120EE
:10216000FFF72EF90120FEF717FF0220FEF714FFFC
:102170008948007850B10020874908708749087065
:102180008749087002207F49087048E0834800783A
:1021900008B30020814908708248006803F0B8FB4A
:1021A0000746814A814B02F04DFF05460022804BD5
:1021B00003F054F933D27B48006803F0A9FB0746CB
:1021C000794A7A4B02F03EFF054602F009FF83464A
:1021D000FFF748FD23E07248007800B30020704903
:1021E00008707048006803F093FB07466E4A6F4B17
:1021F00003F0A4FA05460022134603F069FA0ED252
:102200006848006803F084FB0746674A674B03F0A1
:1022100095FA054602F0E4FE8346FFF723FDAFE0A2
:1022200000E0A9E00120FFF7B1F80620FFF7C8F8A9
:102230000720FFF7ABF80020FEF770FA8146012077
:10224000FEF76CFA8246002201214846FEF7F0FEB6
:10225000002202215046FEF7EBFE4F48007820B3E3
:1022600000204D4908704D4908704D490870032001
:10227000FEF7B0FE40F2DC5001F0AAFD0320FEF7AD
:102280008BFE0020FEF7B8FA85B229460020FEF743
:10229000A9FB0120FEF7B0FA85B229460120FEF71E
:1022A000A1FB0320374908700DE03C48007810B9C5
:1022B0003B48007838B10020384908703849087028
:1022C0000120304908705BE00120FFF75FF807202C
:1022D000FFF776F80620FFF759F80020FEF71EFA00
:1022E00081460120FEF71AFA824600220121484663
:1022F000FEF79EFE002202215046FEF799FE264878
:10230000007850B3002024490870244908702449FB
:10231000087021490870214908702149087003207C
:10232000FEF758FE40F2DC5001F052FD0320FEF7AC
:1023300033FE0020FEF760FA85B229460020FEF742
:102340006DFB0120FEF758FA85B229460120FEF701
:1023500065FB01200B4908700DE01048007810B9AA
:102360000F48007838B100200C4908700C490870FB
:1023700001200449087003E001200249087000BFF1
:1023800000BF97E6010000200300002005000020A8
:102390000400002002000020120000201000002095
:1023A000110000200C0000209A9999999999B93F41
:1023B0000000244010B50B48008840F22551084029
:1023C00078B10848008800F0070038B9054800F0E7
:1023D0000BF80446E0B2FFF765F802E0014800F0B0
:1023E00003F810BD0038014001468888C0F308009A
:1023F000704700002DE9F3418046BDF8040003F06A
:102400006BFC0446164903F07BFC08D3BDF80400BE
:1024100003F062FC0446134903F072FD02D200206F
:10242000BDE8FC81022201A96420FEF7DFFBA8B110
:10243000BDF8040003F050FC0B4908600846006832
:1024400003F066FA06460022084B02F0AFFE04468F
:1024500002F0C6FD044908600120E1E70020DFE743
:102460000000A0410000C8420C00002000002440F1
:102470002DE9F8430546884615B1B8F1070F02D299
:102480000020BDE8F8832C466088000AA17840EA65
:10249000012060802088000A217840EA0120208005
:1024A0006188642906DC207900EBD07149106288CC
:1024B000914205D00321102000F0F2FB0120E0E75B
:1024C00000260CE02188314488B2FFF79AF828B939
:1024D0000321102000F0E4FB0120D2E7761C608885
:1024E000B042EFDC671D00260CE037F81620120A18
:1024F00017F8163042EA03212288324490B2FFF7DF
:102500006AF8761C6088B042EFDC2088000A2178E7
:1025100040EA0120ADF800006088000AA17840EA96
:102520000120ADF80200FEF715FD064604236A46B9
:10253000102100F0DDFB0120A3E700000520054984
:102540008968C14001F0010109B9012070470020EC
:10255000FCE7000000100140042005498968C140E3
:1025600001F0010109B9012070470020FCE70000DB
:102570000010014000B585B001214802FFF700F8C6
:102580006846FEF782F8002000908DF804008DF870
:1025900005004FF4602002900020039001208DF888
:1025A000100069461148FDF7D7FF01210F48FDF7DC
:1025B000A6FF0523012200210C48FDF7F5FF0B487B
:1025C000FEF74EF800BF0948FDF7BBFF0028FAD11F
:1025D0000648FEF755F800BF0448FDF79BFF0028AA
:1025E000FAD103490880488005B000BD00240140AD
:1025F0001800002010B50446052301222146094891
:10260000FDF7D2FF01210748FEF72FF800BF022196
:102610000448FDF78DFF0028F9D00248FDF784FF3C
:1026200010BD000000240140F0B505460E464FF6EF
:10263000FF77002406E0295DB8B2FEF743FA0746AB
:10264000601CC4B2B442F6DBB8B2F0BD00E0401E7C
:102650000028FCDA704731B5A02000F061F904468B
:1026600054B16D46687800F05BF904461CB12878D7
:1026700000F056F9044600BF204638BD2DE9F05F52
:1026800006460F4615464FF000083946304603F01F
:102690006BFB824617480168504603F065F9044613
:1026A0001448046014480168204603F05DFB0446AA
:1026B00029461248006803F08FFC8346394603F030
:1026C000C1F982460E480168504603F04DFB814631
:1026D0002146304603F048F98346494603F044F961
:1026E000824608480168504603F03EFB804640465B
:1026F000BDE8F09F5C0200204C0200200800002092
:102700005002002054020020F0B5014600254FF48D
:10271000FC720C2392FBF3F084B200200CE000EB7F
:102720004006084F37F826608E4204D100EB400681
:1027300007EB860502E0401CA042F0DB00BF284604
:10274000F0BD00004600002010B502230122072141
:102750001848FEF7DDFA0720002121B1012282404E
:10276000144B1A6105E000F1100201239340114A55
:10277000136100BF0620012121B1012282400D4BCF
:102780001A6105E000F1100201239340094A136128
:1027900000BF0620002121B101228240054B1A61B1
:1027A00005E000F1100201239340024A136100BFCB
:1027B00010BD0000000C014010B5022301220621CB
:1027C0001348FEF7A5FA0023012207211048FEF75F
:1027D0009FFA0620012121B1012282400C4B1A618F
:1027E00005E000F1100201239340094A136100BF84
:1027F0000720012121B101228240054B1A6105E029
:1028000000F1100201239340014A136100BF10BD83
:10281000000C014010B50621012222B101238B409A
:10282000104C236105E001F1100301249C400D4B85
:102830001C6100BF07210B4A9268CA4002F00100E8
:1028400000BF0621002222B101238B40054C2361E9
:1028500005E001F1100301249C40024B1C6100BF04
:1028600010BD0000000C014070B5002600230122BD
:1028700007210848FEF74CFA072507E0FFF7CAFFD3
:10288000044604FA05F03043C6B26D1E002DF5DA99
:10289000304670BD000C014010B502467AB90720E1
:1028A000002121B1012383401C4C236105E000F18C
:1028B000100301249C40194B1C6100BF0FE007204E
:1028C000012121B101238340144C236105E000F173
:1028D000100301249C40114B1C6100BF00BF062067
:1028E000012121B1012383400C4C236105E000F15B
:1028F000100301249C40094B1C6100BF06200021ED
:1029000021B101238340054C236105E000F1100350
:1029100001249C40014B1C6100BF10BD000C014014
:1029200070B5054600260223012207212048FEF744
:10293000EFF907240BE00121A1402940002901DD26
:10294000012100E000210846FFF7A6FF641E002CCD
:10295000F1DA0023012207211548FEF7D9F90620F4
:10296000012121B101228240114B1A6105E000F1E1
:102970001002012393400E4A136100BF07200C4947
:102980008968C14001F0010101B90126062000213A
:1029900021B101228240064B1A6105E000F11002CC
:1029A00001239340024A136100BF304670BD00000E
:1029B000000C014010B50223012207211F48FEF739
:1029C000A7F90720012121B1012282401B4B1A6186
:1029D00005E000F1100201239340184A136100BF83
:1029E0000620012121B101228240144B1A6105E029
:1029F00000F1100201239340104A136100BF072029
:102A0000002121B1012282400C4B1A6105E000F146
:102A1000100201239340094A136100BF06200021E0
:102A200021B101228240054B1A6105E000F110023C
:102A300001239340014A136100BF10BD000C014007
:102A400010B50720002121B101228240214B1A61DB
:102A500005E000F11002012393401E4A136100BFFC
:102A60000620002121B1012282401A4B1A6105E0A3
:102A700000F1100201239340164A136100BF0223A4
:102A8000012207211348FEF743F90620012121B155
:102A9000012282400F4B1A6105E000F11002012370
:102AA00093400C4A136100BF0720012121B101228C
:102AB0008240084B1A6105E000F1100201239340A7
:102AC000044A136100BF0023012207210148FEF7D9
:102AD0001FF910BD000C014070B504462078801E1F
:102AE000611C0D5A2078801EC1B2601CFFF79CFD4E
:102AF0000646B54201D1012070BD0020FCE7000070
:102B000000B50520FFF7A2FD0D20012121B1012212
:102B10008240104B1A6105E000F11002012393403E
:102B20000C4A136100BF0520FFF790FD0D20002126
:102B300021B101228240074B1A6105E000F1100229
:102B400001239340034A136100BF0520FFF77EFD78
:102B500000BD00000010014000B50520FFF776FD24
:102B60000E20012121B101228240104B1A6105E0A3
:102B700000F11002012393400C4A136100BF0520AD
:102B8000FFF764FD0E20002121B101228240074B96
:102B90001A6105E000F1100201239340034A13611A
:102BA00000BF0520FFF752FD00BD000000100140EE
:102BB0001CB5FEF7D5F90020012103468022CDE99E
:102BC000001022A1234801F027FF00200121034625
:102BD0008022CDE9001020A1214801F01DFF002036
:102BE00002210346CA02CDE900101EA11F4801F0D0
:102BF00013FF0020012103468022CDE900101CA113
:102C00001D4801F009FF0020012103468022CDE983
:102C100000101AA11C4801F0FFFE0020012103460C
:102C20008022CDE9001019A1194801F0F5FE00201D
:102C3000012103468022CDE9001016A1174801F0BA
:102C4000EBFE01F01DFA00201CBD0000414444527F
:102C500045535300FD0A0008414E414C4F470000C8
:102C6000AD0800084D6F64627573000041140008E0
:102C70004C656473446967003D1F000852656775C1
:102C80006C61746F720000005D1F000842544E00BA
:102C9000451E0008574F524B000000007D200008E1
:102CA0007CB504460D46FEF755F98DF8000004F09A
:102CB0003F0040F080008DF801008DF802500321A4
:102CC0006846FFF7B1FCADF80300FB210748FDF7AC
:102CD0005EFB06480099C0F801109DF80410417190
:102CE00005200249087001207CBD0000EB03002094
:102CF0002DE9F0478046894616461C46002C02DD29
:102D00000EB9BDE8F087F52C00D9FAE7FB2115488C
:102D1000FDF73DFB134D6D1C85F8008085F8019093
:102D20005CB14FF0000A06E022463146A81CFDF7D0
:102D3000E9FA0AF1010AA245F6DBA01C094908706C
:102D400008460178401CFFF76FFC074605490A78E2
:102D5000491C8F52481E0078801C491E087000BF15
:102D6000CFE70000EB0300202DE9F04105460F46B8
:102D70001748066817480068001D00F0CFFE50B9DC
:102D80001448006890F82C10012088401249096806
:102D900081431148016074190E4800684460B442D0
:102DA00007D20C480168091D0C48006800F0DAFEE3
:102DB0000CE008480168091D0948006800F0D2FECF
:102DC00008480068844201D206480460BDE8F081EA
:102DD000B4020020A4020020B8020020AC020020AF
:102DE000A8020020D002002010B5044600F0E0FE4A
:102DF00023480068401C224908602248006840B906
:102E0000204804600846006801280DD100F0AEF9A2
:102E10000AE01D48006838B91A480068C06AE16ACB
:102E2000884201D81748046018480068401C1749B8
:102E3000086094F82C10012088401549096808435F
:102E400013490860E16A01EB8101124A02EB81003B
:102E5000211D00F0A1FE00F0D5FE0B48006868B10E
:102E600008480068C06AE16A884207D24FF0805083
:102E700009490860BFF34F8FBFF36F8F10BD00008B
:102E8000B0020020A4020020BC020020CC020020DE
:102E9000B80200201069002004ED00E010B500F039
:102EA00087FE0C48006890B90B4800F04BFE0B48B9
:102EB00000F048FE08480A490860084809490860C7
:102EC00000220C210A2001F00CFA0249086000F0EF
:102ED00099FE10BDE4020020B0690020C469002002
:102EE000DC020020E0020020704770B504460D4669
:102EF000206C70B1216CE0680144E160D4E90210FB
:102F0000884201D32168E1602846226CE168FDF720
:102F1000F9F970BD2DE9F04104460F4615464FF012
:102F20000008A66B206C48B9206800282CD1A06846
:102F300001F05CFE80460020A06025E07DB93946A6
:102F4000226C6068FDF7DEF9216C606808446060FF
:102F5000D4E90101884217D32068606014E0394643
:102F6000226CE068FDF7CEF9216CE068411AE1605F
:102F70002168E068884203D2216CA068411AE160B0
:102F8000022D01D106B1761E701CA0634046BDE83B
:102F9000F08101464A6A22B10A6B1268C2F105004B
:102FA00000E00020704700000146084A12681268DD
:102FB0000AB9012200E000220A600A6822B9034A25
:102FC0001268D268106800E000207047DC02002020
:102FD00030B54FF4C843174800F007042CB1C01DAA
:102FE00020F00700134C041B1B1B0246124C2260EE
:102FF0000024114D6C60D018083820F007000F4CE9
:10300000206000240D4D2D686C600C4D2D682C60E7
:103010001146441A4C60094C24680C60084D4C68F9
:103020002C60084D4C682C604FF00044064D2C601D
:1030300030BD000010050020780200208002002032
:1030400088020020840200209402002000BFFFF7C5
:103050004BFF064800680128F9D94FF08050044919
:103060000860BFF34F8FBFF36F8FF0E71069002048
:1030700004ED00E010B5044654B10020A0602060CB
:103080000021E16000231A461946204601F0A0F90C
:1030900010BD2DE9F04106460D4617469846069CA0
:1030A0000DB9246000E02760E66325640121204615
:1030B00001F042F9BDE8F0812DE9FF5F81460E463F
:1030C0009246DDE90E7B109CAAF10100216B01EB19
:1030D000800828F0070808F0070008B9012000E080
:1030E000002050B900BFA02080F31188BFF34F8F9C
:1030F000BFF36F8F00BF00BFFEE786B1002507E07A
:10310000715D04F134004155705D00B902E06D1C41
:103110000A2DF5D300BF00213D20015502E000201B
:1031200084F83400052F00D30427E76227640020C9
:103130006064201D00F013FD04F1180000F00FFD85
:103140002461C7F10500A06164620020A06484F8D6
:103150004C0049464046039A00F0A2FB2060BBF1B8
:10316000000F01D0CBF80040BDE8FF9F10B5002450
:1031700007E004EB84010C4A02EB810000F0E2FC62
:10318000641C052CF5D3094800F0DCFC084800F06D
:10319000D9FC084800F0D6FC0448074908600448F8
:1031A0000649086010BD0000106900207469002005
:1031B000886900209C690020A8020020AC02002041
:1031C00010B50146164800E0006803688B42FBD347
:1031D0000246436813448B4204D143684C6823443D
:1031E000436001460A464B6813440468A34211D168
:1031F0000C4C03682468A34208D04B6804686468D8
:1032000023444B6003681B680B6005E0054B1B689B
:103210000B6001E003680B60884200D0016010BDC4
:1032200078020020800200202DE9F04104460D467E
:1032300016461F464FF0000865602461B5420CD861
:10324000F01BA169884202D34FF0010811E0211D53
:103250000948006800F086FC0BE0BE4204D2BD4283
:1032600002D34FF0010804E0211D0448006800F07B
:1032700079FC4046BDE8F081E0020020DC0200203D
:1032800070B5054600F094FCA86B08B9012400E075
:10329000002400F0B7FC204670BD70B5054600F074
:1032A00087FCA86BE96B884201D1012400E000246F
:1032B00000F0A8FC204670BDF8B505460F461A4838
:1032C0000068C068C468201D00F028FC94F8240041
:1032D00000F00400E8B1A06941192B463A462046A7
:1032E000FFF7A2FFD8B1002003462A46014600900E
:1032F000204601F033FE064656B900BFA02080F3F9
:103300001188BFF34F8FBFF36F8F00BF00BFFEE781
:1033100005E094F8240020F0010084F82400204601
:10332000216A8847F8BD0000DC02002070B586B035
:103330008BE003980028FBDB059C606908B901203D
:1033400000E0002010B9201D00F0E8FB02A800F00A
:1033500009F9054603980A2875D2DFE800F0090547
:103360000739416306083A4200BF00BF00BF00BFF3
:1033700094F8240040F0010084F824000498A26925
:10338000811803462A462046FFF74EFFF8B1204633
:10339000216A884794F8240000F00400B8B10020A6
:1033A00000900498A169421800231946204601F0B4
:1033B000D5FD064656B900BFA02080F31188BFF3A3
:1033C0004F8FBFF36F8F00BF00BFFEE700BF3BE032
:1033D00000BF94F8240020F0010084F8240033E0BA
:1033E00000BF94F8240040F0010084F82400049801
:1033F000A061A06908B1012000E0002050B900BF21
:10340000A02080F31188BFF34F8FBFF36F8F00BFF1
:1034100000BFFEE7A06941192B462A462046FFF768
:1034200003FF11E094F8240000F0020018B92046D0
:1034300000F006FC05E094F8240020F0010084F878
:10344000240001E0FFE700BF00BF002203A90448F9
:10345000006801F00FF900287FF46BAF06B070BD73
:10346000E4020020F8B505460C4600F053FE68461D
:1034700000F078F80646009820BB44B9B54206D85B
:1034800001F0C0FC31462846FFF716FF1CE03CB1B6
:103490000E480068006808B9012000E000200446DA
:1034A000A91B22460A48006800F06CFC01F0AAFC47
:1034B00050B94FF0805007490860BFF34F8FBFF3FA
:1034C0006F8F01E001F09EFCF8BD0000E0020020DB
:1034D000E402002004ED00E00A490968096809B91E
:1034E000012100E0002121B14FF0FF31064A1160B7
:1034F00006E004490968C968C868034A4168116060
:1035000070470000A8020020D002002010B5022061
:1035100000F05EFC0820002121B101228240054B11
:103520001A6105E000F1100201239340014A136182
:1035300000BF10BD0008014010B50820012121B1D5
:1035400001228240064B1A6105E000F110020123BE
:103550009340034A136100BF012000F039FC10BD05
:103560000008014070B5044601F096FA0546074888
:103570000068854204D200F00BF80120206001E0D1
:103580000020206001480560284670BDEC02002044
:103590002DE9F84334E025480068C06805682348F1
:1035A0000068C068C468201D00F0B8FA2046216A8F
:1035B000884794F8240000F0040008B3A069461975
:1035C000AE4207D966602461211D1848006800F0EA
:1035D000C9FA15E0002003462A460146009020461D
:1035E00001F0BCFC074657B900BFA02080F311884A
:1035F000BFF34F8FBFF36F8F00BF00BFFEE700BF69
:103600000A480068006808B9012000E0002000288E
:10361000C1D00648D0F8008005480068034908601A
:103620000348C0F80080BDE8F8830000DC020020F9
:10363000E00200200E480068401C08B9012000E0AC
:10364000002050B900BFA02080F31188BFF34F8F36
:10365000BFF36F8F00BF00BFFEE700BFA02080F365
:103660001188BFF34F8FBFF36F8F00BF00BFFEE71E
:103670009802002008B500BF6846FFF795FC044695
:1036800020460099FFF7EEFEFFF750FEF4E770B515
:10369000044600F08DFA94F9455010E0606A08B9CC
:1036A000012000E0002038B904F1240001F05EFBA5
:1036B00018B100F031FC00E003E0681E45B2002DB7
:1036C000ECDC00BFFF2084F8450000F09BFA00F01E
:1036D0006FFA94F9445010E0206908B9012000E025
:1036E000002048B904F1100001F040FB08B100F0DF
:1036F00013FC681E45B200E001E0002DECDC00BFC9
:10370000FF2084F8440000F07DFA70BD00BF084936
:10371000098801F080010029F9D00549091D0880B8
:1037200000BF0349098801F080010029F9D07047E2
:10373000003801402DE9F04104464FF0000800F048
:10374000E9FC4948006808B9FFF742FC47480068AF
:103750002040002870D1D4B1083404F00700B0B183
:1037600004F00700C0F10800044404F0070008B9A1
:10377000012000E0002050B900BFA02080F3118894
:10378000BFF34F8FBFF36F8F00BF00BFFEE7002C6A
:1037900052D03748006884424ED8364E30460568CD
:1037A00001E02E462D686868A04202D228680028F1
:1037B000F7D12D48006885423ED0306800F10808F6
:1037C000286830606868001B102819D92F1907F085
:1037D000070008B9012000E0002050B900BFA02078
:1037E00080F31188BFF34F8FBFF36F8F00BF00BF0F
:1037F000FEE76868001B78606C603846FFF7E0FC05
:103800001B4968680968081A194908600846006871
:1038100019490968884203D21548006816490860AA
:1038200012496868096808436860002028601348E6
:103830000068401C1149086001F0E4FA08F0070034
:1038400008B9012000E0002050B900BFA02080F39B
:103850001188BFF34F8FBFF36F8F00BF00BFFEE72C
:103860004046BDE8F0810000800200209402002064
:103870008402002078020020880200208C020020B0
:103880000648006830B10549096801F14400496CF7
:10389000491C01600148006870470000A402002034
:1038A000001F4FF080730360001F21F001030360CD
:1038B000001F034B0360143802602038704700007B
:1038C000353600080146024830F811007047000004
:1038D000146100080146024830F8110070470000EA
:1038E000146100082DE9F041044630480168304871
:1038F000006802F071FB07462E48214602683846F0
:10390000FEF7BCFE80462A4800682A49086038460F
:1039100001F0FEFF0546284A284B01F09FFD1ED20C
:10392000384601F0F5FF0546234A254B01F0D0FE4D
:1039300015D2404601F0ECFF05461F4A214B01F02D
:103940008DFD0CD2404601F0E3FF05461A4A1E4B9E
:1039500001F0BEFE03D2FEF741F8BDE8F08140461B
:1039600001F0D6FF05464FF03332184B01F0B0FEA0
:1039700006D20020FEF76EF80120FEF751F812E0A3
:10398000404601F0C5FF05464FF03332104B01F0C1
:1039900065FD06D20020FEF743F80120FEF75AF835
:1039A00001E0FEF71BF800BFD7E700000C00002085
:1039B00008000020600200209A9999999999B93FCE
:1039C0009999B9BF9999C93F9999C9BF3333C33FF1
:1039D0003333C3BF0020014908707047F002002054
:1039E00070B5054602F0BEFA04460146284602F0CC
:1039F000F3FA15F0004F4FF07F410ED0B0F13F4F7A
:103A000028BFB1EB400F0ED2B0F17C5F1DDDB1EBF2
:103A1000400F1AD313E0044617E0B0F13F4F08D926
:103A2000B1EB400F05D34FF07E51204602F0D4FA9F
:103A3000F1E7B0F17C5F08DBB1EB400F05D34FF04D
:103A40007E51204601F090FFE5E7284664F31E0012
:103A500070BD000010B500200CE00A4901EBC00168
:103A6000094A12680A60074901EBC001074A126857
:103A70004A60401C0228F0DB10220249C820FDF7F2
:103A8000B5F810BDF00400200C61000810610008BA
:103A900010B500F009F8FFF79DFF002001490870FC
:103AA00010BD00001300002010B500210348FEF7F0
:103AB00056F900210148FEF767F910BD00080040E3
:103AC00010B501210420FDF74BFD1248FEF7B0F9B7
:103AD0004FF4FA500F490880032088800E48FEF703
:103AE00055F9012211460C48FEF745F91E20002821
:103AF0000DDB00BF00BF00F01F0201219140420911
:103B0000920002F1E022C2F8001100BF00BF00BF26
:103B100010BD0000E60400200008004001460A69CC
:103B2000D1E901309860D1E90103586050688842BA
:103B300001D188685060002008611068401E106044
:103B40001068704700F1080141604FF0FF3181605B
:103B500000F10801C160016100210160704700218E
:103B60000161704710B502460B685C1C0CB9106906
:103B700007E002F1080000E04068446824689C42C5
:103B8000FAD944684C604C68A160886041600A6161
:103B90001468641C146010BD42684A6093688B60AE
:103BA000936859609160086103685B1C036070470B
:103BB00000BFA02080F31188BFF34F8FBFF36F8F3A
:103BC00000BF0E480068401C0C49086008460068A9
:103BD000012812D10A480068C0B208B9012000E0EB
:103BE000002050B900BFA02080F31188BFF34F8F91
:103BF000BFF36F8F00BF00BFFEE770479802002041
:103C000004ED00E00D48006850B900BFA02080F32B
:103C10001188BFF34F8FBFF36F8F00BF00BFFEE768
:103C200006480068401E054908600846006820B93B
:103C3000002080F3118800BF00BF70479802002069
:103C400070B506463546002E44D0083D2C46224924
:103C500060680968084008B1012000E0002050B900
:103C600000BFA02080F31188BFF34F8FBFF36F8F89
:103C700000BF00BFFEE7206808B9012000E0002077
:103C800050B900BFA02080F31188BFF34F8FBFF35E
:103C90006F8F00BF00BFFEE70F49606809680840EA
:103CA000C0B12068B0B90C49606809688843606099
:103CB00000F030FA0949606809680844074908605B
:103CC0002046FFF77DFA06480068401C044908605A
:103CD00001F098F870BD00009402002084020020DA
:103CE0009002002000204FF0E02108618861064822
:103CF00000684FF47A71B0FBF1F0401E4FF0E02104
:103D000048610720086170476402002070B5FCF725
:103D1000D5FA0446102C16D304F1E02090F8F053A5
:103D200015480078854201DB012000E0002050B9F1
:103D300000BFA02080F31188BFF34F8FBFF36F8FB8
:103D400000BF00BFFEE70D48006800F4E0600C49CA
:103D50000968884201D8012000E0002050B900BF66
:103D6000A02080F31188BFF34F8FBFF36F8F00BF88
:103D700000BFFEE770BD00009C0200200CED00E0DB
:103D8000A00200202DE9F04105460E4617462C46BC
:103D9000FFF70EFF94F94400401C10B9002084F88E
:103DA000440094F94500401C10B9002084F84500F7
:103DB000FFF728FFA06B28B93A46314604F12400EA
:103DC00000F0CCF82046FFF762FCBDE8F08100006F
:103DD00070B504460025D4B11248006808B9012026
:103DE00000E0002050B900BFA02080F31188BFF38D
:103DF0004F8FBFF36F8F00BF00BFFEE700F08AF95F
:103E000000212046FEF7B0FF00F0FCFF05463DB95B
:103E10004FF0805004490860BFF34F8FBFF36F8F9E
:103E200070BD0000D802002004ED00E02DE9F0474D
:103E300004460F464FF0000954B900BFA02080F39C
:103E40001188BFF34F8FBFF36F8F00BF00BFFEE736
:103E50000FB1012000E0002050B900BFA02080F386
:103E60001188BFF34F8FBFF36F8F00BF00BFFEE716
:103E70002048006808B9012000E0002050B900BFC8
:103E8000A02080F31188BFF34F8FBFF36F8F00BF67
:103E900000BFFEE700F03EF9174806682068C51924
:103EA0002068B04207D92068A8420BD9B54209D989
:103EB0004FF0010906E02068A84201D8B54201D9B7
:103EC0004FF001092560B9F1000F03D0A81B0021B4
:103ED000FEF74AFF00F096FF8046B8F1000F07D1C9
:103EE0004FF0805005490860BFF34F8FBFF36F8FCD
:103EF000BDE8F087D8020020B402002004ED00E005
:103F0000034909680160034909684160704700007E
:103F1000C8020020B4020020012001490860704757
:103F2000C402002070B504460D4654B900BFA0205D
:103F300080F31188BFF34F8FBFF36F8F00BF00BFB7
:103F4000FEE70548016818312046FFF70BFE012106
:103F50002846FEF709FF70BDA402002070B5054693
:103F60000E46144655B900BFA02080F31188BFF358
:103F70004F8FBFF36F8F00BF00BFFEE70648016899
:103F800018312846FFF708FE0CB14FF0FF362146E6
:103F90003046FEF7E9FE70BDA40200202DE9F0478F
:103FA00006460F4634464FF00109002E60D0606C83
:103FB00050B900BFA02080F31188BFF34F8FBFF32B
:103FC0006F8F00BF00BFFEE7206CB84201D23D46B4
:103FD00000E0256CE06AA8424AD0606C012847D115
:103FE00024480068844201D0012000E0002050B93C
:103FF00000BFA02080F31188BFF34F8FBFF36F8FF6
:1040000000BF00BFFEE7D4F82C80E562A06900F095
:10401000004010B9C5F10500A06108EB8801164AFF
:1040200002EB81016069884201D1012000E000209B
:10403000F0B1201DFFF772FD40B994F82C1001205B
:1040400088400E49096881430C48016094F82C109F
:104050000120884009490968084308490860E16A65
:1040600001EB8101044A02EB8100211DFFF794FD61
:10407000BDE8F087A402002010690020B8020020EB
:104080001CB51D4800210B468022CDE900101BA164
:104090001C4800F0C1FC0446012C02D100F034FFA2
:1040A0000446012C15D100BFA02080F31188BFF376
:1040B0004F8FBFF36F8F00BF4FF0FF301249086082
:1040C00001201249086000201149086000F07CF8C6
:1040D00010E0601C08B1012000E0002050B900BFD2
:1040E000A02080F31188BFF34F8FBFF36F8F00BF05
:1040F00000BFFEE71CBD0000D402002049444C452F
:10410000000000004D300008D0020020BC0200205A
:10411000B402002002480068401C01490860704752
:10412000D80200201D48006818B101201C49086011
:1041300032E000201A4908601A480068B0FA80F09E
:10414000C0F11F0101EB8100174A52F8200008B1AD
:10415000012000E0002050B900BFA02080F31188AA
:10416000BFF34F8FBFF36F8F00BF00BFFEE701EBC0
:1041700081020D4B03EB820042685268426000F1FD
:1041800008024368934202D1426852684260426822
:10419000D268064B1A6000BF70470000D8020020AA
:1041A000C4020020B802002010690020A4020020F0
:1041B00002460E2A01DD00207047024820F8121046
:1041C0000120F9E7280000201CB53849084600788E
:1041D0000190FF200A4610700846007800909DF874
:1041E000000000F47F609DF80020904201D1012082
:1041F00000E0002050B900BFA02080F31188BFF379
:104200004F8FBFF36F8F00BF00BFFEE79DF8000028
:1042100000F0A000264A10700720264A106009E02E
:1042200024480068401E234A10609DF800004006A4
:10423000000E00909DF8000000F080008028EFD074
:104240001C480068C0F10700042801D1012000E0EB
:10425000002050B900BFA02080F31188BFF34F8F1A
:10426000BFF36F8F00BF00BFFEE712480068000277
:10427000104A10601046008800F4E06010600B4A9D
:10428000019810700C48006840F07F600A4908608F
:104290000846006840F070400860FFF723FD0020EA
:1042A00006490860FBF7D4FF00201CBD00E400E0D5
:1042B0009C020020A002002020ED00E098020020D7
:1042C0002DE9F04104460126002722460021012065
:1042D00000F007F805462846FEF7CCFE2846BDE864
:1042E000F0812DE9F84305460E4617460DB1012031
:1042F00000E0002050B900BFA02080F31188BFF378
:104300004F8FBFF36F8F00BF00BFFEE705FB06F8BE
:1043100008F14800FFF70EFA04464CB1A14609F136
:1043200048093B464A46314628460094FEF7B1FE0E
:104330002046BDE8F883000070B505460E462C46C1
:1043400054B900BFA02080F31188BFF34F8FBFF393
:104350006F8F00BF00BFFEE7FFF72AFCD4E90F1202
:10436000206801FB0200A0600020A063206860605C
:10437000E06B401E226C216800FB0211E160FF200F
:1043800084F8440084F845009EB9206908B90120EA
:1043900000E00020A8B904F1100000F0E7FC80B1B3
:1043A0004FF0805009490860BFF34F8FBFF36F8F04
:1043B00007E004F11000FFF7C5FB04F12400FFF74C
:1043C000C1FBFFF71FFC012070BD000004ED00E001
:1043D0002DE9FF4383B0064688461D464FF000098D
:1043E000344654B900BFA02080F31188BFF34F8F2B
:1043F000BFF36F8F00BF00BFFEE7B8F1000F01D120
:10440000206C08B9012000E0002050B900BFA020B6
:1044100080F31188BFF34F8FBFF36F8F00BF00BFD2
:10442000FEE7022D02D1E06B012801D1012000E05E
:10443000002050B900BFA02080F31188BFF34F8F38
:10444000BFF36F8F00BF00BFFEE700F015FB08B998
:10445000059808B9012000E0002050B900BFA02055
:1044600080F31188BFF34F8FBFF36F8F00BF00BF82
:10447000FEE700BFFFF79CFBA06BE16B884201D316
:10448000022D28D12A4641462046FEF743FD074625
:10449000606A08B9012000E0002068B904F1240036
:1044A00000F064FC88B14FF0805032490860BFF3DF
:1044B0004F8FBFF36F8F08E03FB14FF080502D4911
:1044C0000860BFF34F8FBFF36F8FFFF79BFB012097
:1044D00007B0BDE8F083059818B9FFF793FB0020FB
:1044E000F6E7B9F1000F04D101A8FFF709FD4FF07D
:1044F0000109FFF787FBFFF70DFEFFF759FB94F962
:104500004400401C10B9002084F8440094F9450090
:10451000401C10B9002084F84500FFF773FB05A983
:1045200001A800F037FAF0B92046FEF7B6FEA0B1B8
:1045300004F110000599FFF7F5FC2046FFF7A7F8F6
:1045400000F060FC002895D14FF0805009490860C8
:10455000BFF34F8FBFF36F8F8CE72046FFF797F8BD
:1045600000F050FC86E72046FFF791F800F04AFC87
:104570000020ADE704ED00E02DE9F84F07468A463C
:1045800090461E463C4654B900BFA02080F31188D7
:10459000BFF34F8FBFF36F8F00BF00BFFEE7BAF1CD
:1045A000000F01D1206C08B9012000E0002050B9B3
:1045B00000BFA02080F31188BFF34F8FBFF36F8F30
:1045C00000BF00BFFEE7022E02D1E06B012801D13F
:1045D000012000E0002050B900BFA02080F3118826
:1045E000BFF34F8FBFF36F8F00BF00BFFEE7FFF732
:1045F0008DFB00BFA021EFF3118081F31188BFF381
:104600004F8FBFF36F8F00BF0546A06BE16B8842F1
:1046100001D3022E25D194F945B0A06B009032460B
:1046200051462046FEF776FC0BF1010088B9606A1E
:1046300008B9012000E0002050B904F1240000F086
:1046400095FB28B1B8F1000F02D00120C8F8000096
:1046500004E00BF1010040B284F845004FF001097D
:1046600001E04FF0000900BF85F3118800BF484604
:10467000BDE8F88F2DE9F74183B005460E464FF0AF
:1046800000082C4654B900BFA02080F31188BFF366
:104690004F8FBFF36F8F00BF00BFFEE70EB9206CD6
:1046A00008B9012000E0002050B900BFA02080F32D
:1046B0001188BFF34F8FBFF36F8F00BF00BFFEE7BE
:1046C00000F0DAF908B9059808B9012000E00020E7
:1046D00050B900BFA02080F31188BFF34F8FBFF304
:1046E0006F8F00BF00BFFEE700BFFFF761FAA76B47
:1046F000F7B131462046FEF7F8FB781EA06320692B
:1047000008B9012000E0002060B904F1100000F0B9
:104710002DFB38B14FF080502F490860BFF34F8F09
:10472000BFF36F8FFFF76EFA012006B0BDE8F0818E
:10473000059818B9FFF766FA0020F6E7B8F1000F00
:1047400004D101A8FFF7DCFB4FF00108FFF75AFA8C
:10475000FFF7E0FCFFF72CFA94F94400401C10B975
:10476000002084F8440094F94500401C10B9002052
:1047700084F84500FFF746FA05A901A800F00AF9F8
:10478000F0B92046FEF77CFDA0B104F124000599A4
:10479000FFF7C8FB2046FEF77AFF00F033FB002846
:1047A000A3D14FF080500C490860BFF34F8FBFF387
:1047B0006F8F9AE72046FEF76AFF00F023FB94E72D
:1047C0002046FEF764FF00F01DFB2046FEF758FD73
:1047D00000288AD00020A8E704ED00E02DE9F3418D
:1047E00082B005464FF000082C46002654B900BFA1
:1047F000A02080F31188BFF34F8FBFF36F8F00BFEE
:1048000000BFFEE7206C08B9012000E0002050B98D
:1048100000BFA02080F31188BFF34F8FBFF36F8FCD
:1048200000BF00BFFEE700F027F908B9039808B9F8
:10483000012000E0002050B900BFA02080F31188C3
:10484000BFF34F8FBFF36F8F00BF00BFFEE700BF06
:10485000FFF7AEF9A76BFFB1781EA063206810B90F
:10486000FFF70EF8A060206908B9012000E00020E1
:1048700060B904F1100000F079FA38B14FF08050BF
:1048800043490860BFF34F8FBFF36F8FFFF7BAF94B
:10489000012004B0BDE8F081039898B90EB9012059
:1048A00000E0002050B900BFA02080F31188BFF3C2
:1048B0004F8FBFF36F8F00BF00BFFEE7FFF7A2F976
:1048C0000020E6E7B8F1000F04D16846FFF718FBB7
:1048D0004FF00108FFF796F9FFF71CFCFFF768F9A6
:1048E00094F94400401C10B9002084F8440094F965
:1048F0004500401C10B9002084F84500FFF782F9FC
:1049000003A9684600F046F840BB2046FEF7B8FC15
:10491000F0B1206838B9FFF74BF9A06800F0CAF988
:104920000646FFF76FF904F124000399FFF7FAFA3E
:104930002046FEF7ACFE00F065FA002888D14FF063
:10494000805013490860BFF34F8FBFF36F8F7FE72D
:104950002046FEF79CFE00F055FA79E72046FEF768
:1049600096FE00F04FFA2046FEF78AFC0028EED0B3
:104970005EB1FFF71DF92046FEF70BFB07463946EF
:10498000A068FFF70BFBFFF73DF9002081E700006F
:1049900004ED00E070B505460C4655B900BFA020F7
:1049A00080F31188BFF34F8FBFF36F8F00BF00BF3D
:1049B000FEE754B900BFA02080F31188BFF34F8FEA
:1049C000BFF36F8F00BF00BFFEE7FFF7F1F810489D
:1049D00002686868131A0F4928680968884204D079
:1049E0006868904201D801260DE02068984207D9F6
:1049F0002068C01A20602846FFF782FA002602E0ED
:104A0000002020600126FFF7FDF8304670BD000051
:104A1000B4020020C80200202DE9FF4F85B0804677
:104A200089461746DDE912ABB800FEF783FE06465D
:104A300056B15020FEF77EFE04460CB1266304E01A
:104A40003046FFF7FDF800E000247CB10020CDE9FE
:104A500000ABCDE902403A4649464046089BFEF786
:104A60002BFB2046FEF7C0F9012501E04FF0FF3592
:104A7000284609B0BDE8F08F0549096809B9012049
:104A800005E00449096809B9022000E000207047E8
:104A9000BC020020D80200200149086870470000CD
:104AA000B40200202DE9F0414FF0000844480068AE
:104AB00000287CD143480068451C4248056015BB6E
:104AC00041480068006808B9012000E0002050B9A2
:104AD00000BFA02080F31188BFF34F8FBFF36F8F0B
:104AE00000BF00BFFEE7384807683848006836490D
:104AF00008603648076036480068401C3449086042
:104B0000FEF7EAFC00BF3348006885423CD300BF93
:104B10002D480068006808B9012000E0002020B19D
:104B20004FF0FF302B4908602DE027480068C0682F
:104B3000C4686668B54202D22648066023E0201D9C
:104B4000FEF7ECFFA06A18B104F11800FEF7E6FFCB
:104B500094F82C10012088401F49096808431E4919
:104B60000860E16A01EB81011C4A02EB8100211D12
:104B7000FFF712F81A49E06A0968C96A8842C7D380
:104B80004FF00108C4E700BF15480068C06A00EB99
:104B90008000124951F82000012801D94FF0010886
:104BA0001048006808B14FF0010805E0FFE70E4823
:104BB0000068401C0C4908604046BDE8F0810000D8
:104BC000D8020020B4020020A8020020AC0200207D
:104BD000C8020020D0020020B80200201069002086
:104BE000A4020020C4020020C002002070B50546C7
:104BF0002C460026002D55D02B480068844201D158
:104C0000012000E0002050B900BFA02080F31188EF
:104C1000BFF34F8FBFF36F8F00BF00BFFEE7606C25
:104C200050B900BFA02080F31188BFF34F8FBFF3AE
:104C30006F8F00BF00BFFEE7606C401E6064216C98
:104C4000E06A88422ED0606C60BB201DFEF766FFD4
:104C500078B9E06A00EB8000144951F8200040B9AF
:104C600094F82C10012088401149096881431048AC
:104C70000160206CE062E06AC0F10500A06194F878
:104C80002C10012088400A49096808430849086037
:104C9000E16A01EB8101054A02EB8100211DFEF76B
:104CA0007BFF0126304670BDA40200201069002061
:104CB000B802002070B505462C460026002D4DD0C8
:104CC0002749E06A0968C96A884240D2A06900F0B1
:104CD000004028B922480068C06AC0F10500A06100
:104CE000E16A01EB81011F4A02EB810160698842A0
:104CF00001D1012000E0002018B3201DFEF70EFFB7
:104D000040B994F82C100120884017490968814364
:104D10001548016012480068C06AE06294F82C10DF
:104D2000012088401049096808430F490860E16A7A
:104D300001EB81010B4A02EB8100211DFEF72CFFE4
:104D400003E007480068C06AE062012606E0044903
:104D5000206C0968C96A884200D20126304670BDBD
:104D6000A402002010690020B802002070B5064699
:104D7000F068C46854B900BFA02080F31188BFF365
:104D80004F8FBFF36F8F00BF00BFFEE704F1180025
:104D9000FEF7C4FE15480068A8B9201DFEF7BEFE48
:104DA00094F82C10012088401149096808431049E3
:104DB0000860E16A01EB81010E4A02EB8100211DCE
:104DC000FEF7EAFE04E004F118010B48FEF7E4FEEA
:104DD0000A49E06A0968C96A884204D901250120A4
:104DE0000749086000E00025284670BDD802002071
:104DF000B8020020106900209C690020A402002055
:104E0000C402002070B5002400263648006850B95E
:104E100000BFA02080F31188BFF34F8FBFF36F8FC7
:104E200000BF00BFFEE7FEF7C3FE2E480068401E2D
:104E30002C4908600846006800284FD12A480068BD
:104E400000284BD024E02948C068C46804F1180049
:104E5000FEF764FE201DFEF761FE94F82C10012081
:104E6000884023490968084321490860E16A01EB49
:104E70008101204A02EB8100211DFEF78DFE1E49B3
:104E8000E06A0968C96A884202D301201B490860A8
:104E90001648006808B9012000E000200028D2D0A0
:104EA0000CB1FEF719FB1648056865B100BFFFF7A6
:104EB000F9FD10B10120114908606D1E002DF6D1D9
:104EC00000200F4908600D48006838B101263007FE
:104ED0000C490860BFF34F8FBFF36F8FFEF792FE50
:104EE000304670BDD8020020B00200209C6900202E
:104EF000B802002010690020A4020020C402002093
:104F0000C002002004ED00E01CB50024FDF7C6FF40
:104F10000D48006850B10D4802210023CA01CDE9B7
:104F200000100BA10C48FFF777FD044654B900BFF1
:104F3000A02080F31188BFF34F8FBFF36F8F00BFA6
:104F400000BFFEE720461CBDE4020020E80200206E
:104F5000546D722053766300753600082DE9FE43C8
:104F600004460D4616461F46DDF828804FF000091E
:104F700054B900BFA02080F31188BFF34F8FBFF357
:104F80006F8F00BF00BFFEE71448006810B30095A4
:104F900001960294062D15DAFFF76EFD022808D15E
:104FA0000023424669460D480068FFF711FA814622
:104FB00010E000231A46694608480068FFF708FA1F
:104FC000814607E000233A46694604480068FFF737
:104FD000D3FA81464846BDE8FE830000E402002083
:104FE00021F00042A2F16052B2F5801F01F00043AF
:104FF00028BFD2F17F6C0BD95FEA001C43EAC202E2
:1050000042EB507018BF704728BF20F00100704776
:10501000B2F5801FBCBF184670474FEA410C1CF523
:10502000001F02D2084600F066BF70B500F0FCFA1F
:1050300000000089FFF7F6BF4FF00040A0F58000A8
:105040007047000010B591EA030F48BF83F000439A
:1050500000F17C83841A71EB030C05D2121943EB27
:105060000C03001B61EB0C01DFF824E14FEA115443
:10507000A4EB135C1EEA430F18BF9EEA445F73D093
:1050800023EA0E03DCF1200E21EA045143F48013DD
:1050900032D322FA0CFE10EB0E0023FA0CFE41EB89
:1050A0000E01CCF1200E03FA0EFE10EB0E0051F1B2
:1050B0000001B1F5801FCCF1200E32D201EB04517A
:1050C00012FA0EF2BDE8104058BF7047401C38BFBE
:1050D0005FEA420218BF7047002814BF20F00100A9
:1050E00041F100014FEA410313F5001F38BF70473B
:1050F000A1F1C04100F0E6BA012A43EB0302ACF192
:10510000200CDCF11F0E32BF4FF0000E23FA0CF31F
:1051100010EB030041EB0451B4EB115FD0D0A1EBD5
:10512000045101F5801149085FEA300001EB045198
:105130000ED350F1000038BF12FA0EFE08D1BDE8C0
:105140001040C9E7401C38BF5FEA4202CAD1C3E73A
:10515000BDE810404FEA410313F5001F38BF704708
:10516000A1F1C04100F0AEBA9EEA445F08D011EA56
:105170005E0FBDE8104004BF01F000410020704701
:10518000BDE8104070B500F04FFA00BF64FBBE3EB2
:105190000000E0FF491058BFC1F140415B1058BF0B
:1051A000C3F140438B42EFF3008070472DE9C041CB
:1051B00030B4DFF8A0C23CEA111418BF3CEA131463
:1051C00000F0EC8081EA03051CEA111444EAD5746E
:1051D00018BF1CEA131500F0C780A4EB05044FF0BC
:1051E000004545EAC12145EAC32341EA505143EA5B
:1051F000525304F17F74994204F500344FEAC02001
:105200004FEAC22208BF904200F09C804FEA13652B
:105210000FF24016765D4FEA134506FB05F7C7F11E
:10522000807706FB07F74FEAD737A7FB036876427C
:10523000C8F58038A7FB06CE38BFA8F1010807FBE8
:1052400008E64FF0000EA6FB028CE6FB03CEDCF175
:10525000000CCEF1004E38BFAEF1010EA6FB0C588B
:105260004FF000074FF00005E6FB0E87A1FB08C6D4
:10527000A0FB07CE16EB0E0645F10005E1FB076526
:1052800015F1E04E7EBFA4F580345FEA46066D411D
:1052900016F1800745F100054FEA17274FEA066629
:1052A00047EA0567A6F1DE46B6F1805F4FEA1525AD
:1052B0001FD9384624F0010C05EBC471BCF1FE6F18
:1052C00001EB0C1102D8F0BCBDE8008124425CBFA8
:1052D00001F5801E9EEAC47F02D4F0BCBDE80081C7
:1052E000244238D4F0BCA1F1C041BDE8004100F037
:1052F000E9B94FEAD22242EA43524FEAD323A7FB4D
:1053000002864FEAD02040EA415007FB03661EEABE
:105310000E0F4FEAD12105FB026658BFA6EB0056DF
:10532000B6EB00564FEA520E4EEAC37E18EB0E0E55
:1053300056EB530EBDD518EB02085E417F1C55F1AC
:105340000005B6E74FF480154FF000074FF0000658
:105350004FF00008ADE7F0BC4FF0000001F1C04194
:1053600001F00041BDE8008111EA0C1F0CEA1315A1
:1053700000D00CE013EA0C1F00F025804FF0000075
:10538000F0BC81EA030101F00041BDE80081F0BCFE
:10539000BDE8004181EA030100F094B9F0BCBDE82A
:1053A000004170B500F040F9097EFC3E00F007B8FE
:1053B00081EA03014FF0000001F00041704781EAEB
:1053C000030100F07FB9F0BCBDE800414FF00000E0
:1053D00021497047FFFDFBF9F7F5F4F2F0EEEDEB34
:1053E000E9E8E6E4E3E1E0DEDDDBDAD8D7D5D4D3E3
:1053F000D1D0CFCDCCCBCAC8C7C6C5C4C2C1C0BF2F
:10540000BEBDBCBBBAB9B8B7B6B5B4B3B2B1B0AF34
:10541000AEADACABAAA9A8A8A7A6A5A4A3A3A2A118
:10542000A09F9F9E9D9C9C9B9A99999897979695D3
:1054300095949393929191908F8F8E8E8D8C8C8B6F
:105440008B8A8989888887878685858484838382F7
:10545000828181800000FF070000F87F51EA030C81
:1054600017D41CF5801F58BFBCF5801F00F10680C3
:10547000994218BF704708BF9042704707D711F58F
:10548000801F58BF13F5801F19D499427047894275
:1054900070471CF5801F08D5BCF5801FF7D58B42DF
:1054A00018BF704708BF824270474FF4001C1CEBC6
:1054B000410F38BF1CEB430F01D28B42704770B5D0
:1054C00000F0B2F8922449004FF000514FF08053A1
:1054D000FFF760BEDFF848C170B51CEA111E1EBFA1
:1054E0001CEA13159EEA0C0F95EA0C0F00F06F8072
:1054F00081EA030423EA4C134EEAD47E21EA4C11DC
:1055000041F4801143F48013AE44A1FB024CA0FB94
:105510000365AEF17F7E361955EB0C05A1FB034CFC
:105520004CF10003A0FB021C16EB0C06654153F185
:105530000003094218BF46F0010613F4007F0BD1A7
:105540004FEA03314FEA0530340341EA155140EA8E
:1055500016506FF003020AE04FEAC3214FEAC5205C
:10556000F40241EA555140EA56506FF0020202EB54
:105570002E4201EB025585EACE710AD05FEA440C57
:1055800018BF24F0004450F1000041F1000120EA6E
:10559000D47040F2FE7C624500D270BDA84214BFB8
:1055A0004FF080444FF04044002E08BF0024BEF16D
:1055B000806FA8BFA1F1C041BDE8704080F2828039
:1055C0004FF0000001F1C04101F0004170479EEA38
:1055D0000C0F0CEA131518BF95EA0C0F06D04FF00C
:1055E000000081EA030E0EF0004170BD00F01CF8CF
:1055F0008900013E00F007B800F009B84FEA430CFB
:105600005FEA5C5C08D081EA030100F05BB84FEA16
:10561000410C5FEA5C5CF6D14FF000000149704735
:105620000000FF070000F87F0EF1020E2EF0030EBF
:105630005EF8046B364205D4012A43EB030515F5E9
:10564000001F12D8012841EB010C1CF5001F0CD8DB
:105650000ED14FEAD17C15F5001F0CEB4C0C0CF170
:10566000020C08BF4CEBD37C04E04FF0080C01E0C7
:105670004FEAD37C0CEB4C0526FA05F606F007063C
:10568000B6F1040C06D20EEB860CBDE870404CF06F
:10569000010C6047DFE80CF0090B02024FF00041FB
:1056A0004FF00000A1F5002170BD194610460128F9
:1056B00051EB010418BFD4F5001484BF002001F0A1
:1056C000004170BD0808A0F500114FEA3101704794
:1056D00053EA010C17D41CF5801F58BFBCF5801F7E
:1056E00000F106808B4218BF704708BF82427047A6
:1056F00007D713F5801F58BF11F5801F19D48B42AF
:1057000070479B4270471CF5801F08D5BCF5801F71
:10571000F7D5994218BF704708BF904270474FF4C1
:10572000001C1CEB430F38BF1CEB410F01D2994208
:1057300070470FB40CBC03BCFFF7C1BE10B591EAB3
:10574000030F48BF83F000433FF584AC841A71EB2C
:10575000030C07D212198CF0004C43EB0C03001B16
:1057600061EB0C01DFF8A4E14FEA1154A4EB135CE8
:105770001EEA430F18BF9EEA445F00F0B08023EAA0
:105780006E03524221EA0451C3EB6E0338BF5B1E25
:10579000DCF1200E25D322FA0CFE10EB0E0043FAAA
:1057A0000CFE41EB0E01CCF1200E03FA0EFE10EBC5
:1057B0000E0051F10001CCF1200E29D412FA0EF2A4
:1057C00001EB0451BDE8104058BF7047401C1CBF9E
:1057D000B2F1004F704700280CBF491C20F00100B7
:1057E000704712EB020E43EB030218BF4FF0010E9D
:1057F0004EEA4202ACF1200CDCF11E0E54D943FA01
:105800000CFE10EB0E0051F1FF31CCF11E0ED5D580
:105810000EF1010E12FA0EFE404141EB010101EBC7
:10582000445C5FEA5C5C10D910EBDE7001EB045164
:1058300038BFBEF1004FBDE8104018BF70470028C8
:105840000CBF491C20F00100704730D24FEAD42C25
:1058500011F5001124F400641BD0B1FA81F20B3A67
:10586000A41AA41ED2F12003914030FA03F3194385
:10587000904001EBCC71002C01EB0451BDE81040CD
:10588000A8BF704701F1C0414FF0000001F0004196
:105890007047B0FA80F310FA03F100D110BDE41A9A
:1058A000173C4805C90AE4E701EB045110BD491053
:1058B00001EB0451BDE810404FEA300002E04FF028
:1058C000000170474A0008BF0042F8D0B2F5001F3F
:1058D00028BF704701F000414FF0000070479EEA7A
:1058E000445F07D011EA5E0FBDE8104004BF0021FD
:1058F00000207047BDE8104070B5FFF795FE00BF6F
:1059000040DFF63E83F00041104670470000E0FFA4
:1059100043004FEAD30C4FEA3C0C43401FBF400703
:105920000CF1605113F0FE4F70471CF0006F03D173
:1059300000200CF0004170470CF0004343EA507027
:1059400010B540EACC0000F090FA00BF00000092D1
:105950004FEA0001FFF7B6BE4FF000414FF00000E4
:10596000A1F500217047000090EA010F48BF81F0C7
:10597000004100F13883421A3CBF801A89184FEA6F
:10598000D0524FF07F4C1CEA410FA2EBD15318BF0D
:105990009CEA026F00F03B804FF0004C4CEA002084
:1059A0004CEA012121FA03FC10EB0C0C1ED202F18F
:1059B000FF325FEA1C2040EBC25038BF70471CF03A
:1059C0007F0F4FEA400C18BFBCF17F4F38BF7047C4
:1059D000C3F12003994008BF20F00100BCF17F4FC4
:1059E00038BF7047A0F1C04000F085BA4FEA3C00D4
:1059F000000A40EBC25028BF1CF0FF0F4FEA400CDA
:105A0000E6D018BFBCF17F4F38BF7047EAE79CEA89
:105A1000026F05D010EA5C0F08BF00F0004070472D
:105A200010B500F022FA00BF64FBBE3E401058BF24
:105A3000C0F14040491058BFC1F140418142EFF3ED
:105A4000008070474FF47F0C1CEAD0121EBF1CEA86
:105A5000D11392EA0C0F93EA0C0F00F0858090EAC4
:105A6000010F48BF42F4807240F4000C41F4000082
:105A70002CF07F4120F07F4000B58142A2EB030271
:105A80000FF2081CACEB504EC0F100009EF800E095
:105A90004FEA4E0E00FB0EFC38BF49004FEA2C1CAB
:105AA00002F5FA020CFB0EF34FEACE1E4FEA112C60
:105AB0004FEAC1210EEB635E42EB22420EFB0CFC6F
:105AC0004FEA1C5300FB03114FEA112C4FEA01313E
:105AD0000EFB0CFC4FEADC4C00FB0C11C14228BF52
